:0F03F900BBB6D3ADCAB9D3C3D1C7C1FAC5C9000A
:1003A900900060E0B4010FE4F0B2807BFF7A03793A
:0703B900F97D0F12030E2273
:10037D00E4F594F593F592F591F596F595F5B2F5BD
:10038D00B1F5B4F5B3F5CAF5C9F5CCF5CBF5E2F594
:0C039D00E11203C01203E91203A980FB67
:1002C900440009FD000102440019FD000103440036
:1002D90011FD000104440015FD00012144000DFD3C
:1002E90000018849004FFD000601015B76345D4934
:0B02F9000000FD000701015B6D335D9C
:10030E00AF057E00900058EEF0A3EFF090001D7444
:10031E00FDF0E4A3F0EF2402A3F0A37401F0A3F028
:10032E00900058E0FEA3E0FF78227C007D011201D0
:10033E00167B017A00791D900058A3E02405FD027A
:02034E0003505A
:05000300AF05020350EF
:1003D5007E09EF2430900056F07B017A00794F7D3D
:0403E50009020350B6
:0B0408007B017A0079007D090203509F
:09030400410060004200610000AC
:0300430002028135
:10028100C0E0C083C082C0D0E59A30E028539AFE16
:10029100900000E02400F582E43400F583E59BF052
:1002A100900000E004F0E0B401069000007401F059
:1002B100900000E4F0E59A30E105539AFDC200D0C8
:0802C100D0D082D083D0E032DE
:03000B00020224CA
:10022400C0E0C083C082C0D0900062E004F07006D9
:10023400900061E004F0C3900062E094D09000610B
:10024400E094074009E4F0A3F090006004F090000B
:1002540000E0B40106900000E004F0900000E0C368
:10026400940A4010A3E4F0900000F0900000F09095
:0D027400000004F0D0D0D082D083D0E03262
:090413002000FDEFD200F59B2250
:10000E0090005DEBF0A3EAF0A3E9F090005DE0FB59
:10001E00A3E0FAA3E0F912013C601790005DA3E49F
:10002E0075F001120182A9F0FA12013CFF120413BD
:03003E0080D92244
:0B03500090005AEBF0A3EAF0A3E9F0E4
:10035B00E4FEEEC39D501A90005AE0FBA3E0FAA313
:10036B00E0F98E82758300120155FF1204130E8083
:01037B00E1A0
:01037C00225E
:1003C00053BAFE759A5075D7E875D6FF438E1475EB
:0503D000AF01D2AF22D5
:1003E900438E80758ACD758CD4D28CD2A9D2AF2296
:0300000002019862
:0C019800787FE4F6D8FD7581200201DFBD
:10004600E709F608DFFA8046E709F208DFFA803E9C
:1000560088828C83E709F0A3DFFA8032E309F60889
:10006600DFFA8078E309F208DFFA807088828C83F1
:10007600E309F0A3DFFA806489828A83E0A3F608A5
:10008600DFFA805889828A83E0A3F208DFFA804C7F
:1000960080D280FA80C680D4806980F28033801056
:1000A60080A680EA809A80A880DA80E280CA8033BF
:1000B60089828A83ECFAE493A3C8C582C8CCC58337
:1000C600CCF0A3C8C582C8CCC583CCDFE9DEE78007
:1000D6000D89828A83E493A3F608DFF9ECFAA9F086
:1000E600EDFB2289828A83ECFAE0A3C8C582C8CCDC
:1000F600C583CCF0A3C8C582C8CCC583CCDFEADEF5
:10010600E880DB89828A83E493A3F208DFF980CC56
:1001160088F0EF60010E4E60C388F0ED2402B4044F
:100126000050B9F582EB2402B4040050AF232345F6
:0601360082239000967385
:10013C00BB010689828A83E0225002E722BBFE02C1
:09014C00E32289828A83E49322F4
:10015500BB010CE58229F582E5833AF583E022505F
:1001650006E92582F8E622BBFE06E92582F8E222A9
:0D017500E58229F582E5833AF583E49322C3
:10018200A3F8E0C5F025F0F0E58215827002158330
:06019200E0C838F0E8228D
:1001A40002037DE493A3F8E493A34003F68001F2F1
:1001B40008DFF48029E493A3F85407240CC8C3335C
:1001C400C4540F4420C8834004F456800146F6DF2B
:1001D400E4800B01020408102040809002C9E47EF0
:1001E400019360BCA3FF543F30E509541FFEE49320
:1001F400A360010ECF54C025E060A840B8E493A3E7
:10020400FAE493A3F8E493A3C8C582C8CAC583CA11
:10021400F0A3C8C582C8CAC583CADFE9DEE780BEC9
:01030D0000EF
:00000001FF
