:103A4900CEC2B6C8A3BA25642000CAAAB6C8A3BA0A
:043A590025642000C0
:10000E00410B7900410B7400410B7500410B7601D9
:05001E00420B77000019
:1039FE00E4F5937594FFF591F592F595F596F5B17D
:0B3A0E00F5B2F5B3F5B4F5C9F5CA2216
:103A7100538E7F5389F0758A66758CFCC28DD28C0A
:033A8100D2A922A5
:1023B2001239FE123A71D2AF123AD4123978123966
:1023C200E0122DB2E4FFFE1235CF900936E4F0A3FD
:1023D200748CF0A374BCF0A37440F07B147A007D7B
:1023E200287C007F147E00122601900936E4F0A3B7
:1023F200748CF0A374BCF0A37440F07BC87A007DA7
:0A2402008C7C007F147E001226017E
:10240C00C280900B79E060F8E4F012321DE4900980
:10241C0036F0A3F0A37410F0E4A3F0A374FFF0A3C0
:10242C00743AF0A37449F0900B58E0FCA3E0FDA3C0
:10243C00E0FEA3E0FF120C4890093DEEF0A3EFF094
:10244C007BE07A077DA57C007F507E00123379E417
:10245C00900936F0A3F0A37410F0E4A3F0A374FF7A
:10246C00F0A3743AF0A37453F0900B54E0FCA3E087
:10247C00FDA3E0FEA3E0FF120C4890093DEEF0A393
:10248C00EFF07B7C7A7D7DCD7C007F507E0012331B
:10249C0079900B76E0FB7A002413FFEA33FEC0063A
:1024AC00C007900B74E0FFC3748C9FFDE49400FC98
:1024BC00C004C005EB2414FBEA33FAC002C003903D
:1024CC000B58E0FCA3E0FDA3E0FEA3E0FF120C48D8
:1024DC00C3748C9F900937F0E49E900936F09009F4
:1024EC00387407F0A374E0F0D003D002D005D00408
:1024FC00D007D006122601900B58E0FCA3E0FDA3F8
:10250C00E0FEA3E0FF120C48900B74EFF0900B76FA
:10251C00E0FB7A002413FFEA33FEC006C007900BE1
:10252C0075E0FFC3748C9FFDE49400FCC004C005EF
:10253C00EB2414FBEA33FAC002C003900B54E0FC0A
:10254C00A3E0FDA3E0FEA3E0FF120C48C3748C9F34
:10255C00900937F0E49E900936F0900938747DF0BC
:10256C00A314F0D003D002D005D004D007D00612AB
:10257C002601900B54E0FCA3E0FDA3E0FEA3E0FFDA
:10258C00120C48900B75EFF0A3E004F0E0C394B488
:10259C00500302240C7401F0900936E4F0A3748CFF
:1025AC00F0E4A3F0A3F07BC8FA7D28FC7F14FE12A4
:1025BC0032CD900936E4F0A3748CF0A374BCF0A374
:1025CC007440F07B147A007D287C007F147E00120E
:1025DC002601900936E4F0A3748CF0A374BCF0A32C
:1025EC007440F07BC87A007D8C7C007F147E0012D6
:0225FC002601B6
:0325FE0002240CA8
:03000B0002385464
:10385400C0E0C0F0C083C082C0D075D000C000C03A
:01386400065D
:10386500900B77E475F001120FFDFEC3E5F094644B
:10387500EE9400400CB287900B77E4F0A3F0A3041C
:01388500F052
:0F388600D006D000D0D0D082D083D0F0D0E032A6
:073AD400D292D2CDD2C7222D
:103A3300E4FEEF3392CDEF25E0FFC292D2920EEE79
:053A4300B408EFD2CD34
:013A4800225B
:10381100900B12EBF0A3EAF0A3E9F0A3ECF0A3ED17
:01382100F0B6
:10382200C2C7E4FDFCD3900B16E09D900B15E09C03
:10383200401D900B12E0FBA3E0FAA3E0F98D828C0D
:1038420083120F8AFF123A330DBD00010C80D6D2CB
:01385200C7AE
:013853002252
:0B3A9700EF1FAC0670011E4C70F62201
:0B3AA200D2A1D2A000C2A100C2A0224D
:0B3AAD00C2A1D2A000D2A100C2A02242
:043A8400FF123A5D96
:0E3A8800D2A100D2A000A2A19200C2A0A20072
:013A9600220D
:0A3AB800C2A1D2A000C2A0D2A12238
:103A5D00E4FEEF25E0FF92A100D2A000C2A00EEE81
:033A6D00B408EFAB
:013A70002233
:103A1900E4FFD2A1FEEF25E0FFD2A000A2A1E4338A
:093A29004FFFC2A00EEEB408EC40
:013A32002271
:10399D00123AA2EF25E0123A8450028013120F71F1
:1039AD00123A8450028009900001120F8A123A8453
:0439BD00123AAD22EB
:0B371E0090093DEBF0A3EAF0A3E9F0F6
:10372900123AA2EF25E004123A845007123AADE4A6
:10373900FEFF22E4FD900940E0FFEDC39F502A12ED
:103749003A1990093DE0FBA3E0FAA3E0F98D8275EF
:103759008300EF120FC9900940E014B50505123A2C
:0D376900AD8003123AB80D80CC7E007F01C8
:013776002230
:1000230065F0034000000000000000000000000035
:100033000000000000000008080808080808000085
:100043001818000000486C24120000000000000093
:10005300000000000000002424247F1212127F12EB
:10006300121200000000081C2A2A0A0C1828282A49
:100073002A1C080800000022251515152A58545477
:10008300542200000000000C1212120A76252911D6
:10009300916E00000006060403000000000000004B
:1000A300000000000040201010080808080808108D
:1000B300102040000002040808101010101010084F
:1000C300080402000000000008086B1C1C6B0808F1
:1000D3000000000000000000080808087F08080866
:1000E3000800000000000000000000000000000005
:1000F300060604030000000000000000FE000000EC
:1001030000000000000000000000000000000000EC
:10011300060600000000804040202010100808045C
:1001230004020200000000182442424242424242BA
:1001330024180000000000080E0808080808080832
:10014300083E00000000003C424242202010080408
:10015300427E00000000003C424220182040404202
:10016300221C0000000000203028242422227E20AC
:10017300207800000000007E0202021A264040425E
:10018300221C0000000000382402021A26424242C8
:10019300241800000000007E22221010080808081E
:1001A300080800000000003C424242241824424256
:1001B300423C000000000018244242426458404080
:1001C300241C0000000000000000181800000000BC
:1001D30018180000000000000000000800000000E4
:1001E300000808040000004020100804020408105E
:1001F300204000000000000000007F0000007F009E
:100203000000000000000002040810204020100835
:10021300040200000000003C42424640201010004F
:10022300181800000000001C225A555555552D4240
:10023300221C00000000000808181414243C224269
:1002430042E700000000001F2222221E22424242F7
:10025300221F00000000007C424201010101014213
:10026300221C00000000001F22424242424242423E
:10027300221F00000000003F4212121E121202420F
:10028300423F00000000003F4212121E12120202FF
:10029300020700000000003C22220101017121221B
:1002A300221C0000000000E7424242427E424242DA
:1002B30042E700000000003E080808080808080894
:1002C300083E00000000007C1010101010101010E9
:1002D3001010110F0000007722120A0E0A121222C8
:1002E300227700000000000702020202020202025B
:1002F300427F000000000077363636362A2A2A2A43
:100303002A6B0000000000E346464A4A52525262FA
:10031300624700000000001C22414141414141412C
:10032300221C00000000003F424242423E02020201
:10033300020700000000001C2241414141414D538E
:10034300321C60000000003F4242423E1212222251
:1003530042C700000000007C4242020418204042D1
:10036300423E00000000007F49080808080808080A
:10037300081C0000000000E742424242424242425F
:10038300423C0000000000E74242222424141418D7
:10039300080800000000006B4949494955553622B9
:1003A30022220000000000E7422424181818242405
:1003B30042E700000000007722221414080808080E
:1003C300081C00000000007E2120101008040442D5
:1003D300423F0000007808080808080808080808D1
:1003E300080878000000020204040808081010201E
:1003F30020204040001E101010101010101010107C
:1004030010101E000038440000000000000000002F
:1004130000000000000000000000000000000000D9
:10042300000000FF000608000000000000000000BC
:1004330000000000000000000000003C427844423D
:1004430042FC0000000000030202021A264242425C
:10045300261A0000000000000000003844020202D7
:10046300443800000000006040404078444242426B
:1004730064D80000000000000000003C427E02023D
:10048300423C0000000000F08808087E08080808C5
:10049300083E0000000000000000007C22221C0235
:1004A3003C42423C000000030202023A46424242FE
:1004B30042E700000000000C0C00000E08080808CA
:1004C300083E0000000000303000003820202020CB
:1004D3002020221E0000000302020272120A1612DA
:1004E300227700000000000E080808080808080822
:1004F300083E0000000000000000007F92929292EC
:1005030092B70000000000000000003B4642424258
:1005130042E70000000000000000003C424242426B
:10052300423C0000000000000000001B2642424243
:10053300221E0207000000000000007844424242ED
:10054300447840E000000000000000774C040404FD
:10055300041F0000000000000000007C42023C4039
:10056300423E0000000000000008083E080808089A
:1005730008300000000000000000006342424242D5
:1005830062DC000000000000000000E742242414A5
:100593000808000000000000000000EB4949555521
:1005A3002222000000000000000000762418181822
:1005B300246E000000000000000000E74224241421
:1005C30018080807000000000000007E2210080839
:1005D300447E000000C02020202020102020202066
:1005E3002020C00010101010101010101010101048
:1005F300101010100006080808080810080808085A
:10060300080806000C32C2000000000000000000D1
:10061300000000005A0000D6D0200020002000FE79
:1006230003220222022202FE0322022000200020D3
:10063300006132020ECFB5001CFE0320002008101B
:1006430004FC03800040042008FC1F8010900490E9
:10065300088810A4104000CDB3080108020412E476
:100663003F12019F084810E43F82249F04820480C4
:10067300045844474422781000C6F480000021F84F
:100683007F082008200820F83F08000820F87F187A
:1006930020142014201220F13F1020B6AF000210C6
:1006A300023E020022A07F7F220822082204222485
:1006B3002242217F218220802040142008D6D0802E
:1006C3000080008020FE7F8220822082208220FE04
:1006D3003F8220800080008000800080008000CE68
:1006E300C20000C41F48104810C11F42104210C866
:1006F3001F0800E43F2725242524252425F47F0013
:1007030000B6C880000001FC7F44044404FC3F445D
:10071300044404C4070400F40F2408420482036160
:100723000C1C70CAAA0000E41F28102810E11F2225
:10073300102210E81F880484049724A414C40C8492
:1007430004F47F0000A3BA000000000000000000D2
:100753000000000000000000000C000C0000000C72
:10076300000C00000000006172009CCFB500000087
:1007730000800FFCFF1FFCFF1FF81E00000F03800B
:100783008307C0C103F0FF01F07F00201C03008F2B
:1007930007C0030EF8FF1FF8FF3F10381040380161
:1007A300C0B907E0380F70381E3C383C1C3E1800B7
:1007B3001E00000000CDB300800030C00170800136
:1007C30030800338000318FE7F0CFE7F8CE100C6E7
:1007D300E100FE710EFE380C601C1C70FE3F38FCFD
:1007E3007F186033FE6103FE61033E600300600314
:1007F300803303FC3B23FE19631E1E7F000F7EC65E
:10080300F4003800003800F0FF3FF0FF3FF0FF3FF7
:10081300700038700038700038F0FF3FF0FF3FF091
:10082300FF3F700000700000F0FF3FF0FF3FB8FF94
:100833003FB803389803389C03388CFF3F8EFF3F43
:1008430086FF3F840338000000B6AF0080030080BA
:1008530003FC8701FC8701FC870100800100F87F0E
:1008630000F87FFECF31FECF31E0C03160C0317080
:10087300C03170C33030C73038E63818E738FC6F02
:1008830038FE7F383E3C38043C3F001F1F000F0EEC
:10089300000600D6D00038000038000038000038C9
:1008A30000003800F8FF3FF8FF3FF8FF3F383838C3
:1008B300383838383838383838383838383838F8F5
:1008C300FF3FF8FF3FF8FF3F383838003800003863
:1008D3000000380000380000380000380060820053
:1008E3001AB5E7000000000000000000E00000006F
:1008F300E0000000E0000000E0000000E00000F87D
:10090300FFFF03F8FFFF0338E0800338E08003387C
:10091300E0800338E0800338E08003F8FFFF03F84A
:10092300FFFF0338E0800338E0800338E0800338BA
:10093300E0800338E08003F8FFFF03F8FFFF03388C
:10094300E0000038E0000038E0000000E000700044
:10095300E0003800E0013800C0FF3F0080FF1F00C7
:0309630000000091
:08364E00900B7AEEF0A3EFF0FF
:10365600900B18E4F0A374EFF0FB7A00E4FDFCFF96
:10366600FE123895E4900B7CF0A3F0E4900B7EF00C
:10367600A3F0900B7AE0FEA3E0FF123907900B7FD0
:10368600E004F07006900B7EE004F0C3900B7FE040
:1036960094F0900B7EE0940040D8900B7DE004F00F
:1036A6007006900B7CE004F0C3900B7DE094F090E4
:0736B6000B7CE0940040B41E
:0136BD0022EA
:0435CF00AD07AC0692
:1035D300E4FBFAC3EB94E0EA9401502374332BF534
:1035E3008274093AF583EDF0ECFF74322BF58274A3
:1035F300093AF583EFF074022BFBE43AFA80D49096
:103603000B18E4F0A374EFF0FB7A00E4FDFCFFFE7B
:10361300123895E4900930F0A3F0D2CBC2C77B01F6
:103623007A0979327DE07C01123811D2C7900931D1
:10363300E004F07006900930E004F0C3900931E033
:0A36430094F0900930E0940040D0AC
:01364D00225A
:1032CD00900930EEF0A3EFF0A3ECF0A3EDF0A3EA3C
:0432DD00F0A3EBF07F
:1032E100C006C00724FFFBEA34FFFAA3E0FEA3E017
:1032F10024FFFFEE34FF900B18F0A3EFF0D007D0BE
:1033010006123895900932E0FFA3E090093ACFF018
:10331100A3EFF0900936E0FEA3E0FFC390093BE084
:103321009F90093AE09E504F900930E0FFA3E09052
:10333100093CCFF0A3EFF0900934E0FEA3E0FFC316
:1033410090093DE09F90093CE09E501B900938E0B8
:10335100FEA3E0FF12390790093DE004F070D89018
:10336100093CE004F080D090093BE004F070A490A7
:07337100093AE004F0809C22
:013378002232
:1036BE00900B66FEE0FCA3E0FDC3900B62E09DFD67
:0E36CE00900B61E09CFC900B64E0FAA3E0FB23
:1036DC009009C9EEF0A3EFF09009CDEAF0A3EBF05E
:1036EC009009CBECF0A3EDF09009C9E0FAA3E0FB54
:1036FC00FFAE02C007A3E0FFA3E0900B18CFF0A32E
:10370C00EFF0D0071238959009CDE0FEA3E0FF0250
:02371C0039076B
:0E260100900930EEF0A3EFF0A3ECF0A3EDF0A3
:10260F00E490093CF0A3F0A3F0A3F0900930E0FEB2
:10261F00A3E0FFC3EB9FFFEA9E900940F0A3EFF00A
:10262F00900932E0FAA3E0FBC3900937E09BFE90DC
:10263F000936E09A900942F0A3CEF0900930E0FFFE
:10264F00A3E090094ACFF0A3EFF0A3EAF0A3EBF0D9
:10265F00900940E0FEA3E0FFD39400EE64809480E5
:10266F00400A900946E4F0A304F08021EF4E700871
:10267F00900946F0A3F0801574FF900946F0A3F07F
:10268F00C3E49FFFE49E900940F0A3EFF09009424E
:10269F00E0FEA3E0FFD39400EE64809480400A90A4
:1026AF000948E4F0A304F08021EF4E700890094828
:1026BF00F0A3F0801574FF900948F0A3F0C3E49FD6
:1026CF00FFE49E900942F0A3EFF0900942E0FEA3D1
:1026DF00E0FF900940E0FCA3E0FDD39FEE6480F89B
:1026EF00EC6480989009444007ECF0A3EDF080056E
:1026FF00EEF0A3EFF0E490093AF0A3F0900945E073
:10270F002401FF900944E03400FEC390093BE09F91
:10271F0090093AE09E40030227EE90094AE0FEA39B
:10272F00E0FFA3E0FCA3E0FD9009381236D7900933
:10273F0040E0FEA3E0FF90093DE02FF090093CE060
:10274F003EF0900942E0FEA3E0FF90093FE02FF03A
:10275F0090093EE03EF0900944E0FEA3E0FF9009AF
:10276F003CE0FCA3E0FDD39FEE6480F8EC6480981E
:10277F004020ED9FFFEC9E90093CF0A3EFF09009F5
:10278F0046E0FEA3E0FF90094BE02FF090094AE0EE
:10279F003EF0900944E0FEA3E0FF90093EE0FCA369
:1027AF00E0FDD39FEE6480F8EC6480984020ED9FAD
:1027BF00FFEC9E90093EF0A3EFF0900948E0FEA3D6
:1027CF00E0FF90094DE02FF090094CE03EF09009AA
:0F27DF003BE004F0700690093AE004F002270B8B
:0127EE0022C8
:10313700900B6EEAF0A3EBF0900B6AEEF0A3EFF0C2
:10314700A3ECF0A3EDF0C007A3E0FAA3E0FB900B1C
:103157006CE0FFA3E0900936CFF0A3EFF0900B727D
:10316700E0FFA3E0900938CFF0A3EFF0D0071226D5
:1031770001900B6AE0FAA3E0FBFFAE02C007A3E0F1
:10318700FCA3E0FD900B70E0FFA3E0900936CFF0C1
:10319700A3EFF0900B72E0FFA3E0900938CFF0A304
:1031A700EFF0D007122601900B70E0FCA3E0FD9032
:1031B7000B6EE0FAA3E0FBA3E0FFA3E0900936CF94
:1031C700F0A3EFF0900B72E0FFA3E0900938CFF087
:1031D700A3EFF0900B6AE0FEA3E0FF122601900B2D
:1031E7006EE0FAA3E0FBFFAE02C007900B6CE0FCB9
:1031F700A3E0FD900B70E0FFA3E0900936CFF0A3AA
:10320700EFF0900B72E0FFA3E0900938CFF0A3EF47
:06321700F0D007022601C1
:1027EF00900B5FEEF0A3EFF0A3ECF0A3EDF0A3EBF3
:0127FF00F0E9
:10280000E4900B66F0A3F0EBFFA3E4F0A3EFF090ED
:102810000B68E0FEA3E0FFD3900B67E09FEE6480BF
:10282000F8900B66E0648098400302298EC3900BF9
:1028300060E09FFF900B5FE09E1236BE900B68E059
:10284000FEA3E0FF900B60E02FFF900B5FE03E12D5
:1028500036BE900B66E0FEA3E0FFC3900B60E09FE6
:10286000FF900B5FE09EFE900B68E0FCA3E0FD9004
:102870000B62E02DFD900B61E03C1236D3900B66AD
:10288000E0FEA3E0FFC3900B60E09FFF900B5FE0D2
:102890009E900B681236C1900B68E0FEA3E0FF909B
:1028A0000B60E02FFF900B5FE03EFE900B66E0FCBC
:1028B000A3E0FD900B62E02DFD900B61E03C123631
:1028C000D3900B66E0FEA3E0FF900B60E02FFF903B
:1028D0000B5FE03EFE900B681236C2900B66E0FE86
:1028E000A3E0FF900B60E02FFF900B5FE03EFE90B7
:1028F0000B68E0FCA3E0FD900B62E02DFD900B6106
:10290000E03C1236D3900B68E0FEA3E0FFC3900BCF
:1029100060E09FFF900B5FE09EFE900B66E0FCA3E3
:10292000E0FD900B62E02DFD900B61E03C1236D390
:10293000900B67E004F07006900B66E004F0900BDB
:1029400068E0FCA3E0FDFFAE04120FEBAA06AB07A4
:10295000900B66E0FCA3E0FDFFAE04120FEBEF2B43
:10296000FDEE3AFC900B63E0F5F0A4FFD3ED9FE59C
:10297000F06480F8EC648098500302280F900B6993
:0E298000E024FFF0900B68E034FFF002280F17
:01298E002226
:10298F00900994EEF0A3EFF0A3ECF0A3EDF0A3EB1E
:10299F00F0A3EAF0A3E9F0900998E0FBA3E0FAA313
:1029AF00E0F9120F717003022B1990099FE0640C6C
:1029BF007044900996E0FCA3E0FD90099BE0FFA313
:1029CF00E09009A8CFF0A3EFF090099DE0FFA3E0FE
:1029DF009009AACFF0A3EFF090099FE09009ACF017
:1029EF009009A0E09009ADF0900994E0FEA3E0FFFC
:1029FF00121BC8022AFA90099FE06410704B9009CD
:102A0F0096E0FCA3E0FDA3E0FBA3E0FAA3E0F9A3AB
:102A1F00E0FFA3E09009A8CFF0A3EFF090099DE0AD
:102A2F00FFA3E09009AACFF0A3EFF090099FE090E9
:102A3F0009ACF09009A0E09009ADF0900994E0FE88
:102A4F00A3E0FF121650022AFA90099FE064187053
:102A5F004A900996E0FCA3E0FDA3E0FBA3E0FAA3F4
:102A6F00E0F9A3E0FFA3E09009A8CFF0A3EFF09067
:102A7F00099DE0FFA3E09009AACFF0A3EFF0900922
:102A8F009FE09009ACF09009A0E09009ADF090099B
:102A9F0094E0FEA3E0FF12190C805090099FE064B0
:102AAF00207067900996E0FCA3E0FDA3E0FBA3E094
:102ABF00FAA3E0F9A3E0FFA3E09009A8CFF0A3EFFA
:102ACF00F090099DE0FFA3E09009AACFF0A3EFF0EB
:102ADF0090099FE09009ACF09009A0E09009ADF04B
:102AEF00900994E0FEA3E0FF121E81900999E4750E
:102AFF00F002120FFD90099FE0FF900995E02FF073
:0B2B0F00900994E03400F00229A62297
:101BC8009009A3ECF0A3EDF0A3EBF0A3EAF0A3E9EE
:091BD800F09009A1EEF0A3EFF07A
:101BE100E49009B0F09009B7EEF0A3EFF09009ACE2
:101BF100E0FF131313541FFD7C00EF54077E0060B8
:101C0100047F0180027F00EF2DFFEE3CFE9009ACC6
:101C1100E0FD7C00120FEB9009B5EEF0A3EFF09020
:101C210009B3E4F0A304F0E49009B1F0A3F0900942
:101C3100B3E0FEA3E0FF9009B1E0FCA3E0FDC39F88
:101C4100EC9E4003021E809009A5E0FBA3E0FAA3ED
:101C5100E0F9120F71FF90000075F01AED12117B7F
:101C6100EC75F01AA42583F583E06F6003021E6F03
:101C7100900001120F8AFF9009B1A3E09000017555
:101C8100F01A12117BEC75F01AA42583F583E06F2D
:101C91006003021E6F9009A3E0FCA3E0FD9009AC74
:101CA100E0F9FF7E009009A1E0FAA3E02FFFEE3AF0
:101CB100CF24FFFBEF34FFFAE9FFA3E0F8A3E02F05
:101CC100FFEE38CF24FFCF34FF900B18F0A3EFF0D5
:101CD1009009A1E0FEA3E0FF123895E49009AEF06F
:101CE1009009AEE0FFD39009B6E09F9009B5E0946A
:101CF100005003021E6FE49009AFF09009ADE0605F
:101D010003021D9A9009B1A3E075F01AA42402F50B
:101D110082E43400F583C083C0829009AEE0D082B2
:101D2100D0832582F582E43583F583E0FD7C009044
:101D310009AFE0FF7E007401A807088005C333CE18
:101D410033CED8F9FFEE5CFEEF5D4E60059009A839
:101D510080039009AAE0FCA3E0FDECFF9009AFE04D
:101D6100FE25E024B9F582E43409F583EFF0EE2590
:101D7100E024BAF582E43409F583EDF09009B0E08E
:101D810004F09009ACE0FF9009B0E08FF084E5F039
:101D91006003021E3FF0021E4E9009B1A3E075F0F0
:101DA1001AA42402F582E43400F583C083C0829032
:101DB10009AEE0D082D0832582F582E43583F583B4
:101DC100E0FD7C009009AFE0FF7E007401A80708E8
:101DD1008005C333CE33CED8F9FFEE5CFEEF5D4E06
:101DE10060149009A1E0FEA3E0FFA3E0FCA3E0FDE5
:101DF1009009A81236D79009A2E004F07006900964
:101E0100A1E004F09009B7E0FEA3E0FFC39009A2AE
:101E1100E09FFD9009A1E09EFC9009ACE07A00B53D
:101E2100051CEAB504189009A1EEF0A3EFF09009A2
:101E3100A4E004F070179009A3E004F0800F90096A
:101E4100AFE004F0E0C394085003021CFC9009AD1C
:101E5100E07012D2CBC2C77B017A0979B97D10FC3F
:101E6100123811D2C79009AEE004F0021CE19009CA
:0F1E7100B2E004F070069009B1E004F0021C2FFB
:011E8000223F
:101650009009A3ECF0A3EDF0A3EBF0A3EAF0A3E96B
:09166000F09009A1EEF0A3EFF0F7
:10166900E49009B0F09009B7EEF0A3EFF09009AC5F
:10167900E0FF131313541FFD7C00EF54077E006035
:10168900047F0180027F00EF2DFFEE3CFE9009AC44
:10169900E0FD7C00120FEB9009B5EEF0A3EFF0909E
:1016A90009B3E4F0A37409F0E49009B1F0A3F09050
:1016B90009B3E0FEA3E0FF9009B1E0FCA3E0FDC39C
:1016C9009FEC9E400302190B9009A5E0FBA3E0FAE9
:1016D900A3E0F9120F71FF90020E75F022ED1211BD
:1016E9007BEC75F022A42583F583E06F6003021873
:1016F900FA900001120F8AFF9009B1A3E090020F3E
:1017090075F02212117BEC75F022A42583F583E094
:101719006F60030218FA9009A3E0FCA3E0FD9009A9
:10172900ACE0F9FF7E009009A1E0FAA3E02FFFEEFB
:101739003ACF24FFFBEF34FFFAE9FFA3E0F8A3E077
:101749002FFFEE38CF24FFCF34FF900B18F0A3EF13
:10175900F09009A1E0FEA3E0FF123895E49009AEEC
:10176900F09009AEE0FFD39009B6E09F9009B5E08B
:10177900940050030218FAE49009AFF09009AFE021
:10178900FFC3940840030218D99009ADE060030231
:10179900182AA3E0FE9009B1E0FCA3E090021075BD
:1017A900F02212117BEC75F022A42583F583E582E2
:1017B9002EF582E43583F583E0FD7C007E0074011B
:1017C900A807088005C333CE33CED8F9FFEE5CFEF7
:1017D900EF5D4E60059009A880039009AAE0FCA37B
:1017E900E0FDECFF9009AFE0FE25E024B9F582E4C5
:1017F9003409F583EFF0EE25E024BAF582E43409E3
:10180900F583EDF09009B0E004F09009ACE0FF90A9
:1018190009B0E08FF084E5F060030218D0F00218F7
:10182900D99009AEE0FF9009B1E0FCA3E090021065
:1018390075F02212117BEC75F022A42583F583E55E
:10184900822FF582E43583F583E0FD7C009009AFB2
:10185900E0FF7E007401A807088005C333CE33CEAC
:10186900D8F9FFEE5CFEEF5D4E60149009A1E0FE31
:10187900A3E0FFA3E0FCA3E0FD9009A81236D790EE
:1018890009A2E004F070069009A1E004F09009B7FC
:10189900E0FEA3E0FFC39009A2E09FFD9009A1E04B
:1018A9009EFC9009ACE07A00B5051CEAB5041890D5
:1018B90009A1EEF0A3EFF09009A4E004F0701190F3
:1018C90009A3E004F080099009AFE004F00217854C
:1018D9009009ADE07012D2CBC2C77B017A0979B900
:1018E9007D10FC123811D2C79009AEE004F002173E
:1018F9006A9009B2E004F070069009B1E004F002C0
:0219090016B80E
:01190B0022B9
:10190C009009A3ECF0A3EDF0A3EBF0A3EAF0A3E9AC
:09191C00F09009A1EEF0A3EFF038
:10192500E49009B0F09009B7EEF0A3EFF09009ACA0
:10193500E0FF131313541FFD7C00EF54077E006076
:10194500047F0180027F00EF2DFFEE3CFE9009AC85
:10195500E0FD7C00120FEB9009B5EEF0A3EFF090DF
:1019650009B3E4F0A37405F0E49009B1F0A3F09095
:1019750009B3E0FEA3E0FF9009B1E0FCA3E0FDC3DD
:101985009FEC9E4003021BC79009A5E0FBA3E0FA6C
:10199500A3E0F9120F71FF90009C75F04AED12114A
:1019A5007BEC75F04AA42583F583E06F6003021B89
:1019B500B6900001120F8AFF9009B1A3E090009D37
:1019C50075F04A12117BEC75F04AA42583F583E086
:1019D5006F6003021BB69009A3E0FCA3E0FD90092C
:1019E500ACE0F9FF7E009009A1E0FAA3E02FFFEE3D
:1019F5003ACF24FFFBEF34FFFAE9FFA3E0F8A3E0B9
:101A05002FFFEE38CF24FFCF34FF900B18F0A3EF54
:101A1500F09009A1E0FEA3E0FF123895E49009AE2D
:101A2500F09009AEE0FFD39009B6E09F9009B5E0CC
:101A350094005003021BB6E49009AFF09009AFE0A3
:101A4500FFC394084003021B959009ADE0600302B3
:101A55001AE6A3E0FE9009B1E0FCA3E090009E75B4
:101A6500F04A12117BEC75F04AA42583F583E582D3
:101A75002EF582E43583F583E0FD7C007E0074015C
:101A8500A807088005C333CE33CED8F9FFEE5CFE38
:101A9500EF5D4E60059009A880039009AAE0FCA3BC
:101AA500E0FDECFF9009AFE0FE25E024B9F582E406
:101AB5003409F583EFF0EE25E024BAF582E4340924
:101AC500F583EDF09009B0E004F09009ACE0FF90EB
:101AD50009B0E08FF084E5F06003021B8CF0021B77
:101AE500959009AEE0FF9009B1E0FCA3E090009E5F
:101AF50075F04A12117BEC75F04AA42583F583E550
:101B0500822FF582E43583F583E0FD7C009009AFF3
:101B1500E0FF7E007401A807088005C333CE33CEED
:101B2500D8F9FFEE5CFEEF5D4E60149009A1E0FE72
:101B3500A3E0FFA3E0FCA3E0FD9009A81236D7902F
:101B450009A2E004F070069009A1E004F09009B73D
:101B5500E0FEA3E0FFC39009A2E09FFD9009A1E08C
:101B65009EFC9009ACE07A00B5051CEAB504189016
:101B750009A1EEF0A3EFF09009A4E004F070119034
:101B850009A3E004F080099009AFE004F0021A41CE
:101B95009009ADE07012D2CBC2C77B017A0979B941
:101BA5007D10FC123811D2C79009AEE004F0021A7C
:101BB500269009B2E004F070069009B1E004F00245
:021BC500197491
:011BC70022FB
:101E81009009A3ECF0A3EDF0A3EBF0A3EAF0A3E932
:091E9100F09009A1EEF0A3EFF0BE
:101E9A00E49009B0F09009B7EEF0A3EFF09009AC26
:101EAA00E0FF131313541FFD7C00EF54077E0060FC
:101EBA00047F0180027F00EF2DFFEE3CFE9009AC0B
:101ECA00E0FD7C00120FEB9009B5EEF0A3EFF09065
:101EDA0009B3E4F0A304F0E49009B1F0A3F0900987
:101EEA00B3E0FEA3E0FF9009B1E0FCA3E0FDC39FCD
:101EFA00EC9E40030221399009A5E0FBA3E0FAA376
:101F0A00E0F9120F71FF90001A75F082ED12117B41
:101F1A00EC75F082A42583F583E06F600302212823
:101F2A00900001120F8AFF9009B1A3E090001B757F
:101F3A00F08212117BEC75F082A42583F583E06FA1
:101F4A0060030221289009A3E0FCA3E0FD9009ACFC
:101F5A00E0F9FF7E009009A1E0FAA3E02FFFEE3A34
:101F6A00CF24FFFBEF34FFFAE9FFA3E0F8A3E02F49
:101F7A00FFEE38CF24FFCF34FF900B18F0A3EFF019
:101F8A009009A1E0FEA3E0FF123895E49009AEF0B3
:101F9A009009AEE0FFD39009B6E09F9009B5E094AE
:101FAA00005003022128E49009AFF09009ADE060E7
:101FBA00030220539009B1A3E075F082A4241CF512
:101FCA0082E43400F583C083C0829009AEE0D082F7
:101FDA00D0832582F582E43583F583E0FD7C009089
:101FEA0009AFE0FF7E007401A807088005C333CE5D
:101FFA0033CED8F9FFEE5CFEEF5D4E60059009A87E
:10200A0080039009AAE0FCA3E0FDECFF9009AFE091
:10201A00FE25E024B9F582E43409F583EFF0EE25D4
:10202A00E024BAF582E43409F583EDF09009B0E0D2
:10203A0004F09009ACE0FF9009B0E08FF084E5F07D
:10204A0060030220F8F00221079009B1A3E075F0BD
:10205A0082A4241CF582E43400F583C083C08290F4
:10206A0009AEE0D082D0832582F582E43583F583F8
:10207A00E0FD7C009009AFE0FF7E007401A807082C
:10208A008005C333CE33CED8F9FFEE5CFEEF5D4E4A
:10209A0060149009A1E0FEA3E0FFA3E0FCA3E0FD29
:1020AA009009A81236D79009A2E004F070069009A8
:1020BA00A1E004F09009B7E0FEA3E0FFC39009A2F3
:1020CA00E09FFD9009A1E09EFC9009ACE07A00B582
:1020DA00051CEAB504189009A1EEF0A3EFF09009E7
:1020EA00A4E004F070179009A3E004F0800F9009AF
:1020FA00AFE004F0E0C394085003021FB59009ADA5
:10210A00E07012D2CBC2C77B017A0979B97D10FC83
:10211A00123811D2C79009AEE004F0021F9A900952
:0F212A00B2E004F070069009B1E004F0021EE884
:012139002283
:10213A009009A3ECF0A3EDF0A3EBF09009A1EEF067
:03214A00A3EFF010
:10214D00E49009AFF09009B4EEF0A3EFF09009AA76
:10215D00E0F9C3139009ADF0E0FF131313541FFD05
:10216D007C00EF54077E0060047F0180027F00EF4A
:10217D002DFFEE3CFEE9FD7C00120FEB9009B2EE57
:10218D00F0A3EFF09009A5E024E0F09009A3E0FCA6
:10219D00A3E0FD9009ADE0FF7E009009A1E0FAA358
:1021AD00E02FFFEE3ACF24FFFBEF34FFFAE9FFA358
:1021BD00E0F8A3E02FFFEE38CF24FFCF34FF900BD4
:1021CD0018F0A3EFF09009A1E0FEA3E0FF123895FF
:1021DD00E49009B0F0A3F09009B2E0FEA3E0FF9007
:1021ED0009B0E0FCA3E0FDC39FEC9E40030223B1C8
:1021FD009009AAE0641060030223B19009A5E0756F
:10220D00F010A42440F582E5F03403F583E5822D2A
:10221D00F582E5833CF583E09009ACF0E49009AEDE
:10222D00F09009AEE0FFC3940840030223809009AB
:10223D00ABE060030222FC9009ADE054077064FE30
:10224D0004A807088005C333CE33CED8F9FF900913
:10225D00ACE0FDEF5D60059009A680039009A8E054
:10226D00FCA3E0FDECFF9009AEE0FE25E024B6F501
:10227D0082E43409F583EFF0EE25E024B7F582E42E
:10228D003409F583EDF09009AFE004F09009ADE06D
:10229D00FF9009AFE08FF084E5F06003022377F043
:1022AD000223809009AEE0FF7E007401A80708802C
:1022BD0005C333CE33CED8F9FF9009ACE0FDEF5D09
:1022CD0060059009A680039009A8E0FEA3E0FF1227
:1022DD0039079009AFE004F09009ADE0FF9009AF28
:1022ED00E08FF084E5F06003022377F00223809005
:1022FD0009AEE0FF7E007401A807088005C333CE48
:10230D0033CED8F9FF9009ACE0FDEF5D6014900974
:10231D00A1E0FEA3E0FFA3E0FCA3E0FD9009A6125F
:10232D0036D79009A2E004F070069009A1E004F000
:10233D009009B4E0FEA3E0FFC39009A2E09FFD90D9
:10234D0009A1E09EFC9009ADE07A00B5051CEAB547
:10235D0004189009A1EEF0A3EFF09009A4E004F0A9
:10236D0070119009A3E004F080099009AEE004F02B
:10237D0002222E9009ADE0540770189009ABE07061
:10238D0012D2CBC2C77B017A0979B67D10FC123807
:10239D0011D2C79009B1E004F070069009B0E004C5
:0423AD00F00221E435
:0123B1002209
:10354500900994EEF0A3EFF0A3ECF0A3EDF0A3EB5C
:10355500F0A3EAF0A3E9F0900998E0FBA3E0FAA351
:10356500E0F9120F71FB6061900996E0FCA3E0FDA4
:1035750090099BE0FFA3E09009A6CFF0A3EFF090A0
:10358500099DE0FFA3E09009A8CFF0A3EFF0900913
:103595009FE09009AAF09009A0E09009ABF090098E
:1035A50094E0FEA3E0FF12213A90099FE0C313FFC8
:1035B500900995E02FF0900994E03400F090099976
:0A35C500E475F001120FFD808E2264
:07377700C3EF9E14FD7F0A61
:08377E00900B80EFF0A3EDF0C9
:10378600A312114A00000001900B81E0FF14F0EF34
:103796006020A3E0F8A3E0F9A3E0FAA3E0FB900B16
:1037A60080E0FFE4FCFDFE121013900B8212113E26
:1037B60080D6900B82E0FCA3E0FDA3E0FEA3E0FF31
:0137C60022E0
:102EF900900B42EEF0A3EFF0A3ECF0A3EDF0A3EA00
:042F0900F0A3EBF056
:102F0D00E4900B50F0900B4DE0C313900B51F0E497
:102F1D00900B4EF0900B48E0FF900B4EE0FEC39FE0
:102F2D004003023024123777A804A905AA06AB077F
:102F3D00900B46E0FEA3E0FFE4FCFD12109EE47B47
:102F4D000AFAF9F812109E900B4FEBF0A3E07065A2
:102F5D00900B48E014FF900B4EE0FEC39F5056A31C
:102F6D00E0704C900B51E0FFEE8FF0A4FF900B43FF
:102F7D00E02FFF900B42E035F0FE900B44E0FCA3F8
:102F8D00E0FD900B49E0FBA3E09009A6CBF0A3EB8D
:102F9D00F0900B4BE0FBA3E09009A8CBF0A3EBF076
:102FAD00900B4DE09009AAF0E4A3F07B20805C909B
:102FBD000B507401F0900B51E0FF900B4EE08FF031
:102FCD00A4FF900B43E02FFF900B42E035F0FEC0C5
:102FDD0007900B44E0FCA3E0FD900B4FE02430FB89
:102FED00900B49E0FFA3E09009A6CFF0A3EFF0907E
:102FFD000B4BE0FFA3E09009A8CFF0A3EFF0900BEF
:10300D004DE09009AAF0E4A3F0D00712213A900BFD
:07301D004EE004F0022F2138
:013024002289
:0E2C6800900B1CEEF0A3EFF0A3ECF0A3EDF048
:102C7600900B29E0C313900B2CF0E4FFFE7DC87C7B
:102C860042900B20E0F8A3E0F9A3E0FAA3E0FB12E0
:102C96000A64120C48900B2DEEF0A3EFF0E4900BB3
:102CA6002AF0900B24E0FF900B2AE0FEC39F40031E
:102CB600022DB1123777A804A905AA06AB07900B17
:102CC6002DE0FEA3E0FFE4FCFD12109EE47B0AFA71
:102CD600F9F812109E900B2BEBF0900B24E0FF24DA
:102CE600FEFE900B2AE06E7060EF24FEFFE434FFD8
:102CF600FE900B2CE0FD7C00120FEB900B1DE02FDD
:102D0600FF900B1CE03EFE900B1EE0FCA3E0FD9046
:102D16000B25E0FBA3E09009A6CBF0A3EBF0900B0C
:102D260027E0FBA3E09009A8CBF0A3EBF0900B29DA
:102D3600E09009AAF0E4A3F07B2E12213A900B2A28
:102D4600E004F0900B24E004F0900B2CE0FF900BD5
:102D56002AE08FF0A4FF900B1DE02FFF900B1CE0E4
:102D660035F0FEC007900B1EE0FCA3E0FD900B2B98
:102D7600E02430FB900B25E0FFA3E09009A6CFF0FE
:102D8600A3EFF0900B27E0FFA3E09009A8CFF0A3F4
:102D9600EFF0900B29E09009AAF0E4A3F0D0071217
:0B2DA600213A900B2AE004F0022CA858
:012DB10022FF
:102B1A00900B2FEEF0A3EFF0A3ECF0A3EDF0A3EAF5
:042B2A00F0A3EBF039
:102B2E00900B3E12114A00000000900B31E0FCA306
:102B3E00E0FDA3E0FEA3E0FF900B2FE0FAA3E02F51
:102B4E00FFEA3ECF24FFFBEF34FFFA900B35E0FE99
:102B5E00A3E0FF900B31E0F8A3E02FFFE83ECF2477
:102B6E00FFCF34FF900B18F0A3EFF0900B2FE0FE89
:102B7E00A3E0FF123895E4900B3AF0A3F0900B33DC
:102B8E00E0FEA3E0FFC3900B3BE09F900B3AE09E6C
:102B9E004003022C67E4900B3CF0A3F0900B35E061
:102BAE00FEA3E0FFC3900B3DE09F900B3CE09E40E8
:102BBE0003022C53E47F02FEFDFC900B3EE0F8A3D3
:102BCE00E0F9A3E0FAA3E0FB121013900B37E0FB41
:102BDE00A3E0FAA3E0F98F828E83120F8AFF123AD6
:102BEE00C2E47F02FEFDFC900B3EE0F8A3E0F9A3E9
:102BFE00E0FAA3E0FB121013EF2401FFE43EFE9077
:102C0E000B37E0FBA3E0FAA3E0F98F828E83120F5D
:102C1E008AFF123AC2900B3EE0FCA3E0FDA3E0FE59
:102C2E00A3E02401FFE43EFEE43DFDE43CFC900BFA
:102C3E003E12113E900B3DE004F07006900B3CE00E
:102C4E0004F0022BAA900B3BE004F06003022B8BE6
:092C5E00900B3AE004F0022B8B0C
:012C6700224A
:10302500900986EEF0A3EFF0A3ECF0A3EDF0A3EB8F
:07303500F0A3EAF0A3E9F0AB
:10303C00E4900993F090098AE0FBA3E0FAA3E0F98D
:10304C00900993E0F582758300120F8A70030231A8
:10305C0036C39480900988E0FCA3E0FD505C900995
:10306C0093E0FF7E00E92FF9EE3AFA90098DE0FF2C
:10307C00A3E090099BCFF0A3EFF090098FE0FFA3A2
:10308C00E090099DCFF0A3EFF0900991E090099F9B
:10309C00F0900992E09009A0F0900986E0FEA3E080
:1030AC00FF123545900991E0C313FF900987E02F7B
:1030BC00F0900986E03400F08067A3E0FBA3E0FA0F
:1030CC00A3E0F9900993E0FF7E00E92FF9EE3AFABC
:1030DC0090098DE0FFA3E090099BCFF0A3EFF09057
:1030EC00098FE0FFA3E090099DCFF0A3EFF09009CA
:1030FC0091E090099FF0900992E09009A0F090095E
:10310C0086E0FEA3E0FF12298F900991E0FF900961
:10311C0087E02FF0900986E03400F0900993E004EA
:0A312C00F0900993E004F002304136
:013136002276
:10337900900930EEF0A3EFF0A3ECF0A3EDF0A3EA8F
:04338900F0A3EBF0D2
:10338D009009837401F0A37409F0A3743DF09009C2
:10339D003AE0F9A3E0FAA3E0900986C9F0A3EAF0B8
:1033AD00A3E9F0900983E0F9A3E0FAA3E09009897D
:1033BD00C9F0A3EAF0A3E9F07B017A097965123728
:1033CD00C7900983E4F0A3F0A3F0900932E0FCA3C9
:1033DD00E0FD7B017A097965A3E0FFA3E090098DFB
:1033ED00CFF0A3EFF0900936E0FFA3E090098FCF67
:1033FD00F0A3EFF0900938E0900991F0900939E0D1
:0F340D00900992F0900930E0FEA3E0FF02302515
:0439C1007F017E0004
:1039C500EF1F70011E144E601100000075080B7585
:0A39D50009BED509FDD508FA80E609
:0139DF0022C5
:08000300C2C7123A33D2C72232
:0A3AC200D2CBC2C7123A33D2C7229A
:05390200E0FEA3E0FF60
:04390700AD07AC0656
:10390B00EC900B1AF0A3EFF0D2CBC2C7900B1AE0DE
:0E391B00FF123A33900B1BE0FF123A33D2C773
:01392900227B
:083ACC00C2CB120003D2CB2291
:10389500900B12EEF0A3EFF0A3ECF0A3EDF0A3EA8A
:1038A500F0A3EBF07F2A123ACC900B12123902905A
:1038B5000B161239027F2B123ACC900B14123902D7
:0C38C500900B181239027F2C123ACC2212
:102DB200C2C01239C1D2C01239C1D2C81239C17FC0
:102DC20011123ACC7F0C7E001239C57F36123ACCF2
:102DD200E4FF123AC27F3A123ACC7F05123AC27F1E
:102DE200B2123ACC7F0C123AC27F0C123AC2E4FF02
:102DF200123AC27F33123AC27F33123AC27FB712FB
:102E02003ACC7F35123AC27FBB123ACC7F19123AC2
:102E1200C27FC0123ACC7F2C123AC27FC2123ACC85
:102E22007F01123AC27FC3123ACC7F12123AC27F9A
:102E3200C4123ACC7F20123AC27FC6123ACC7F0F1C
:102E4200123AC27FD0123ACC7FA4123AC27FA112A8
:102E52003AC27FE0123ACC7FD0123AC27F04123AD1
:102E6200C27F0D123AC27F11123AC27F13123AC2C6
:102E72007F2B123AC27F3F123AC27F54123AC27F6C
:102E82004C123AC27F18123AC27F0D123AC27F0B1D
:102E9200123AC27F1F123AC27F23123AC27FE11254
:102EA2003ACC7FD0123AC27F04123AC27F0C123A55
:102EB200C27F11123AC27F13123AC27F2C123AC257
:102EC2007F3F123AC27F44123AC27F51123AC27F06
:102ED2002F123AC27F1F123AC27F1F123AC27F20BC
:102EE200123AC27F23123AC27F21123ACC7F1112C8
:072EF2003ACC7F29023ACC23
:063ADB0030A22236E000DB
:05096600420B520131BB
:1039780078307C097D017BFF7A3A79DB7E007F0213
:10398800120F4B7B017A0979307F4412399D7F0FE2
:053998007E000239C5AC
:1039E00078307C097D017BFF7A3A79DD7E007F02A9
:0E39F000120F4B7B017A0979307F4402399D1A
:10341C00E0900B5EF07B017A0B795CE0900940F058
:02342C007D021F
:0E342E0090093CEBF0A3EAF0A3E9F0A3EDF067
:10343C0090094174FFF0E4A3F090093FE0FF90097C
:10344C0042E0FEC3EF6480F8EE648098504F900920
:10345C0041E0FF90093CE0FBA3E0FAA3E0F9EEFDAC
:10346C003395E08D82F583120F8AFEEF6E90094141
:10347C00F07D08900941E0FF30E710900B52A3E07B
:10348C00FEEF25E06E900941F08008900941E0FFC5
:10349C0025E0F0DDDE900942E004F0809C900940CC
:0C34AC00E0FFA3E06F60037F01227F00BF
:0134B80022F1
:0438D100AB07AA0691
:1038D500EB54FCFBAE02FFFDAC06E4120C0FE4FB5F
:1038E500FA792F7843120A647B007AFF797F78474B
:0D38F500120B6DE4FBFA793478C2020973FE
:04392A00AB07AA0637
:10392E00EB54FCFBAE02FFFDAC06E4120C0FE4FB05
:10393E00FA79C87842120A647B007AFF797F784759
:03394E00020B6DFC
:033AE1000239E0C7
:10321D00E4900930F0A3F078347C097D017BFF7ACE
:10322D003A79DFFE7F02120F4B7B017A0979347FE9
:10323D004412399D7B017A0979369009407406F064
:10324D007F4412371E900936E0900B5CF0900937E1
:10325D00E0900B5DF090093812341C7E009009301F
:10326D00EEF0A3EFF0701B900B5CE0FEA3E0FDED24
:10327D00FF900932EEF0A3EFF01238D1900B5812F7
:10328D00113E900939E0900B5CF090093AE0900BFB
:10329D005DF090093B12341C7E00900930EEF0A3D6
:1032AD00EFF0701B900B5CE0FEA3E0FDEDFF9009CD
:0F32BD0032EEF0A3EFF012392A900B5412113EAB
:0132CC0022DF
:10096C00020CB4E86480F8E933E83360110460F0F9
:10097C00ED33EC337009E8FCE9FDEAFEEBFF2204F1
:10098C0060DED3EB9FEA9EE99DE8C2E78CF0C2F7EC
:10099C0095F0400CE8CCF8E9CDF9EACEFAEBCFFBB8
:1009AC00120C7F85D0F05804700320D5B3E8047086
:1009BC00075002B2D5020CBE92D5EC0460F7E4CC21
:1009CC00C0E0C398F8603B94186008400DD0E0FB81
:1009DC00020C96E4FBFAC9FC8028E830E406E4C972
:1009EC00FBE4CAFCE830E305E4C9CACBFCE85407D5
:1009FC006010F8C3E913F9EA13FAEB13FBEC13FCE0
:100A0C00D8F130F52FC3E49CFCEF9BFFEE9AFEED82
:100A1C0099FDD0E0FBEF4E4D4C701222DB03020C23
:100A2C00BBEC2CFCEF33FFEE33FEED33FDED30E78A
:100A3C00EB020C96EF2BFFEE3AFEED39FDD0E0FB0E
:100A4C0050130BBB0003020CBEED13FDEE13FEEFB7
:080A5C0013FFEC13FC020C96E1
:100A6400EC4D6011E8497017ED33EC3304600DE48C
:100A7400FCFFFEFD22E933E8330470F8020CB412E3
:100A84000C7F58046009E4CC2481500628500902E4
:100A94000CBE284003020CBBC0E0EB4A7044B98092
:100AA40006D0E0FB020CAAEF4E701CBD8008EBFFE1
:100AB400EAFEE9FD80EBE98DF0A4FEE5F0020B4DC2
:100AC400E9CDF9EAFEEBFFEF89F0A4FCE5F0CE896D
:100AD400F0A42EFFE435F0CD89F0A42DFEE435F02A
:100AE4008067EF4E7005BD80D780C3EF8BF0A4AC58
:100AF400F0EE8BF0A42CFCE435F0F8EF8AF0A42C93
:100B0400E5F038FCE433CB8DF0A42CFCE5F03BF8A5
:100B1400EE8AF0A42CFCE5F038F8E433CF89F0A495
:100B24002CFCE5F038CF3400CE89F0A42FFFE5F09B
:100B34003EFEE433C98DF0A42EFEE5F039CD8AF0F3
:100B4400A42FFFE5F03EFEE43DFD33D0E0FB50076B
:100B54000BBB000F020CBEEC2CFCEF33FFEE33FE9C
:060B6400ED33FD020C96CA
:100B6A00020CBEEC5D046005E859047003020CB483
:100B7A00120C7F580460F6EC4860F2EC7004FDFE3B
:100B8A00FF22C860DB2481C85009C398600250065E
:100B9A00020CBB9850CAF582E9294B4A7005AB8210
:100BAA00020CAA75F0007C1A7880C3EF9BEE9AEDCE
:100BBA0099400DC3EF9BFFEE9AFEED99FDE842F0D6
:100BCA00DC23ACF0D0E0FFD0E0FED0E0FDAB822029
:100BDA00E7101BEB60BAEC2CFCEF33FFEE33FEEDB3
:100BEA0033FD020C96E803F830E705C0F075F00013
:100BFA00EF2FFFEE33FEED33FD40B830E7C280AA97
:100C0A0075F020800E75F010800575F0087D007E65
:100C1A00007F003392D530D503121130EC334010E7
:100C2A00EF33FFEE33FEED33FDEC33FCD5F0ED226E
:0E0C3A00E5F0247EA2D513CC92E7CDCEFF22AA
:100C4800EDD2E7CD33EC3392D524814006E4FFFEA4
:100C5800FDFC22FCE4CFCECDCC24E0501174FF8003
:100C6800EDC3CC13CCCD13CDCE13CECF13CF0470A0
:070C7800F030D5DE0211305F
:1037C700900986E0FFA3E0FEA3E0CF90098FF0A366
:1037D700EEF0A3EFF0900989E0CBF0A3E0CAF0A3E5
:1037E700E0C9F07F22900992AD82AC83120F718DF0
:1037F700828C83F0A309E970010ADFEC900989E064
:0A380700FBA3E0FAA3E0F90212327D
:100C7F00E9D2E7C933E833F892D5EDD2E7CD33ECBB
:070C8F0033FC5002B2D52234
:100C9600EC30E7100FBF000C0EBE00080DBD0004BF
:100CA6000BEB6014A2D5EB13FCED92E7FD2274FF6B
:100CB600FCFDFEFF22E480F8A2D574FF13FC7D80C4
:030CC600E480EFD8
:1011CD00E508248FF582E43409F583E005082290C3
:1011DD00098C30070390098FE475F0011211870215
:1011ED000F712000E97F2ED2008018EF540F24904C
:1011FD00D43440D4FF30040BEF24BFB41A00500395
:10120D002461FFE50960021509050CE50C70020566
:10121D000B30070E90098CE475F001121187EF0267
:10122D000FB70239517403D2078003E4C207F508E2
:10123D0090098C12119EE4F509F50BF50CE509608A
:10124D00077F2012121080F5750AFFC201C200C27D
:10125D0002C203C205C206C2081211DCFF700D30B6
:10126D0007057F00121221AF0CAE0B22B4255FC211
:10127D00D5C2041211DCFF24D0B40A00501A75F047
:10128D000A780930D50508B6FF0106C6A426F62052
:10129D00D5047002D20380D924CFB41A00EF5004C4
:1012AD00C2E5D204021513D20180C6D20080C0D28D
:1012BD000280BCD2D580BAD20580B47F2012121024
:1012CD002002077401B5090040F11211CDFF121271
:1012DD001002124AD208D20680951211CDFB1211BE
:1012ED00CDFA1211CDF94A4B700679117A167BFFA2
:1012FD0020022EE509602A7E008E82758300120F72
:10130D008A60060EEE650A70F0C2D5EBC0E0EAC049
:10131D00E0E9C0E0EE121574D0E0F9D0E0FAD0E0CB
:10132D00FB120F71FF60AAEBC0E0EAC0E0E9C0E07C
:10133D00121210D0E02401F9D0E03400FAD0E0FB15
:10134D00E50A0460DCD50AD98087D20280A2121585
:10135D005660F7E50A700104120CC9A90A600DE583
:10136D000A600914F50A1215FEEF60F3EA30E70280
:10137D00F404C3995079EAF4250A0430E701E40432
:10138D00F50A800D12155660C1EA050A250A120CE0
:10139D00C9EA9009BBF030E701E4250A04D50A0437
:1013AD0020050114121574E4C0E01215FE9009BB5E
:1013BD00E0601320E70714F01211F8802204F0D03A
:1013CD00E014C0E07F001211F8E50A60071211EF7A
:1013DD00150A800B3005031211EFD0E002124AD02E
:1013ED00E00480C4121556609EE50A04120CC990E3
:1013FD0009BBEAF0E50A2005026001042404121578
:01140D00746A
:10140E0074FF04C0E01215FE1211F8E50A20050261
:10141E0060031211EFD0E0B50AE87F451212029078
:10142E0009BBE07F2B30E7047F2DF404C0E01212DD
:10143E0010D0E075F00A84C0F01211F9D0E012114C
:10144E00F902124A791080027908C206C208800891
:10145E00D2D5790A8004790AC2D5E50A047002F55C
:10146E000AE4FAFDFEFF1211CDFC7B0820011312D7
:10147E0011CDFD7B1030000A1211CDFE1211CDFFE1
:10148E007B20EC3382D592D55013C3E43000069FF7
:10149E00FFE49EFEE42001039DFDE49CFCE4CBF8FA
:1014AE00C201EC700CCFCECDCCE824F8F870F380EE
:1014BE0017C3EF33FFEE33FEED33FDEC33FCEB33AE
:1014CE00FB994002FB0FD8E9EB300105F8D0E0C4E0
:1014DE0048B201C0E00AEC4D4E4F78207B0070C23E
:1014EE00EAB50A0040BCC0E0121576D0F0D0E0207C
:1014FE000104C4C0E0C4B201C0F01211F9D0F0D59D
:10150E00F0EB02124A1211A712E75314525812B8F6
:10151E004C12B44214564F145E44145E4912CD431D
:10152E0014645513914613F145135B47163150124F
:10153E00BC2D12C02E12E32B12C42312E120161A58
:10154E002A127C48000012DBE50AB4FF03750A0676
:10155E001211CDFC1211CDFD1211CDFE1211CDFFC7
:10156E009009B4020D06790AA2D52003143005099C
:10157E00B910020404B9080104A2D52006025001D4
:10158E00042002689202B509005034C0E07F20307A
:10159E0003197F30A20272067205500F1215CDC2CA
:1015AE0002C206C205C2087F30800F300503E9C0B3
:1015BE00E0121210300503D0E0F9D0E0B509CC30BE
:1015CE0005177F30B9100C1212107F583004077FA8
:1015DE00788003B908031212103002057F2D021213
:1015EE00107F202008F87F2B2006F322920280CF56
:1015FE007F00B40700500B24B4F582E43409F58360
:10160E00E0FF22286E756C6C2900D2011211CD30CC
:10161E0001F8C201780930D50108F602127C2D506E
:10162E004349581211CD2403B405004001E490162D
:10163E002C93121201743A121201D203750904028C
:02164E00145234
:100CC900F920E73624F950037907E4F42402FBE517
:100CD90082158270021583DBF6E024FB501BE96064
:100CE90014E4F0E582158270021583E004F0B40A79
:0D0CF90008E4F0D9EE7401F00A22C2D52201
:100D0600ED33EC3392D5FA602AB4FF33EDC2E77BBC
:100D1600FF60067A0D792BE4227A0D793420D5040A
:100D26007A0D792F224E614E002B494E46002D49F1
:100D36004E4600E47A08F0A3DAFC7B00740722C072
:100D460083C082ECC0E0EDC0E0EEC0E0EFC0E0EAB8
:100D560075F010A4CAABF075F04DA42BFBE435F08A
:100D6600FCEA2410FAEB34C5FBEC34D9FCEDC2E7FF
:100D7600FF75F056A4F42411C5F0F434C58FF0A421
:100D86002AE5F03BE43CF020E714120E3BD0E0FFEE
:100D9600D0E0FED0E0FDD0E0FC120B6D8014F40430
:100DA600120E3BD0E0FFD0E0FED0E0FDD0E0FC121A
:100DB6000A64D082D083E0FAEDD2E7CD33EC332457
:100DC60082FBE4C3CF33CFCE33CECD33CD33DBF38B
:100DD6007B0775F00A846004F0A31B0AE5F0F0A314
:100DE6008FF0740AA4FFACF08EF0740AA42CFEAC4B
:100DF600F050010C8DF0740AA42CFDE435F0F0A33C
:050E0600DBDE74072291
:100E0B003F8000004120000042C80000447A0000EF
:100E1B00461C400047C35000497424004B18968071
:100E2B004CBEBC205A0E1BCA6753C21C749DC5AE68
:100E3B00FB60065407601C2323120E69EB543860C9
:100E4B0009120E55120E64120A64ECF8EDF9EEFA63
:100E5B00EFCB22EB120E6480F1543803241C900E5E
:100E6B000BFE93FC0EEE93FD0EEE930ECE93FF2234
:030000000234B90E
:0C34B900787FE4F6D8FD75812102350013
:100E7B00E709F608DFFA8046E709F208DFFA803E59
:100E8B0088828C83E709F0A3DFFA8032E309F60846
:100E9B00DFFA8078E309F208DFFA807088828C83AE
:100EAB00E309F0A3DFFA806489828A83E0A3F60862
:100EBB00DFFA805889828A83E0A3F208DFFA804C3C
:100ECB0080D280FA80C680D4806980F28033801013
:100EDB0080A680EA809A80A880DA80E280CA80337C
:100EEB0089828A83ECFAE493A3C8C582C8CCC583F4
:100EFB00CCF0A3C8C582C8CCC583CCDFE9DEE780C4
:100F0B000D89828A83E493A3F608DFF9ECFAA9F042
:100F1B00EDFB2289828A83ECFAE0A3C8C582C8CC98
:100F2B00C583CCF0A3C8C582C8CCC583CCDFEADEB1
:100F3B00E880DB89828A83E493A3F208DFF980CC13
:100F4B0088F0EF60010E4E60C388F0ED2402B4040C
:100F5B000050B9F582EB2402B4040050AF232345B3
:060F6B008223900ECB73FF
:100F7100BB010689828A83E0225002E722BBFE027E
:090F8100E32289828A83E49322B1
:100F8A00BB010CE58229F582E5833AF583E022501C
:100F9A0006E92582F8E622BBFE06E92582F8E22266
:0D0FAA00E58229F582E5833AF583E4932280
:100FB700BB010689828A83F0225002F722BBFE0119
:020FC700F32213
:100FC900F8BB010DE58229F582E5833AF583E8F05E
:100FD900225006E92582C8F622BBFE05E92582C80A
:020FE900F222F2
:100FEB00EF8DF0A4A8F0CF8CF0A428CE8DF0A42E1A
:020FFB00FE22D4
:100FFD00C5F0F8A3E028F0C5F0F8E582158270027F
:06100D001583E038F0221B
:10101300E88FF0A4CC8BF0A42CFCE98EF0A42CFC7C
:101023008AF0EDA42CFCEA8EF0A4CDA8F08BF0A4FA
:101033002DCC3825F0FDE98FF0A42CCD35F0FCEB59
:101043008EF0A4FEA9F0EB8FF0A4CFC5F02ECD391E
:0F105300FEE43CFCEAA42DCE35F0FDE43CFC228B
:1010620075F008758200EF2FFFEE33FECD33CDCC45
:1010720033CCC58233C5829BED9AEC99E5829840C8
:101082000CF582EE9BFEED9AFDEC99FC0FD5F0D6A5
:10109200E4CEFBE4CDFAE4CCF9A88222B800C1B9CF
:1010A2000059BA002DEC8BF084CFCECDFCE5F0CB0D
:1010B200F97818EF2FFFEE33FEED33FDEC33FCEB46
:1010C20033FB10D703994004EB99FB0FD8E5E4F901
:1010D200FA227818EF2FFFEE33FEED33FDEC33FCEE
:1010E200C933C910D7059BE99A4007EC9BFCE99AE2
:1010F200F90FD8E0E4C9FAE4CCFB2275F010EF2F27
:10110200FFEE33FEED33FDCC33CCC833C810D70726
:101112009BEC9AE899400AED9BFDEC9AFCE899F861
:0E1122000FD5F0DAE4CDFBE4CCFAE4C8F922F4
:0E113000C3E49FFFE49EFEE49DFDE49CFC22D0
:0C113E00ECF0A3EDF0A3EEF0A3EFF02224
:10114A00A8828583F0D083D08212116112116112B4
:10115A001161121161E473E493A3C583C5F0C583D9
:10116A00C8C582C8F0A3C583C5F0C583C8C582C8EF
:01117A002252
:0C117B00A42582F582E5F03583F583227F
:10118700F8E0FBA3A3E0F925F0F0E58215827002F1
:071197001583E0FA38F02295
:09119E00EBF0A3EAF0A3E9F02252
:1011A700D083D082F8E4937012740193700DA3A3D7
:1011B70093F8740193F5828883E4737402936860EB
:0611C700EFA3A3A380DFEB
:10395100EFB40A07740D12395C740A309811A899F2
:10396100B8130CC2983098FDA899C298B811F630D6
:0739710099FDC299F59922AE
:1034C5000223B2E493A3F8E493A34003F68001F248
:1034D50008DFF48029E493A3F85407240CC8C33308
:1034E500C4540F4420C8834004F456800146F6DFD7
:1034F500E4800B010204081020408090000EE47E59
:10350500019360BCA3FF543F30E509541FFEE493CB
:10351500A360010ECF54C025E060A840B8E493A392
:10352500FAE493A3F8E493A3C8C582C8CAC583CABD
:10353500F0A3C8C582C8CAC583CADFE9DEE780BE75
:01096B00008B
:00000001FF
