:050105004200000000B3
:1000CA00E4F593F594F591F592F595F596F5B1F574
:0A00DA00B2F5B3F5B4F5C9F5CA227A
:0800E4007F087EDEDEFEDFFC7A
:0100EC0022F1
:0800ED00D2950000C29500222B
:0800F500C2950000D295002223
:05010B00C2950200E4B2
:10008F00E4900000F0A3F0900000E0FEA3E0FFC3B7
:10009F009418EE94005021C3EF9408EE940050058D
:1000AF001200ED80031200F5900001E004F070D70C
:0B00BF00900000E004F080CF02010B75
:0800FD001200CA12008F80FB03
:03000000020003F8
:0C000300787FE4F6D8FD75810702004A02
:10000F000200FDE493A3F8E493A34003F68001F20A
:10001F0008DFF48029E493A3F85407240CC8C333F2
:10002F00C4540F4420C8834004F456800146F6DFC1
:10003F00E4800B0102040810204080900105E47E4B
:10004F00019360BCA3FF543F30E509541FFEE493B6
:10005F00A360010ECF54C025E060A840B8E493A37D
:10006F00FAE493A3F8E493A3C8C582C8CAC583CAA8
:10007F00F0A3C8C582C8CAC583CADFE9DEE780BE60
:01010A0000F4
:00000001FF
