:10064B00E4F5937594FFF591F592F595F596F5B163
:0B065B00F5B2F5B3F5B4F5C9F5CA22FD
:0606CB0012064B0201BF04
:1003DB006B61692064656E6700000000000000001F
:1003EB00000000006775616E2064656E6700000099
:1003FB000000000000000000616E206A69616E2041
:10040B006368752066610000000000007175616E05
:10041B00206D696500000000000000000000000076
:10042B007A6875616E6720746169000000000000D6
:09043B00000000000102030405A9
:10062E004100700041007E004100720041007100E7
:0C063E0041006E0041007D0041007F0083
:0F06B3007F0812044F1206C2E4FD7F0812044FA5
:0806C2007F6C7E91DEFEDFFC7F
:0106CA00220D
:0B044400E4FD7F2912044FE4FD7F025D
:10044F00E4FE7C04C2A000D2A2EC30E704D2A48068
:10045F0002C2A400C2A2EC25E0FC00D2A20EEEB4B0
:10046F0008E7E4FEEF30E704D2A48002C2A400C282
:10047F00A2EF25E0FF00D2A20EEEB408E7E4FEEDF6
:10048F0030E704D2A48002C2A400C2A2ED25E0FD91
:0B049F0000D2A20EEEB408E700D2A0CD
:0104AA00222F
:1004AB00E4FEFDFC7B05C2A000D2A2EB30E704D238
:1004BB00A48002C2A400C2A2EB25E0FB00D2A20ED4
:1004CB00EEB408E7E4FEEF30E704D2A48002C2A446
:1004DB0000C2A2EF25E0FF00D2A20EEEB408E700A7
:1004EB00E4FEED25E0FDA2A3E433FC00C2A2B401BF
:1004FB0004ED4401FD00D2A20EEEB408E500D2A03B
:02050B00AF053A
:01050D0022CB
:10035F007F061204AB7D357F1712044F1206C27F42
:10036F00061204AB7D037F8912044F1206C27D4330
:10037F007FCF12044F1206C27D027FCB12044F7D36
:10038F000A7F1112044F90007EE06440601CE4FD70
:10039F007F1E12044F7D3F7F1912044F7D487F1B34
:1003AF0012044F7D1F7F1D12044F1206C27D047F62
:1003BF00CD12044F7D4C7F1712044F1206C2E4FD7D
:0C03CF007FB912044F7D4F7FCF02044F16
:10050E0090007E7408F012035FE4FD7FBD12044F6D
:10051E007D487F1712044F1206C27D807F3C120465
:10052E004F7D077F3E12044F7DFF7F3812044F7DB3
:10053E00077F3A12044FE4FD7F4012044F7D087F7F
:10054E004212044FE4FD7F4412044F7D087F461291
:05055E00044F0206C27B
:10066600E4F9FA7FB21204ABBF21047901800812C3
:0906760006C20AEAB40AECAF0165
:01067F002258
:1000F90078057C007D017BFF7A0379DB7E007F64D4
:100109001200D378697C007D017BFF7A04793F7EF8
:10011900007F051200D39000037401F0E4900002FF
:10012900F0120666EF7007900003F00201B9900023
:1001390002E02469F582E43400F583E0FD7FC11211
:10014900044FE4FD7FC312044F7D041206B3E4900B
:100159000004F0900004E0FFC39414502C900002B6
:10016900E075F014A42405F582E43400F583E582F2
:100179002FF582E43583F583E0FD600D7F051204D8
:100189004F900004E004F080CA900004E0FD7FB9BC
:1001990012044F7DFF7FB212044F7D047F37120492
:1001A9004F900002E004F0E0C39405500302012AD5
:0501B900900003E0FFCF
:0101BE00221E
:10069A00D2A11206C2C2A11206C2D2A11206C2C2B7
:0906AA00A01206C2D2A00206C291
:100563007D437F3512044F7D097F1C12044F7D208C
:100573007FBD12044F7D011206B3120666EF7002AF
:10058300FF227DFF7FB212044F7D067F3712044F97
:100593007D067F3712044F1206C27D0B7F1C1204A7
:1005A3004F7D107F2912044FE4FD7FBD12044F7F5E
:0205B300012223
:1005B500E4900000F0A3F0900000F012050E120682
:1005C500C21200F9EF700280091206C2120563EF2C
:1005D500700812069A1206C280089000017401F094
:1005E500800C900000E004F0E0C3940540CD90003D
:0305F50001E0FF23
:0105F80022E0
:0506D1007FC50204AB2F
:1005F9007F061204AB7D337F3512044F7D557F1B77
:1006090012044F7DAA7FB312044F7F351204AB90B9
:100619000073EFF07F1B1204ABA3EFF07FB312045A
:05062900ABA3EFF0227D
:10068000E4F9FA7FB21204ABBF21047901800812A9
:0906900006C20AEAB40AECAF014B
:01069900223E
:1001BF0012069AE4900070F01206C2900070E06090
:1001CF000A12068090006EEFF08005E490006EF04A
:1001DF0090006EE0B401237FBA1204AB90007DEF64
:1001EF00F0D39400400EE0D3940450089000707444
:1001FF0010F080069000707411F0900070E01460A1
:10020F00BA24F1601C24DF60B22431703190007089
:10021F007401F01205B5EF70A29000707431F08088
:10022F009A1206D1900072EFF024FE600704700658
:10023F00C2808002D280E4900070F00201CAE49084
:06024F000070F00201CA7C
:1002E100E4FA900071E004F07F2B1204AB90006FF0
:1002F100EFF0120444E030E42B7FB21204ABEF6460
:100301002170217FBF1204ABBF35197FBA1204AB34
:10031100AA07EAD39400400CEFD394045006A374C7
:1003210010F080069000707411F0E4FD7F2B120430
:100331004FE4FD7F1C12044F120444E4FD7F2B1295
:10034100044FE4FD7FBA12044FE4FD7FBC12044F59
:0E0351007D017F0812044FE4FD7F0802044F77
:03000000020255A4
:0C025500787FE4F6D8FD75810702029C5A
:10000300E709F608DFFA8046E709F208DFFA803EDF
:1000130088828C83E709F0A3DFFA8032E309F608CC
:10002300DFFA8078E309F208DFFA807088828C8334
:10003300E309F0A3DFFA806489828A83E0A3F608E8
:10004300DFFA805889828A83E0A3F208DFFA804CC2
:1000530080D280FA80C680D4806980F28033801099
:1000630080A680EA809A80A880DA80E280CA803302
:1000730089828A83ECFAE493A3C8C582C8CCC5837A
:10008300CCF0A3C8C582C8CCC583CCDFE9DEE7804A
:100093000D89828A83E493A3F608DFF9ECFAA9F0C9
:1000A300EDFB2289828A83ECFAE0A3C8C582C8CC1F
:1000B300C583CCF0A3C8C582C8CCC583CCDFEADE38
:1000C300E880DB89828A83E493A3F208DFF980CC9A
:1000D30088F0EF60010E4E60C388F0ED2402B40493
:1000E3000050B9F582EB2402B4040050AF2323453A
:0600F3008223900053730C
:100261000206CBE493A3F8E493A34003F68001F2E2
:1002710008DFF48029E493A3F85407240CC8C3339E
:10028100C4540F4420C8834004F456800146F6DF6D
:10029100E4800B010204081020408090062EE47EC9
:1002A100019360BCA3FF543F30E509541FFEE49362
:1002B100A360010ECF54C025E060A840B8E493A329
:1002C100FAE493A3F8E493A3C8C582C8CAC583CA54
:1002D100F0A3C8C582C8CAC583CADFE9DEE780BE0C
:01064A0000AF
:00000001FF
