:040F950031323300C2
:100F1E00120AE47BFF7A0F79959000057410F0E4C5
:070F2E00FDFF120D8480FE9F
:100003000000000000000000002F000000000700B7
:10001300070000147F147F1400242A7F2A12006231
:1000230064081323003649552250000005030000DD
:1000330000001C224100000041221C000014083E65
:1000430008140008083E0808000000A0600000082B
:10005300080808080000606000000020100804027F
:10006300003E5149453E0000427F4000004261513D
:100073004946002141454B31001814127F100027D7
:1000830045454539003C4A4949300001710905039A
:1000930000364949493600064949291E00003636CB
:1000A300000000005636000000081422410000142E
:1000B300141414140000412214080002015109060B
:1000C30000324959513E007C1211127C007F49498C
:1000D3004936003E41414122007F4141221C007FBD
:1000E30049494941007F09090901003E4149497ACB
:1000F300007F0808087F0000417F41000020404145
:100103003F01007F08142241007F40404040007FB0
:10011300020C027F007F0408107F003E4141413EF4
:10012300007F09090906003E4151215E007F09193C
:1001330029460046494949310001017F0101003F39
:100143004040403F001F2040201F003F4038403FB9
:10015300006314081463000708700807006151491D
:10016300454300007F41410000552A552A550000B0
:1001730041417F000004020102040040404040402E
:10018300000001020400002054545478007F4844C6
:10019300443800384444442000384444487F0038FD
:1001A3005454541800087E0901020018A4A4A47C26
:1001B300007F080404780000447D400000408084F0
:1001C3007D00007F102844000000417F4000007C38
:1001D30004180478007C0804047800384444443844
:1001E30000FC242424180018242418FC007C080490
:1001F300040800485454542000043F444020003C69
:100203004040207C001C2040201C003C4030403CEF
:10021300004428102844001CA0A0A07C004464547F
:100223004C441414141414140000000000000000C3
:100233000000000000000000000000F800000000C3
:10024300000000333000000000100C06100C060004
:10025300000000000000000040C07840C07840006B
:10026300043F04043F040400007088FC08300000CD
:10027300001820FF211E0000F008F000E018000025
:1002830000211C031E211E0000F0088870000000DE
:100293001E2123241927211010160E000000000030
:1002A3000000000000000000000000E0180402004D
:1002B300000000071820400000020418E0000000BE
:1002C3000040201807000000404080F080404000BC
:1002D3000202010F01020200000000F00000000012
:1002E3000101011F010101000000000000000000E6
:1002F30080B070000000000000000000000000005B
:1003030000010101010101010000000000000000E3
:10031300003030000000000000000000806018047E
:10032300006018060100000000E010080810E0005B
:10033300000F102020100F00001010F80000000024
:100343000020203F2020000000700808088870006B
:1003530000302824222130000030088888483000EB
:100363000018202020110E000000C02010F800000B
:1003730000070424243F240000F8088888080800A4
:100383000019212020110E0000E0108888180000B9
:10039300000F112020110E0000380808C83808008B
:1003A3000000003F0000000000708808088870000B
:1003B300001C222121221C0000E010080810E0008C
:1003C3000000312222110F00000000C0C000000015
:1003D300000000303000000000000080000000003A
:1003E3000000806000000000000080402010080032
:1003F30000010204081020004040404040404000FB
:1004030004040404040404000008102040800000D5
:100413000020100804020100007048080808F000DA
:100423000000003036010000C030C828E810E000AA
:100433000718272423140B000000C038E000000035
:10044300203C23020227382008F88888887000009F
:10045300203F202020110E00C03008080808380073
:10046300071820202010080008F808080810E000EA
:10047300203F202020100F0008F88888E80810008B
:10048300203F20202320180008F88888E80810005F
:10049300203F200003000000C03008080838000097
:1004A30007182020221E020008F808000008F80898
:1004B300203F210101213F20000808F8080800001F
:1004C3000020203F2020000000000808F808080052
:1004D300C08080807F00000008F888C028180800CA
:1004E300203F20012638200008F808000000000003
:1004F300203F20202020300008F8F800F8F80800FA
:10050300203F003F003F200008F830C00008F808F3
:10051300203F200007183F00E01008080810E00003
:100523000F10202020100F0008F808080808F0001A
:10053300203F210101010000E01008080810E0003D
:100543000F18242438504F0008F8888888887000D2
:10055300203F2000030C3020007088080808380072
:100563000038202121221C00180808F80808180068
:100573000000203F2000000008F808000008F808E9
:10058300001F202020201F000878880000C838089A
:10059300000007380E010000F80800F80008F80012
:1005A300033C0700073C03000818688080681808AC
:1005B30020302C03032C30200838C800C83808002A
:1005C3000000203F2000000010080808C838080079
:1005D3002038262120201800000000FE020202001D
:1005E3000000007F40404000000C30C000000000CD
:1005F300000000010638C00000020202FE000000F5
:10060300004040407F00000000000402020204009A
:1006130000000000000000000000000000000000D7
:1006230080808080808080800002020400000000BF
:1006330000000000000000000000808080800000B7
:100643000019242222223F2008F8008080000000A5
:10065300003F112020110E00000000808080000068
:10066300000E112020201100000000808088F80077
:10067300000E112020103F200000808080800000A9
:10068300001F222222221300008080F0888888180D
:100693000020203F20200000000080808080800018
:1006A300006B94949493600008F8008080800000AD
:1006B300203F210000203F20008098980000000088
:1006C3000020203F202000000000008098980000B8
:1006D30000C08080807F000008F8000080808000D8
:1006E300203F24022D302000000808F800000000FD
:1006F3000020203F202000008080808080808000B8
:10070300203F20003F20003F808000808080000049
:10071300203F210000203F200000808080800000D7
:10072300001F202020201F00808000808000000008
:1007330080FFA12020110E00000000808080800037
:10074300000E112020A0FF80808080008080800028
:1007530020203F2120000100000080808080800055
:100763000033242424241900008080E080800000CA
:100773000000001F20200000808000000080800017
:10078300001F202020103F20808080000080808078
:1007930000010E3008060100808000800080808008
:1007A3000F300C030C300F0000808000808080002D
:1007B3000020312E0E312000808080000080808058
:1007C30080818E7018060100008080808080800008
:1007D3000021302C2221300000000000807C020226
:1007E30000000000003F404000000000FF00000048
:1007F30000000000FF0000000002027C80000000F7
:100803000040403F00000000000601010202040412
:1008130000000000000000000000F010101010FFA6
:1008230010101010F000000000000F04040404FF77
:10083300040404040F0000004040405F5555557503
:100843005555555F404040000040200F09498979C4
:100853000909090F2040000000FE02424ACA4A4A21
:10086300CA4A4A4202FE000000FF40504C43404047
:100873004F50505C40FF00000000F888888888FFD4
:1008830088888888F800000000001F080808087F8F
:10089300888888889F80F00080828282828282E2B8
:1008A300A2928A8682808000000000000040807F40
:1008B3000000000000000000101010FF10900888D6
:1008C3008888FF88888808000444827F01808040EC
:1008D300432C1028468180000010101010D030FFE8
:1008E30030D0121C1010000010080402010000FF99
:0808F3000000010204081000DE
:100F0400EF4E60157D087C07ED1DAA0470011C4A94
:090F140070F6EF1F70EA1E80E781
:010F1D0022B1
:100EE80090002EEFF07006FD7FA6120E0190002EE6
:0C0EF800E0B40107E4FD7FA7120E012208
:100E2A0090002FEFF0700DFD7FC8120E01E4FD7FD8
:100E3A00A1120E0190002FE0B4010EE4FD7FC01252
:0A0E4A000E01E4FD7FA0120E01224C
:080F8C007F01AE071FEE70FAB1
:010F9400223A
:0F0F4A00D294D293120F8CC294120F8CC29322A6
:0A0F8200C294D293120F8CD2942275
:0F0F5900D294120F8CD293120F8CC293020F8C72
:020EA600AD0796
:100EA800E4FCC293ED30E704D2948002C294120F9E
:100EB8008CD293120F8CC293ED25E0FD0CECB40894
:010EC800E148
:010EC9002206
:0D0DF400120E01E4FDFF120E01E4FD7F1060
:100E0100AB05AA07120F4A7F78120EA6120F59EBF3
:100E110060047F408002E4FF120EA6120F59AF0258
:090E2100120EA6120F59020F82F5
:070E5400E0FFA3E0FD04F044
:100E5B00A907ED24B0FFE4FD120E01E954F0C454D0
:100E6B000F4410FFE4FD120E01E9540FFFE4FD02E5
:020E7B000E0166
:100F3500E4FD7F8D120E01E4FD7F14120E01E4FD28
:050F45007FAF020E0168
:0E0F6800E4FD7F8D120DFAE4FD7FAE020E0156
:100E7D00E4F9E924B0FFE4FD120DF4E4900000F074
:100E8D007D01E4FF120E01900000E004F0E0C39438
:080E9D008040ED09E9B408DA18
:010EA500222A
:0808FB00900007EFF0A3EDF0FF
:10090300E490000BF090000AE0FFC313FD90000C8D
:10091300F0E4A3F0A3F0EFB40809A3E4F0A3740692
:10092300F0803190000AE0FF131313541FF5827512
:100933008300EF54077E0060047F0180027F00EF95
:100943002582FFEE3583FE7C00120C7490000FEEBF
:10095300F0A3EFF0EB24E090000BF0900007E0FF32
:10096300A3E0FD120E5BE490000DF0A3F090000FE6
:10097300E0FCA3E0FD90000DE0FEA3E0FFC39DEECD
:100983009C4003020A0890000CE0FD7C00120C86D8
:10099300ED4C700E90000AE06408600690000712A8
:1009A3000E5490000AE0F9B4081A90000DE0FEA37B
:1009B300E0FF90000BE075F006A42403F582E5F058
:1009C3003400801CE9B4103D90000DE0FEA3E0FF6D
:1009D30090000BE075F010A4242BF582E5F03402AF
:1009E300F583E5822FF582E5833EF583E493FF7D6E
:1009F30001120E0190000EE004F0700690000DE06D
:050A030004F00209707F
:010A080022CB
:070ECA00900030EFF0A905D4
:100ED1007F017E00AD0119ED600C900030E0FD7CDA
:060EE10000120C7480EE0B
:010EE70022E8
:0E0A090090001CEFF0A3EDF0A3EAF0A3EBF0D9
:100A1700E4900024F0A3F0900021E0B408069000D1
:100A2700247402F0E4900022F0900020E0FF900090
:100A370022E0FEC39F4003020AE3C3EF9E14FD7F3B
:100A47000A120ECA90001EE0FCA3E0FDCFCDCFCE68
:100A5700CCCE120C867C007D0A120C86900023ED0A
:100A6700F0900025E0703C900020E014FF900022F9
:100A7700E0FEC39F502DA3E07023900021E0FCC34C
:100A870013FF900024E02F8EF0A4FF90001CE02FAE
:100A9700FFA3E0FD90000AECF07B20803390002557
:100AA7007401F0900021E0FEC313FF900024E02FB3
:100AB700FF900022E0FDEF8DF0A4FF90001CE02FD7
:100AC700FFA3E0FD900023E02430FB90000AEEF046
:0C0AD7001208FB900022E004F0020A303C
:010AE30022F0
:100D8400900000EFF0A3EDF0A3EBF0A3EAF0A3E9E9
:010D9400F06E
:100D9500E4900006F0900002E0FBA3E0FAA3E0F97E
:100DA500900006E0F582758300120C4760409000C4
:100DB50000E0FFA3E0FD900006E0FE04F08E8275E2
:100DC5008300120C47FB900005E090000AF0120822
:100DD500FB900005E0FFB40809900000E02406F050
:0E0DE50080B3EFC313FF900000E02FF080A753
:010DF30022DD
:0B0B9C00900026EFF0A3EDF0A3EBF0BB
:100BA700A3E0FF131313541FFD7C00EF54077E00CF
:100BB70060047F0180027F00EF2DFFEE3CFE900076
:100BC70029E0FD7C00120C7490002CEEF0A3EFF0EE
:100BD700E490002AF0A3F090002CE0FCA3E0FD9045
:100BE700002AE0FEA3E0FFC39DEE9C50529000292F
:100BF700E0FD7C00120C86ED4C7006900026120E6C
:100C070054900029E0B41037A3A3E0FF900028E038
:100C1700C43354E0241BF582E43408F583E5822FBE
:100C2700F582E43583F583E493FF7D01120E01908D
:0F0C3700002BE004F070A090002AE004F08098F9
:010C4600228B
:0B0CF100900011EFF0A3EDF0A3EBF07A
:100CFC00E4900018F0A3F0900014E0FF13131354C9
:100D0C001FFEEF540760047F0180027F00EE2F90DE
:100D1C000014F0E490001AF0900014E0FF90001A18
:100D2C00E0FEC39F5051900011E0FFA3E0FDEE2DBB
:100D3C00FD120E5BE490001BF0900013E0FF90009E
:100D4C001BE0C39F5029900015E0FBA3E0FAA3E041
:100D5C00F9A3E475F001120CDB85F082F583120C1B
:100D6C0047FF7D01120E0190001BE004F080CA9039
:070D7C00001AE004F080A161
:010D8300224D
:100AE400E4FD7FAE120DF4E4FD7F40120E01E4FD3F
:100AF4007F81120E01E4FD7FCF120E01E4FD7FA180
:100B0400120E01E4FD7FC8120E01E4FD7FA6120E51
:100B140001E4FD7FA8120E01E4FD7F3F120E01E403
:100B2400FD7FD3120E01E4FDFF120E01E4FD7FD51B
:100B3400120E01E4FD7F80120E01E4FD7FD9120E36
:100B440001E4FD7FF1120E01E4FD7FDA120E01E4EF
:100B5400FD7F12120E01E4FD7FDB120E01E4FD7F26
:100B640040120E01E4FD7F20120E01E4FD7F02120B
:100B74000E01E4FD7F8D120E01E4FD7F14120E01BF
:100B8400E4FD7FA4120E01E4FD7FA6120E01120EF5
:080B94007DE4FD7FAF020E01BC
:03000000020F7676
:0C0F7600787FE4F6D8FD758107020F1E9D
:100C4700BB010CE58229F582E5833AF583E0225062
:100C570006E92582F8E622BBFE06E92582F8E222AC
:0D0C6700E58229F582E5833AF583E49322C6
:100C7400EF8DF0A4A8F0CF8CF0A428CE8DF0A42E94
:020C8400FE224E
:100C8600BC000BBE0029EF8DF084FFADF022E4CC52
:100C9600F875F008EF2FFFEE33FEEC33FCEE9DEC1B
:100CA600984005FCEE9DFE0FD5F0E9E4CEFD22ED61
:100CB600F8F5F0EE8420D21CFEADF075F008EF2FAB
:100CC600FFED33FD4007985006D5F0F222C398FD9C
:050CD6000FD5F0EA2239
:100CDB00A3F8E0C5F025F0F0E582158270021583CC
:060CEB00E0C838F0E82229
:00000001FF
