:103B2500B3C6D6D8B2E2CAD400B8B4CEBB00D0A3CF
:103B3500D7BC00C8A5C6A4002D2533642E2564670F
:0A3B450000202533642E256467007C
:10000E00440C9800000000440C9C00000000440CBE
:10001E00A000000000440C9400000000410CA4005D
:10002E00420C8C0000420C8E0000410C9000410CE2
:07003E009101420C92000049
:103BBD00E4F5937594FFF591F592F595F596F5B1BC
:0B3BCD00F5B2F5B3F5B4F5C9F5CA2256
:103C1C00538E7F5389F0758A66758CFCC28DD28C5D
:033C2C00D2A922F8
:1036330020B32E900C8EE475F00112112EFEC3E51B
:10364300F0940AEE9400407C900C8CE07002A3E0AE
:103653007072900C8CF0A304F01237DE900C9C80F7
:103663005320B253900C8EE475F00112112EFEC359
:10367300E5F0940AEE9400404B900C8CE07002A3AA
:10368300E07041900C8CF0A304F0900C9CE0F8A344
:10369300E0F9A3E0FAA3E0FB900C98E0FCA3E0FDC3
:1036A300A3E0FEA3E0C39BFFEE9AFEED99FDEC9829
:1036B300FC900CA0021282E4900C8EF0A3F0900C0C
:0436C3008CF0A3F0F4
:0136C70022E0
:1017E900123BBD123C1CD2AF123C7B123079E4FF94
:1017F900FE12385FE4900AA6F0A3F0A37418F0E48F
:10180900A3F0A374FFF0A3743BF0A37425F074FF55
:10181900FBFAE4FDFC7F3CFE123590900AA6E4F049
:10182900A3748CF0A374BCF0A37440F07B147A0009
:101839007D287C007F147E001228C8900AA6E4F057
:10184900A3748CF0A374BCF0A37440F07BC87A0035
:101859007D8C7C007F147E001228C8E4900AA6F0D3
:10186900A3F0A37410F0E4A3F0A374FFF0A3743BF6
:10187900F0A3742EF07B007AF87DDC7C00E4FFFE97
:10188900123590E4900AA6F0A3F0A37410F0E4A333
:10189900F0A374FFF0A3743BF0A37433F07B007AD8
:1018A900F87DDC7C007F607E00123590E4900AA60A
:1018B900F0A3F0A37410F0E4A3F0A374FFF0A374F1
:1018C9003BF0A37438F07B007AF87DDC7C007FC0A4
:1018D9007E001235901237DE900C9C121282900C09
:1018E900A012128E00012988C280900CA4E0700316
:1018F90002197BE4F01237DE900C98121282900CD8
:101909009CE0FCA3E0FDA3E0FEA3E0FFE4120E1DB2
:10191900C004C005C006C007900C98E0FCA3E0FD18
:10192900A3E0FEA3E0FFE4120E1DD003D002D00114
:10193900D000120AF8C004C005C006C007900CA068
:10194900E0FCA3E0FDA3E0FEA3E0FFE4120E1DA866
:1019590004A905AA06AB07D007D006D005D0041202
:101969000CF6E4FBFA79487843120BED900C9412CB
:101979001282E4FFFEFDFC900C94E0F8A3E0F9A3C9
:10198900E0FAA3E0FB120D93900C94E0FC504DA3F8
:10199900E0FDA3E0FEA3E0FF120E0C900C941212DE
:1019A90082900C94E0FCA3E0FDA3E0FEA3E0FF120B
:1019B9000E5B7C007D0A1210F8900AADEEF0A3EFE1
:1019C900F0E4900AA6F0A3F0A37410F0E4A3F0A346
:1019D90074FFF0A3743BF0A3743D8034A3E0FDA32E
:1019E900E0FEA3E0FF120E5B7C007D0A1210F89066
:1019F9000AADEEF0A3EFF0E4900AA6F0A3F0A37409
:101A090010F0E4A3F0A374FFF0A3743BF0A37446B1
:101A1900F0900C94E0FCA3E0FDA3E0FEA3E0FF122C
:101A29000E5B7C007D0A1210F8900AAFECF0A3ED72
:101A3900F07BE07A077D917C007F507E0012359023
:101A4900900C91E0FB7A002413FFEA33FEC006C034
:101A590007900C90E0FFC3748C9FFDE49400FCC0D8
:101A690004C005EB2414FBEA33FAC002C003900C4E
:101A790094E0FCA3E0FDA3E0FEA3E0FF120E5BAD42
:101A890007AC06EC120E22E4FBFA79487842120CF4
:101A9900F6A804A905AA06AB07E4FFFE7D0C7C4362
:101AA900120AF8120E5B900AA6EEF0A3EFF0A374E7
:101AB90007F0A374E0F0D003D002D005D004D0071A
:101AC900D0061228C8900C94E0FCA3E0FDA3E0FE28
:101AD900A3E0FF120E5BAD07AC06EC120E22E4FB8D
:101AE900FA79487842120CF6120E5B900C90EFF0DE
:101AF900A3E004F0E0C394B450030218F17401F0B8
:101B0900900AA6E4F0A3748CF0E4A3F0A3F07BC8D8
:101B1900FA7D28FC7F14FE1234E4900AA6E4F0A3AF
:101B2900748CF0A374BCF0A37440F07B147A007D2C
:101B3900287C007F147E001228C8900AA6E4F0A32E
:101B4900748CF0A374BCF0A37440F07BC87A007D58
:0D1B59008C7C007F147E001228C80218F159
:03000B000239AE09
:1039AE00C0E0C0F0C083C082C0D075D000C000C0DF
:0D39BE0001C002C003C004C005C006C00760
:1039CB00123633900C92E475F00112112EFEC3E502
:1039DB00F09432EE9400400EB287900C92E4F0A378
:0639EB00F0900CA404F0B2
:1039F100D007D006D005D004D003D002D001D0002A
:0B3A0100D0D0D082D083D0F0D0E032D3
:073C7B00D292D2CDD2C72284
:103BF200E4FEEF3392CDEF25E0FFC292D2920EEEB9
:053C0200B408EFD2CD73
:013C0700229A
:103AA600900C82EBF0A3EAF0A3E9F0A3ECF0A3ED0F
:013AB600F01F
:103AB700C2C7E4FDFCD3900C86E09D900C85E09C8A
:103AC700401D900C82E0FBA3E0FAA3E0F98D828C05
:103AD700831210A7FF123BF20DBD00010C80D6D256
:013AE700C717
:013AE80022BB
:0B3C3E00EF1FAC0670011E4C70F62258
:0B3C4900D2A1D2A000C2A100C2A022A4
:0B3C5400C2A1D2A000D2A100C2A02299
:0E3C2F00D2A100D2A000A2A19209C2A0A209B7
:013C3D002264
:0A3C5F00C2A1D2A000C2A0D2A1228F
:103C0800E4FEEF25E0FF92A100D2A000C2A00EEED4
:033C1800B408EFFE
:013C1B002286
:103BD800E4FFD2A1FEEF25E0FFD2A000A2A1E433CA
:093BE8004FFFC2A00EEEB408EC80
:013BF10022B1
:1000450065F004AC000000000000000000000000A6
:100055000000000000000008080808080808000063
:100065001818000000486C24120000000000000071
:10007500000000000000002424247F1212127F12C9
:10008500121200000000081C2A2A0A0C1828282A27
:100095002A1C080800000022251515152A58545455
:1000A500542200000000000C1212120A76252911B4
:1000B500916E000000060604030000000000000029
:1000C500000000000040201010080808080808106B
:1000D500102040000002040808101010101010082D
:1000E500080402000000000008086B1C1C6B0808CF
:1000F5000000000000000000080808087F08080844
:1001050008000000000000000000000000000000E2
:10011500060604030000000000000000FE000000C9
:1001250000000000000000000000000000000000CA
:10013500060600000000804040202010100808043A
:100145000402020000000018244242424242424298
:1001550024180000000000080E0808080808080810
:10016500083E00000000003C4242422020100804E6
:10017500427E00000000003C4242201820404042E0
:10018500221C0000000000203028242422227E208A
:10019500207800000000007E0202021A264040423C
:1001A500221C0000000000382402021A26424242A6
:1001B500241800000000007E2222101008080808FC
:1001C500080800000000003C424242241824424234
:1001D500423C00000000001824424242645840405E
:1001E500241C00000000000000001818000000009A
:1001F50018180000000000000000000800000000C2
:10020500000808040000004020100804020408103B
:10021500204000000000000000007F0000007F007B
:100225000000000000000002040810204020100813
:10023500040200000000003C42424640201010002D
:10024500181800000000001C225A555555552D421E
:10025500221C00000000000808181414243C224247
:1002650042E700000000001F2222221E22424242D5
:10027500221F00000000007C4242010101010142F1
:10028500221C00000000001F22424242424242421C
:10029500221F00000000003F4212121E12120242ED
:1002A500423F00000000003F4212121E12120202DD
:1002B500020700000000003C2222010101712122F9
:1002C500221C0000000000E7424242427E424242B8
:1002D50042E700000000003E080808080808080872
:1002E500083E00000000007C1010101010101010C7
:1002F5001010110F0000007722120A0E0A121222A6
:100305002277000000000007020202020202020238
:10031500427F000000000077363636362A2A2A2A20
:100325002A6B0000000000E346464A4A52525262D8
:10033500624700000000001C22414141414141410A
:10034500221C00000000003F424242423E020202DF
:10035500020700000000001C2241414141414D536C
:10036500321C60000000003F4242423E121222222F
:1003750042C700000000007C4242020418204042AF
:10038500423E00000000007F4908080808080808E8
:10039500081C0000000000E742424242424242423D
:1003A500423C0000000000E74242222424141418B5
:1003B500080800000000006B494949495555362297
:1003C50022220000000000E74224241818182424E3
:1003D50042E70000000000772222141408080808EC
:1003E500081C00000000007E2120101008040442B3
:1003F500423F0000007808080808080808080808AF
:1004050008087800000002020404080808101020FB
:1004150020204040001E1010101010101010101059
:1004250010101E000038440000000000000000000D
:1004350000000000000000000000000000000000B7
:10044500000000FF0006080000000000000000009A
:1004550000000000000000000000003C427844421B
:1004650042FC0000000000030202021A264242423A
:10047500261A0000000000000000003844020202B5
:100485004438000000000060404040784442424249
:1004950064D80000000000000000003C427E02021B
:1004A500423C0000000000F08808087E08080808A3
:1004B500083E0000000000000000007C22221C0213
:1004C5003C42423C000000030202023A46424242DC
:1004D50042E700000000000C0C00000E08080808A8
:1004E500083E0000000000303000003820202020A9
:1004F5002020221E0000000302020272120A1612B8
:10050500227700000000000E0808080808080808FF
:10051500083E0000000000000000007F92929292C9
:1005250092B70000000000000000003B4642424236
:1005350042E70000000000000000003C4242424249
:10054500423C0000000000000000001B2642424221
:10055500221E0207000000000000007844424242CB
:10056500447840E000000000000000774C040404DB
:10057500041F0000000000000000007C42023C4017
:10058500423E0000000000000008083E0808080878
:1005950008300000000000000000006342424242B3
:1005A50062DC000000000000000000E74224241483
:1005B5000808000000000000000000EB49495555FF
:1005C5002222000000000000000000762418181800
:1005D500246E000000000000000000E742242414FF
:1005E50018080807000000000000007E2210080817
:1005F500447E000000C02020202020102020202044
:100605002020C00010101010101010101010101025
:100615001010101000060808080808100808080837
:10062500080806000C32C2000000000000000000AF
:10063500000000005A0000D6D0200020002000FE57
:1006450003220222022202FE0322022000200020B1
:100655000061760336CFB5001CFE0320002008108C
:1006650004FC03800040042008FC1F8010900490C7
:10067500088810A4104000CDB3080108020412E454
:100685003F12019F084810E43F82249F04820480A2
:10069500045844474422781000C6F480000021F82D
:1006A5007F082008200820F83F08000820F87F1858
:1006B50020142014201220F13F1020B6AF000210A4
:1006C500023E020022A07F7F220822082204222463
:1006D5002242217F218220802040142008D6D0800C
:1006E5000080008020FE7F8220822082208220FEE2
:1006F5003F8220800080008000800080008000C84C
:10070500A5800080008010FE3F8000800080008072
:1007150020FF7F40004000200210040808FC1F0055
:1007250010C6A4000100010001FC3F0421041104CE
:1007350001F41F04102408440484020401820662A3
:10074500781920D0A3080208040820C87F3F0008B4
:10075500118C605C512A110A0A090A0804080A0862
:1007650011C8703820D7BC800282048C24C87F4011
:10077500046814D83F48044414C73F44044404445F
:1007850024C47F44004000B8B40810F83F0400F4C6
:100795000F1208F10F1008F00F2000F00F30044879
:1007A5000284014202200C1C70CEBB100110021005
:1007B500020810E83F0C004A10491088088808080C
:1007C5000908050824F87F08000800629A009CCFF4
:1007D500B500000000800FFCFF1FFCFF1FF81E0086
:1007E500000F03808307C0C103F0FF01F07F0020E5
:1007F5001C03008F07C0030EF8FF1FF8FF3F1038DA
:1008050010403801C0B907E0380F70381E3C383C3D
:100815001C3E18001E00000000CDB300800030C053
:100825000170800130800338000318FE7F0CFE7FC5
:100835008CE100C6E100FE710EFE380C601C1C70D8
:10084500FE3F38FC7F186033FE6103FE61033E60A6
:1008550003006003803303FC3B23FE19631E1E7FE8
:10086500000F7EC6F4003800003800F0FF3FF0FFAF
:100875003FF0FF3F700038700038700038F0FF3FE0
:10088500F0FF3FF0FF3F700000700000F0FF3FF009
:10089500FF3FB8FF3FB803389803389C03388CFFF7
:1008A5003F8EFF3F86FF3F840338000000B6AF0050
:1008B5008003008003FC8701FC8701FC8701008021
:1008C5000100F87F00F87FFECF31FECF31E0C03167
:1008D50060C03170C03170C33030C73038E6381869
:1008E500E738FC6F38FE7F383E3C38043C3F001F3C
:1008F5001F000F0E000600D6D0003800003800009B
:100905003800003800003800F8FF3FF8FF3FF8FFD7
:100915003F3838383838383838383838383838384B
:10092500383838F8FF3FF8FF3FF8FF3F38383800D0
:100935003800003800003800003800003800003862
:1009450000B2E20000000C0010B86070B0FF3290F9
:100955006036806432A66C32AC6432AC6432A46416
:1009650032906432906432906432886432886432A2
:100975008E64328C64328C24320C16300C23300C8D
:1009850061308CC03E488018200008CAD400800021
:1009950008801B30803170800160803120FF7F002E
:1009A50080013080017E800130900130BF01308CA4
:1009B50001300C03300C03300C03300C23300C23B6
:1009C500300D26B06C26701C2C38073C10027000C8
:1009D5000060000000B3C600200000E300E06700EF
:1009E5007C300060303060F07F601830608910FE28
:1009F500870B708401708201F0900168B105689BD6
:100A050009689819648C31648431628461608261FB
:100A150060822160810160F80160E000204000D61D
:100A2500D800000700F00FE07F0000180000183024
:100A3500FEFF7F001800201806E0FF0F6018066013
:100A45001806E0FF07601806601806E0FF07601843
:100A550002201800001806F0FF0F001800001830DB
:100A6500FEFF7F0000000000006082001AB5E7006D
:100A75000000000000000000E0000000E0000000B1
:100A8500E0000000E0000000E00000F8FFFF03F8D0
:100A9500FFFF0338E0800338E0800338E080033847
:100AA500E0800338E08003F8FFFF03F8FFFF033819
:100AB500E0800338E0800338E0800338E0800338C5
:100AC500E08003F8FFFF03F8FFFF0338E00000387C
:100AD500E0000038E0000000E0007000E0003800B1
:0F0AE500E0013800C0FF3F0080FF1F000000004D
:0838DE00900CF0EEF0A3EFF0F6
:1038E600900C88E4F0A374EFF0FB7A00E4FDFCFF93
:1038F600FE123AE9E4900CF2F0A3F0E4900CF4F036
:10390600A3F0900CF0E0FEA3E0FF123B54900CF500
:10391600E004F07006900CF4E004F0C3900CF5E0BF
:1039260094F0900CF4E0940040D8900CF3E004F08E
:103936007006900CF2E004F0C3900CF3E094F09063
:073946000CF2E0940040B414
:01394D002257
:04385F00AD07AC06FF
:10386300E4FBFAC3EB94E0EA9401502374A32BF531
:1038730082740A3AF583EDF0ECFF74A22BF582749F
:103883000A3AF583EFF074022BFBE43AFA80D49002
:103893000C88E4F0A374EFF0FB7A00E4FDFCFFFE78
:1038A300123AE9E4900AA0F0A3F0D2CBC2C77B019D
:1038B3007A0A79A27DE07C01123AA6D2C7900AA1C6
:1038C300E004F07006900AA0E004F0C3900AA1E0BF
:0A38D30094F0900AA0E0940040D0A9
:0138DD0022C8
:1034E400900AA0EEF0A3EFF0A3ECF0A3EDF0A3EAB2
:0434F400F0A3EBF066
:1034F800C006C00724FFFBEA34FFFAA3E0FEA3E0FE
:1035080024FFFFEE34FF900C88F0A3EFF0D007D033
:1035180006123AE9900AA2E0FFA3E0900AAACFF0C7
:10352800A3EFF0900AA6E0FEA3E0FFC3900AABE089
:103538009F900AAAE09E504F900AA0E0FFA3E09057
:103548000AACCFF0A3EFF0900AA4E0FEA3E0FFC31B
:10355800900AADE09F900AACE09E501B900AA8E04C
:10356800FEA3E0FF123B54900AADE004F070D8903F
:103578000AACE004F080D0900AABE004F070A490AC
:073588000AAAE004F0809C98
:01358F002219
:10394E00900CE2FEE0FCA3E0FDC3900CDEE09DFDDA
:0E395E00900CDDE09CFC900CE0E0FAA3E0FB96
:10396C00900B39EEF0A3EFF0900B3DEAF0A3EBF0E7
:10397C00900B3BECF0A3EDF0900B39E0FAA3E0FBDD
:10398C00FFAE02C007A3E0FFA3E0900C88CFF0A32A
:10399C00EFF0D007123AE9900B3DE0FEA3E0FF02F6
:0239AC003B548A
:0E28C800900AA0EEF0A3EFF0A3ECF0A3EDF069
:1028D600E4900AACF0A3F0A3F0A3F0900AA0E0FE07
:1028E600A3E0FFC3EB9FFFEA9E900AB0F0A3EFF0D0
:1028F600900AA2E0FAA3E0FBC3900AA7E09BFE9031
:102906000AA6E09A900AB2F0A3CEF0900AA0E0FFE1
:10291600A3E0900ABACFF0A3EFF0A3EAF0A3EBF09E
:10292600900AB0E0FEA3E0FFD39400EE64809480AA
:10293600400A900AB6E4F0A304F08021EF4E700836
:10294600900AB6F0A3F0801574FF900AB6F0A3F0D3
:10295600C3E49FFFE49E900AB0F0A3EFF0900AB2A2
:10296600E0FEA3E0FFD39400EE64809480400A90DA
:102976000AB8E4F0A304F08021EF4E7008900AB87C
:10298600F0A3F0801574FF900AB8F0A3F0C3E49F9B
:10299600FFE49E900AB2F0A3EFF0900AB2E0FEA325
:1029A600E0FF900AB0E0FCA3E0FDD39FEE6480F860
:1029B600EC648098900AB44007ECF0A3EDF0800533
:1029C600EEF0A3EFF0E4900AAAF0A3F0900AB5E0C7
:1029D6002401FF900AB4E03400FEC3900AABE09FE6
:1029E600900AAAE09E4003022AB5900ABAE0FEA326
:1029F600E0FFA3E0FCA3E0FD900AA8123967900A65
:102A0600B0E0FEA3E0FF900AADE02FF0900AACE044
:102A16003EF0900AB2E0FEA3E0FF900AAFE02FF08E
:102A2600900AAEE03EF0900AB4E0FEA3E0FF900A02
:102A3600ACE0FCA3E0FDD39FEE6480F8EC648098E4
:102A46004020ED9FFFEC9E900AACF0A3EFF0900AB9
:102A5600B6E0FEA3E0FF900ABBE02FF0900ABAE0D2
:102A66003EF0900AB4E0FEA3E0FF900AAEE0FCA3BD
:102A7600E0FDD39FEE6480F8EC6480984020ED9FE3
:102A8600FFEC9E900AAEF0A3EFF0900AB8E0FEA32A
:102A9600E0FF900ABDE02FF0900ABCE03EF0900AFD
:0F2AA600ABE004F07006900AAAE004F00229D217
:012AB50022FE
:1033FE00900CEAEAF0A3EBF0900CE6EEF0A3EFF0FF
:10340E00A3ECF0A3EDF0C007A3E0FAA3E0FB900C51
:10341E00E8E0FFA3E0900AA6CFF0A3EFF0900CEE49
:10342E00E0FFA3E0900AA8CFF0A3EFF0D007122898
:10343E00C8900CE6E0FAA3E0FBFFAE02C007A3E0E3
:10344E00FCA3E0FD900CECE0FFA3E0900AA6CFF009
:10345E00A3EFF0900CEEE0FFA3E0900AA8CFF0A34C
:10346E00EFF0D0071228C8900CECE0FCA3E0FD9022
:10347E000CEAE0FAA3E0FBA3E0FFA3E0900AA6CFDC
:10348E00F0A3EFF0900CEEE0FFA3E0900AA8CFF0CF
:10349E00A3EFF0900CE6E0FEA3E0FF1228C8900C1C
:1034AE00EAE0FAA3E0FBFFAE02C007900CE8E0FCF6
:1034BE00A3E0FD900CECE0FFA3E0900AA6CFF0A3F2
:1034CE00EFF0900CEEE0FFA3E0900AA8CFF0A3EF90
:0634DE00F0D0070228C82F
:102AB600900CDBEEF0A3EFF0A3ECF0A3EDF0A3EBAC
:012AC600F01F
:102AC700E4900CE2F0A3F0EBFFA3E4F0A3EFF090A7
:102AD7000CE4E0FEA3E0FFD3900CE3E09FEE6480FC
:102AE700F8900CE2E06480984003022C55C3900CE8
:102AF700DCE09FFF900CDBE09E12394E900CE4E087
:102B0700FEA3E0FF900CDCE02FFF900CDBE03E1211
:102B1700394E900CE2E0FEA3E0FFC3900CDCE09F8F
:102B2700FF900CDBE09EFE900CE4E0FCA3E0FD9040
:102B37000CDEE02DFD900CDDE03C123963900CE2D9
:102B4700E0FEA3E0FFC3900CDCE09FFF900CDBE00E
:102B57009E900CE4123951900CE4E0FEA3E0FF9044
:102B67000CDCE02FFF900CDBE03EFE900CE2E0FC7B
:102B7700A3E0FD900CDEE02DFD900CDDE03C12396A
:102B870063900CE2E0FEA3E0FF900CDCE02FFF90E7
:102B97000CDBE03EFE900CE4123952900CE2E0FEB2
:102BA700A3E0FF900CDCE02FFF900CDBE03EFE90F3
:102BB7000CE4E0FCA3E0FD900CDEE02DFD900CDDC5
:102BC700E03C123963900CE4E0FEA3E0FFC3900CF5
:102BD700DCE09FFF900CDBE09EFE900CE2E0FCA3A4
:102BE700E0FD900CDEE02DFD900CDDE03C1239633A
:102BF700900CE3E004F07006900CE2E004F0900C17
:102C0700E4E0FCA3E0FDFFAE041210E6AA06AB0762
:102C1700900CE2E0FCA3E0FDFFAE041210E6EF2B00
:102C2700FDEE3AFC900CDFE0F5F0A4FFD3ED9FE555
:102C3700F06480F8EC6480985003022AD6900CE583
:0E2C4700E024FFF0900CE4E034FFF0022AD607
:012C5500225C
:102C5600900B04EEF0A3EFF0A3ECF0A3EDF0A3EBE2
:102C6600F0A3EAF0A3E9F0900B08E0FBA3E0FAA3D7
:102C7600E0F912108E7003022DE0900B0FE0640C49
:102C86007044900B06E0FCA3E0FD900B0BE0FFA365
:102C9600E0900B18CFF0A3EFF0900B0DE0FFA3E050
:102CA600900B1ACFF0A3EFF0900B0FE0900B1CF0F7
:102CB600900B10E0900B1DF0900B04E0FEA3E0FFDC
:102CC6001220DE022DC1900B0FE06410704B900BAA
:102CD60006E0FCA3E0FDA3E0FBA3E0FAA3E0F9A372
:102CE600E0FFA3E0900B18CFF0A3EFF0900B0DE000
:102CF600FFA3E0900B1ACFF0A3EFF0900B0FE0903C
:102D06000B1CF0900B10E0900B1DF0900B04E0FEF6
:102D1600A3E0FF121B66022DC1900B0FE064187032
:102D26004A900B06E0FCA3E0FDA3E0FBA3E0FAA3B8
:102D3600E0F9A3E0FFA3E0900B18CFF0A3EFF0902B
:102D46000B0DE0FFA3E0900B1ACFF0A3EFF0900B72
:102D56000FE0900B1CF0900B10E0900B1DF0900B09
:102D660004E0FEA3E0FF121E228050900B0FE064E9
:102D7600207067900B06E0FCA3E0FDA3E0FBA3E058
:102D8600FAA3E0F9A3E0FFA3E0900B18CFF0A3EFBE
:102D9600F0900B0DE0FFA3E0900B1ACFF0A3EFF03D
:102DA600900B0FE0900B1CF0900B10E0900B1DF0B9
:102DB600900B04E0FEA3E0FF122397900B09E47545
:102DC600F00212112E900B0FE0FF900B05E02FF092
:0B2DD600900B04E03400F0022C6D2292
:1020DE00900B13ECF0A3EDF0A3EBF0A3EAF0A3E961
:0920EE00F0900B11EEF0A3EFF0ED
:1020F700E4900B20F0900B27EEF0A3EFF0900B1C71
:10210700E0FF131313541FFD7C00EF54077E00609C
:10211700047F0180027F00EF2DFFEE3CFE900B1C39
:10212700E0FD7C001210E6900B25EEF0A3EFF09097
:102137000B23E4F0A304F0E4900B21F0A3F0900B41
:1021470023E0FEA3E0FF900B21E0FCA3E0FDC39F8B
:10215700EC9E4003022396900B15E0FBA3E0FAA345
:10216700E0F912108EFF90000075F01AED1212BF01
:10217700EC75F01AA42583F583E06F6003022385CD
:102187009000011210A7FF900B21A3E090000175AA
:10219700F01A1212BFEC75F01AA42583F583E06FCD
:1021A7006003022385900B13E0FCA3E0FD900B1C5A
:1021B700E0F9FF7E00900B11E0FAA3E02FFFEE3A63
:1021C700CF24FFFBEF34FFFAE9FFA3E0F8A3E02FEA
:1021D700FFEE38CF24FFCF34FF900C88F0A3EFF049
:1021E700900B11E0FEA3E0FF123AE9E4900B1EF01A
:1021F700900B1EE0FFD3900B26E09F900B25E094F9
:10220700005003022385E4900B1FF0900B1DE06044
:10221700030222B0900B21A3E075F01AA42402F563
:1022270082E43400F583C083C082900B1EE0D08225
:10223700D0832582F582E43583F583E0FD7C009029
:102247000B1FE0FF7E007401A807088005C333CE8B
:1022570033CED8F9FFEE5CFEEF5D4E6005900B18AC
:102267008003900B1AE0FCA3E0FDECFF900B1FE04E
:10227700FE25E02429F582E4340BF583EFF0EE2503
:10228700E0242AF582E4340BF583EDF0900B20E08F
:1022970004F0900B1CE0FF900B20E08FF084E5F03A
:1022A7006003022355F0022364900B21A3E075F02D
:1022B7001AA42402F582E43400F583C083C0829017
:1022C7000B1EE0D082D0832582F582E43583F58327
:1022D700E0FD7C00900B1FE0FF7E007401A807085B
:1022E7008005C333CE33CED8F9FFEE5CFEEF5D4EEB
:1022F7006014900B11E0FEA3E0FFA3E0FCA3E0FD58
:10230700900B18123967900B12E004F07006900BCF
:1023170011E004F0900B27E0FEA3E0FFC3900B123F
:10232700E09FFD900B11E09EFC900B1CE07A00B53E
:10233700051CEAB50418900B11EEF0A3EFF0900B13
:1023470014E004F07017900B13E004F0800F900B6B
:102357001FE004F0E0C394085003022212900B1D03
:10236700E07012D2CBC2C77B017A0B79297D10FCB2
:10237700123AA6D2C7900B1EE004F00221F7900B89
:0F23870022E004F07006900B21E004F0022145E3
:012396002224
:101B6600900B13ECF0A3EDF0A3EBF0A3EAF0A3E9DE
:091B7600F0900B11EEF0A3EFF06A
:101B7F00E4900B20F0900B27EEF0A3EFF0900B1CEE
:101B8F00E0FF131313541FFD7C00EF54077E00601A
:101B9F00047F0180027F00EF2DFFEE3CFE900B1CB7
:101BAF00E0FD7C001210E6900B25EEF0A3EFF09015
:101BBF000B23E4F0A3740BF0E4900B21F0A3F0904F
:101BCF000B23E0FEA3E0FF900B21E0FCA3E0FDC39D
:101BDF009FEC9E4003021E21900B15E0FBA3E0FA41
:101BEF00A3E0F912108EFF90033675F022ED12125A
:101BFF00BFEC75F022A42583F583E06F6003021E0E
:101C0F00109000011210A7FF900B21A3E090033753
:101C1F0075F0221212BFEC75F022A42583F583E034
:101C2F006F6003021E10900B13E0FCA3E0FD900BFE
:101C3F001CE0F9FF7E00900B11E0FAA3E02FFFEEFE
:101C4F003ACF24FFFBEF34FFFAE9FFA3E0F8A3E05C
:101C5F002FFFEE38CF24FFCF34FF900C88F0A3EF87
:101C6F00F0900B11E0FEA3E0FF123AE9E4900B1E97
:101C7F00F0900B1EE0FFD3900B26E09F900B25E01A
:101C8F0094005003021E10E4900B1FF0900B1FE006
:101C9F00FFC394084003021DEF900B1DE060030289
:101CAF001D40A3E0FE900B21E0FCA3E090033875EC
:101CBF00F0221212BFEC75F022A42583F583E58282
:101CCF002EF582E43583F583E0FD7C007E00740100
:101CDF00A807088005C333CE33CED8F9FFEE5CFEDC
:101CEF00EF5D4E6005900B188003900B1AE0FCA37C
:101CFF00E0FDECFF900B1FE0FE25E02429F582E4C8
:101D0F00340BF583EFF0EE25E0242AF582E4340B53
:101D1F00F583EDF0900B20E004F0900B1CE0FF90AA
:101D2F000B20E08FF084E5F06003021DE6F0021D4A
:101D3F00EF900B1EE0FF900B21E0FCA3E090033827
:101D4F0075F0221212BFEC75F022A42583F583E5FE
:101D5F00822FF582E43583F583E0FD7C00900B1F25
:101D6F00E0FF7E007401A807088005C333CE33CE91
:101D7F00D8F9FFEE5CFEEF5D4E6014900B11E0FEA4
:101D8F00A3E0FFA3E0FCA3E0FD900B1812396790CE
:101D9F000B12E004F07006900B11E004F0900B278B
:101DAF00E0FEA3E0FFC3900B12E09FFD900B11E04C
:101DBF009EFC900B1CE07A00B5051CEAB504189048
:101DCF000B11EEF0A3EFF0900B14E004F0701190F4
:101DDF000B13E004F08009900B1FE004F0021C9B32
:101DEF00900B1DE07012D2CBC2C77B017A0B792901
:101DFF007D10FC123AA6D2C7900B1EE004F0021C15
:101E0F0080900B22E004F07006900B21E004F002AA
:021E1F001BCED8
:011E2100229E
:101E2200900B13ECF0A3EDF0A3EBF0A3EAF0A3E91F
:091E3200F0900B11EEF0A3EFF0AB
:101E3B00E4900B20F0900B27EEF0A3EFF0900B1C2F
:101E4B00E0FF131313541FFD7C00EF54077E00605B
:101E5B00047F0180027F00EF2DFFEE3CFE900B1CF8
:101E6B00E0FD7C001210E6900B25EEF0A3EFF09056
:101E7B000B23E4F0A37409F0E4900B21F0A3F09092
:101E8B000B23E0FEA3E0FF900B21E0FCA3E0FDC3DE
:101E9B009FEC9E40030220DD900B15E0FBA3E0FAC4
:101EAB00A3E0F912108EFF90009C75F04AED121210
:101EBB00BFEC75F04AA42583F583E06F6003022025
:101ECB00CC9000011210A7FF900B21A3E090009D76
:101EDB0075F04A1212BFEC75F04AA42583F583E026
:101EEB006F60030220CC900B13E0FCA3E0FD900B82
:101EFB001CE0F9FF7E00900B11E0FAA3E02FFFEE40
:101F0B003ACF24FFFBEF34FFFAE9FFA3E0F8A3E09D
:101F1B002FFFEE38CF24FFCF34FF900C88F0A3EFC8
:101F2B00F0900B11E0FEA3E0FF123AE9E4900B1ED8
:101F3B00F0900B1EE0FFD3900B26E09F900B25E05B
:101F4B00940050030220CCE4900B1FF0900B1FE089
:101F5B00FFC3940840030220AB900B1DE06003020B
:101F6B001FFCA3E0FE900B21E0FCA3E090009E750C
:101F7B00F04A1212BFEC75F04AA42583F583E58273
:101F8B002EF582E43583F583E0FD7C007E00740141
:101F9B00A807088005C333CE33CED8F9FFEE5CFE1D
:101FAB00EF5D4E6005900B188003900B1AE0FCA3BD
:101FBB00E0FDECFF900B1FE0FE25E02429F582E409
:101FCB00340BF583EFF0EE25E0242AF582E4340B95
:101FDB00F583EDF0900B20E004F0900B1CE0FF90EC
:101FEB000B20E08FF084E5F060030220A2F00220CA
:101FFB00AB900B1EE0FF900B21E0FCA3E090009E4A
:10200B0075F04A1212BFEC75F04AA42583F583E5EF
:10201B00822FF582E43583F583E0FD7C00900B1F66
:10202B00E0FF7E007401A807088005C333CE33CED2
:10203B00D8F9FFEE5CFEEF5D4E6014900B11E0FEE5
:10204B00A3E0FFA3E0FCA3E0FD900B18123967900F
:10205B000B12E004F07006900B11E004F0900B27CC
:10206B00E0FEA3E0FFC3900B12E09FFD900B11E08D
:10207B009EFC900B1CE07A00B5051CEAB504189089
:10208B000B11EEF0A3EFF0900B14E004F070119035
:10209B000B13E004F08009900B1FE004F0021F57B4
:1020AB00900B1DE07012D2CBC2C77B017A0B792942
:1020BB007D10FC123AA6D2C7900B1EE004F0021F53
:1020CB003C900B22E004F07006900B21E004F00230
:0220DB001E8A5B
:0120DD0022E0
:10239700900B13ECF0A3EDF0A3EBF0A3EAF0A3E9A5
:0923A700F0900B11EEF0A3EFF031
:1023B000E4900B20F0900B27EEF0A3EFF0900B1CB5
:1023C000E0FF131313541FFD7C00EF54077E0060E1
:1023D000047F0180027F00EF2DFFEE3CFE900B1C7E
:1023E000E0FD7C001210E6900B25EEF0A3EFF090DC
:1023F0000B23E4F0A304F0E4900B21F0A3F0900B86
:1024000023E0FEA3E0FF900B21E0FCA3E0FDC39FCF
:10241000EC9E400302264F900B15E0FBA3E0FAA3CD
:10242000E0F912108EFF90001A75F082ED1212BFC3
:10243000EC75F082A42583F583E06F600302263EED
:102440009000011210A7FF900B21A3E090001B75D4
:10245000F0821212BFEC75F082A42583F583E06F41
:10246000600302263E900B13E0FCA3E0FD900B1CE2
:10247000E0F9FF7E00900B11E0FAA3E02FFFEE3AA7
:10248000CF24FFFBEF34FFFAE9FFA3E0F8A3E02F2E
:10249000FFEE38CF24FFCF34FF900C88F0A3EFF08D
:1024A000900B11E0FEA3E0FF123AE9E4900B1EF05E
:1024B000900B1EE0FFD3900B26E09F900B25E0943D
:1024C00000500302263EE4900B1FF0900B1DE060CD
:1024D00003022569900B21A3E075F082A4241CF56A
:1024E00082E43400F583C083C082900B1EE0D0826A
:1024F000D0832582F582E43583F583E0FD7C00906E
:102500000B1FE0FF7E007401A807088005C333CECF
:1025100033CED8F9FFEE5CFEEF5D4E6005900B18F0
:102520008003900B1AE0FCA3E0FDECFF900B1FE092
:10253000FE25E02429F582E4340BF583EFF0EE2547
:10254000E0242AF582E4340BF583EDF0900B20E0D3
:1025500004F0900B1CE0FF900B20E08FF084E5F07E
:10256000600302260EF002261D900B21A3E075F0F9
:1025700082A4241CF582E43400F583C083C08290D9
:102580000B1EE0D082D0832582F582E43583F5836B
:10259000E0FD7C00900B1FE0FF7E007401A807089F
:1025A0008005C333CE33CED8F9FFEE5CFEEF5D4E2F
:1025B0006014900B11E0FEA3E0FFA3E0FCA3E0FD9C
:1025C000900B18123967900B12E004F07006900B14
:1025D00011E004F0900B27E0FEA3E0FFC3900B1284
:1025E000E09FFD900B11E09EFC900B1CE07A00B583
:1025F000051CEAB50418900B11EEF0A3EFF0900B58
:1026000014E004F07017900B13E004F0800F900BAF
:102610001FE004F0E0C3940850030224CB900B1D8C
:10262000E07012D2CBC2C77B017A0B79297D10FCF6
:10263000123AA6D2C7900B1EE004F00224B0900B11
:0F26400022E004F07006900B21E004F00223FE6C
:01264F002268
:10265000900B13ECF0A3EDF0A3EBF0900B11EEF068
:03266000A3EFF0F5
:10266300E4900B1FF0900B24EEF0A3EFF0900B1A05
:10267300E0F9C313900B1DF0E0FF131313541FFD78
:102683007C00EF54077E0060047F0180027F00EF2F
:102693002DFFEE3CFEE9FD7C001210E6900B22EECE
:1026A300F0A3EFF0900B15E024E0F0900B13E0FCA7
:1026B300A3E0FD900B1DE0FF7E00900B11E0FAA359
:1026C300E02FFFEE3ACF24FFFBEF34FFFAE9FFA33D
:1026D300E0F8A3E02FFFEE38CF24FFCF34FF900CB8
:1026E30088F0A3EFF0900B11E0FEA3E0FF123AE9AC
:1026F300E4900B20F0A3F0900B22E0FEA3E0FF9008
:102703000B20E0FCA3E0FDC39FEC9E40030228C71F
:10271300900B1AE0641060030228C7900B15E07554
:10272300F010A424ACF582E5F03404F583E5822DA2
:10273300F582E5833CF583E0900B1CF0E4900B1EDF
:10274300F0900B1EE0FFC394084003022896900B01
:102753001BE06003022812900B1DE054077064FE17
:1027630004A807088005C333CE33CED8F9FF900BF6
:102773001CE0FDEF5D6005900B168003900B18E0E5
:10278300FCA3E0FDECFF900B1EE0FE25E02426F504
:1027930082E4340BF583EFF0EE25E02427F582E4A1
:1027A300340BF583EDF0900B1FE004F0900B1DE06C
:1027B300FF900B1FE08FF084E5F0600302288DF09B
:1027C300022896900B1EE0FF7E007401A807088084
:1027D30005C333CE33CED8F9FF900B1CE0FDEF5D7C
:1027E3006005900B168003900B18E0FEA3E0FF1228
:1027F3003B54900B1FE004F0900B1DE0FF900B1F68
:10280300E08FF084E5F0600302288DF002289690B3
:102813000B1EE0FF7E007401A807088005C333CEBA
:1028230033CED8F9FF900B1CE0FDEF5D6014900BE5
:1028330011E0FEA3E0FFA3E0FCA3E0FD900B161262
:102843003967900B12E004F07006900B11E004F06E
:10285300900B24E0FEA3E0FFC3900B12E09FFD90DA
:102863000B11E09EFC900B1DE07A00B5051CEAB548
:102873000418900B11EEF0A3EFF0900B14E004F0AA
:102883007011900B13E004F08009900B1EE004F02C
:10289300022744900B1DE054077018900B1BE07047
:1028A30012D2CBC2C77B017A0B79267D10FC123A78
:1028B300A6D2C7900B21E004F07006900B20E00431
:0428C300F00226FAFF
:0128C70022EE
:10375400900B04EEF0A3EFF0A3ECF0A3EDF0A3EBD9
:10376400F0A3EAF0A3E9F0900B08E0FBA3E0FAA3CE
:10377400E0F912108EFB6061900B06E0FCA3E0FD03
:10378400900B0BE0FFA3E0900B16CFF0A3EFF090AB
:103794000B0DE0FFA3E0900B18CFF0A3EFF0900B1C
:1037A4000FE0900B1AF0900B10E0900B1BF0900BB5
:1037B40004E0FEA3E0FF122650900B0FE0C313FFBA
:1037C400900B05E02FF0900B04E03400F0900B090F
:0A37D400E475F00112112E808E2220
:073A0C00C3EF9E14FD7F0AC9
:083A1300900CF6EFF0A3EDF0BA
:103A1B00A312128E00000001900CF7E0FF14F0EFE0
:103A2B006020A3E0F8A3E0F9A3E0FAA3E0FB900C7D
:103A3B00F6E0FFE4FCFDFE121144900CF81212822A
:103A4B0080D6900CF8E0FCA3E0FDA3E0FEA3E0FF22
:013A5B002248
:1031C000900CCBEEF0A3EFF0A3ECF0A3EDF0A3EAAC
:0431D000F0A3EBF08D
:1031D400E4900CD9F0900CD6E0C313900CDAF0E430
:1031E400900CD7F0900CD1E0FF900CD7E0FEC39F79
:1031F40040030232EB123A0CA804A905AA06AB0755
:10320400900CCFE0FEA3E0FFE4FCFD1211CFE47BC1
:103214000AFAF9F81211CF900CD8EBF0A3E070651C
:10322400900CD1E014FF900CD7E0FEC39F5056A33E
:10323400E0704C900CDAE0FFEE8FF0A4FF900CCC21
:10324400E02FFF900CCBE035F0FE900CCDE0FCA31A
:10325400E0FD900CD2E0FBA3E0900B16CBF0A3EBC7
:10326400F0900CD4E0FBA3E0900B18CBF0A3EBF0B0
:10327400900CD6E0900B1AF0E4A3F07B20805C90D5
:103284000CD97401F0900CDAE0FF900CD7E08FF0C9
:10329400A4FF900CCCE02FFF900CCBE035F0FEC0E7
:1032A40007900CCDE0FCA3E0FD900CD8E02430FBAB
:1032B400900CD2E0FFA3E0900B16CFF0A3EFF090B8
:1032C4000CD4E0FFA3E0900B18CFF0A3EFF0900C28
:1032D400D6E0900B1AF0E4A3F0D007122650900C1D
:0732E400D7E004F00231E81D
:0132EB0022C0
:0E2F2F00900CA5EEF0A3EFF0A3ECF0A3EDF0F4
:102F3D00900CB2E0C313900CB5F0E4FFFE7DC87C9D
:102F4D0042900CA9E0F8A3E0F9A3E0FAA3E0FB128C
:102F5D000BED120E5B900CB6EEF0A3EFF0E4900CBF
:102F6D00B3F0900CADE0FF900CB3E0FEC39F4003B7
:102F7D00023078123A0CA804A905AA06AB07900CEA
:102F8D00B6E0FEA3E0FFE4FCFD1211CFE47B0AFAEC
:102F9D00F9F81211CF900CB4EBF0900CADE0FF24CA
:102FAD00FEFE900CB3E06E7060EF24FEFFE434FF84
:102FBD00FE900CB5E0FD7C001210E6900CA6E02F03
:102FCD00FF900CA5E03EFE900CA7E0FCA3E0FD9069
:102FDD000CAEE0FBA3E0900B16CBF0A3EBF0900C46
:102FED00B0E0FBA3E0900B18CBF0A3EBF0900CB28C
:102FFD00E0900B1AF0E4A3F07B2E122650900CB348
:10300D00E004F0900CADE004F0900CB5E0FF900CF6
:10301D00B3E08FF0A4FF900CA6E02FFF900CA5E07D
:10302D0035F0FEC007900CA7E0FCA3E0FD900CB4BA
:10303D00E02430FB900CAEE0FFA3E0900B16CFF038
:10304D00A3EFF0900CB0E0FFA3E0900B18CFF0A32E
:10305D00EFF0900CB2E0900B1AF0E4A3F0D0071251
:0B306D002650900CB3E004F0022F6F1F
:013078002235
:102DE100900CB8EEF0A3EFF0A3ECF0A3EDF0A3EAA2
:042DF100F0A3EBF070
:102DF500900CC712128E00000000900CBAE0FCA3E4
:102E0500E0FDA3E0FEA3E0FF900CB8E0FAA3E02FFD
:102E1500FFEA3ECF24FFFBEF34FFFA900CBEE0FE45
:102E2500A3E0FF900CBAE0F8A3E02FFFE83ECF2423
:102E3500FFCF34FF900C88F0A3EFF0900CB8E0FEC4
:102E4500A3E0FF123AE9E4900CC3F0A3F0900CBCA8
:102E5500E0FEA3E0FFC3900CC4E09F900CC3E09E8E
:102E65004003022F2EE4900CC5F0A3F0900CBEE0B9
:102E7500FEA3E0FFC3900CC6E09F900CC5E09E400A
:102E850003022F1AE47F02FEFDFC900CC7E0F8A3B5
:102E9500E0F9A3E0FAA3E0FB121144900CC0E0FBBB
:102EA500A3E0FAA3E0F98F828E831210A7FF123CEC
:102EB50069E47F02FEFDFC900CC7E0F8A3E0F9A3EE
:102EC500E0FAA3E0FB121144EF2401FFE43EFE907B
:102ED5000CC0E0FBA3E0FAA3E0F98F828E83121009
:102EE500A7FF123C69900CC7E0FCA3E0FDA3E0FE40
:102EF500A3E02401FFE43EFEE43DFDE43CFC900C30
:102F0500C7121282900CC6E004F07006900CC5E062
:102F150004F0022E71900CC4E004F06003022E52FE
:092F2500900CC3E004F0022E52EE
:012F2E002280
:1032EC00900AF6EEF0A3EFF0A3ECF0A3EDF0A3EB55
:0732FC00F0A3EAF0A3E9F0E2
:10330300E4900B03F0900AFAE0FBA3E0FAA3E0F9E0
:10331300900B03E0F5827583001210A7700302334C
:10332300FDC39480900AF8E0FCA3E0FD505C900B91
:1033330003E0FF7E00E92FF9EE3AFA900AFDE0FF81
:10334300A3E0900B0BCFF0A3EFF0900AFFE0FFA3F5
:10335300E0900B0DCFF0A3EFF0900B01E0900B0F7B
:10336300F0900B02E0900B10F0900AF6E0FEA3E061
:10337300FF123754900B01E0C313FF900AF7E02FBD
:10338300F0900AF6E03400F08067A3E0FBA3E0FAD4
:10339300A3E0F9900B03E0FF7E00E92FF9EE3AFA80
:1033A300900AFDE0FFA3E0900B0BCFF0A3EFF090AA
:1033B3000AFFE0FFA3E0900B0DCFF0A3EFF0900B1B
:1033C30001E0900B0FF0900B02E0900B10F0900ACD
:1033D300F6E0FEA3E0FF122C56900B01E0FF900AEB
:1033E300F7E02FF0900AF6E03400F0900B03E004CE
:0A33F300F0900B03E004F002330831
:0133FD0022AD
:10359000900AA0EEF0A3EFF0A3ECF0A3EDF0A3EA05
:0435A000F0A3EBF0B9
:1035A400900AF37401F0A3740AF0A374ADF0900AC6
:1035B400AAE0F9A3E0FAA3E0900AF6C9F0A3EAF0BE
:1035C400A3E9F0900AF3E0F9A3E0FAA3E0900AF982
:1035D400C9F0A3EAF0A3E9F07B017A0A79D5123A9B
:1035E4005C900AF3E4F0A3F0A3F0900AA2E0FCA339
:1035F400E0FD7B017A0A79D5A3E0FFA3E0900AFD00
:10360400CFF0A3EFF0900AA6E0FFA3E0900AFFCF6B
:10361400F0A3EFF0900AA8E0900B01F0900AA9E063
:0F362400900B02F0900AA0E0FEA3E0FF0232EC50
:043B9E007F017E0025
:103BA200EF1F70011E144E601100000075080B75A6
:0A3BB20009BED509FDD508FA80E62A
:013BBC0022E6
:08000300C2C7123BF2D2C72272
:0A3C6900D2CBC2C7123BF2D2C72231
:053B4F00E0FEA3E0FF11
:043B5400AD07AC0607
:103B5800EC900C8AF0A3EFF0D2CBC2C7900C8AE0AD
:0E3B6800FF123BF2900C8BE0FF123BF2D2C733
:013B7600222C
:083C7300C2CB120003D2CB22E8
:103AE900900C82EEF0A3EFF0A3ECF0A3EDF0A3EAC3
:103AF900F0A3EBF07F2A123C73900C82123B4F909B
:103B09000C86123B4F7F2B123C73900C84123B4F57
:0C3B1900900C88123B4F7F2C123C732252
:10307900C2C0123B9ED2C0123B9ED2C8123B9E7F59
:1030890011123C737F0C7E00123BA27F36123C73F7
:10309900E4FF123C697F3A123C737F05123C697F59
:1030A900B2123C737F0C123C697F0C123C69E4FF3D
:1030B900123C697F33123C697F33123C697FB71236
:1030C9003C737F35123C697FBB123C737F19123CFC
:1030D900697FC0123C737F2C123C697FC2123C731A
:1030E9007F01123C697FC3123C737F12123C697FD6
:1030F900C4123C737F20123C697FC6123C737F0F58
:10310900123C697FD0123C737FA4123C697FA112E3
:103119003C697FE0123C737FD0123C697F04123C0A
:10312900697F0D123C697F11123C697F13123C695A
:103139007F2B123C697F3F123C697F54123C697FA7
:103149004C123C697F18123C697F0D123C697F0B58
:10315900123C697F1F123C697F23123C697FE1128F
:103169003C737FD0123C697F04123C697F0C123C8E
:10317900697F11123C697F13123C697F2C123C69EB
:103189007F3F123C697F44123C697F51123C697F41
:103199002F123C697F1F123C697F1F123C697F20F7
:1031A900123C697F23123C697F21123C737F111203
:0731B9003C737F29023C7307
:1037DE00C2A0900AA012128E0000000020A1FDE4EB
:1037EE00FBD2A0900AA0E0FCA3E0FDA3E0FEA3E0C4
:1037FE00FF780112126F900AA0121282C2A030A19D
:10380E001F900AA0E0FCA3E0FDA3E0FEA3E02401CC
:10381E00FFE43EFEE43DFDE43CFC900AA012128261
:10382E000BEBB418BCD2A0900AA0E0FCA3E0FDA361
:10383E00E0FEA3E0FFED6480FDEC900AA012128280
:10384E00C2A0900AA0E0FCA3E0FDA3E0FEA3E0FF6F
:01385E002247
:100AF500020EC7E86480F8E933E83360110460F05A
:100B0500ED33EC337009E8FCE9FDEAFEEBFF220466
:100B150060DED3EB9FEA9EE99DE8C2E78CF0C2F761
:100B250095F0400CE8CCF8E9CDF9EACEFAEBCFFB2D
:100B3500120E9285D0F05804700320D5B3E80470E6
:100B4500075002B2D5020ED192D5EC0460F7E4CC81
:100B5500C0E0C398F8603B94186008400DD0E0FBF6
:100B6500020EA9E4FBFAC9FC8028E830E406E4C9D2
:100B7500FBE4CAFCE830E305E4C9CACBFCE854074A
:100B85006010F8C3E913F9EA13FAEB13FBEC13FC55
:100B9500D8F130F52FC3E49CFCEF9BFFEE9AFEEDF8
:100BA50099FDD0E0FBEF4E4D4C701222DB03020E97
:100BB500CEEC2CFCEF33FFEE33FEED33FDED30E7ED
:100BC500EB020EA9EF2BFFEE3AFEED39FDD0E0FB6F
:100BD50050130BBB0003020ED1ED13FDEE13FEEF18
:080BE50013FFEC13FC020EA942
:100BED00EC4D6011E8497017ED33EC3304600DE402
:100BFD00FCFFFEFD22E933E8330470F8020EC71244
:100C0D000E9258046009E4CC248150062850090244
:100C1D000ED1284003020ECEC0E0EB4A7044B980DD
:100C2D0006D0E0FB020EBDEF4E701CBD8008EBFF41
:100C3D00EAFEE9FD80EBE98DF0A4FEE5F0020CD6AD
:100C4D00E9CDF9EAFEEBFFEF89F0A4FCE5F0CE89E2
:100C5D00F0A42EFFE435F0CD89F0A42DFEE435F09F
:100C6D008067EF4E7005BD80D780C3EF8BF0A4ACCD
:100C7D00F0EE8BF0A42CFCE435F0F8EF8AF0A42C08
:100C8D00E5F038FCE433CB8DF0A42CFCE5F03BF81B
:100C9D00EE8AF0A42CFCE5F038F8E433CF89F0A40B
:100CAD002CFCE5F038CF3400CE89F0A42FFFE5F011
:100CBD003EFEE433C98DF0A42EFEE5F039CD8AF069
:100CCD00A42FFFE5F03EFEE43DFD33D0E0FB5007E1
:100CDD000BBB000F020ED1EC2CFCEF33FFEE33FEFD
:060CED00ED33FD020EA92B
:100CF300020ED1EC5D046005E859047003020EC7CF
:100D0300120E92580460F6EC4860F2EC7004FDFE9B
:100D1300FF22C860DB2481C85009C39860025006D3
:100D2300020ECE9850CAF582E9294B4A7005AB8270
:100D3300020EBD75F0007C1A7880C3EF9BEE9AED2E
:100D430099400DC3EF9BFFEE9AFEED99FDE842F04B
:100D5300DC23ACF0D0E0FFD0E0FED0E0FDAB82209E
:100D6300E7101BEB60BAEC2CFCEF33FFEE33FEED28
:100D730033FD020EA9E803F830E705C0F075F00073
:100D8300EF2FFFEE33FEED33FD40B830E7C280AA0C
:100D930074F8CC6480CCC86480C8F58204604FC307
:100DA300EB9FF5F0EA9E42F0E99D42F0E89C45F0A6
:100DB300603C501DE5825FFFE582D313CB5BCBF430
:100DC3002B5582FB50280ABA002409B90020088059
:100DD3001DE5825BFBE582D313CF5FCFF4C3132FF3
:100DE3005582FF50090EBE00050DBD00010CC3EB7B
:100DF3009FF5F0EA9E42F0E99D42F0E89C45F060E1
:090E030007CC4820E701B3EC2202
:100E0C00ED33EC33600A047003BD8004ECB2E7FCF4
:010E1C0022B3
:100E1D0075F020800E75F010800575F0087D007E50
:100E2D00007F003392D530D503121261EC334010A0
:100E3D00EF33FFEE33FEED33FDEC33FCD5F0ED2259
:0E0E4D00E5F0247EA2D513CC92E7CDCEFF2295
:100E5B00EDD2E7CD33EC3392D524814006E4FFFE8F
:100E6B00FDFC22FCE4CFCECDCC24E0501174FF80EE
:100E7B00EDC3CC13CCCD13CDCE13CECF13CF04708B
:070E8B00F030D5DE02126118
:103A5C00900AF6E0FFA3E0FEA3E0CF900AFFF0A3EC
:103A6C00EEF0A3EFF0900AF9E0CBF0A3E0CAF0A3DC
:103A7C00E0C9F07F22900B02AD82AC8312108E8DC8
:103A8C00828C83F0A309E970010ADFEC900AF9E05B
:0A3A9C00FBA3E0FAA3E0F90213CB4C
:100E9200E9D2E7C933E833F892D5EDD2E7CD33ECA6
:070EA20033FC5002B2D5221F
:100EA900EC30E7100FBF000C0EBE00080DBD0004AA
:100EB9000BEB6014A2D5EB13FCED92E7FD2274FF56
:100EC900FCFDFEFF22E480F8A2D574FF13FC7D80AF
:030ED900E480EFC3
:10136600E50824FFF582E4340AF583E005082290B7
:101376000AFC300703900AFFE475F0011212CB0253
:10138600108E2000E97F2ED2008018EF540F249093
:10139600D43440D4FF30040BEF24BFB41A005003FA
:1013A6002461FFE50960021509050CE50C700205CC
:1013B6000B30070E900AFCE475F0011212CBEF0217
:1013C60010D4023B777403D2078003E4C207F50802
:1013D600900AFC1212E2E4F509F50BF50CE509603A
:1013E600077F201213A980F5750AFFC201C200C249
:1013F60002C203C205C206C208121375FF700D3081
:1014060007057F001213BAAF0CAE0B22B4255FC2DC
:10141600D5C204121375FF24D0B40A00501A75F011
:101426000A780930D50508B6FF0106C6A426F620B7
:10143600D5047002D20380D924CFB41A00EF500429
:10144600C2E5D2040216ACD20180C6D20080C0D258
:101456000280BCD2D580BAD20580B47F201213A9EF
:101466002002077401B5090040F1121366FF12133A
:10147600A90213E3D208D2068095121366FB121353
:1014860066FA121366F94A4B700679AA7A177BFF39
:1014960020022EE509602A7E008E827583001210D6
:1014A600A760060EEE650A70F0C2D5EBC0E0EAC092
:1014B600E0E9C0E0EE12170DD0E0F9D0E0FAD0E096
:1014C600FB12108EFF60AAEBC0E0EAC0E0E9C0E0C4
:1014D6001213A9D0E02401F9D0E03400FAD0E0FBE1
:1014E600E50A0460DCD50AD98087D20280A21216EA
:1014F600EF60F7E50A700104120EDCA90A600DE53B
:101506000A600914F50A121797EF60F3EA30E7024A
:10151600F404C3995079EAF4250A0430E701E40497
:10152600F50A800D1216EF60C1EA050A250A120EA9
:10153600DCEA900B2BF030E701E4250A04D50A0417
:101546002005011412170DE4C0E0121797900B2B1B
:10155600E0601320E70714F0121391802204F0D004
:10156600E014C0E07F00121391E50A6007121388A9
:10157600150A800B300503121388D0E00213E3D05E
:10158600E00480C41216EF609EE50A04120EDC9099
:101596000B2BEAF0E50A2005026001042404121769
:0115A6000D37
:1015A70074FF04C0E0121797121391E50A20050291
:1015B7006003121388D0E0B50AE87F4512139B90A9
:1015C7000B2BE07F2B30E7047F2DF404C0E01213D0
:1015D700A9D0E075F00A84C0F0121392D0E012137C
:1015E700920213E3791080027908C206C2088008C4
:1015F700D2D5790A8004790AC2D5E50A047002F5C2
:101607000AE4FAFDFEFF121366FC7B0820011312A1
:101617001366FD7B1030000A121366FE121366FF75
:101627007B20EC3382D592D55013C3E43000069F5C
:10163700FFE49EFEE42001039DFDE49CFCE4CBF85F
:10164700C201EC700CCFCECDCCE824F8F870F38053
:1016570017C3EF33FFEE33FEED33FDEC33FCEB3313
:10166700FB994002FB0FD8E9EB300105F8D0E0C445
:1016770048B201C0E00AEC4D4E4F78207B0070C2A3
:10168700EAB50A0040BCC0E012170FD0F0D0E02046
:101697000104C4C0E0C4B201C0F0121392D0F0D567
:1016A700F0EB0213E31212EB14805315EB581451AD
:1016B7004C144D4215EF4F15F74415F7491466437F
:1016C70015FD55152A46158A4514F44717CA5014AF
:1016D700552D14592E147C2B145D23147A2017B31F
:1016E7002A14154800001474E50AB4FF03750A06A6
:1016F700121366FC121366FD121366FE121366FFC1
:10170700900B24020F19790AA2D52003143005097A
:10171700B910020404B9080104A2D5200602500139
:10172700042002689202B509005034C0E07F2030DF
:1017370003197F30A20272067205500F121766C294
:1017470002C206C205C2087F30800F300503E9C018
:10175700E01213A9300503D0E0F9D0E0B509CC3089
:1017670005177F30B9100C1213A97F583004077F73
:10177700788003B908031213A93002057F2D0213DD
:10178700A97F202008F87F2B2006F322920280CF22
:101797007F00B40700500B2424F582E4340BF58353
:1017A700E0FF22286E756C6C2900D2011213663097
:1017B70001F8C201780930D50108F60214152D5039
:1017C7004349581213662403B405004001E49017F7
:1017D700C59312139A743A12139AD2037509040225
:0217E70015EB00
:100EDC00F920E73624F950037907E4F42402FBE502
:100EEC0082158270021583DBF6E024FB501BE9604F
:100EFC0014E4F0E582158270021583E004F0B40A64
:0D0F0C0008E4F0D9EE7401F00A22C2D522EB
:100F1900ED33EC3392D5FA602AB4FF33EDC2E77BA7
:100F2900FF60067A0F793EE4227A0F794720D504CB
:100F39007A0F7942224E614E002B494E46002D49C7
:100F49004E4600E47A08F0A3DAFC7B00740722C05D
:100F590083C082ECC0E0EDC0E0EEC0E0EFC0E0EAA3
:100F690075F010A4CAABF075F04DA42BFBE435F075
:100F7900FCEA2410FAEB34C5FBEC34D9FCEDC2E7EA
:100F8900FF75F056A4F42411C5F0F434C58FF0A40C
:100F99002AE5F03BE43CF020E71412104ED0E0FFC4
:100FA900D0E0FED0E0FDD0E0FC120CF68014F40491
:100FB90012104ED0E0FFD0E0FED0E0FDD0E0FC12F0
:100FC9000BEDD082D083E0FAEDD2E7CD33EC3324B8
:100FD90082FBE4C3CF33CFCE33CECD33CD33DBF376
:100FE9007B0775F00A846004F0A31B0AE5F0F0A3FF
:100FF9008FF0740AA4FFACF08EF0740AA42CFEAC36
:10100900F050010C8DF0740AA42CFDE435F0F0A326
:05101900DBDE7407227C
:10101E003F8000004120000042C80000447A0000DA
:10102E00461C400047C35000497424004B1896805C
:10103E004CBEBC205A0E1BCA6753C21C749DC5AE53
:10104E00FB60065407601C232312107CEB5438609F
:10105E0009121068121077120BEDECF8EDF9EEFA9A
:10106E00EFCB22EB12107780F1543803241C901032
:10107E001EFE93FC0EEE93FD0EEE930ECE93FF220C
:030000000236C8FD
:0C36C800787FE4F6D8FD75812102370FF1
:10108E00BB010689828A83E0225002E722BBFE0260
:09109E00E32289828A83E4932293
:1010A700BB010CE58229F582E5833AF583E02250FE
:1010B70006E92582F8E622BBFE06E92582F8E22248
:0D10C700E58229F582E5833AF583E4932262
:1010D400BB010689828A83F0225002F722BBFE01FB
:0210E400F322F5
:1010E600EF8DF0A4A8F0CF8CF0A428CE8DF0A42E1E
:0210F600FE22D8
:1010F800C2D5EC30E709B2D5E4C39DFDE49CFCEE13
:1011080030E715B2D5E4C39FFFE49EFE121311C366
:10111800E49DFDE49CFC800312131130D507C3E461
:061128009FFFE49EFE2281
:10112E00C5F0F8A3E028F0C5F0F8E582158270024C
:06113E001583E038F022E9
:10114400E88FF0A4CC8BF0A42CFCE98EF0A42CFC4A
:101154008AF0EDA42CFCEA8EF0A4CDA8F08BF0A4C8
:101164002DCC3825F0FDE98FF0A42CCD35F0FCEB27
:101174008EF0A4FEA9F0EB8FF0A4CFC5F02ECD39EC
:0F118400FEE43CFCEAA42DCE35F0FDE43CFC2259
:1011930075F008758200EF2FFFEE33FECD33CDCC13
:1011A30033CCC58233C5829BED9AEC99E582984096
:1011B3000CF582EE9BFEED9AFDEC99FC0FD5F0D673
:1011C300E4CEFBE4CDFAE4CCF9A88222B800C1B99D
:1011D3000059BA002DEC8BF084CFCECDFCE5F0CBDB
:1011E300F97818EF2FFFEE33FEED33FDEC33FCEB14
:1011F30033FB10D703994004EB99FB0FD8E5E4F9CF
:10120300FA227818EF2FFFEE33FEED33FDEC33FCBB
:10121300C933C910D7059BE99A4007EC9BFCE99AAF
:10122300F90FD8E0E4C9FAE4CCFB2275F010EF2FF4
:10123300FFEE33FEED33FDCC33CCC833C810D707F4
:101243009BEC9AE899400AED9BFDEC9AFCE899F82F
:0E1253000FD5F0DAE4CDFBE4CCFAE4C8F922C2
:0E126100C3E49FFFE49EFEE49DFDE49CFC229E
:10126F00E8600FEFC333FFEE33FEED33FDEC33FCDD
:03127F00D8F12281
:0C128200ECF0A3EDF0A3EEF0A3EFF022DF
:10128E00A8828583F0D083D0821212A51212A512E5
:10129E0012A51212A5E473E493A3C583C5F0C5830A
:1012AE00C8C582C8F0A3C583C5F0C583C8C582C8AA
:0112BE00220D
:0C12BF00A42582F582E5F03583F583223A
:1012CB00F8E0FBA3A3E0F925F0F0E58215827002AC
:0712DB001583E0FA38F02250
:0912E200EBF0A3EAF0A3E9F0220D
:1012EB00D083D082F8E4937012740193700DA3A392
:1012FB0093F8740193F5828883E4737402936860A6
:06130B00EFA3A3A380DFA5
:103B7700EFB40A07740D123B82740A309811A899A2
:103B8700B8130CC2983098FDA899C298B811F630AE
:073B970099FDC299F5992286
:1036D4000217E9E493A3F8E493A34003F68001F20C
:1036E40008DFF48029E493A3F85407240CC8C333F7
:1036F400C4540F4420C8834004F456800146F6DFC6
:10370400E4800B010204081020408090000EE47E47
:10371400019360BCA3FF543F30E509541FFEE493BA
:10372400A360010ECF54C025E060A840B8E493A381
:10373400FAE493A3F8E493A3C8C582C8CAC583CAAC
:10374400F0A3C8C582C8CAC583CADFE9DEE780BE64
:010AF4000001
:10131100BC000BBE0029EF8DF084FFADF022E4CCC0
:10132100F875F008EF2FFFEE33FEEC33FCEE9DEC89
:10133100984005FCEE9DFE0FD5F0E9E4CEFD22EDCF
:10134100F8F5F0EE8420D21CFEADF075F008EF2F19
:10135100FFED33FD4007985006D5F0F222C398FD0A
:051361000FD5F0EA22A7
:00000001FF
