:0613A80068656C6C6F002B
:1012DE00E4F5937594FFF5917592FFF595F596F5F6
:0C12EE00B1F5B2F5B3F5B4F5C9F5CA22AC
:1012FA001212DE121349D2AFD2997FE87E0312137B
:0C130A00317BFF7A1379A812006E80EE90
:100E25002563000D0A546865205573657220697342
:100E35003A636172645F300D0A000D0A54686520DB
:100E4500557365722069733A636172645F310D0A87
:100E5500000D0A54686520557365722069733A63FD
:100E65006172645F320D0A000D0A5468652055737E
:100E750065722069733A636172645F330D0A000D10
:100E85000A54686520557365722069733A63617207
:100E9500645F340D0A003132330049443E3E3E253D
:100EA500730D0A00000000000000000000000000B3
:0A0EB5000000000000000000000033
:1010630050000C000102030001020300010203000F
:1010730001020341005D0041005800410059004155
:10108300005A0041005B0041002C0044003EC43A7A
:1010930068D944002E536A0B01440032D0791F39BA
:1010A300440036B0B18FA544003A059E0A88460035
:1010B30052FFFFFFFFFFFF460000AA07020009BC23
:1010C300500042000000000000FF078029FFFFFFDF
:0710D300FFFFFF41005C0874
:10036800E490016BF0A3F0A3F0A3F07B017A00798D
:10037800067F52120FDB90002DEFF070117402F01F
:100388007B017A007908120AC690002DEFF09000E0
:100398002DE060030205497402F07BFF7A0E79258F
:1003A800900008E0900061F012006E7BFF7A0E79F1
:1003B80025900009E0900061F012006E7BFF7A0E34
:1003C800792590000AE0900061F012006E7BFF7AB8
:1003D8000E792590000BE0900061F012006E9000FD
:1003E80009E0FD7B00FAA3E0F97E007810C333CE64
:1003F80033CED8F92BFFEE3AFE900008E0FC7A00E5
:100408002FFFEA3E90016DF0A3EFF090003EE0FF71
:10041800EC6F7023A3E0B5051EA3E0B50119A3E0B6
:10042800FF90000BE0B5070F90005D7401F07BFFB3
:100438007A0E792812006E90002EE0FF900008E0F6
:100448006F703390002FE0FF900009E0B507279008
:100458000030E0FF90000AE0B5071B900031E0FF94
:1004680090000BE0B5070F9000587401F07BFF7AFD
:100478000E793F12006E900032E0FF900008E06FA6
:100488007033900033E0FF900009E0B50727900033
:1004980034E0FF90000AE0B5071B900035E0FF90BC
:1004A800000BE0B5070F9000597401F07BFF7A0E3E
:1004B800795612006E900036E0FF900008E06F70E9
:1004C80033900037E0FF900009E0B5072790003827
:1004D800E0FF90000AE0B5071B900039E0FF9000AC
:1004E8000BE0B5070F90005A7401F07BFF7A0E7984
:1004F8006D12006E90003AE0FF900008E06F7033D4
:1005080090003BE0FF900009E0B5072790003CE031
:10051800FF90000AE0B5071B90003DE0FF90000B3C
:10052800E0B5070F90005B7401F07BFF7A0E7984C9
:1005380012006E7B017A007908120B8390002DEF70
:10054800F090002DE070227402F07B0190008B1473
:10055800F0A37400F0A37408F07A0079527D097F43
:1005680060120CDC90002DEFF090002DE0705374B9
:1005780002F07B017A00791C7F09120C3190002D62
:10058800EFF0703E90016BF0A3F090016BE0FEA3DA
:10059800E0FFC39410EE940050287BFF7A0E792573
:1005A800741C2FF582E43400F583E0900061F012AA
:1005B800006E90016CE004F0700690016BE004F0AE
:1005C80080C890002DE0701E7402F07B017A0079DB
:1005D8000C7F091209F190002DEFF070097BFF7A6A
:1005E8000E799B12006E90002DE0700A7402F07F65
:0605F800647E00121331C5
:0105FE0022DA
:0C139500D294D2931210DB7F410211842D
:0512090090016FEFF001
:10120E00E4A3F090016FE030E704D2978002C2971A
:10121E007F147E00121385C2957F147E00121385F3
:10122E00D2957F147E0012138590016FE025E0F0B9
:0A123E00A3E004F0E0C3940840C9E7
:011248002283
:1011C800E4900171F0900172E025E0F0C2957F147F
:1011D8007E00121385309607900172E04401F07F7B
:1011E800147E00121385D2957F147E001213859009
:1011F8000171E004F0E0C3940840CA900172E0FF76
:0112080022C3
:10136000EF25E0547E4480FFC2931212091211C887
:02137000D29316
:011372002258
:0412BF00E4FD7F01CA
:0512C300900177EDF041
:1012C800EF25E0547EFFC293121209900177E0FFE8
:0512D800121209D2937F
:0112DD0022EE
:0A131600900174EDF0900173EFF008
:10132000121360AE07900173E0FFA3E04EFD0212BE
:01133000C3F9
:05129E00F07D087F084F
:0A12A300900176EDF0900175EFF078
:1012AD00121360AE07900175E0FFA3E0F45EFD023E
:0212BD0012C35A
:101373007F14121360EF540370077D037F1412135D
:011383001653
:011384002246
:0713A1007D037F140212A37B
:1010DB00D2947F017E00121385C2947F017E001291
:1010EB001385D2947F017E001213857D0F7F011231
:1010FB0012C37F01121360EF20E4F77F017E001211
:10110B0013857D3D7F111212C37D1E7F2D1212C3DD
:10111B00E4FD7F2C1212C37D8D7F2A1212C37D3EFC
:0C112B007F2B1212C37D407F150212C3FF
:10118400EF6441703E12129F7D3D7F111212C37DA8
:10119400867F171212C37D4F7F261212C37D1E7FD6
:1011A4002D1212C3E4FD7F2C1212C37D8D7F2A12EF
:1011B40012C37D3E7F2B1212C37F027E0012138561
:0411C400121373226D
:1005FF00900148F0A37401F0A37400F0A374D8F035
:10060F00A37401F0A37400F0A374EAF07A0079D810
:04061F007B017F0CD0
:10062300900145EBF0A3EAF0A3E9F0900144EFF069
:1006330090014F7402F0E4A3F0A3F0EF24F46010F0
:1006430024FE70169001507412F0A37410F0800A07
:100653009001507477F0A37430F0900150E044801F
:10066300FD7F021212C37D807F041212A31212BFF8
:100673007D807F0A121316E4900153F0A3F09001DA
:1006830048E0FF900153E0FCA3E0FDC39FEC94001E
:100693005028900145E0FBA3E0FAA3E0F98D828C9A
:1006A30083120912FD7F091212C3900154E004F072
:1006B30070CC900153E004F080C4900144E0FD7FCE
:1006C300011212C3900144E0B40C077D807F0D1228
:1006D30013169001537403F0A374E8F07F0412130C
:1006E30060900152EFF0900154E024FFF090015329
:1006F300E034FFF0E07002A3E06011900152E0FFEC
:1007030020E009900151E0FEEF5E60D07D807F0D17
:100713001212A3900153E07002A3E0700302080CCD
:100723007F06121360EF541B600302080690014F0B
:10073300F0A3E0FF900152E05F30E00690014F74B8
:1007430001F0900144E0640C600302080C7F0A127C
:100753001360900152EFF07F0C121360EF5407FD0A
:100763006029900152E024FFFFE434FFFEEF780399
:10077300C333CE33CED8F97C002DFFEC3EF9900184
:100783004CE0FBA3E0FAA3E0C98016900152E075A8
:10079300F008A4FF90014CE0FBA3E0FAA3E0F9E525
:1007A300F08FF0120973900152E0700204F090018F
:1007B30052E0D3941240037412F0E4900153F0A377
:1007C300F0900152E0FFC3900154E09F900153E089
:1007D300940050357F09121360900149E0FBA3E0B8
:1007E300FAA3E0F9900153E0FCA3E0F5828C83EFD8
:1007F300120951900154E004F070C6900153E004D3
:10080300F080BE90014F7402F07D807F0C121316AE
:080813001212BF90014FE0FF3B
:01081B0022BA
:0D0FDB009000BCEFF0A3EBF0A3EAF0A3E957
:100FE80012129E7D077F0D1212C37D037F14121308
:100FF800169000BCE09000C0F09001487401F0A386
:10100800F0A37400F0A374C0F0A37401F0A37400FB
:10101800F0A374D2F07A0079C012061FEF703990ED
:1010280000D2E07004A3E06410702D9000C0E0FED0
:101038009000BDE0FBA3E0FAA3E0F9EE12093F90AF
:1010480000C1E0FE9000BDE0FBA3E0FAA3E0F99048
:0A1058000001EE12095180027F0230
:01106200226B
:0B0AC6009000A3EBF0A3EAF0A3E9F01E
:100AD100E49000A712129EE4FD7F0D1212C37D80E7
:100AE1007F0E1212A39000A87493F0A37420F090CB
:100AF10001487402F07B01A314F0A37400F0A37405
:100B0100A8F0A3EBF0A37400F0A374BAF07A007913
:100B1100A87F0C1206239000A6EFF07058FC74A871
:100B21002CF582E43400F583E0FE9000A3E0FBA302
:100B3100E0FAA3E0F9AF048F82758300EE12095148
:100B41009000A7E0FE74A82FF582E43400F583E05D
:100B5100FDEE6D9000A7F00CECB404C274A82CF566
:100B610082E43400F583E0FF9000A7E06F60069017
:100B710000A67402F07D807F0E1213169000A6E08D
:010B8100FF74
:010B82002250
:060D82007B017A0079D824
:0E0D8800900163EBF0A3EAF0A3E9F0A3EDF015
:100D96007D047F051212A31212BF7D807F0A1213F3
:100DA60016E490016AF0900166E0FF90016AE0FEA9
:100DB600C39F5021900163E0FBA3E0FAA3E0F98E04
:100DC60082758300120912FD7F091212C390016A0F
:100DD600E004F080D17D037F011212C390016A7492
:100DE600FFF07F0512136090016AE014F0E06004E2
:100DF600EF30E2EE7F22121360900167E0FBA3E082
:100E0600FAA3E0F9EF12093F7F2112136090016700
:0F0E1600E0FBA3E0FAA3E0F9900001EF0209511D
:0B0B8300900104EBF0A3EAF0A3E9F0FE
:100B8E00A37493F0A37470F0E490010DF0FC900147
:100B9E0004E0FBA3E0FAA3E0F9AF048F82758300B3
:100BAE00120912FE74092FF582E43401F583EEF07A
:100BBE0090010DE0FE8F82758300120912FDEE6D1D
:100BCE0090010DF00CECB404C59001677401F0A314
:100BDE007401F0A3740EF07B017A0179077D071280
:100BEE000D8812129F9001487409F0A37401F0A3AE
:100BFE007401F0A37407F0A37401F0A37401F0A3C1
:100C0E007419F07B017A0179077F0C120623EF70BD
:100C1E000F900119E07004A3E064187003FF8002C6
:020C2E007F0243
:010C300022A1
:0B0CDC00900088EBF0A3EAF0A3E9F021
:100CE70090008FEFF0A3EDF0E4FF900088E0FBA306
:100CF700E0FAA3E0F98F82758300120912FE74915E
:100D07002FF582E43400F583EEF00FEFB406DBE451
:100D1700FF90008BE0FBA3E0FAA3E0F98F827583D5
:100D270000120912FE74972FF582E43400F583EE62
:100D3700F00FEFB406DB900148740CF0A37401F0D8
:100D4700A37400F0A3748FF0A37401F0A37400F0F0
:100D5700A374A1F07B017A00798F7F0E120623908E
:100D6700008EEFF070097F08121360EF20E3069002
:0A0D7700008E7402F090008EE0FF81
:010D8100224F
:0B09F1009000D4EBF0A3EAF0A3E9F0C3
:1009FC009000D874A0F0A3EFF09001677401F0A3FD
:100A0C007400F0A374DAF07D02120D8274041205E6
:100A1C00FF9000D7EFF070169000EAE07004A3E0AE
:100A2C006404700A9000D8E0540F640A60069000C9
:100A3C00D77402F09000D7E0707A78D87C007D01F2
:100A4C009000D4E0FBA3E0FAA3E0F97E007F101243
:100A5C0008ECE4FF9000D4E0FBA3E0FAA3E0F98FEC
:100A6C0082758300120912FE74D82FF582E43400CB
:100A7C00F583EEF00FEFB410DB9001677401F0A377
:100A8C007400F0A374E8F07D10120D82741212053C
:100A9C00FF9000D7EFF070169000EAE07004A3E02E
:100AAC006404700A9000D8E0540F640A6006900049
:090ABC00D77402F09000D7E0FFAE
:010AC500220E
:0E0C31009000ECEFF0A3EBF0A3EAF0A3E9F0E3
:100C3F0078F07C007D017BFF7A0E79A97E007F1210
:100C4F001208EC9000F07430F09000ECE09000F19E
:100C5F00F09001677401F0A37400F0A374F2F07BBD
:100C6F00017A0079F07D02120D889001487404F02A
:100C7F00A37401F0A37400F0A374F0F0A37401F057
:100C8F00A37401F0A37402F07B017A0079F07F0C5A
:100C9F00120623EF7034900102E07004A3E0649019
:100CAF007028FE74F02EF582E43400F583E0FD9099
:100CBF0000EDE0FBA3E0FAA3E0F98E82758300ED6F
:0C0CCF001209510EEEB410DB80027F020F
:010CDB0022F6
:101137009001307450F0E4A3F07B0190016704F054
:10114700A37401F0A37432F07A0179307D02120D95
:10115700889001487404F0A37401F0A37401F0A30C
:101167007430F0A37401F0A37401F0A37442F07B10
:0C117700017A0179307F0C1206237F0002
:011183002249
:0B0EBF00900155EBF0A3EAF0A3E9F06E
:100ECA00785F7C017D017BFF7A0E79BB7E007F040F
:100EDA001208EC7B017A01795F7F52120FDB7B01EA
:100EEA007A01795F120AC6900155E0FBA3E0FAA3E2
:100EFA00E0F9120B83900155E0F9A3E0FAA3E09020
:100F0A00008BC9F0A3EAF0A3E9F0900158E0FBA333
:100F1A00E0FAA3E0F97D107F60120CDC90015BE03F
:100F2A006010A3E0FBA3E0FAA3E0F97F10120C31F2
:100F3A00801090015CE0FBA3E0FAA3E0F97F1012B5
:050F4A0009F10211375E
:1012490090011BEEF0A3EFF0A3ECF0A3EDF0A3EBFC
:07125900F0A3EAF0A3E9F0A5
:101260009000617401F0A37401F0A37426F07BFF79
:071270007A0E799F02006E67
:10134900759850538EBF538EFE53890F758BFE755A
:071359008DFFC2ABD28E2212
:10133100EF1FAC0670011E4C600D0000007D0B7CA0
:07134100BEDCFEDDFC80E9CB
:011348002282
:10138500EF1FAC0670011E4C600500000080F122C5
:03000000020F4F9D
:0C0F4F00787FE4F6D8FD758121020F9632
:10081C00E709F608DFFA8046E709F208DFFA803EBE
:10082C0088828C83E709F0A3DFFA8032E309F608AB
:10083C00DFFA8078E309F208DFFA807088828C8313
:10084C00E309F0A3DFFA806489828A83E0A3F608C7
:10085C00DFFA805889828A83E0A3F208DFFA804CA1
:10086C0080D280FA80C680D4806980F28033801078
:10087C0080A680EA809A80A880DA80E280CA8033E1
:10088C0089828A83ECFAE493A3C8C582C8CCC58359
:10089C00CCF0A3C8C582C8CCC583CCDFE9DEE78029
:1008AC000D89828A83E493A3F608DFF9ECFAA9F0A8
:1008BC00EDFB2289828A83ECFAE0A3C8C582C8CCFE
:1008CC00C583CCF0A3C8C582C8CCC583CCDFEADE17
:1008DC00E880DB89828A83E493A3F208DFF980CC79
:1008EC0088F0EF60010E4E60C388F0ED2402B40472
:1008FC000050B9F582EB2402B4040050AF23234519
:06090C00822390086C73C9
:10091200BB010CE58229F582E5833AF583E022509A
:1009220006E92582F8E622BBFE06E92582F8E222E4
:0D093200E58229F582E5833AF583E49322FE
:10093F00BB010689828A83F0225002F722BBFE0197
:02094F00F32291
:10095100F8BB010DE58229F582E5833AF583E8F0DC
:10096100225006E92582C8F622BBFE05E92582C888
:02097100F22270
:10097300BB010A89828A83F0E5F0A3F0225006F7CF
:0F09830009A7F01922BBFE06F3E5F009F31922CC
:10000300E5082461F582E43400F583E005082290D5
:10001300005E300703900061E475F0011209AB0242
:1000230009922000E97F2ED2008018EF540F24900C
:10003300D43440D4FF30040BEF24BFB41A00500370
:100043002461FFE50960021509050CE50C70020542
:100053000B30070E90005EE475F0011209ABEF025E
:10006300093F0212777403D2078003E4C207F5083D
:1000730090005E1209C2E4F509F50BF50CE5096081
:10008300077F2012004680F5750AFFC201C200C235
:1000930002C203C205C206C208120012FF700D306D
:1000A30007057F00120057AF0CAE0B22B4255FC2C9
:1000B300D5C204120012FF24D0B40A00501A75F0FE
:1000C3000A780930D50508B6FF0106C6A426F6202E
:1000D300D5047002D20380D924CFB41A00EF5004A0
:1000E300C2E5D204020258D20180C6D20080C0D237
:1000F3000280BCD2D580BAD20580B47F20120046DC
:100103002002077401B5090040F1120003FF120039
:1001130046020080D208D2068095120003FB12002B
:1001230003FA120003F94A4B700679297A037BFF1D
:1001330020022EE509602A7E008E82758300120953
:100143001260060EEE650A70F0C2D5EBC0E0EAC09D
:10015300E0E9C0E0EE12029FD0E0F9D0E0FAD0E08F
:10016300FB120992FF60AAEBC0E0EAC0E0E9C0E03D
:10017300120046D0E02401F9D0E03400FAD0E0FBCD
:10018300E50A0460DCD50AD980877BFF7A02799B74
:10019300D202809C791080027908C206C2088008C6
:1001A300D2D5790A8004790AC2D5E50A047002F52A
:1001B3000AE4FAFDFEFF120003FC7B082001131280
:1001C3000003FD7B1030000A120003FE120003FF40
:1001D3007B20EC3382D592D55013C3E43000069FC5
:1001E300FFE49EFEE42001039DFDE49CFCE4CBF8C8
:1001F300C201EC700CCFCECDCCE824F8F870F380BC
:1002030017C3EF33FFEE33FEED33FDEC33FCEB337B
:10021300FB994002FB0FD8E9EB300105F8D0E0C4AD
:1002230048B201C0E00AEC4D4E4F78207B0070C20B
:10023300EAB50A0040BCC0E01202A1D0F0D0E02031
:100243000104C4C0E0C4B201C0F012002FD0F0D545
:10025300F0EB0200801209CB011D5301975800EE09
:100263004C00EA42019B4F01A34401A3490103430C
:0802730001A955018D46018D22
:10027B0045018D4703495000F22D00F62E01192B35
:10028B0000FA2301172003322A00B24800000111A3
:10029B003F3F3F00790AA2D5200314300509B9105E
:1002AB00020404B9080104A2D5200602500104205F
:1002BB0002689202B509005034C0E07F2030031968
:1002CB007F30A20272067205500F1202F8C202C2F0
:1002DB0006C205C2087F30800F300503E9C0E0126B
:1002EB000046300503D0E0F9D0E0B509CC30051756
:1002FB007F30B9100C1200467F583004077F78808E
:10030B0003B908031200463002057F2D0200467F19
:10031B00202008F87F2B2006F322920280CF286E34
:10032B00756C6C2900D2011200033001F8C2017800
:10033B000930D50108F60200B22D5043495812007E
:10034B00032403B405004001E490034493120037E7
:0D035B00743A120037D203750904020197AD
:100F5B000212FAE493A3F8E493A34003F68001F2A0
:100F6B0008DFF48029E493A3F85407240CC8C33397
:100F7B00C4540F4420C8834004F456800146F6DF66
:100F8B00E4800B0102040810204080901063E47E83
:100F9B00019360BCA3FF543F30E509541FFEE4935B
:100FAB00A360010ECF54C025E060A840B8E493A322
:100FBB00FAE493A3F8E493A3C8C582C8CAC583CA4D
:100FCB00F0A3C8C582C8CAC583CADFE9DEE780BE05
:0110DA000015
:10099200BB010689828A83E0225002E722BBFE0263
:0909A200E32289828A83E4932296
:1009AB00F8E0FBA3A3E0F925F0F0E58215827002D5
:0709BB001583E0FA38F02279
:0909C200EBF0A3EAF0A3E9F02236
:1009CB00D083D082F8E4937012740193700DA3A3BB
:1009DB0093F8740193F5828883E4737402936860CF
:0609EB00EFA3A3A380DFCF
:10127700EFB40A07740D121282740A309811A899F4
:10128700B8130CC2983098FDA899C298B811F630D7
:0712970099FDC299F59922AF
:00000001FF
