:1032A700CFB5CDB3C6F4B6AFD6D00020204C6F61F2
:1032B7006420616E6420496E697469616C697A6122
:1032C70074696F6E2E2E2E00544F554348310054AB
:1032D7004F5543483200544F5543483300544F55D8
:0B32E70043483400202020202020005D
:10342900E4F593F594F591759208F595F596F5B14E
:0B343900F5B2F5B3F5B4F5C9F5CA22F1
:102DCA00123429C29312347412295FE4FFFE1231BD
:102DDA0008E49008AEF0A3F0A37418F0E4A3F0A3FB
:102DEA0074FFF0A37432F0A374A7F074FFFBFA7DAA
:102DFA00647C007F3C7E00122F587BFF7A3279B2C6
:102E0A0074FF900913F0A3F0E4A3F0A3F0A37410E5
:102E1A00F0E4A3F07DDCFCFFFE12307EE4FFFE123C
:102E2A003108209409209506209603309704D293FE
:102E3A008002C2933094087BFF7A3279CF801F30A8
:102E4A0095087BFF7A3279D680143096087BFF7A10
:102E5A003279DD80093097257BFF7A3279E474FF75
:102E6A00900913F0A3F0E4A3F0A3F0A37410F0E424
:102E7A00A3F07D64FC7F64FE12307E80A57BFF7A1E
:102E8A003279EB74FF900913F0A3F0E4A3F0A3F0F6
:102E9A00A37410F0E4A3F07D64FC7F64FE12307E1C
:022EAA00808026
:1000030065F002B8000000000000000000000000DE
:1000130000000000000000080808080808080000A5
:100023001818000000486C241200000000000000B3
:10003300000000000000002424247F1212127F120B
:10004300121200000000081C2A2A0A0C1828282A69
:100053002A1C080800000022251515152A58545497
:10006300542200000000000C1212120A76252911F6
:10007300916E00000006060403000000000000006B
:1000830000000000004020101008080808080810AD
:10009300102040000002040808101010101010086F
:1000A300080402000000000008086B1C1C6B080811
:1000B3000000000000000000080808087F08080886
:1000C3000800000000000000000000000000000025
:1000D300060604030000000000000000FE0000000C
:1000E300000000000000000000000000000000000D
:1000F300060600000000804040202010100808047D
:1001030004020200000000182442424242424242DA
:1001130024180000000000080E0808080808080852
:10012300083E00000000003C424242202010080428
:10013300427E00000000003C424220182040404222
:10014300221C0000000000203028242422227E20CC
:10015300207800000000007E0202021A264040427E
:10016300221C0000000000382402021A26424242E8
:10017300241800000000007E22221010080808083E
:10018300080800000000003C424242241824424276
:10019300423C0000000000182442424264584040A0
:1001A300241C0000000000000000181800000000DC
:1001B3001818000000000000000000080000000004
:1001C300000808040000004020100804020408107E
:1001D300204000000000000000007F0000007F00BE
:1001E3000000000000000002040810204020100856
:1001F300040200000000003C424246402010100070
:10020300181800000000001C225A555555552D4260
:10021300221C00000000000808181414243C224289
:1002230042E700000000001F2222221E2242424217
:10023300221F00000000007C424201010101014233
:10024300221C00000000001F22424242424242425E
:10025300221F00000000003F4212121E121202422F
:10026300423F00000000003F4212121E121202021F
:10027300020700000000003C22220101017121223B
:10028300221C0000000000E7424242427E424242FA
:1002930042E700000000003E0808080808080808B4
:1002A300083E00000000007C101010101010101009
:1002B3001010110F0000007722120A0E0A121222E8
:1002C300227700000000000702020202020202027B
:1002D300427F000000000077363636362A2A2A2A63
:1002E3002A6B0000000000E346464A4A525252621B
:1002F300624700000000001C22414141414141414D
:10030300221C00000000003F424242423E02020221
:10031300020700000000001C2241414141414D53AE
:10032300321C60000000003F4242423E1212222271
:1003330042C700000000007C4242020418204042F1
:10034300423E00000000007F49080808080808082A
:10035300081C0000000000E742424242424242427F
:10036300423C0000000000E74242222424141418F7
:10037300080800000000006B4949494955553622D9
:1003830022220000000000E7422424181818242425
:1003930042E700000000007722221414080808082E
:1003A300081C00000000007E2120101008040442F5
:1003B300423F0000007808080808080808080808F1
:1003C300080878000000020204040808081010203E
:1003D30020204040001E101010101010101010109C
:1003E30010101E0000384400000000000000000050
:1003F30000000000000000000000000000000000FA
:10040300000000FF000608000000000000000000DC
:1004130000000000000000000000003C427844425D
:1004230042FC0000000000030202021A264242427C
:10043300261A0000000000000000003844020202F7
:10044300443800000000006040404078444242428B
:1004530064D80000000000000000003C427E02025D
:10046300423C0000000000F08808087E08080808E5
:10047300083E0000000000000000007C22221C0255
:100483003C42423C000000030202023A464242421E
:1004930042E700000000000C0C00000E08080808EA
:1004A300083E0000000000303000003820202020EB
:1004B3002020221E0000000302020272120A1612FA
:1004C300227700000000000E080808080808080842
:1004D300083E0000000000000000007F929292920C
:1004E30092B70000000000000000003B4642424279
:1004F30042E70000000000000000003C424242428C
:10050300423C0000000000000000001B2642424263
:10051300221E02070000000000000078444242420D
:10052300447840E000000000000000774C0404041D
:10053300041F0000000000000000007C42023C4059
:10054300423E0000000000000008083E08080808BA
:1005530008300000000000000000006342424242F5
:1005630062DC000000000000000000E742242414C5
:100573000808000000000000000000EB4949555541
:100583002222000000000000000000762418181842
:10059300246E000000000000000000E74224241441
:1005A30018080807000000000000007E2210080859
:1005B300447E000000C02020202020102020202086
:1005C3002020C00010101010101010101010101068
:1005D300101010100006080808080810080808087A
:1005E300080806000C32C2000000000000000000F2
:1005F300000000005A0000D6D0200020002000FE9A
:1006030003220222022202FE0322022000200020F3
:100613000060AA020ECFB5001CFE032000200810C4
:1006230004FC03800040042008FC1F801090049009
:10063300088810A4104000CDB3080108020412E496
:100643003F12019F084810E43F82249F04820480E4
:10065300045844474422781000C6F480000021F86F
:100663007F082008200820F83F08000820F87F189A
:1006730020142014201220F13F1020B6AF000210E6
:10068300023E020022A07F7F2208220822042224A5
:100693002242217F218220802040142008D6D0804E
:1006A3000080008020FE7F8220822082208220FE24
:1006B3003F822080008000800080008000800061F5
:1006C30072009CCFB500000000800FFCFF1FFCFFF1
:1006D3001FF81E00000F03808307C0C103F0FF0152
:1006E300F07F00201C03008F07C0030EF8FF1FF8E4
:1006F300FF3F103810403801C0B907E0380F703899
:100703001E3C383C1C3E18001E00000000CDB30008
:10071300800030C00170800130800338000318FE70
:100723007F0CFE7F8CE100C6E100FE710EFE380CEB
:10073300601C1C70FE3F38FC7F186033FE6103FEB3
:1007430061033E6003006003803303FC3B23FE1917
:10075300631E1E7F000F7EC6F4003800003800F0D1
:10076300FF3FF0FF3FF0FF3F70003870003870002C
:1007730038F0FF3FF0FF3FF0FF3F700000700000D4
:10078300F0FF3FF0FF3FB8FF3FB803389803389CB2
:1007930003388CFF3F8EFF3F86FF3F840338000002
:1007A30000B6AF008003008003FC8701FC8701FCD7
:1007B300870100800100F87F00F87FFECF31FECF74
:1007C30031E0C03160C03170C03170C33030C730E8
:1007D30038E63818E738FC6F38FE7F383E3C38047B
:1007E3003C3F001F1F000F0E000600D6D00038004C
:1007F300003800003800003800003800F8FF3FF8E8
:10080300FF3FF8FF3F383838383838383838383809
:1008130038383838383838F8FF3FF8FF3FF8FF3FAB
:10082300383838003800003800003800003800003D
:1008330038000038006082001AB5E70000000000AD
:1008430000000000E0000000E0000000E000000005
:10085300E0000000E00000F8FFFF03F8FFFF0338AB
:10086300E0800338E0800338E0800338E080033819
:10087300E08003F8FFFF03F8FFFF0338E08003384D
:10088300E0800338E0800338E0800338E08003F839
:10089300FFFF03F8FFFF0338E0000038E0000038F3
:1008A300E0000000E0007000E0003800E0013800E4
:0B08B300C0FF3F0080FF1F000000009E
:08318700900B0BEEF0A3EFF03A
:10318F00900A90E4F0A374EFF0FB7A00E4FDFCFFEB
:10319F00FE12337FE4900B0DF0A3F0E4900B0FF0D1
:1031AF00A3F0900B0BE0FEA3E0FF1233C0900B10C7
:1031BF00E004F07006900B0FE004F0C3900B10E0EA
:1031CF0094F0900B0FE0940040D8900B0EE004F0B9
:1031DF007006900B0DE004F0C3900B0EE094F0908E
:0731EF000B0DE0940040B459
:0131F60022B6
:04310800AD07AC065D
:10310C00E4FBFAC3EB94E0EA9401502374AB2BF587
:10311C008274083AF583EDF0ECFF74AA2BF58274F7
:10312C00083AF583EFF074022BFBE43AFA80D49062
:10313C000A90E4F0A374EFF0FB7A00E4FDFCFFFED0
:10314C0012337FE49008A8F0A3F0D2CBC2C77B0166
:10315C007A0879AA7DE07C0112333CD2C79008A989
:10316C00E004F070069008A8E004F0C39008A9E011
:0A317C0094F09008A8E0940040D001
:013186002226
:102EAC00900AE8EEF0A3EFF0A3ECF0A3EDF0A3EAA8
:042EBC00F0A3EBF0A4
:102EC000C006C00724FFFBEA34FFFAA3E0FEA3E03C
:102ED00024FFFFEE34FF900A90F0A3EFF0D007D06C
:102EE0000612337F900AEAE0FFA3E0900AF2CFF0E7
:102EF000A3EFF0900AEEE0FEA3E0FFC3900AF3E038
:102F00009F900AF2E09E504F900AE8E0FFA3E09005
:102F10000AF4CFF0A3EFF0900AECE0FEA3E0FFC3C9
:102F2000900AF5E09F900AF4E09E501B900AF0E0B2
:102F3000FEA3E0FF1233C0900AF5E004F070D890D1
:102F40000AF4E004F080D0900AF3E004F070A4905A
:072F50000AF2E004F0809C8E
:012F57002257
:1031F700900AFDFEE0FCA3E0FDC3900AF9E09DFD07
:0E320700900AF8E09CFC900AFBE0FAA3E0FBC2
:10321500900941EEF0A3EFF0900945EAF0A3EBF039
:10322500900943ECF0A3EDF0900941E0FAA3E0FB2F
:10323500FFAE02C007A3E0FFA3E0900A90CFF0A382
:10324500EFF0D00712337F900945E0FEA3E0FF02BF
:0232550033C084
:0E21AE00900A94EEF0A3EFF0A3ECF0A3EDF096
:1021BC00E4900AA0F0A3F0A3F0A3F0900A94E0FE40
:1021CC00A3E0FFC3EB9FFFEA9E900AA4F0A3EFF0FD
:1021DC00900A96E0FAA3E0FBC3900A9BE09BFE906A
:1021EC000A9AE09A900AA6F0A3CEF0900A94E0FF27
:1021FC00A3E0900AAECFF0A3EFF0A3EAF0A3EBF0CC
:10220C00900AA4E0FEA3E0FFD39400EE64809480D7
:10221C00400A900AAAE4F0A304F08021EF4E700863
:10222C00900AAAF0A3F0801574FF900AAAF0A3F00C
:10223C00C3E49FFFE49E900AA4F0A3EFF0900AA6DB
:10224C00E0FEA3E0FFD39400EE64809480400A90FB
:10225C000AACE4F0A304F08021EF4E7008900AACB5
:10226C00F0A3F0801574FF900AACF0A3F0C3E49FC8
:10227C00FFE49E900AA6F0A3EFF0900AA6E0FEA35E
:10228C00E0FF900AA4E0FCA3E0FDD39FEE6480F88D
:10229C00EC648098900AA84007ECF0A3EDF0800560
:1022AC00EEF0A3EFF0E4900A9EF0A3F0900AA9E000
:1022BC002401FF900AA8E03400FEC3900A9FE09F1F
:1022CC00900A9EE09E400302239B900AAEE0FEA380
:1022DC00E0FFA3E0FCA3E0FD900A9C123210900AF0
:1022EC00A4E0FEA3E0FF900AA1E02FF0900AA0E08A
:1022FC003EF0900AA6E0FEA3E0FF900AA3E02FF0C8
:10230C00900AA2E03EF0900AA8E0FEA3E0FF900A3B
:10231C00A0E0FCA3E0FDD39FEE6480F8EC64809811
:10232C004020ED9FFFEC9E900AA0F0A3EFF0900AE6
:10233C00AAE0FEA3E0FF900AAFE02FF0900AAEE017
:10234C003EF0900AA8E0FEA3E0FF900AA2E0FCA3F6
:10235C00E0FDD39FEE6480F8EC6480984020ED9F04
:10236C00FFEC9E900AA2F0A3EFF0900AACE0FEA363
:10237C00E0FF900AB1E02FF0900AB0E03EF0900A36
:0F238C009FE004F07006900A9EE004F00222B871
:01239B00221F
:102CE400900B05EAF0A3EBF0900B01EEF0A3EFF0EC
:102CF400A3ECF0A3EDF0C007A3E0FAA3E0FB900B74
:102D040003E0FFA3E0900A9ACFF0A3EFF0900B0941
:102D1400E0FFA3E0900A9CCFF0A3EFF0D0071221CC
:102D2400AE900B01E0FAA3E0FBFFAE02C007A3E004
:102D3400FCA3E0FD900B07E0FFA3E0900A9ACFF01C
:102D4400A3EFF0900B09E0FFA3E0900A9CCFF0A35F
:102D5400EFF0D0071221AE900B07E0FCA3E0FD904A
:102D64000B05E0FAA3E0FBA3E0FFA3E0900A9ACFEF
:102D7400F0A3EFF0900B09E0FFA3E0900A9CCFF0E2
:102D8400A3EFF0900B01E0FEA3E0FF1221AE900B45
:102D940005E0FAA3E0FBFFAE02C007900B03E0FCE2
:102DA400A3E0FD900B07E0FFA3E0900A9ACFF0A305
:102DB400EFF0900B09E0FFA3E0900A9CCFF0A3EFA3
:062DC400F0D0070221AE71
:10239C00900AF6EEF0A3EFF0A3ECF0A3EDF0A3EBB4
:0123AC00F040
:1023AD00E4900AFDF0A3F0EBFFA3E4F0A3EFF090AF
:1023BD000AFFE0FEA3E0FFD3900AFEE09FEE6480EB
:1023CD00F8900AFDE0648098400302253BC3900A13
:1023DD00F7E09FFF900AF6E09E1231F7900AFFE0BA
:1023ED00FEA3E0FF900AF7E02FFF900AF6E03E1201
:1023FD0031F7900AFDE0FEA3E0FFC3900AF7E09FDE
:10240D00FF900AF6E09EFE900AFFE0FCA3E0FD902F
:10241D000AF9E02DFD900AF8E03C12320C900AFD0D
:10242D00E0FEA3E0FFC3900AF7E09FFF900AF6E0FD
:10243D009E900AFF1231FA900AFFE0FEA3E0FF9092
:10244D000AF7E02FFF900AF6E03EFE900AFDE0FC51
:10245D00A3E0FD900AF9E02DFD900AF8E03C123260
:10246D000C900AFDE0FEA3E0FF900AF7E02FFF902D
:10247D000AF6E03EFE900AFF1231FB900AFDE0FEE7
:10248D00A3E0FF900AF7E02FFF900AF6E03EFE90E2
:10249D000AFFE0FCA3E0FD900AF9E02DFD900AF89B
:1024AD00E03C12320C900AFFE0FEA3E0FFC3900A5D
:1024BD00F7E09FFF900AF6E09EFE900AFDE0FCA378
:1024CD00E0FD900AF9E02DFD900AF8E03C12320C87
:1024DD00900AFEE004F07006900AFDE004F0900A08
:1024ED00FFE0FCA3E0FDFFAE04120DE8AA06AB076A
:1024FD00900AFDE0FCA3E0FDFFAE04120DE8EF2B0A
:10250D00FDEE3AFC900AFAE0F5F0A4FFD3ED9FE55D
:10251D00F06480F8EC64809850030223BC900B00AB
:0E252D00E024FFF0900AFFE034FFF00223BC30
:01253B00227D
:10253C0090090CEEF0A3EFF0A3ECF0A3EDF0A3EBFD
:10254C00F0A3EAF0A3E9F0900910E0FBA3E0FAA3F2
:10255C00E0F9120D9070030226C6900917E0640C86
:10256C00704490090EE0FCA3E0FD900913E0FFA37A
:10257C00E0900920CFF0A3EFF0900915E0FFA3E065
:10258C00900922CFF0A3EFF0900917E0900924F006
:10259C00900918E0900925F090090CE0FEA3E0FFEB
:1025AC001219C30226A7900917E06410704B90090A
:1025BC000EE0FCA3E0FDA3E0FBA3E0FAA3E0F9A38B
:1025CC00E0FFA3E0900920CFF0A3EFF0900915E015
:1025DC00FFA3E0900922CFF0A3EFF0900917E09051
:1025EC000924F0900918E0900925F090090CE0FE00
:1025FC00A3E0FF1217090226A7900917E0641870D0
:10260C004A90090EE0FCA3E0FDA3E0FBA3E0FAA3D3
:10261C00E0F9A3E0FFA3E0900920CFF0A3EFF09046
:10262C000915E0FFA3E0900922CFF0A3EFF0900989
:10263C0017E0900924F0900918E0900925F0900912
:10264C000CE0FEA3E0FF12144D8050900917E064DB
:10265C0020706790090EE0FCA3E0FDA3E0FBA3E073
:10266C00FAA3E0F9A3E0FFA3E0900920CFF0A3EFD9
:10267C00F0900915E0FFA3E0900922CFF0A3EFF052
:10268C00900917E0900924F0900918E0900925F0C2
:10269C0090090CE0FEA3E0FF121C7C900911E4757C
:1026AC00F002120DFA900917E0FF90090DE02FF0DF
:0B26BC0090090CE03400F002255322CE
:1019C30090091BECF0A3EDF0A3EBF0A3EAF0A3E97D
:0919D300F0900919EEF0A3EFF009
:1019DC00E4900928F090092FEEF0A3EFF090092481
:1019EC00E0FF131313541FFD7C00EF54077E0060BF
:1019FC00047F0180027F00EF2DFFEE3CFE90092456
:101A0C00E0FD7C00120DE890092DEEF0A3EFF090B4
:101A1C00092BE4F0A304F0E4900929F0A3F0900959
:101A2C002BE0FEA3E0FF900929E0FCA3E0FDC39F9F
:101A3C00EC9E4003021C7B90091DE0FBA3E0FAA383
:101A4C00E0F9120D90FF90000075F01AED120F786E
:101A5C00EC75F01AA42583F583E06F6003021C6A11
:101A6C00900001120DA9FF900929A3E090000175C7
:101A7C00F01A120F78EC75F01AA42583F583E06F39
:101A8C006003021C6A90091BE0FCA3E0FD90092492
:101A9C00E0F9FF7E00900919E0FAA3E02FFFEE3A7F
:101AAC00CF24FFFBEF34FFFAE9FFA3E0F8A3E02F0C
:101ABC00FFEE38CF24FFCF34FF900A90F0A3EFF065
:101ACC00900919E0FEA3E0FF12337FE4900926F0A1
:101ADC00900926E0FFD390092EE09F90092DE09409
:101AEC00005003021C6AE4900927F0900925E0607D
:101AFC0003021B95900929A3E075F01AA42402F5A2
:101B0C0082E43400F583C083C082900926E0D08241
:101B1C00D0832582F582E43583F583E0FD7C00904B
:101B2C000927E0FF74017E00A807088005C333CEA7
:101B3C0033CED8F9FFEE5CFEEF5D4E6005900920C8
:101B4C008003900922E0FCA3E0FDECFF900927E064
:101B5C00FE25E02431F582E43409F583EFF0EE251F
:101B6C00E02432F582E43409F583EDF0900928E0A5
:101B7C0004F0900924E0FF900928E08FF084E5F050
:101B8C006003021C3AF0021C49900929A3E075F08D
:101B9C001AA42402F582E43400F583C083C0829039
:101BAC000926E0D082D0832582F582E43583F58343
:101BBC00E0FD7C00900927E0FF74017E00A8070877
:101BCC008005C333CE33CED8F9FFEE5CFEEF5D4E0D
:101BDC006014900919E0FEA3E0FFA3E0FCA3E0FD74
:101BEC0090092012321090091AE004F07006900946
:101BFC0019E004F090092FE0FEA3E0FFC390091A4E
:101C0C00E09FFD900919E09EFC900924E07A00B554
:101C1C00051CEAB50418900919EEF0A3EFF0900931
:101C2C001CE004F0701790091BE004F0800F900981
:101C3C0027E004F0E0C394085003021AF79009253A
:101C4C00E07012D2CBC2C77B017A0979317D10FCCE
:101C5C0012333CD2C7900926E004F0021ADC90093A
:0F1C6C002AE004F07006900929E004F0021A2A19
:011C7B002246
:1017090090091BECF0A3EDF0A3EBF0A3EAF0A3E939
:09171900F0900919EEF0A3EFF0C5
:10172200E4900928F090092FEEF0A3EFF09009243D
:10173200E0FF131313541FFD7C00EF54077E00607B
:10174200047F0180027F00EF2DFFEE3CFE90092412
:10175200E0FD7C00120DE890092DEEF0A3EFF09071
:10176200092BE4F0A37405F0E4900929F0A3F090AA
:10177200092BE0FEA3E0FF900929E0FCA3E0FDC3F2
:101782009FEC9E40030219C290091DE0FBA3E0FA00
:10179200A3E0F9120D90FF90020E75F022ED120FE8
:1017A20078EC75F022A42583F583E06F60030219BB
:1017B200B1900001120DA9FF900929A3E090020F38
:1017C20075F022120F78EC75F022A42583F583E0E0
:1017D2006F60030219B190091BE0FCA3E0FD9009C0
:1017E20024E0F9FF7E00900919E0FAA3E02FFFEE52
:1017F2003ACF24FFFBEF34FFFAE9FFA3E0F8A3E0BE
:101802002FFFEE38CF24FFCF34FF900A90F0A3EFE2
:10181200F0900919E0FEA3E0FF12337FE49009265D
:10182200F0900926E0FFD390092EE09F90092DE069
:10183200940050030219B1E4900927F0900925E0C1
:1018420060030218DC900929A3E075F022A4241099
:10185200F582E43402F583C083C082900926E0D089
:1018620082D0832582F582E43583F583E0FD7C0016
:10187200900927E0FF74017E00A807088005C333A2
:10188200CE33CED8F9FFEE5CFEEF5D4E60059009D7
:10189200208003900922E0FCA3E0FDECFF900927E1
:1018A200E0FE25E02431F582E43409F583EFF0EE21
:1018B20025E02432F582E43409F583EDF09009281D
:1018C200E004F0900924E0FF900928E08FF084E51D
:1018D200F06003021981F0021990900929A3E075C2
:1018E200F022A42410F582E43402F583C083C0827E
:1018F200900926E0D082D0832582F582E43583F5F3
:1019020083E0FD7C00900927E0FF74017E00A807B8
:10191200088005C333CE33CED8F9FFEE5CFEEF5D0F
:101922004E6014900919E0FEA3E0FFA3E0FCA3E0DF
:10193200FD90092012321090091AE004F07006900E
:101942000919E004F090092FE0FEA3E0FFC390091B
:101952001AE09FFD900919E09EFC900924E07A00AC
:10196200B5051CEAB50418900919EEF0A3EFF09042
:10197200091CE004F0701790091BE004F0800F903E
:101982000927E004F0E0C39408500302183E9009CE
:1019920025E07012D2CBC2C77B017A0979317D1062
:1019A200FC12333CD2C7900926E004F002182390BF
:1019B200092AE004F07006900929E004F002177188
:0119C2002202
:10144D0090091BECF0A3EDF0A3EBF0A3EAF0A3E9F8
:09145D00F0900919EEF0A3EFF084
:10146600E4900928F090092FEEF0A3EFF0900924FC
:10147600E0FF131313541FFD7C00EF54077E00603A
:10148600047F0180027F00EF2DFFEE3CFE900924D1
:10149600E0FD7C00120DE890092DEEF0A3EFF09030
:1014A600092BE4F0A37405F0E4900929F0A3F09069
:1014B600092BE0FEA3E0FF900929E0FCA3E0FDC3B1
:1014C6009FEC9E400302170890091DE0FBA3E0FA7B
:1014D600A3E0F9120D90FF90009C75F04AED120FF3
:1014E60078EC75F04AA42583F583E06F6003021655
:1014F600F7900001120DA9FF900929A3E090009D25
:1015060075F04A120F78EC75F04AA42583F583E04E
:101516006F60030216F790091BE0FCA3E0FD90093B
:1015260024E0F9FF7E00900919E0FAA3E02FFFEE10
:101536003ACF24FFFBEF34FFFAE9FFA3E0F8A3E07C
:101546002FFFEE38CF24FFCF34FF900A90F0A3EFA1
:10155600F0900919E0FEA3E0FF12337FE49009261C
:10156600F0900926E0FFD390092EE09F90092DE028
:10157600940050030216F7E4900927F0900927E03B
:10158600FFC3940840030216D6900925E0600302C3
:101596001627A3E0FE900929E0FCA3E090009E75C3
:1015A600F04A120F78EC75F04AA42583F583E5829C
:1015B6002EF582E43583F583E0FD7C0074017E0020
:1015C600A807088005C333CE33CED8F9FFEE5CFEFC
:1015D600EF5D4E60059009208003900922E0FCA390
:1015E600E0FDECFF900927E0FE25E02431F582E4DA
:1015F6003409F583EFF0EE25E02432F582E4340970
:10160600F583EDF0900928E004F0900924E0FF90BE
:101616000928E08FF084E5F060030216CDF002168B
:10162600D6900926E0FF900929E0FCA3E090009EF1
:1016360075F04A120F78EC75F04AA42583F583E518
:10164600822FF582E43583F583E0FD7C009009273F
:10165600E0FF74017E00A807088005C333CE33CEB1
:10166600D8F9FFEE5CFEEF5D4E6014900919E0FEBE
:10167600A3E0FFA3E0FCA3E0FD9009201232109046
:10168600091AE004F07006900919E004F090092F99
:10169600E0FEA3E0FFC390091AE09FFD900919E060
:1016A6009EFC900924E07A00B5051CEAB504189062
:1016B6000919EEF0A3EFF090091CE004F070119008
:1016C600091BE004F08009900927E004F002158266
:1016D600900925E07012D2CBC2C77B017A09793115
:1016E6007D10FC12333CD2C7900926E004F00215A7
:1016F6006790092AE004F07006900929E004F002D8
:0217060014B518
:0117080022BE
:101C7C0090091BECF0A3EDF0A3EBF0A3EAF0A3E9C1
:091C8C00F0900919EEF0A3EFF04D
:101C9500E4900928F090092FEEF0A3EFF0900924C5
:101CA500E0FF131313541FFD7C00EF54077E006003
:101CB500047F0180027F00EF2DFFEE3CFE9009249A
:101CC500E0FD7C00120DE890092DEEF0A3EFF090F9
:101CD500092BE4F0A304F0E4900929F0A3F090099E
:101CE5002BE0FEA3E0FF900929E0FCA3E0FDC39FE4
:101CF500EC9E4003021F3490091DE0FBA3E0FAA30C
:101D0500E0F9120D90FF90001A75F082ED120F7830
:101D1500EC75F082A42583F583E06F6003021F2331
:101D2500900001120DA9FF900929A3E090001B75F1
:101D3500F082120F78EC75F082A42583F583E06FAD
:101D45006003021F2390091BE0FCA3E0FD9009241A
:101D5500E0F9FF7E00900919E0FAA3E02FFFEE3AC3
:101D6500CF24FFFBEF34FFFAE9FFA3E0F8A3E02F50
:101D7500FFEE38CF24FFCF34FF900A90F0A3EFF0A9
:101D8500900919E0FEA3E0FF12337FE4900926F0E5
:101D9500900926E0FFD390092EE09F90092DE0944D
:101DA500005003021F23E4900927F0900925E06005
:101DB50003021E4E900929A3E075F082A4241CF5A8
:101DC50082E43400F583C083C082900926E0D08286
:101DD500D0832582F582E43583F583E0FD7C009090
:101DE5000927E0FF74017E00A807088005C333CEEC
:101DF50033CED8F9FFEE5CFEEF5D4E60059009200D
:101E05008003900922E0FCA3E0FDECFF900927E0A8
:101E1500FE25E02431F582E43409F583EFF0EE2563
:101E2500E02432F582E43409F583EDF0900928E0E9
:101E350004F0900924E0FF900928E08FF084E5F094
:101E45006003021EF3F0021F02900929A3E075F05A
:101E550082A4241CF582E43400F583C083C08290FB
:101E65000926E0D082D0832582F582E43583F58387
:101E7500E0FD7C00900927E0FF74017E00A80708BB
:101E85008005C333CE33CED8F9FFEE5CFEEF5D4E51
:101E95006014900919E0FEA3E0FFA3E0FCA3E0FDB8
:101EA50090092012321090091AE004F0700690098A
:101EB50019E004F090092FE0FEA3E0FFC390091A92
:101EC500E09FFD900919E09EFC900924E07A00B599
:101ED500051CEAB50418900919EEF0A3EFF0900976
:101EE5001CE004F0701790091BE004F0800F9009C6
:101EF50027E004F0E0C394085003021DB0900925C3
:101F0500E07012D2CBC2C77B017A0979317D10FC12
:101F150012333CD2C7900926E004F0021D959009C2
:0F1F25002AE004F07006900929E004F0021CE3A2
:011F3400228A
:101F350090091BECF0A3EDF0A3EBF0900919EEF07E
:031F4500A3EFF017
:101F4800E4900927F090092CEEF0A3EFF090092215
:101F5800E0F9C313900925F0E0FF131313541FFD94
:101F68007C00EF54077E0060047F0180027F00EF51
:101F78002DFFEE3CFEE9FD7C00120DE890092AEEEB
:101F8800F0A3EFF090091DE024E0F090091BE0FCBD
:101F9800A3E0FD900925E0FF7E00900919E0FAA36F
:101FA800E02FFFEE3ACF24FFFBEF34FFFAE9FFA35F
:101FB800E0F8A3E02FFFEE38CF24FFCF34FF900ADC
:101FC80090F0A3EFF0900919E0FEA3E0FF12337F31
:101FD800E4900928F0A3F090092AE0FEA3E0FF901E
:101FE8000928E0FCA3E0FDC39FEC9E40030221AD5D
:101FF800900922E0641060030221AD90091DE0758C
:10200800F010A424B8F582E5F03402F583E5822DBA
:10201800F582E5833CF583E0900924F0E4900926F5
:10202800F0900926E0FFC39408400302217C900940
:1020380023E060030220F8900925E0540770650446
:102048007E00A807088005C333CE33CED8F9FF90A9
:102058000924E0FDEF5D600590091E8003900920CA
:10206800E0FCA3E0FDECFF900926E0FE25E0242E2D
:10207800F582E43409F583EFF0EE25E0242FF582AC
:10208800E43409F583EDF0900927E004F090092580
:10209800E0FF900927E08FF084E5F06003022173E8
:1020A800F002217C900926E0FF74017E00A8070851
:1020B8008005C333CE33CED8F9FF900924E0FDEF75
:1020C8005D600590091E8003900920E0FEA3E0FFF3
:1020D8001233C0900927E004F0900925E0FF900929
:1020E80027E08FF084E5F06003022173F002217C81
:1020F800900926E0FF74017E00A807088005C33315
:10210800CE33CED8F9FF900924E0FDEF5D6014903E
:102118000919E0FEA3E0FFA3E0FCA3E0FD90091E7F
:1021280012321090091AE004F07006900919E004C0
:10213800F090092CE0FEA3E0FFC390091AE09FFD90
:10214800900919E09EFC900925E07A00B5051CEA83
:10215800B50418900919EEF0A3EFF090091CE004FB
:10216800F0701190091BE004F08009900926E00442
:10217800F0022029900925E054077018900923E0FF
:102188007012D2CBC2C77B017A09792E7D10FC125E
:10219800333CD2C7900929E004F07006900928E082
:0521A80004F0021FDF3E
:0121AD00220F
:10307E0090090CEEF0A3EFF0A3ECF0A3EDF0A3EBB0
:10308E00F0A3EAF0A3E9F0900910E0FBA3E0FAA3A5
:10309E00E0F9120D90FB606190090EE0FCA3E0FDDB
:1030AE00900913E0FFA3E090091ECFF0A3EFF0907C
:1030BE000915E0FFA3E0900920CFF0A3EFF09009EF
:1030CE0017E0900922F0900918E0900923F090097A
:1030DE000CE0FEA3E0FF121F35900917E0C313FFAB
:1030EE0090090DE02FF090090CE03400F0900911DA
:0A30FE00E475F001120DFA808E2235
:07325700C3EF9E14FD7F0A86
:08325E00900B11EFF0A3EDF05D
:10326600A3120F4700000001900B12E0FF14F0EFCD
:103276006020A3E0F8A3E0F9A3E0FAA3E0FB900B3B
:1032860011E0FFE4FCFDFE120E10900B13120F3B33
:1032960080D6900B13E0FCA3E0FDA3E0FEA3E0FFC5
:0132A6002205
:102AA600900AD8EEF0A3EFF0A3ECF0A3EDF0A3EAC2
:042AB600F0A3EBF0AE
:102ABA00E4900AE6F0900AE3E0C313900AE7F0E430
:102ACA00900AE4F0900ADEE0FF900AE4E0FEC39F79
:102ADA004003022BD1123257A804A905AA06AB0754
:102AEA00900ADCE0FEA3E0FFE4FCFD120E9BE47B0F
:102AFA000AFAF9F8120E9B900AE5EBF0A3E070656A
:102B0A00900ADEE014FF900AE4E0FEC39F5056A349
:102B1A00E0704C900AE7E0FFEE8FF0A4FF900AD92C
:102B2A00E02FFF900AD8E035F0FE900ADAE0FCA325
:102B3A00E0FD900ADFE0FBA3E090091ECBF0A3EBD7
:102B4A00F0900AE1E0FBA3E0900920CBF0A3EBF0C0
:102B5A00900AE3E0900922F0E4A3F07B20805C90E5
:102B6A000AE67401F0900AE7E0FF900AE4E08FF0C9
:102B7A00A4FF900AD9E02FFF900AD8E035F0FEC0F2
:102B8A0007900ADAE0FCA3E0FD900AE5E02430FBB6
:102B9A00900ADFE0FFA3E090091ECFF0A3EFF090C8
:102BAA000AE1E0FFA3E0900920CFF0A3EFF0900A3A
:102BBA00E3E0900922F0E4A3F0D007121F35900A4F
:072BCA00E4E004F0022ACE52
:012BD10022E1
:0E281500900AB2EEF0A3EFF0A3ECF0A3EDF00A
:10282300900ABFE0C313900AC2F0E4FFFE7DC87CA8
:1028330042900AB6E0F8A3E0F9A3E0FAA3E0FB12A2
:1028430008BF1209C5900AC3EEF0A3EFF0E4900AA3
:10285300C0F0900ABAE0FF900AC0E0FEC39F4003B5
:1028630002295E123257A804A905AA06AB07900AEB
:10287300C3E0FEA3E0FFE4FCFD120E9BE47B0AFA37
:10288300F9F8120E9B900AC1EBF0900ABAE0FF240C
:10289300FEFE900AC0E06E7060EF24FEFFE434FF9A
:1028A300FE900AC2E0FD7C00120DE8900AB3E02F0F
:1028B300FF900AB2E03EFE900AB4E0FCA3E0FD9074
:1028C3000ABBE0FBA3E090091ECBF0A3EBF0900A58
:1028D300BDE0FBA3E0900920CBF0A3EBF0900ABF8F
:1028E300E0900922F0E4A3F07B2E121F35900AC07A
:1028F300E004F0900ABAE004F0900AC2E0FF900A04
:10290300C0E08FF0A4FF900AB3E02FFF900AB2E07B
:1029130035F0FEC007900AB4E0FCA3E0FD900AC1C5
:10292300E02430FB900ABBE0FFA3E090091ECFF048
:10293300A3EFF0900ABDE0FFA3E0900920CFF0A33E
:10294300EFF0900ABFE0900922F0E4A3F0D0071261
:0B2953001F35900AC0E004F002285578
:01295E002256
:1026C700900AC5EEF0A3EFF0A3ECF0A3EDF0A3EAB8
:0426D700F0A3EBF091
:1026DB00900AD4120F4700000000900AC7E0FCA339
:1026EB00E0FDA3E0FEA3E0FF900AC5E0FAA3E02F14
:1026FB00FFEA3ECF24FFFBEF34FFFA900ACBE0FE5C
:10270B00A3E0FF900AC7E0F8A3E02FFFE83ECF2439
:10271B00FFCF34FF900A90F0A3EFF0900AC5E0FED4
:10272B00A3E0FF12337FE4900AD0F0A3F0900AC924
:10273B00E0FEA3E0FFC3900AD1E09F900AD0E09E99
:10274B004003022814E4900AD2F0A3F0900ACBE0E5
:10275B00FEA3E0FFC3900AD3E09F900AD2E09E4015
:10276B0003022800E47F02FEFDFC900AD4E0F8A3EC
:10277B00E0F9A3E0FAA3E0FB120E10900ACDE0FB08
:10278B00A3E0FAA3E0F98F828E83120DA9FF123416
:10279B005AE47F02FEFDFC900AD4E0F8A3E0F9A313
:1027AB00E0FAA3E0FB120E10EF2401FFE43EFE90D3
:1027BB000ACDE0FBA3E0FAA3E0F98F828E83120D22
:1027CB00A9FF12345A900AD4E0FCA3E0FDA3E0FE6B
:1027DB00A3E02401FFE43EFEE43DFDE43CFC900A53
:1027EB00D4120F3B900AD3E004F07006900AD2E0AB
:1027FB0004F0022757900AD1E004F0600302273857
:09280B00900AD0E004F002273825
:0128140022A1
:102BD2009008FEEEF0A3EFF0A3ECF0A3EDF0A3EB70
:072BE200F0A3EAF0A3E9F003
:102BE900E490090BF0900902E0FBA3E0FAA3E0F9F5
:102BF90090090BE0F582758300120DA97003022C70
:102C0900E3C39480900900E0FCA3E0FD505C9009C7
:102C19000BE0FF7E00E92FF9EE3AFA900905E0FF93
:102C2900A3E0900913CFF0A3EFF0900907E0FFA309
:102C3900E0900915CFF0A3EFF0900909E09009178A
:102C4900F090090AE0900918F09008FEE0FEA3E070
:102C5900FF12307E900909E0C313FF9008FFE02FAF
:102C6900F09008FEE03400F08067A3E0FBA3E0FAEF
:102C7900A3E0F990090BE0FF7E00E92FF9EE3AFA9B
:102C8900900905E0FFA3E0900913CFF0A3EFF090BE
:102C99000907E0FFA3E0900915CFF0A3EFF0900931
:102CA90009E0900917F090090AE0900918F09008D6
:102CB900FEE0FEA3E0FF12253C900909E0FF900821
:102CC900FFE02FF09008FEE03400F090090BE004DB
:0A2CD900F090090BE004F0022BEE6E
:012CE30022CE
:102F58009008A8EEF0A3EFF0A3ECF0A3EDF0A3EA3D
:042F6800F0A3EBF0F7
:102F6C009008FB7401F0A37408F0A374B5F09008FA
:102F7C00B2E0F9A3E0FAA3E09008FEC9F0A3EAF0EE
:102F8C00A3E9F09008FBE0F9A3E0FAA3E0900901B3
:102F9C00C9F0A3EAF0A3E9F07B017A0879DD1232DB
:102FAC00F29008AAE0FCA3E0FD7B017A0879DDA38E
:102FBC00E0FFA3E0900905CFF0A3EFF09008AEE09E
:102FCC00FFA3E0900907CFF0A3EFF09008B0E090DA
:102FDC000909F09008B1E090090AF09008A8E0FE09
:062FEC00A3E0FF022BD25E
:04340A007F647E005D
:10340E00EF1F70011E144E601100000075080B7541
:0A341E0009BED509FDD508FA80E6C5
:013428002281
:08346400C2C7123444D2C72292
:0A345A00D2CBC2C7123444D2C722FD
:0533BB00E0FEA3E0FFAD
:0433C000AD07AC06A3
:1033C400EC900A92F0A3EFF0D2CBC2C7900A92E03D
:0E33D400FF123444900A93E0FF123444D2C733
:0133E20022C8
:08346C00C2CB123464D2CB2262
:10337F00900A8AEEF0A3EFF0A3ECF0A3EDF0A3EA2E
:10338F00F0A3EBF07F2A12346C900A8A1233BB90B1
:10339F000A8E1233BB7F2B12346C900A8C1233BB04
:0C33AF00900A901233BB7F2C12346C2269
:10295F00C2C012340AD2C012340AD2C812340A7F4B
:10296F001112346C7F787E0012340E7F3612346C65
:10297F00E4FF12345A7F3A12346C7F0512345A7FB7
:10298F00B212346C7F0C12345A7F0C12345AE4FF9B
:10299F0012345A7F3312345A7F3312345A7FB7129C
:1029AF00346C7F3512345A7FBB12346C7F1912345A
:1029BF005A7FC012346C7F2C12345A7FC212346C7F
:1029CF007F0112345A7FC312346C7F1212345A7F34
:1029DF00C412346C7F2012345A7FC612346C7F0FAE
:1029EF0012345A7FD012346C7FA412345A7FA11242
:1029FF00345A7FE012346C7FD012345A7F04123471
:102A0F005A7F0D12345A7F1112345A7F1312345ACF
:102A1F007F2B12345A7F3F12345A7F5412345A7F0D
:102A2F004C12345A7F1812345A7F0D12345A7F0BBE
:102A3F0012345A7F1F12345A7F2312345A7FE112F5
:102A4F00346C7FD012345A7F0412345A7F0C1234F4
:102A5F005A7F1112345A7F1312345A7F2C12345A60
:102A6F007F3F12345A7F4412345A7F5112345A7FA7
:102A7F002F12345A7F1F12345A7F1F12345A7F205D
:102A8F0012345A7F2312345A7F2112346C7F111261
:072A9F00346C7F2902346C46
:07347400D292D2CDD2C72293
:10344400E4FEEF3392CDEF25E0FFC292D2920EEE6E
:05345400B408EFD2CD29
:013459002250
:10333C00900A8AEBF0A3EAF0A3E9F0A3ECF0A3ED7A
:01334C00F090
:10334D00C2C7E4FDFCD3900A8EE09D900A8DE09CEF
:10335D00401D900A8AE0FBA3E0FAA3E0F98D828C70
:10336D0083120DA9FF1234440DBD00010C80D6D27D
:01337D00C788
:01337E00222C
:1008BF00EC4D6011E8497017ED33EC3304600DE433
:1008CF00FCFFFEFD22E933E8330470F8020A31120F
:1008DF0009FC58046009E4CC248150062850090211
:1008EF000A3B284003020A38C0E0EB4A7044B98043
:1008FF0006D0E0FB020A27EF4E701CBD8008EBFF0D
:10090F00EAFEE9FD80EBE98DF0A4FEE5F00209A80F
:10091F00E9CDF9EAFEEBFFEF89F0A4FCE5F0CE8913
:10092F00F0A42EFFE435F0CD89F0A42DFEE435F0D0
:10093F008067EF4E7005BD80D780C3EF8BF0A4ACFE
:10094F00F0EE8BF0A42CFCE435F0F8EF8AF0A42C39
:10095F00E5F038FCE433CB8DF0A42CFCE5F03BF84C
:10096F00EE8AF0A42CFCE5F038F8E433CF89F0A43C
:10097F002CFCE5F038CF3400CE89F0A42FFFE5F042
:10098F003EFEE433C98DF0A42EFEE5F039CD8AF09A
:10099F00A42FFFE5F03EFEE43DFD33D0E0FB500712
:1009AF000BBB000F020A3BEC2CFCEF33FFEE33FEC8
:0609BF00ED33FD020A13F6
:1009C500EDD2E7CD33EC3392D524814006E4FFFE2A
:1009D500FDFC22FCE4CFCECDCC24E0501174FF8089
:1009E500EDC3CC13CCCD13CDCE13CECF13CF047026
:0709F500F030D5DE020F2DEA
:1032F2009008FEE0FFA3E0FEA3E0CF900907F0A351
:10330200EEF0A3EFF0900901E0CBF0A3E0CAF0A346
:10331200E0C9F07F2290090AAD82AC83120D908D34
:10332200828C83F0A309E970010ADFEC900901E0C5
:0A333200FBA3E0FAA3E0F902102F5C
:1009FC00E9D2E7C933E833F892D5EDD2E7CD33EC41
:070A0C0033FC5002B2D522B9
:100A1300EC30E7100FBF000C0EBE00080DBD000444
:100A23000BEB6014A2D5EB13FCED92E7FD2274FFF0
:100A3300FCFDFEFF22E480F8A2D574FF13FC7D8049
:030A4300E480EF5D
:100FCA00E5082407F582E43409F583E00508229050
:100FDA000904300703900907E475F001120F84022F
:100FEA000D902000E97F2ED2008018EF540F249034
:100FFA00D43440D4FF30040BEF24BFB41A0050039A
:10100A002461FFE50960021509050CE50C7002056B
:10101A000B30070E900904E475F001120F84EF02F9
:10102A000DD60233E37403D2078003E4C207F5083E
:10103A00900904120F9BE4F509F50BF50CE509601C
:10104A00077F2012100D80F5750AFFC201C200C287
:10105A0002C203C205C206C208120FD9FF700D30C0
:10106A0007057F0012101EAF0CAE0B22B4255FC21B
:10107A00D5C204120FD9FF24D0B40A00501A75F051
:10108A000A780930D50508B6FF0106C6A426F62057
:10109A00D5047002D20380D924CFB41A00EF5004C9
:1010AA00C2E5D204021310D20180C6D20080C0D297
:1010BA000280BCD2D580BAD20580B47F2012100D2E
:1010CA002002077401B5090040F1120FCAFF12107D
:1010DA000D021047D208D2068095120FCAFB120FD2
:1010EA00CAFA120FCAF94A4B7006790E7A147BFFB4
:1010FA0020022EE509602A7E008E82758300120D79
:10110A00A960060EEE650A70F0C2D5EBC0E0EAC02F
:10111A00E0E9C0E0EE121371D0E0F9D0E0FAD0E0D5
:10112A00FB120D90FF60AAEBC0E0EAC0E0E9C0E064
:10113A0012100DD0E02401F9D0E03400FAD0E0FB1F
:10114A00E50A0460DCD50AD98087D20280A212138C
:10115A005360F7E50A700104120A46A90A600DE510
:10116A000A600914F50A1213FBEF60F3EA30E7028A
:10117A00F404C3995079EAF4250A0430E701E40437
:10118A00F50A800D12135360C1EA050A250A120AEC
:10119A0046EA900933F030E701E4250A04D50A0447
:1011AA0020050114121371E4C0E01213FB900933F5
:1011BA00E0601320E70714F0120FF5802204F0D044
:1011CA00E014C0E07F00120FF5E50A6007120FEC89
:1011DA00150A800B300503120FECD0E0021047D03D
:1011EA00E00480C4121353609EE50A04120A469072
:1011FA000933EAF0E50A2005026001042404121307
:01120A007172
:10120B0074FF04C0E01213FB120FF5E50A20050270
:10121B006003120FECD0E0B50AE87F45120FFF9088
:10122B000933E07F2B30E7047F2DF404C0E012106C
:10123B000DD0E075F00A84C0F0120FF6D0E0120F5B
:10124B00F6021047791080027908C206C20880089E
:10125B00D2D5790A8004790AC2D5E50A047002F561
:10126B000AE4FAFDFEFF120FCAFC7B0820011312E1
:10127B000FCAFD7B1030000A120FCAFE120FCAFFF5
:10128B007B20EC3382D592D55013C3E43000069FFC
:10129B00FFE49EFEE42001039DFDE49CFCE4CBF8FF
:1012AB00C201EC700CCFCECDCCE824F8F870F380F3
:1012BB0017C3EF33FFEE33FEED33FDEC33FCEB33B3
:1012CB00FB994002FB0FD8E9EB300105F8D0E0C4E5
:1012DB0048B201C0E00AEC4D4E4F78207B0070C243
:1012EB00EAB50A0040BCC0E0121373D0F0D0E02086
:1012FB000104C4C0E0C4B201C0F0120FF6D0F0D5A7
:10130B00F0EB021047120FA410E453124F5810B514
:10131B004C10B14212534F125B44125B4910CA433B
:10132B00126155118E4611EE45115847142E50106F
:10133B00B92D10BD2E10E02B10C12310DE20141779
:10134B002A107948000010D8E50AB4FF03750A0685
:10135B00120FCAFC120FCAFD120FCAFE120FCAFFE0
:10136B0090092C020A83790AA2D5200314300509AF
:10137B00B910020404B9080104A2D52006025001D9
:10138B00042002689202B509005034C0E07F20307F
:10139B0003197F30A20272067205500F1213CAC2D4
:1013AB0002C206C205C2087F30800F300503E9C0B8
:1013BB00E012100D300503D0E0F9D0E0B509CC30C8
:1013CB0005177F30B9100C12100D7F583004077FB2
:1013DB00788003B9080312100D3002057F2D02101F
:1013EB000D7F202008F87F2B2006F322920280CF5E
:1013FB007F00B40700500B242CF582E43409F583ED
:10140B00E0FF22286E756C6C2900D201120FCA30D6
:10141B0001F8C201780930D50108F60210792D5078
:10142B00434958120FCA2403B405004001E4901439
:10143B002993120FFE743A120FFED20375090402A0
:02144B00124F3E
:100A4600F920E73624F950037907E4F42402FBE59C
:100A560082158270021583DBF6E024FB501BE960E9
:100A660014E4F0E582158270021583E004F0B40AFE
:0D0A760008E4F0D9EE7401F00A22C2D52286
:100A8300ED33EC3392D5FA602AB4FF33EDC2E77B42
:100A9300FF60067A0A79A8E4227A0A79B120D5049C
:100AA3007A0A79AC224E614E002B494E46002D49FD
:100AB3004E4600E47A08F0A3DAFC7B00740722C0F8
:100AC30083C082ECC0E0EDC0E0EEC0E0EFC0E0EA3E
:100AD30075F010A4CAABF075F04DA42BFBE435F010
:100AE300FCEA2410FAEB34C5FBEC34D9FCEDC2E785
:100AF300FF75F056A4F42411C5F0F434C58FF0A4A7
:100B03002AE5F03BE43CF020E714120D50D0E0FF5F
:100B1300D0E0FED0E0FDD0E0FC120C838014F4049E
:100B2300120D50D0E0FFD0E0FED0E0FDD0E0FC128B
:100B330008BFD082D083E0FAEDD2E7CD33EC332483
:100B430082FBE4C3CF33CFCE33CECD33CD33DBF310
:100B53007B0775F00A846004F0A31B0AE5F0F0A399
:100B63008FF0740AA4FFACF08EF0740AA42CFEACD0
:100B7300F050010C8DF0740AA42CFDE435F0F0A3C1
:050B8300DBDE74072217
:100B8800020A31E86480F8E933E83360110460F060
:100B9800ED33EC337009E8FCE9FDEAFEEBFF2204D3
:100BA80060DED3EB9FEA9EE99DE8C2E78CF0C2F7CE
:100BB80095F0400CE8CCF8E9CDF9EACEFAEBCFFB9A
:100BC8001209FC85D0F05804700320D5B3E80470EE
:100BD800075002B2D5020A3B92D5EC0460F7E4CC88
:100BE800C0E0C398F8603B94186008400DD0E0FB63
:100BF800020A13E4FBFAC9FC8028E830E406E4C9D9
:100C0800FBE4CAFCE830E305E4C9CACBFCE85407B6
:100C18006010F8C3E913F9EA13FAEB13FBEC13FCC1
:100C2800D8F130F52FC3E49CFCEF9BFFEE9AFEED64
:100C380099FDD0E0FBEF4E4D4C701222DB03020A07
:100C480038EC2CFCEF33FFEE33FEED33FDED30E7EF
:100C5800EB020A13EF2BFFEE3AFEED39FDD0E0FB75
:100C680050130BBB0003020A3BED13FDEE13FEEF1E
:080C780013FFEC13FC020A1348
:100C8000020A3BEC5D046005E859047003020A3176
:100C90001209FC580460F6EC4860F2EC7004FDFEAA
:100CA000FF22C860DB2481C85009C3986002500647
:100CB000020A389850CAF582E9294B4A7005AB827E
:100CC000020A2775F0007C1A7880C3EF9BEE9AED3C
:100CD00099400DC3EF9BFFEE9AFEED99FDE842F0BF
:100CE000DC23ACF0D0E0FFD0E0FED0E0FDAB822012
:100CF000E7101BEB60BAEC2CFCEF33FFEE33FEED9C
:100D000033FD020A13E803F830E705C0F075F00080
:100D1000EF2FFFEE33FEED33FD40B830E7C280AA7F
:100D20003F8000004120000042C80000447A0000DB
:100D3000461C400047C35000497424004B1896805D
:100D40004CBEBC205A0E1BCA6753C21C749DC5AE54
:100D5000FB60065407601C2323120D7EEB543860A1
:100D600009120D6A120D791208BFECF8EDF9EEFACE
:100D7000EFCB22EB120D7980F1543803241C900D37
:100D800020FE93FC0EEE93FD0EEE930ECE93FF220B
:03000000022FF2DA
:0C2FF200787FE4F6D8FD758121023039AB
:100D9000BB010689828A83E0225002E722BBFE0261
:090DA000E32289828A83E4932294
:100DA900BB010CE58229F582E5833AF583E02250FF
:100DB90006E92582F8E622BBFE06E92582F8E22249
:0D0DC900E58229F582E5833AF583E4932263
:100DD600BB010689828A83F0225002F722BBFE01FC
:020DE600F322F6
:100DE800EF8DF0A4A8F0CF8CF0A428CE8DF0A42E1F
:020DF800FE22D9
:100DFA00C5F0F8A3E028F0C5F0F8E5821582700284
:060E0A001583E038F02220
:100E1000E88FF0A4CC8BF0A42CFCE98EF0A42CFC81
:100E20008AF0EDA42CFCEA8EF0A4CDA8F08BF0A4FF
:100E30002DCC3825F0FDE98FF0A42CCD35F0FCEB5E
:100E40008EF0A4FEA9F0EB8FF0A4CFC5F02ECD3923
:0F0E5000FEE43CFCEAA42DCE35F0FDE43CFC2290
:100E5F0075F008758200EF2FFFEE33FECD33CDCC4A
:100E6F0033CCC58233C5829BED9AEC99E5829840CD
:100E7F000CF582EE9BFEED9AFDEC99FC0FD5F0D6AA
:100E8F00E4CEFBE4CDFAE4CCF9A88222B800C1B9D4
:100E9F000059BA002DEC8BF084CFCECDFCE5F0CB12
:100EAF00F97818EF2FFFEE33FEED33FDEC33FCEB4B
:100EBF0033FB10D703994004EB99FB0FD8E5E4F906
:100ECF00FA227818EF2FFFEE33FEED33FDEC33FCF3
:100EDF00C933C910D7059BE99A4007EC9BFCE99AE7
:100EEF00F90FD8E0E4C9FAE4CCFB2275F010EF2F2C
:100EFF00FFEE33FEED33FDCC33CCC833C810D7072C
:100F0F009BEC9AE899400AED9BFDEC9AFCE899F866
:0E0F1F000FD5F0DAE4CDFBE4CCFAE4C8F922F9
:0E0F2D00C3E49FFFE49EFEE49DFDE49CFC22D5
:0C0F3B00ECF0A3EDF0A3EEF0A3EFF02229
:100F4700A8828583F0D083D082120F5E120F5E12C3
:100F57000F5E120F5EE473E493A3C583C5F0C583E8
:100F6700C8C582C8F0A3C583C5F0C583C8C582C8F4
:010F77002257
:0C0F7800A42582F582E5F03583F5832284
:100F8400F8E0FBA3A3E0F925F0F0E58215827002F6
:070F94001583E0FA38F0229A
:090F9B00EBF0A3EAF0A3E9F02257
:100FA400D083D082F8E4937012740193700DA3A3DC
:100FB40093F8740193F5828883E4737402936860F0
:060FC400EFA3A3A380DFF0
:1033E300EFB40A07740D1233EE740A309811A899DA
:1033F300B8130CC2983098FDA899C298B811F6304A
:0734030099FDC299F5992221
:102FFE00022DCAE493A3F8E493A34003F68001F2F2
:10300E0008DFF48029E493A3F85407240CC8C333D3
:10301E00C4540F4420C8834004F456800146F6DFA2
:10302E00E4800B0102040810204080900003E47E2F
:10303E00019360BCA3FF543F30E509541FFEE49397
:10304E00A360010ECF54C025E060A840B8E493A35E
:10305E00FAE493A3F8E493A3C8C582C8CAC583CA89
:10306E00F0A3C8C582C8CAC583CADFE9DEE780BE41
:0108BE000039
:00000001FF
