:10336700CFB5CDB3C6F4B6AFD6D00020204C6F6131
:103377006420616E6420496E697469616C697A6161
:1033870074696F6E2E2E2E0066616E20206F666642
:0C339700200066616E20206F6E20200078
:0A000E00420B170000420B1900001E
:10347000E4F593F594F591F592F595F596F5B1F59A
:0A348000B2F5B3F5B4F5C9F5CA22A0
:1034A000538E7F5389F0758A66758CFCC28DD28CE1
:0334B000D2A9227C
:1033260020B332900B17E475F001120E0FFED3E5B1
:10333600F0940AEE94004028900B19E07002A3E086
:10334600701E900B19F0A304F0E4900B17F0A3F095
:10335600B293B29422E4900B17F0A3F0A3F0A3F07B
:013366002244
:102DDF00123470D293C2941234C5122974E4FFFED8
:102DEF001230FAE49008AEF0A3F0A37418F0E4A345
:102DFF00F0A374FFF0A37433F0A37467F074FFFBB8
:102E0F00FA7D647C007F3C7E00122F4A7BFF7A3371
:102E1F00797274FF900913F0A3F0E4A3F0A3F0A369
:102E2F007410F0E4A3F07DDCFCFFFE123070E4FFC1
:102E3F00FE1230FA1234A0D2AF3093282094257BA3
:102E4F00FF7A33798F74FF900913F0A3F0E4A3F0A6
:102E5F00A3F0A37410F0E4A3F07D64FC7F50FE1286
:102E6F00307080D52093D23094CF7BFF7A3379990D
:102E7F0074FF900913F0A3F0E4A3F0A3F0A3741070
:0F2E8F00F0E4A3F07D64FC7F50FE12307080AA47
:03000B0002342E8E
:10342E00C0E0C0F0C083C082C0D075D000C000C064
:10343E0006123326D006D000D0D0D082D083D0F062
:03344E00D0E03299
:1000180065F002B8000000000000000000000000C9
:100028000000000000000008080808080808000090
:100038001818000000486C2412000000000000009E
:10004800000000000000002424247F1212127F12F6
:10005800121200000000081C2A2A0A0C1828282A54
:100068002A1C080800000022251515152A58545482
:10007800542200000000000C1212120A76252911E1
:10008800916E000000060604030000000000000056
:100098000000000000402010100808080808081098
:1000A800102040000002040808101010101010085A
:1000B800080402000000000008086B1C1C6B0808FC
:1000C8000000000000000000080808087F08080871
:1000D8000800000000000000000000000000000010
:1000E800060604030000000000000000FE000000F7
:1000F80000000000000000000000000000000000F8
:100108000606000000008040402020101008080467
:1001180004020200000000182442424242424242C5
:1001280024180000000000080E080808080808083D
:10013800083E00000000003C424242202010080413
:10014800427E00000000003C42422018204040420D
:10015800221C0000000000203028242422227E20B7
:10016800207800000000007E0202021A2640404269
:10017800221C0000000000382402021A26424242D3
:10018800241800000000007E222210100808080829
:10019800080800000000003C424242241824424261
:1001A800423C00000000001824424242645840408B
:1001B800241C0000000000000000181800000000C7
:1001C80018180000000000000000000800000000EF
:1001D8000008080400000040201008040204081069
:1001E800204000000000000000007F0000007F00A9
:1001F8000000000000000002040810204020100841
:10020800040200000000003C42424640201010005A
:10021800181800000000001C225A555555552D424B
:10022800221C00000000000808181414243C224274
:1002380042E700000000001F2222221E2242424202
:10024800221F00000000007C42420101010101421E
:10025800221C00000000001F224242424242424249
:10026800221F00000000003F4212121E121202421A
:10027800423F00000000003F4212121E121202020A
:10028800020700000000003C222201010171212226
:10029800221C0000000000E7424242427E424242E5
:1002A80042E700000000003E08080808080808089F
:1002B800083E00000000007C1010101010101010F4
:1002C8001010110F0000007722120A0E0A121222D3
:1002D8002277000000000007020202020202020266
:1002E800427F000000000077363636362A2A2A2A4E
:1002F8002A6B0000000000E346464A4A5252526206
:10030800624700000000001C224141414141414137
:10031800221C00000000003F424242423E0202020C
:10032800020700000000001C2241414141414D5399
:10033800321C60000000003F4242423E121222225C
:1003480042C700000000007C4242020418204042DC
:10035800423E00000000007F490808080808080815
:10036800081C0000000000E742424242424242426A
:10037800423C0000000000E74242222424141418E2
:10038800080800000000006B4949494955553622C4
:1003980022220000000000E7422424181818242410
:1003A80042E7000000000077222214140808080819
:1003B800081C00000000007E2120101008040442E0
:1003C800423F0000007808080808080808080808DC
:1003D8000808780000000202040408080810102029
:1003E80020204040001E1010101010101010101087
:1003F80010101E000038440000000000000000003B
:1004080000000000000000000000000000000000E4
:10041800000000FF000608000000000000000000C7
:1004280000000000000000000000003C4278444248
:1004380042FC0000000000030202021A2642424267
:10044800261A0000000000000000003844020202E2
:100458004438000000000060404040784442424276
:1004680064D80000000000000000003C427E020248
:10047800423C0000000000F08808087E08080808D0
:10048800083E0000000000000000007C22221C0240
:100498003C42423C000000030202023A4642424209
:1004A80042E700000000000C0C00000E08080808D5
:1004B800083E0000000000303000003820202020D6
:1004C8002020221E0000000302020272120A1612E5
:1004D800227700000000000E08080808080808082D
:1004E800083E0000000000000000007F92929292F7
:1004F80092B70000000000000000003B4642424264
:1005080042E70000000000000000003C4242424276
:10051800423C0000000000000000001B264242424E
:10052800221E0207000000000000007844424242F8
:10053800447840E000000000000000774C04040408
:10054800041F0000000000000000007C42023C4044
:10055800423E0000000000000008083E08080808A5
:1005680008300000000000000000006342424242E0
:1005780062DC000000000000000000E742242414B0
:100588000808000000000000000000EB494955552C
:10059800222200000000000000000076241818182D
:1005A800246E000000000000000000E7422424142C
:1005B80018080807000000000000007E2210080844
:1005C800447E000000C02020202020102020202071
:1005D8002020C00010101010101010101010101053
:1005E8001010101000060808080808100808080865
:1005F800080806000C32C2000000000000000000DD
:10060800000000005A0000D6D0200020002000FE84
:1006180003220222022202FE0322022000200020DE
:100628000060AA020ECFB5001CFE032000200810AF
:1006380004FC03800040042008FC1F8010900490F4
:10064800088810A4104000CDB3080108020412E481
:100658003F12019F084810E43F82249F04820480CF
:10066800045844474422781000C6F480000021F85A
:100678007F082008200820F83F08000820F87F1885
:1006880020142014201220F13F1020B6AF000210D1
:10069800023E020022A07F7F220822082204222490
:1006A8002242217F218220802040142008D6D08039
:1006B8000080008020FE7F8220822082208220FE0F
:1006C8003F822080008000800080008000800061E0
:1006D80072009CCFB500000000800FFCFF1FFCFFDC
:1006E8001FF81E00000F03808307C0C103F0FF013D
:1006F800F07F00201C03008F07C0030EF8FF1FF8CF
:10070800FF3F103810403801C0B907E0380F703883
:100718001E3C383C1C3E18001E00000000CDB300F3
:10072800800030C00170800130800338000318FE5B
:100738007F0CFE7F8CE100C6E100FE710EFE380CD6
:10074800601C1C70FE3F38FC7F186033FE6103FE9E
:1007580061033E6003006003803303FC3B23FE1902
:10076800631E1E7F000F7EC6F4003800003800F0BC
:10077800FF3FF0FF3FF0FF3F700038700038700017
:1007880038F0FF3FF0FF3FF0FF3F700000700000BF
:10079800F0FF3FF0FF3FB8FF3FB803389803389C9D
:1007A80003388CFF3F8EFF3F86FF3F8403380000ED
:1007B80000B6AF008003008003FC8701FC8701FCC2
:1007C800870100800100F87F00F87FFECF31FECF5F
:1007D80031E0C03160C03170C03170C33030C730D3
:1007E80038E63818E738FC6F38FE7F383E3C380466
:1007F8003C3F001F1F000F0E000600D6D000380037
:10080800003800003800003800003800F8FF3FF8D2
:10081800FF3FF8FF3F3838383838383838383838F4
:1008280038383838383838F8FF3FF8FF3FF8FF3F96
:100838003838380038000038000038000038000028
:1008480038000038006082001AB5E7000000000098
:1008580000000000E0000000E0000000E0000000F0
:10086800E0000000E00000F8FFFF03F8FFFF033896
:10087800E0800338E0800338E0800338E080033804
:10088800E08003F8FFFF03F8FFFF0338E080033838
:10089800E0800338E0800338E0800338E08003F824
:1008A800FFFF03F8FFFF0338E0000038E0000038DE
:1008B800E0000000E0007000E0003800E0013800CF
:0B08C800C0FF3F0080FF1F0000000089
:08317900900B0BEEF0A3EFF048
:10318100900A90E4F0A374EFF0FB7A00E4FDFCFFF9
:10319100FE1233A3E4900B0DF0A3F0E4900B0FF0BB
:1031A100A3F0900B0BE0FEA3E0FF1233E4900B10B1
:1031B100E004F07006900B0FE004F0C3900B10E0F8
:1031C10094F0900B0FE0940040D8900B0EE004F0C7
:1031D1007006900B0DE004F0C3900B0EE094F0909C
:0731E1000B0DE0940040B467
:0131E80022C4
:0430FA00AD07AC066C
:1030FE00E4FBFAC3EB94E0EA9401502374AB2BF596
:10310E008274083AF583EDF0ECFF74AA2BF5827405
:10311E00083AF583EFF074022BFBE43AFA80D49070
:10312E000A90E4F0A374EFF0FB7A00E4FDFCFFFEDE
:10313E001233A3E49008A8F0A3F0D2CBC2C77B0150
:10314E007A0879AA7DE07C011232E3D2C79008A9F1
:10315E00E004F070069008A8E004F0C39008A9E01F
:0A316E0094F09008A8E0940040D00F
:013178002234
:102E9E00900AE8EEF0A3EFF0A3ECF0A3EDF0A3EAB6
:042EAE00F0A3EBF0B2
:102EB200C006C00724FFFBEA34FFFAA3E0FEA3E04A
:102EC20024FFFFEE34FF900A90F0A3EFF0D007D07A
:102ED200061233A3900AEAE0FFA3E0900AF2CFF0D1
:102EE200A3EFF0900AEEE0FEA3E0FFC3900AF3E046
:102EF2009F900AF2E09E504F900AE8E0FFA3E09014
:102F02000AF4CFF0A3EFF0900AECE0FEA3E0FFC3D7
:102F1200900AF5E09F900AF4E09E501B900AF0E0C0
:102F2200FEA3E0FF1233E4900AF5E004F070D890BB
:102F32000AF4E004F080D0900AF3E004F070A49068
:072F42000AF2E004F0809C9C
:012F49002265
:1031E900900AFDFEE0FCA3E0FDC3900AF9E09DFD15
:0E31F900900AF8E09CFC900AFBE0FAA3E0FBD1
:10320700900941EEF0A3EFF0900945EAF0A3EBF047
:10321700900943ECF0A3EDF0900941E0FAA3E0FB3D
:10322700FFAE02C007A3E0FFA3E0900A90CFF0A390
:10323700EFF0D0071233A3900945E0FEA3E0FF02A9
:0232470033E46E
:0E21C300900A94EEF0A3EFF0A3ECF0A3EDF081
:1021D100E4900AA0F0A3F0A3F0A3F0900A94E0FE2B
:1021E100A3E0FFC3EB9FFFEA9E900AA4F0A3EFF0E8
:1021F100900A96E0FAA3E0FBC3900A9BE09BFE9055
:102201000A9AE09A900AA6F0A3CEF0900A94E0FF11
:10221100A3E0900AAECFF0A3EFF0A3EAF0A3EBF0B6
:10222100900AA4E0FEA3E0FFD39400EE64809480C2
:10223100400A900AAAE4F0A304F08021EF4E70084E
:10224100900AAAF0A3F0801574FF900AAAF0A3F0F7
:10225100C3E49FFFE49E900AA4F0A3EFF0900AA6C6
:10226100E0FEA3E0FFD39400EE64809480400A90E6
:102271000AACE4F0A304F08021EF4E7008900AACA0
:10228100F0A3F0801574FF900AACF0A3F0C3E49FB3
:10229100FFE49E900AA6F0A3EFF0900AA6E0FEA349
:1022A100E0FF900AA4E0FCA3E0FDD39FEE6480F878
:1022B100EC648098900AA84007ECF0A3EDF080054B
:1022C100EEF0A3EFF0E4900A9EF0A3F0900AA9E0EB
:1022D1002401FF900AA8E03400FEC3900A9FE09F0A
:1022E100900A9EE09E40030223B0900AAEE0FEA356
:1022F100E0FFA3E0FCA3E0FD900A9C123202900AE9
:10230100A4E0FEA3E0FF900AA1E02FF0900AA0E074
:102311003EF0900AA6E0FEA3E0FF900AA3E02FF0B2
:10232100900AA2E03EF0900AA8E0FEA3E0FF900A26
:10233100A0E0FCA3E0FDD39FEE6480F8EC648098FC
:102341004020ED9FFFEC9E900AA0F0A3EFF0900AD1
:10235100AAE0FEA3E0FF900AAFE02FF0900AAEE002
:102361003EF0900AA8E0FEA3E0FF900AA2E0FCA3E1
:10237100E0FDD39FEE6480F8EC6480984020ED9FEF
:10238100FFEC9E900AA2F0A3EFF0900AACE0FEA34E
:10239100E0FF900AB1E02FF0900AB0E03EF0900A21
:0F23A1009FE004F07006900A9EE004F00222CD47
:0123B000220A
:102CF900900B05EAF0A3EBF0900B01EEF0A3EFF0D7
:102D0900A3ECF0A3EDF0C007A3E0FAA3E0FB900B5E
:102D190003E0FFA3E0900A9ACFF0A3EFF0900B092C
:102D2900E0FFA3E0900A9CCFF0A3EFF0D0071221B7
:102D3900C3900B01E0FAA3E0FBFFAE02C007A3E0DA
:102D4900FCA3E0FD900B07E0FFA3E0900A9ACFF007
:102D5900A3EFF0900B09E0FFA3E0900A9CCFF0A34A
:102D6900EFF0D0071221C3900B07E0FCA3E0FD9020
:102D79000B05E0FAA3E0FBA3E0FFA3E0900A9ACFDA
:102D8900F0A3EFF0900B09E0FFA3E0900A9CCFF0CD
:102D9900A3EFF0900B01E0FEA3E0FF1221C3900B1B
:102DA90005E0FAA3E0FBFFAE02C007900B03E0FCCD
:102DB900A3E0FD900B07E0FFA3E0900A9ACFF0A3F0
:102DC900EFF0900B09E0FFA3E0900A9CCFF0A3EF8E
:062DD900F0D0070221C347
:1023B100900AF6EEF0A3EFF0A3ECF0A3EDF0A3EB9F
:0123C100F02B
:1023C200E4900AFDF0A3F0EBFFA3E4F0A3EFF0909A
:1023D2000AFFE0FEA3E0FFD3900AFEE09FEE6480D6
:1023E200F8900AFDE06480984003022550C3900AE9
:1023F200F7E09FFF900AF6E09E1231E9900AFFE0B3
:10240200FEA3E0FF900AF7E02FFF900AF6E03E12EB
:1024120031E9900AFDE0FEA3E0FFC3900AF7E09FD6
:10242200FF900AF6E09EFE900AFFE0FCA3E0FD901A
:102432000AF9E02DFD900AF8E03C1231FE900AFD07
:10244200E0FEA3E0FFC3900AF7E09FFF900AF6E0E8
:102452009E900AFF1231EC900AFFE0FEA3E0FF908B
:102462000AF7E02FFF900AF6E03EFE900AFDE0FC3C
:10247200A3E0FD900AF9E02DFD900AF8E03C12314C
:10248200FE900AFDE0FEA3E0FF900AF7E02FFF9026
:102492000AF6E03EFE900AFF1231ED900AFDE0FEE0
:1024A200A3E0FF900AF7E02FFF900AF6E03EFE90CD
:1024B2000AFFE0FCA3E0FD900AF9E02DFD900AF886
:1024C200E03C1231FE900AFFE0FEA3E0FFC3900A57
:1024D200F7E09FFF900AF6E09EFE900AFDE0FCA363
:1024E200E0FD900AF9E02DFD900AF8E03C1231FE81
:1024F200900AFEE004F07006900AFDE004F0900AF3
:10250200FFE0FCA3E0FDFFAE04120DFDAA06AB073F
:10251200900AFDE0FCA3E0FDFFAE04120DFDEF2BDF
:10252200FDEE3AFC900AFAE0F5F0A4FFD3ED9FE548
:10253200F06480F8EC64809850030223D1900B0081
:0E254200E024FFF0900AFFE034FFF00223D106
:012550002268
:1025510090090CEEF0A3EFF0A3ECF0A3EDF0A3EBE8
:10256100F0A3EAF0A3E9F0900910E0FBA3E0FAA3DD
:10257100E0F9120DA570030226DB900917E0640C47
:10258100704490090EE0FCA3E0FD900913E0FFA365
:10259100E0900920CFF0A3EFF0900915E0FFA3E050
:1025A100900922CFF0A3EFF0900917E0900924F0F1
:1025B100900918E0900925F090090CE0FEA3E0FFD6
:1025C1001219D80226BC900917E06410704B9009CB
:1025D1000EE0FCA3E0FDA3E0FBA3E0FAA3E0F9A376
:1025E100E0FFA3E0900920CFF0A3EFF0900915E000
:1025F100FFA3E0900922CFF0A3EFF0900917E0903C
:102601000924F0900918E0900925F090090CE0FEEA
:10261100A3E0FF12171E0226BC900917E064187090
:102621004A90090EE0FCA3E0FDA3E0FBA3E0FAA3BE
:10263100E0F9A3E0FFA3E0900920CFF0A3EFF09031
:102641000915E0FFA3E0900922CFF0A3EFF0900974
:1026510017E0900924F0900918E0900925F09009FD
:102661000CE0FEA3E0FF1214628050900917E064B1
:1026710020706790090EE0FCA3E0FDA3E0FBA3E05E
:10268100FAA3E0F9A3E0FFA3E0900920CFF0A3EFC4
:10269100F0900915E0FFA3E0900922CFF0A3EFF03D
:1026A100900917E0900924F0900918E0900925F0AD
:1026B10090090CE0FEA3E0FF121C91900911E47552
:1026C100F002120E0F900917E0FF90090DE02FF0B4
:0B26D10090090CE03400F002256822A4
:1019D80090091BECF0A3EDF0A3EBF0A3EAF0A3E968
:0919E800F0900919EEF0A3EFF0F4
:1019F100E4900928F090092FEEF0A3EFF09009246C
:101A0100E0FF131313541FFD7C00EF54077E0060A9
:101A1100047F0180027F00EF2DFFEE3CFE90092440
:101A2100E0FD7C00120DFD90092DEEF0A3EFF0908A
:101A3100092BE4F0A304F0E4900929F0A3F0900944
:101A41002BE0FEA3E0FF900929E0FCA3E0FDC39F8A
:101A5100EC9E4003021C9090091DE0FBA3E0FAA359
:101A6100E0F9120DA5FF90000075F01AED120F8D2F
:101A7100EC75F01AA42583F583E06F6003021C7FE7
:101A8100900001120DBEFF900929A3E0900001759D
:101A9100F01A120F8DEC75F01AA42583F583E06F0F
:101AA1006003021C7F90091BE0FCA3E0FD90092468
:101AB100E0F9FF7E00900919E0FAA3E02FFFEE3A6A
:101AC100CF24FFFBEF34FFFAE9FFA3E0F8A3E02FF7
:101AD100FFEE38CF24FFCF34FF900A90F0A3EFF050
:101AE100900919E0FEA3E0FF1233A3E4900926F068
:101AF100900926E0FFD390092EE09F90092DE094F4
:101B0100005003021C7FE4900927F0900925E06052
:101B110003021BAA900929A3E075F01AA42402F577
:101B210082E43400F583C083C082900926E0D0822C
:101B3100D0832582F582E43583F583E0FD7C009036
:101B41000927E0FF74017E00A807088005C333CE92
:101B510033CED8F9FFEE5CFEEF5D4E6005900920B3
:101B61008003900922E0FCA3E0FDECFF900927E04F
:101B7100FE25E02431F582E43409F583EFF0EE250A
:101B8100E02432F582E43409F583EDF0900928E090
:101B910004F0900924E0FF900928E08FF084E5F03B
:101BA1006003021C4FF0021C5E900929A3E075F04E
:101BB1001AA42402F582E43400F583C083C0829024
:101BC1000926E0D082D0832582F582E43583F5832E
:101BD100E0FD7C00900927E0FF74017E00A8070862
:101BE1008005C333CE33CED8F9FFEE5CFEEF5D4EF8
:101BF1006014900919E0FEA3E0FFA3E0FCA3E0FD5F
:101C010090092012320290091AE004F0700690093E
:101C110019E004F090092FE0FEA3E0FFC390091A38
:101C2100E09FFD900919E09EFC900924E07A00B53F
:101C3100051CEAB50418900919EEF0A3EFF090091C
:101C41001CE004F0701790091BE004F0800F90096C
:101C510027E004F0E0C394085003021B0C9009250F
:101C6100E07012D2CBC2C77B017A0979317D10FCB9
:101C71001232E3D2C7900926E004F0021AF190096A
:0F1C81002AE004F07006900929E004F0021A3FEF
:011C90002231
:10171E0090091BECF0A3EDF0A3EBF0A3EAF0A3E924
:09172E00F0900919EEF0A3EFF0B0
:10173700E4900928F090092FEEF0A3EFF090092428
:10174700E0FF131313541FFD7C00EF54077E006066
:10175700047F0180027F00EF2DFFEE3CFE900924FD
:10176700E0FD7C00120DFD90092DEEF0A3EFF09047
:10177700092BE4F0A37405F0E4900929F0A3F09095
:10178700092BE0FEA3E0FF900929E0FCA3E0FDC3DD
:101797009FEC9E40030219D790091DE0FBA3E0FAD6
:1017A700A3E0F9120DA5FF90020E75F022ED120FBE
:1017B7008DEC75F022A42583F583E06F6003021991
:1017C700C6900001120DBEFF900929A3E090020FF9
:1017D70075F022120F8DEC75F022A42583F583E0B6
:1017E7006F60030219C690091BE0FCA3E0FD900996
:1017F70024E0F9FF7E00900919E0FAA3E02FFFEE3D
:101807003ACF24FFFBEF34FFFAE9FFA3E0F8A3E0A8
:101817002FFFEE38CF24FFCF34FF900A90F0A3EFCD
:10182700F0900919E0FEA3E0FF1233A3E490092624
:10183700F0900926E0FFD390092EE09F90092DE054
:10184700940050030219C6E4900927F0900925E097
:1018570060030218F1900929A3E075F022A424106F
:10186700F582E43402F583C083C082900926E0D074
:1018770082D0832582F582E43583F583E0FD7C0001
:10188700900927E0FF74017E00A807088005C3338D
:10189700CE33CED8F9FFEE5CFEEF5D4E60059009C2
:1018A700208003900922E0FCA3E0FDECFF900927CC
:1018B700E0FE25E02431F582E43409F583EFF0EE0C
:1018C70025E02432F582E43409F583EDF090092808
:1018D700E004F0900924E0FF900928E08FF084E508
:1018E700F06003021996F00219A5900929A3E07583
:1018F700F022A42410F582E43402F583C083C08269
:10190700900926E0D082D0832582F582E43583F5DD
:1019170083E0FD7C00900927E0FF74017E00A807A3
:10192700088005C333CE33CED8F9FFEE5CFEEF5DFA
:101937004E6014900919E0FEA3E0FFA3E0FCA3E0CA
:10194700FD90092012320290091AE004F070069007
:101957000919E004F090092FE0FEA3E0FFC3900906
:101967001AE09FFD900919E09EFC900924E07A0097
:10197700B5051CEAB50418900919EEF0A3EFF0902D
:10198700091CE004F0701790091BE004F0800F9029
:101997000927E004F0E0C3940850030218539009A4
:1019A70025E07012D2CBC2C77B017A0979317D104D
:1019B700FC1232E3D2C7900926E004F002183890EF
:1019C700092AE004F07006900929E004F00217865E
:0119D70022ED
:1014620090091BECF0A3EDF0A3EBF0A3EAF0A3E9E3
:09147200F0900919EEF0A3EFF06F
:10147B00E4900928F090092FEEF0A3EFF0900924E7
:10148B00E0FF131313541FFD7C00EF54077E006025
:10149B00047F0180027F00EF2DFFEE3CFE900924BC
:1014AB00E0FD7C00120DFD90092DEEF0A3EFF09006
:1014BB00092BE4F0A37405F0E4900929F0A3F09054
:1014CB00092BE0FEA3E0FF900929E0FCA3E0FDC39C
:1014DB009FEC9E400302171D90091DE0FBA3E0FA51
:1014EB00A3E0F9120DA5FF90009C75F04AED120FC9
:1014FB008DEC75F04AA42583F583E06F600302172A
:10150B000C900001120DBEFF900929A3E090009DE5
:10151B0075F04A120F8DEC75F04AA42583F583E024
:10152B006F600302170C90091BE0FCA3E0FD900910
:10153B0024E0F9FF7E00900919E0FAA3E02FFFEEFB
:10154B003ACF24FFFBEF34FFFAE9FFA3E0F8A3E067
:10155B002FFFEE38CF24FFCF34FF900A90F0A3EF8C
:10156B00F0900919E0FEA3E0FF1233A3E4900926E3
:10157B00F0900926E0FFD390092EE09F90092DE013
:10158B009400500302170CE4900927F0900927E010
:10159B00FFC3940840030216EB900925E060030299
:1015AB00163CA3E0FE900929E0FCA3E090009E7599
:1015BB00F04A120F8DEC75F04AA42583F583E58272
:1015CB002EF582E43583F583E0FD7C0074017E000B
:1015DB00A807088005C333CE33CED8F9FFEE5CFEE7
:1015EB00EF5D4E60059009208003900922E0FCA37B
:1015FB00E0FDECFF900927E0FE25E02431F582E4C5
:10160B003409F583EFF0EE25E02432F582E434095A
:10161B00F583EDF0900928E004F0900924E0FF90A9
:10162B000928E08FF084E5F060030216E2F0021661
:10163B00EB900926E0FF900929E0FCA3E090009EC7
:10164B0075F04A120F8DEC75F04AA42583F583E5EE
:10165B00822FF582E43583F583E0FD7C009009272A
:10166B00E0FF74017E00A807088005C333CE33CE9C
:10167B00D8F9FFEE5CFEEF5D4E6014900919E0FEA9
:10168B00A3E0FFA3E0FCA3E0FD900920123202903F
:10169B00091AE004F07006900919E004F090092F84
:1016AB00E0FEA3E0FFC390091AE09FFD900919E04B
:1016BB009EFC900924E07A00B5051CEAB50418904D
:1016CB000919EEF0A3EFF090091CE004F0701190F3
:1016DB00091BE004F08009900927E004F00215973C
:1016EB00900925E07012D2CBC2C77B017A09793100
:1016FB007D10FC1232E3D2C7900926E004F00215EC
:10170B007C90092AE004F07006900929E004F002AD
:02171B0014CAEE
:01171D0022A9
:101C910090091BECF0A3EDF0A3EBF0A3EAF0A3E9AC
:091CA100F0900919EEF0A3EFF038
:101CAA00E4900928F090092FEEF0A3EFF0900924B0
:101CBA00E0FF131313541FFD7C00EF54077E0060EE
:101CCA00047F0180027F00EF2DFFEE3CFE90092485
:101CDA00E0FD7C00120DFD90092DEEF0A3EFF090CF
:101CEA00092BE4F0A304F0E4900929F0A3F0900989
:101CFA002BE0FEA3E0FF900929E0FCA3E0FDC39FCF
:101D0A00EC9E4003021F4990091DE0FBA3E0FAA3E1
:101D1A00E0F9120DA5FF90001A75F082ED120F8DF1
:101D2A00EC75F082A42583F583E06F6003021F3807
:101D3A00900001120DBEFF900929A3E090001B75C7
:101D4A00F082120F8DEC75F082A42583F583E06F83
:101D5A006003021F3890091BE0FCA3E0FD900924F0
:101D6A00E0F9FF7E00900919E0FAA3E02FFFEE3AAE
:101D7A00CF24FFFBEF34FFFAE9FFA3E0F8A3E02F3B
:101D8A00FFEE38CF24FFCF34FF900A90F0A3EFF094
:101D9A00900919E0FEA3E0FF1233A3E4900926F0AC
:101DAA00900926E0FFD390092EE09F90092DE09438
:101DBA00005003021F38E4900927F0900925E060DB
:101DCA0003021E63900929A3E075F082A4241CF57E
:101DDA0082E43400F583C083C082900926E0D08271
:101DEA00D0832582F582E43583F583E0FD7C00907B
:101DFA000927E0FF74017E00A807088005C333CED7
:101E0A0033CED8F9FFEE5CFEEF5D4E6005900920F7
:101E1A008003900922E0FCA3E0FDECFF900927E093
:101E2A00FE25E02431F582E43409F583EFF0EE254E
:101E3A00E02432F582E43409F583EDF0900928E0D4
:101E4A0004F0900924E0FF900928E08FF084E5F07F
:101E5A006003021F08F0021F17900929A3E075F01A
:101E6A0082A4241CF582E43400F583C083C08290E6
:101E7A000926E0D082D0832582F582E43583F58372
:101E8A00E0FD7C00900927E0FF74017E00A80708A6
:101E9A008005C333CE33CED8F9FFEE5CFEEF5D4E3C
:101EAA006014900919E0FEA3E0FFA3E0FCA3E0FDA3
:101EBA0090092012320290091AE004F07006900983
:101ECA0019E004F090092FE0FEA3E0FFC390091A7D
:101EDA00E09FFD900919E09EFC900924E07A00B584
:101EEA00051CEAB50418900919EEF0A3EFF0900961
:101EFA001CE004F0701790091BE004F0800F9009B1
:101F0A0027E004F0E0C394085003021DC590092598
:101F1A00E07012D2CBC2C77B017A0979317D10FCFD
:101F2A001232E3D2C7900926E004F0021DAA9009F2
:0F1F3A002AE004F07006900929E004F0021CF878
:011F49002275
:101F4A0090091BECF0A3EDF0A3EBF0900919EEF069
:031F5A00A3EFF002
:101F5D00E4900927F090092CEEF0A3EFF090092200
:101F6D00E0F9C313900925F0E0FF131313541FFD7F
:101F7D007C00EF54077E0060047F0180027F00EF3C
:101F8D002DFFEE3CFEE9FD7C00120DFD90092AEEC1
:101F9D00F0A3EFF090091DE024E0F090091BE0FCA8
:101FAD00A3E0FD900925E0FF7E00900919E0FAA35A
:101FBD00E02FFFEE3ACF24FFFBEF34FFFAE9FFA34A
:101FCD00E0F8A3E02FFFEE38CF24FFCF34FF900AC7
:101FDD0090F0A3EFF0900919E0FEA3E0FF1233A3F8
:101FED00E4900928F0A3F090092AE0FEA3E0FF9009
:101FFD000928E0FCA3E0FDC39FEC9E40030221C233
:10200D00900922E0641060030221C290091DE07561
:10201D00F010A424B8F582E5F03402F583E5822DA5
:10202D00F582E5833CF583E0900924F0E4900926E0
:10203D00F0900926E0FFC394084003022191900916
:10204D0023E0600302210D900925E054077065041B
:10205D007E00A807088005C333CE33CED8F9FF9094
:10206D000924E0FDEF5D600590091E8003900920B5
:10207D00E0FCA3E0FDECFF900926E0FE25E0242E18
:10208D00F582E43409F583EFF0EE25E0242FF58297
:10209D00E43409F583EDF0900927E004F09009256B
:1020AD00E0FF900927E08FF084E5F06003022188BE
:1020BD00F0022191900926E0FF74017E00A8070827
:1020CD008005C333CE33CED8F9FF900924E0FDEF60
:1020DD005D600590091E8003900920E0FEA3E0FFDE
:1020ED001233E4900927E004F0900925E0FF9009F0
:1020FD0027E08FF084E5F06003022188F002219142
:10210D00900926E0FF74017E00A807088005C333FF
:10211D00CE33CED8F9FF900924E0FDEF5D60149029
:10212D000919E0FEA3E0FFA3E0FCA3E0FD90091E6A
:10213D0012320290091AE004F07006900919E004B9
:10214D00F090092CE0FEA3E0FFC390091AE09FFD7B
:10215D00900919E09EFC900925E07A00B5051CEA6E
:10216D00B50418900919EEF0A3EFF090091CE004E6
:10217D00F0701190091BE004F08009900926E0042D
:10218D00F002203E900925E054077018900923E0D5
:10219D007012D2CBC2C77B017A09792E7D10FC1249
:1021AD0032E3D2C7900929E004F07006900928E0C7
:0521BD0004F0021FF414
:0121C20022FA
:1030700090090CEEF0A3EFF0A3ECF0A3EDF0A3EBBE
:10308000F0A3EAF0A3E9F0900910E0FBA3E0FAA3B3
:10309000E0F9120DA5FB606190090EE0FCA3E0FDD4
:1030A000900913E0FFA3E090091ECFF0A3EFF0908A
:1030B0000915E0FFA3E0900920CFF0A3EFF09009FD
:1030C00017E0900922F0900918E0900923F0900988
:1030D0000CE0FEA3E0FF121F4A900917E0C313FFA4
:1030E00090090DE02FF090090CE03400F0900911E8
:0A30F000E475F001120E0F808E222D
:07324900C3EF9E14FD7F0A94
:08325000900B11EFF0A3EDF06B
:10325800A3120F5C00000001900B12E0FF14F0EFC6
:103268006020A3E0F8A3E0F9A3E0FAA3E0FB900B49
:1032780011E0FFE4FCFDFE120E25900B13120F5017
:1032880080D6900B13E0FCA3E0FDA3E0FEA3E0FFD3
:013298002213
:102ABB00900AD8EEF0A3EFF0A3ECF0A3EDF0A3EAAD
:042ACB00F0A3EBF099
:102ACF00E4900AE6F0900AE3E0C313900AE7F0E41B
:102ADF00900AE4F0900ADEE0FF900AE4E0FEC39F64
:102AEF004003022BE6123249A804A905AA06AB0738
:102AFF00900ADCE0FEA3E0FFE4FCFD120EB0E47BE5
:102B0F000AFAF9F8120EB0900AE5EBF0A3E070653F
:102B1F00900ADEE014FF900AE4E0FEC39F5056A334
:102B2F00E0704C900AE7E0FFEE8FF0A4FF900AD917
:102B3F00E02FFF900AD8E035F0FE900ADAE0FCA310
:102B4F00E0FD900ADFE0FBA3E090091ECBF0A3EBC2
:102B5F00F0900AE1E0FBA3E0900920CBF0A3EBF0AB
:102B6F00900AE3E0900922F0E4A3F07B20805C90D0
:102B7F000AE67401F0900AE7E0FF900AE4E08FF0B4
:102B8F00A4FF900AD9E02FFF900AD8E035F0FEC0DD
:102B9F0007900ADAE0FCA3E0FD900AE5E02430FBA1
:102BAF00900ADFE0FFA3E090091ECFF0A3EFF090B3
:102BBF000AE1E0FFA3E0900920CFF0A3EFF0900A25
:102BCF00E3E0900922F0E4A3F0D007121F4A900A25
:072BDF00E4E004F0022AE328
:012BE60022CC
:0E282A00900AB2EEF0A3EFF0A3ECF0A3EDF0F5
:10283800900ABFE0C313900AC2F0E4FFFE7DC87C93
:1028480042900AB6E0F8A3E0F9A3E0FAA3E0FB128D
:1028580008D41209DA900AC3EEF0A3EFF0E4900A64
:10286800C0F0900ABAE0FF900AC0E0FEC39F4003A0
:10287800022973123249A804A905AA06AB07900ACF
:10288800C3E0FEA3E0FFE4FCFD120EB0E47B0AFA0D
:10289800F9F8120EB0900AC1EBF0900ABAE0FF24E2
:1028A800FEFE900AC0E06E7060EF24FEFFE434FF85
:1028B800FE900AC2E0FD7C00120DFD900AB3E02FE5
:1028C800FF900AB2E03EFE900AB4E0FCA3E0FD905F
:1028D8000ABBE0FBA3E090091ECBF0A3EBF0900A43
:1028E800BDE0FBA3E0900920CBF0A3EBF0900ABF7A
:1028F800E0900922F0E4A3F07B2E121F4A900AC050
:10290800E004F0900ABAE004F0900AC2E0FF900AEE
:10291800C0E08FF0A4FF900AB3E02FFF900AB2E066
:1029280035F0FEC007900AB4E0FCA3E0FD900AC1B0
:10293800E02430FB900ABBE0FFA3E090091ECFF033
:10294800A3EFF0900ABDE0FFA3E0900920CFF0A329
:10295800EFF0900ABFE0900922F0E4A3F0D007124C
:0B2968001F4A900AC0E004F002286A39
:012973002241
:1026DC00900AC5EEF0A3EFF0A3ECF0A3EDF0A3EAA3
:0426EC00F0A3EBF07C
:1026F000900AD4120F5C00000000900AC7E0FCA30F
:10270000E0FDA3E0FEA3E0FF900AC5E0FAA3E02FFE
:10271000FFEA3ECF24FFFBEF34FFFA900ACBE0FE46
:10272000A3E0FF900AC7E0F8A3E02FFFE83ECF2424
:10273000FFCF34FF900A90F0A3EFF0900AC5E0FEBF
:10274000A3E0FF1233A3E4900AD0F0A3F0900AC9EB
:10275000E0FEA3E0FFC3900AD1E09F900AD0E09E84
:102760004003022829E4900AD2F0A3F0900ACBE0BB
:10277000FEA3E0FFC3900AD3E09F900AD2E09E4000
:1027800003022815E47F02FEFDFC900AD4E0F8A3C2
:10279000E0F9A3E0FAA3E0FB120E25900ACDE0FBDE
:1027A000A3E0FAA3E0F98F828E83120DBEFF1234EC
:1027B000B3E47F02FEFDFC900AD4E0F8A3E0F9A3A5
:1027C000E0FAA3E0FB120E25EF2401FFE43EFE90A9
:1027D0000ACDE0FBA3E0FAA3E0F98F828E83120D0D
:1027E000BEFF1234B3900AD4E0FCA3E0FDA3E0FEE8
:1027F000A3E02401FFE43EFEE43DFDE43CFC900A3E
:10280000D4120F50900AD3E004F07006900AD2E080
:1028100004F002276C900AD1E004F0600302274D17
:09282000900AD0E004F002274DFB
:01282900228C
:102BE7009008FEEEF0A3EFF0A3ECF0A3EDF0A3EB5B
:072BF700F0A3EAF0A3E9F0EE
:102BFE00E490090BF0900902E0FBA3E0FAA3E0F9E0
:102C0E0090090BE0F582758300120DBE7003022C45
:102C1E00F8C39480900900E0FCA3E0FD505C90099D
:102C2E000BE0FF7E00E92FF9EE3AFA900905E0FF7E
:102C3E00A3E0900913CFF0A3EFF0900907E0FFA3F4
:102C4E00E0900915CFF0A3EFF0900909E090091775
:102C5E00F090090AE0900918F09008FEE0FEA3E05B
:102C6E00FF123070900909E0C313FF9008FFE02FA8
:102C7E00F09008FEE03400F08067A3E0FBA3E0FADA
:102C8E00A3E0F990090BE0FF7E00E92FF9EE3AFA86
:102C9E00900905E0FFA3E0900913CFF0A3EFF090A9
:102CAE000907E0FFA3E0900915CFF0A3EFF090091C
:102CBE0009E0900917F090090AE0900918F09008C1
:102CCE00FEE0FEA3E0FF122551900909E0FF9008F7
:102CDE00FFE02FF09008FEE03400F090090BE004C6
:0A2CEE00F090090BE004F0022C0343
:012CF80022B9
:102F4A009008A8EEF0A3EFF0A3ECF0A3EDF0A3EA4B
:042F5A00F0A3EBF005
:102F5E009008FB7401F0A37408F0A374B5F0900808
:102F6E00B2E0F9A3E0FAA3E09008FEC9F0A3EAF0FC
:102F7E00A3E9F09008FBE0F9A3E0FAA3E0900901C1
:102F8E00C9F0A3EAF0A3E9F07B017A0879DD1232E9
:102F9E00999008AAE0FCA3E0FD7B017A0879DDA3F5
:102FAE00E0FFA3E0900905CFF0A3EFF09008AEE0AC
:102FBE00FFA3E0900907CFF0A3EFF09008B0E090E8
:102FCE000909F09008B1E090090AF09008A8E0FE17
:062FDE00A3E0FF022BE757
:043451007F647E0016
:10345500EF1F70011E144E601100000075080B75FA
:0A34650009BED509FDD508FA80E67E
:01346F00223A
:08000300C2C712348AD2C722E1
:0A34B300D2CBC2C712348AD2C7225E
:0533DF00E0FEA3E0FF89
:0433E400AD07AC067F
:1033E800EC900A92F0A3EFF0D2CBC2C7900A92E019
:0E33F800FF12348A900A93E0FF12348AD2C783
:0134060022A3
:0834BD00C2CB120003D2CB22A6
:1033A300900A8AEEF0A3EFF0A3ECF0A3EDF0A3EA0A
:1033B300F0A3EBF07F2A1234BD900A8A1233DF9018
:1033C3000A8E1233DF7F2B1234BD900A8C1233DF47
:0C33D300900A901233DF7F2C1234BD22D0
:10297400C2C0123451D2C0123451D2C81234517F61
:10298400111234BD7F787E001234557F361234BD67
:10299400E4FF1234B37F3A1234BD7F051234B37F9F
:1029A400B21234BD7F0C1234B37F0C1234B3E4FF83
:1029B4001234B37F331234B37F331234B37FB7127C
:1029C40034BD7F351234B37FBB1234BD7F1912344A
:1029D400B37FC01234BD7F2C1234B37FC21234BD16
:1029E4007F011234B37FC31234BD7F121234B37F1C
:1029F400C41234BD7F201234B37FC61234BD7F0F9E
:102A04001234B37FD01234BD7FA41234B37FA11229
:102A140034B37FE01234BD7FD01234B37F04123458
:102A2400B37F0D1234B37F111234B37F131234B356
:102A34007F2B1234B37F3F1234B37F541234B37FED
:102A44004C1234B37F181234B37F0D1234B37F0B9E
:102A54001234B37F1F1234B37F231234B37FE112D5
:102A640034BD7FD01234B37F041234B37F0C1234DC
:102A7400B37F111234B37F131234B37F2C1234B3E7
:102A84007F3F1234B37F441234B37F511234B37F87
:102A94002F1234B37F1F1234B37F1F1234B37F203D
:102AA4001234B37F231234B37F211234BD7F111249
:072AB40034BD7F290234BD8F
:0734C500D292D2CDD2C72242
:10348A00E4FEEF3392CDEF25E0FFC292D2920EEE28
:05349A00B408EFD2CDE3
:01349F00220A
:1032E300900A8AEBF0A3EAF0A3E9F0A3ECF0A3EDD4
:0132F300F0EA
:1032F400C2C7E4FDFCD3900A8EE09D900A8DE09C49
:10330400401D900A8AE0FBA3E0FAA3E0F98D828CC9
:1033140083120DBEFF12348A0DBD00010C80D6D27B
:01332400C7E1
:013325002285
:1008D400EC4D6011E8497017ED33EC3304600DE41E
:1008E400FCFFFEFD22E933E8330470F8020A4612E5
:1008F4000A1158046009E4CC2481500628500902E6
:100904000A50284003020A4DC0E0EB4A7044B98003
:1009140006D0E0FB020A3CEF4E701CBD8008EBFFE2
:10092400EAFEE9FD80EBE98DF0A4FEE5F00209BDE5
:10093400E9CDF9EAFEEBFFEF89F0A4FCE5F0CE89FE
:10094400F0A42EFFE435F0CD89F0A42DFEE435F0BB
:100954008067EF4E7005BD80D780C3EF8BF0A4ACE9
:10096400F0EE8BF0A42CFCE435F0F8EF8AF0A42C24
:10097400E5F038FCE433CB8DF0A42CFCE5F03BF837
:10098400EE8AF0A42CFCE5F038F8E433CF89F0A427
:100994002CFCE5F038CF3400CE89F0A42FFFE5F02D
:1009A4003EFEE433C98DF0A42EFEE5F039CD8AF085
:1009B400A42FFFE5F03EFEE43DFD33D0E0FB5007FD
:1009C4000BBB000F020A50EC2CFCEF33FFEE33FE9E
:0609D400ED33FD020A28CC
:1009DA00EDD2E7CD33EC3392D524814006E4FFFE15
:1009EA00FDFC22FCE4CFCECDCC24E0501174FF8074
:1009FA00EDC3CC13CCCD13CDCE13CECF13CF047011
:070A0A00F030D5DE020F42BF
:103299009008FEE0FFA3E0FEA3E0CF900907F0A3AA
:1032A900EEF0A3EFF0900901E0CBF0A3E0CAF0A3A0
:1032B900E0C9F07F2290090AAD82AC83120DA58D79
:1032C900828C83F0A309E970010ADFEC900901E01F
:0A32D900FBA3E0FAA3E0F9021044A1
:100A1100E9D2E7C933E833F892D5EDD2E7CD33EC2B
:070A210033FC5002B2D522A4
:100A2800EC30E7100FBF000C0EBE00080DBD00042F
:100A38000BEB6014A2D5EB13FCED92E7FD2274FFDB
:100A4800FCFDFEFF22E480F8A2D574FF13FC7D8034
:030A5800E480EF48
:100FDF00E5082407F582E43409F583E0050822903B
:100FEF000904300703900907E475F001120F990205
:100FFF000DA52000E97F2ED2008018EF540F24900A
:10100F00D43440D4FF30040BEF24BFB41A00500384
:10101F002461FFE50960021509050CE50C70020556
:10102F000B30070E900904E475F001120F99EF02CF
:10103F000DEB0234077403D2078003E4C207F508EF
:10104F00900904120FB0E4F509F50BF50CE50960F2
:10105F00077F2012102280F5750AFFC201C200C25D
:10106F0002C203C205C206C208120FEEFF700D3096
:10107F0007057F00121033AF0CAE0B22B4255FC2F1
:10108F00D5C204120FEEFF24D0B40A00501A75F027
:10109F000A780930D50508B6FF0106C6A426F62042
:1010AF00D5047002D20380D924CFB41A00EF5004B4
:1010BF00C2E5D204021325D20180C6D20080C0D26D
:1010CF000280BCD2D580BAD20580B47F2012102204
:1010DF002002077401B5090040F1120FDFFF121053
:1010EF002202105CD208D2068095120FDFFB120F7E
:1010FF00DFFA120FDFF94A4B700679237A147BFF60
:10110F0020022EE509602A7E008E82758300120D63
:10111F00BE60060EEE650A70F0C2D5EBC0E0EAC005
:10112F00E0E9C0E0EE121386D0E0F9D0E0FAD0E0AB
:10113F00FB120DA5FF60AAEBC0E0EAC0E0E9C0E03A
:10114F00121022D0E02401F9D0E03400FAD0E0FBF5
:10115F00E50A0460DCD50AD98087D20280A2121377
:10116F006860F7E50A700104120A5BA90A600DE5D1
:10117F000A600914F50A121410EF60F3EA30E7025F
:10118F00F404C3995079EAF4250A0430E701E40422
:10119F00F50A800D12136860C1EA050A250A120AC2
:1011AF005BEA900933F030E701E4250A04D50A041D
:1011BF0020050114121386E4C0E0121410900933B5
:1011CF00E0601320E70714F012100A802204F0D019
:1011DF00E014C0E07F0012100AE50A600712100148
:1011EF00150A800B300503121001D0E002105CD0FD
:1011FF00E00480C4121368609EE50A04120A5B9033
:10120F000933EAF0E50A20050260010424041213F1
:01121F008648
:1012200074FF04C0E012141012100AE50A2005022F
:101230006003121001D0E0B50AE87F451210149047
:101240000933E07F2B30E7047F2DF404C0E0121057
:1012500022D0E075F00A84C0F012100BD0E012101A
:101260000B02105C791080027908C206C20880085F
:10127000D2D5790A8004790AC2D5E50A047002F54C
:101280000AE4FAFDFEFF120FDFFC7B0820011312B7
:101290000FDFFD7B1030000A120FDFFE120FDFFFA1
:1012A0007B20EC3382D592D55013C3E43000069FE7
:1012B000FFE49EFEE42001039DFDE49CFCE4CBF8EA
:1012C000C201EC700CCFCECDCCE824F8F870F380DE
:1012D00017C3EF33FFEE33FEED33FDEC33FCEB339E
:1012E000FB994002FB0FD8E9EB300105F8D0E0C4D0
:1012F00048B201C0E00AEC4D4E4F78207B0070C22E
:10130000EAB50A0040BCC0E0121388D0F0D0E0205B
:101310000104C4C0E0C4B201C0F012100BD0F0D57B
:10132000F0EB02105C120FB910F95312645810CA96
:101330004C10C64212684F12704412704910DF43BD
:1013400012765511A346120345116D4714435010F0
:10135000CE2D10D22E10F52B10D62310F320142CE6
:101360002A108E48000010EDE50AB4FF03750A0646
:10137000120FDFFC120FDFFD120FDFFE120FDFFF77
:1013800090092C020A98790AA2D520031430050985
:10139000B910020404B9080104A2D52006025001C4
:1013A000042002689202B509005034C0E07F20306A
:1013B00003197F30A20272067205500F1213DFC2AA
:1013C00002C206C205C2087F30800F300503E9C0A3
:1013D000E0121022300503D0E0F9D0E0B509CC309E
:1013E00005177F30B9100C1210227F583004077F88
:1013F000788003B908031210223002057F2D0210F5
:10140000227F202008F87F2B2006F322920280CF33
:101410007F00B40700500B242CF582E43409F583D7
:10142000E0FF22286E756C6C2900D201120FDF30AC
:1014300001F8C201780930D50108F602108E2D504E
:10144000434958120FDF2403B405004001E490140F
:101450003E93121013743A121013D203750904024A
:02146000126414
:100A5B00F920E73624F950037907E4F42402FBE587
:100A6B0082158270021583DBF6E024FB501BE960D4
:100A7B0014E4F0E582158270021583E004F0B40AE9
:0D0A8B0008E4F0D9EE7401F00A22C2D52271
:100A9800ED33EC3392D5FA602AB4FF33EDC2E77B2D
:100AA800FF60067A0A79BDE4227A0A79C620D5045D
:100AB8007A0A79C1224E614E002B494E46002D49D3
:100AC8004E4600E47A08F0A3DAFC7B00740722C0E3
:100AD80083C082ECC0E0EDC0E0EEC0E0EFC0E0EA29
:100AE80075F010A4CAABF075F04DA42BFBE435F0FB
:100AF800FCEA2410FAEB34C5FBEC34D9FCEDC2E770
:100B0800FF75F056A4F42411C5F0F434C58FF0A491
:100B18002AE5F03BE43CF020E714120D65D0E0FF35
:100B2800D0E0FED0E0FDD0E0FC120C988014F40474
:100B3800120D65D0E0FFD0E0FED0E0FDD0E0FC1261
:100B480008D4D082D083E0FAEDD2E7CD33EC332459
:100B580082FBE4C3CF33CFCE33CECD33CD33DBF3FB
:100B68007B0775F00A846004F0A31B0AE5F0F0A384
:100B78008FF0740AA4FFACF08EF0740AA42CFEACBB
:100B8800F050010C8DF0740AA42CFDE435F0F0A3AC
:050B9800DBDE74072202
:100B9D00020A46E86480F8E933E83360110460F036
:100BAD00ED33EC337009E8FCE9FDEAFEEBFF2204BE
:100BBD0060DED3EB9FEA9EE99DE8C2E78CF0C2F7B9
:100BCD0095F0400CE8CCF8E9CDF9EACEFAEBCFFB85
:100BDD00120A1185D0F05804700320D5B3E80470C3
:100BED00075002B2D5020A5092D5EC0460F7E4CC5E
:100BFD00C0E0C398F8603B94186008400DD0E0FB4E
:100C0D00020A28E4FBFAC9FC8028E830E406E4C9AE
:100C1D00FBE4CAFCE830E305E4C9CACBFCE85407A1
:100C2D006010F8C3E913F9EA13FAEB13FBEC13FCAC
:100C3D00D8F130F52FC3E49CFCEF9BFFEE9AFEED4F
:100C4D0099FDD0E0FBEF4E4D4C701222DB03020AF2
:100C5D004DEC2CFCEF33FFEE33FEED33FDED30E7C5
:100C6D00EB020A28EF2BFFEE3AFEED39FDD0E0FB4B
:100C7D0050130BBB0003020A50ED13FDEE13FEEFF4
:080C8D0013FFEC13FC020A281E
:100C9500020A50EC5D046005E859047003020A4637
:100CA500120A11580460F6EC4860F2EC7004FDFE7F
:100CB500FF22C860DB2481C85009C3986002500632
:100CC500020A4D9850CAF582E9294B4A7005AB8254
:100CD500020A3C75F0007C1A7880C3EF9BEE9AED12
:100CE50099400DC3EF9BFFEE9AFEED99FDE842F0AA
:100CF500DC23ACF0D0E0FFD0E0FED0E0FDAB8220FD
:100D0500E7101BEB60BAEC2CFCEF33FFEE33FEED86
:100D150033FD020A28E803F830E705C0F075F00056
:100D2500EF2FFFEE33FEED33FD40B830E7C280AA6A
:100D35003F8000004120000042C80000447A0000C6
:100D4500461C400047C35000497424004B18968048
:100D55004CBEBC205A0E1BCA6753C21C749DC5AE3F
:100D6500FB60065407601C2323120D93EB54386077
:100D750009120D7F120D8E1208D4ECF8EDF9EEFA7A
:100D8500EFCB22EB120D8E80F1543803241C900D0D
:100D950035FE93FC0EEE93FD0EEE930ECE93FF22E1
:03000000022FE4E8
:0C2FE400787FE4F6D8FD75812102302BC7
:100DA500BB010689828A83E0225002E722BBFE024C
:090DB500E32289828A83E493227F
:100DBE00BB010CE58229F582E5833AF583E02250EA
:100DCE0006E92582F8E622BBFE06E92582F8E22234
:0D0DDE00E58229F582E5833AF583E493224E
:100DEB00BB010689828A83F0225002F722BBFE01E7
:020DFB00F322E1
:100DFD00EF8DF0A4A8F0CF8CF0A428CE8DF0A42E0A
:020E0D00FE22C3
:100E0F00C5F0F8A3E028F0C5F0F8E582158270026E
:060E1F001583E038F0220B
:100E2500E88FF0A4CC8BF0A42CFCE98EF0A42CFC6C
:100E35008AF0EDA42CFCEA8EF0A4CDA8F08BF0A4EA
:100E45002DCC3825F0FDE98FF0A42CCD35F0FCEB49
:100E55008EF0A4FEA9F0EB8FF0A4CFC5F02ECD390E
:0F0E6500FEE43CFCEAA42DCE35F0FDE43CFC227B
:100E740075F008758200EF2FFFEE33FECD33CDCC35
:100E840033CCC58233C5829BED9AEC99E5829840B8
:100E94000CF582EE9BFEED9AFDEC99FC0FD5F0D695
:100EA400E4CEFBE4CDFAE4CCF9A88222B800C1B9BF
:100EB4000059BA002DEC8BF084CFCECDFCE5F0CBFD
:100EC400F97818EF2FFFEE33FEED33FDEC33FCEB36
:100ED40033FB10D703994004EB99FB0FD8E5E4F9F1
:100EE400FA227818EF2FFFEE33FEED33FDEC33FCDE
:100EF400C933C910D7059BE99A4007EC9BFCE99AD2
:100F0400F90FD8E0E4C9FAE4CCFB2275F010EF2F16
:100F1400FFEE33FEED33FDCC33CCC833C810D70716
:100F24009BEC9AE899400AED9BFDEC9AFCE899F851
:0E0F34000FD5F0DAE4CDFBE4CCFAE4C8F922E4
:0E0F4200C3E49FFFE49EFEE49DFDE49CFC22C0
:0C0F5000ECF0A3EDF0A3EEF0A3EFF02214
:100F5C00A8828583F0D083D082120F73120F731284
:100F6C000F73120F73E473E493A3C583C5F0C583A9
:100F7C00C8C582C8F0A3C583C5F0C583C8C582C8DF
:010F8C002242
:0C0F8D00A42582F582E5F03583F583226F
:100F9900F8E0FBA3A3E0F925F0F0E58215827002E1
:070FA9001583E0FA38F02285
:090FB000EBF0A3EAF0A3E9F02242
:100FB900D083D082F8E4937012740193700DA3A3C7
:100FC90093F8740193F5828883E4737402936860DB
:060FD900EFA3A3A380DFDB
:10340700EFB40A07740D123412740A309811A89990
:10341700B8130CC2983098FDA899C298B811F63025
:0734270099FDC299F59922FD
:102FF000022DDFE493A3F8E493A34003F68001F2EB
:1030000008DFF48029E493A3F85407240CC8C333E1
:10301000C4540F4420C8834004F456800146F6DFB0
:10302000E4800B010204081020408090000EE47E32
:10303000019360BCA3FF543F30E509541FFEE493A5
:10304000A360010ECF54C025E060A840B8E493A36C
:10305000FAE493A3F8E493A3C8C582C8CAC583CA97
:10306000F0A3C8C582C8CAC583CADFE9DEE780BE4F
:0108D3000024
:00000001FF
