:1002F600E4F593F594F591F592F595F596F5B1F546
:0A030600B2F5B3F5B4F5C9F5CA224B
:0B035B001202F61202D512000380FB14
:100329003F065B4F666D7D077F6F40BF86DBCFE67B
:06033900EDFD87FFEFC09F
:04038500410006002D
:040380007F03DFFE1A
:010384002256
:05037A00007F19DFFE09
:01037F00225B
:0A036600D294D29312037AC29422BB
:0A037000C294D29312037AD29422B1
:0B02400012021712024BAF041202174B
:10024B007E01D29312037AC293309409EED3946455
:0A025B0050030E80F412037AC293E0
:010265002276
:02021700AE0730
:10021900C293120380E4FDEE30E704D2948002C257
:1002290094C29312037AD29312037AC293EE25E011
:06023900FE0DEDB408E12A
:01023F00229C
:1002B100E4FDC29312037AEE25E0FEA294E433FC3E
:1002C1002EFED29312037A0DEDB408E6C293120307
:0302D10080AF06F5
:0102D4002207
:0F033F00AC05AE07120366AF0612024002037050
:0D034E00AC071203667F48120240020370E4
:1002D5007F0112034E7DFF7F6812033F7DFF7F6A1A
:1002E50012033F7DFF7F6C12033F7DFF7F6E02038C
:0102F5003FC9
:10028C00AA05AD077F6812033FAF02AD077F6A1264
:10029C00033FAF03AD077F6C12033F900005E0FDF9
:0502AC007F6E02033F1C
:100310001203667F4912021712024B1202B19000BB
:0903200006EFF012024B0203701B
:10000300E4900000F0A3F0120310900006E0120247
:1000130066006C4400A74500E14601174700744C95
:1000230000AF4D00E84E01234F007C5400B755004C
:10003300EF56012F5700895C00BF5D00F65E013A61
:100043005F00906400CC6500FD6601416700976C1A
:1000530000D36D01096E014C6F009F7400DA7501C6
:1000630010760158770000016490000074010201CA
:100073006890000074010201469000007401F0A32F
:100083007403F002016B900000740180349000004F
:100093007401806B900000740102015190000074A0
:1000A3000102015D900000740202013490000074AB
:1000B300020201689000007402020146900000747D
:1000C30002F0A37404F002016B9000007402802F0D
:1000D300900000740280779000007402807C90008E
:1000E3000074038034900000740380459000007412
:1000F300038072900000740380499000007403F041
:10010300A37405F0806290000074038041900000A6
:10011300740380469000007404F0A37401F08048D7
:100123009000007404F0A37402F0803C900000740B
:1001330004F0A314F0803190000074048027900031
:10014300007404F0A304F0801F9000007404F0A373
:100153007406F080139000007404F0A37407F08019
:1001630007E4900000F0A3F0900000E090032993CF
:10017300FD900333E493FB900001E09003299390F7
:080183000005F0E4FF02028C0C
:0300000002018B6F
:0C018B00787FE4F6D8FD7581070201D2F0
:10026600D083D082F8E4937012740193700DA3A327
:1002760093F8740193F5828883E47374029368603B
:06028600EFA3A3A380DF3B
:1001970002035BE493A3F8E493A34003F68001F220
:1001A70008DFF48029E493A3F85407240CC8C33369
:1001B700C4540F4420C8834004F456800146F6DF38
:1001C700E4800B0102040810204080900385E47E40
:1001D700019360BCA3FF543F30E509541FFEE4932D
:1001E700A360010ECF54C025E060A840B8E493A3F4
:1001F700FAE493A3F8E493A3C8C582C8CAC583CA1F
:10020700F0A3C8C582C8CAC583CADFE9DEE780BED6
:010389000073
:00000001FF
