:08000300D500CDA300B7B40045
:0A000E00420BA10000420B9F00000E
:1034DE00E4F5937594FFF591F592F595759660F573
:0C34EE00B1F5B2F5B3F5B4F5C9F5CA228A
:10355700538E7F5389F0758A66758CFCC28DC28C39
:03356700D2A922C4
:10351400759850538EBF538EFE53890F758BE87583
:093524008DFFC2ABD28ED29922B8
:102E7E001234DE123557123514D2AF1235BE122A65
:102E8E0013E4FFFE1231B1D28CC2A5C2A6900BA1E3
:102E9E00E0FEA3E0FFEE6003022F47EF14603C1448
:102EAE00603B14606724036003022F47E4900936E9
:102EBE00F0A3F0A37410F0E4A3F0A374FFF0A374D6
:102ECE0000F0A37403F07BE07A077D917C007F50C5
:102EDE007E00122FF8C2A5D2A6805E802FE4900944
:102EEE0036F0A3F0A37410F0E4A3F0A374FFF0A3E4
:102EFE007400F0A37408F07BE07A077D917C007F6C
:102F0E00507E00122FF8D2A5C2A6802DE49009366D
:102F1E00F0A3F0A37410F0E4A3F0A374FFF0A37475
:102F2E0000F0A37405F07BE07A077D917C007F5062
:0E2F3E007E00122FF8C2A5C2A6C280022E9BF2
:03000B00023300BD
:10330000C0E0C0F0C083C082C0D075D000C000C093
:0133100006B6
:10331100900B9FE475F001120E97FEC3E5F09488BF
:10332100EE94134022B287900B9FE4F0A3F0A375B3
:10333100F001120EADFEC3E5F09404EE94004007D7
:07334100900BA1E4F0A3F0E2
:0F334800D006D000D0D0D082D083D0F0D0E032E9
:0735BE00D292D2CDD2C72248
:10352D00E4FEEF3392CDEF25E0FFC292D2920EEE84
:05353D00B408EFD2CD3F
:013542002266
:1033F100900B12EBF0A3EAF0A3E9F0A3ECF0A3ED3C
:01340100F0DA
:10340200C2C7E4FDFCD3900B16E09D900B15E09C27
:10341200401D900B12E0FBA3E0FAA3E0F98D828C31
:1034220083120E46FF12352D0DBD00010C80D6D23F
:01343200C7D2
:013433002276
:0B357900EF1FAC0670011E4C70F62224
:0B358400D2A1D2A000C2A100C2A02270
:0B358F00C2A1D2A000D2A100C2A02265
:0E356A00D2A100D2A000A2A19209C2A0A20983
:013578002230
:0A359A00C2A1D2A000C2A0D2A1225B
:10354300E4FEEF25E0FF92A100D2A000C2A00EEEA0
:03355300B408EFCA
:013556002252
:1034FA00E4FFD2A1FEEF25E0FFD2A000A2A1E433AF
:09350A004FFFC2A00EEEB408EC64
:013513002295
:1000180065F0034000000000000000000000000040
:100028000000000000000008080808080808000090
:100038001818000000486C2412000000000000009E
:10004800000000000000002424247F1212127F12F6
:10005800121200000000081C2A2A0A0C1828282A54
:100068002A1C080800000022251515152A58545482
:10007800542200000000000C1212120A76252911E1
:10008800916E000000060604030000000000000056
:100098000000000000402010100808080808081098
:1000A800102040000002040808101010101010085A
:1000B800080402000000000008086B1C1C6B0808FC
:1000C8000000000000000000080808087F08080871
:1000D8000800000000000000000000000000000010
:1000E800060604030000000000000000FE000000F7
:1000F80000000000000000000000000000000000F8
:100108000606000000008040402020101008080467
:1001180004020200000000182442424242424242C5
:1001280024180000000000080E080808080808083D
:10013800083E00000000003C424242202010080413
:10014800427E00000000003C42422018204040420D
:10015800221C0000000000203028242422227E20B7
:10016800207800000000007E0202021A2640404269
:10017800221C0000000000382402021A26424242D3
:10018800241800000000007E222210100808080829
:10019800080800000000003C424242241824424261
:1001A800423C00000000001824424242645840408B
:1001B800241C0000000000000000181800000000C7
:1001C80018180000000000000000000800000000EF
:1001D8000008080400000040201008040204081069
:1001E800204000000000000000007F0000007F00A9
:1001F8000000000000000002040810204020100841
:10020800040200000000003C42424640201010005A
:10021800181800000000001C225A555555552D424B
:10022800221C00000000000808181414243C224274
:1002380042E700000000001F2222221E2242424202
:10024800221F00000000007C42420101010101421E
:10025800221C00000000001F224242424242424249
:10026800221F00000000003F4212121E121202421A
:10027800423F00000000003F4212121E121202020A
:10028800020700000000003C222201010171212226
:10029800221C0000000000E7424242427E424242E5
:1002A80042E700000000003E08080808080808089F
:1002B800083E00000000007C1010101010101010F4
:1002C8001010110F0000007722120A0E0A121222D3
:1002D8002277000000000007020202020202020266
:1002E800427F000000000077363636362A2A2A2A4E
:1002F8002A6B0000000000E346464A4A5252526206
:10030800624700000000001C224141414141414137
:10031800221C00000000003F424242423E0202020C
:10032800020700000000001C2241414141414D5399
:10033800321C60000000003F4242423E121222225C
:1003480042C700000000007C4242020418204042DC
:10035800423E00000000007F490808080808080815
:10036800081C0000000000E742424242424242426A
:10037800423C0000000000E74242222424141418E2
:10038800080800000000006B4949494955553622C4
:1003980022220000000000E7422424181818242410
:1003A80042E7000000000077222214140808080819
:1003B800081C00000000007E2120101008040442E0
:1003C800423F0000007808080808080808080808DC
:1003D8000808780000000202040408080810102029
:1003E80020204040001E1010101010101010101087
:1003F80010101E000038440000000000000000003B
:1004080000000000000000000000000000000000E4
:10041800000000FF000608000000000000000000C7
:1004280000000000000000000000003C4278444248
:1004380042FC0000000000030202021A2642424267
:10044800261A0000000000000000003844020202E2
:100458004438000000000060404040784442424276
:1004680064D80000000000000000003C427E020248
:10047800423C0000000000F08808087E08080808D0
:10048800083E0000000000000000007C22221C0240
:100498003C42423C000000030202023A4642424209
:1004A80042E700000000000C0C00000E08080808D5
:1004B800083E0000000000303000003820202020D6
:1004C8002020221E0000000302020272120A1612E5
:1004D800227700000000000E08080808080808082D
:1004E800083E0000000000000000007F92929292F7
:1004F80092B70000000000000000003B4642424264
:1005080042E70000000000000000003C4242424276
:10051800423C0000000000000000001B264242424E
:10052800221E0207000000000000007844424242F8
:10053800447840E000000000000000774C04040408
:10054800041F0000000000000000007C42023C4044
:10055800423E0000000000000008083E08080808A5
:1005680008300000000000000000006342424242E0
:1005780062DC000000000000000000E742242414B0
:100588000808000000000000000000EB494955552C
:10059800222200000000000000000076241818182D
:1005A800246E000000000000000000E7422424142C
:1005B80018080807000000000000007E2210080844
:1005C800447E000000C02020202020102020202071
:1005D8002020C00010101010101010101010101053
:1005E8001010101000060808080808100808080865
:1005F800080806000C32C2000000000000000000DD
:10060800000000005A0000D6D0200020002000FE84
:1006180003220222022202FE0322022000200020DE
:10062800006132020ECFB5001CFE03200020081026
:1006380004FC03800040042008FC1F8010900490F4
:10064800088810A4104000CDB3080108020412E481
:100658003F12019F084810E43F82249F04820480CF
:10066800045844474422781000C6F480000021F85A
:100678007F082008200820F83F08000820F87F1885
:1006880020142014201220F13F1020B6AF000210D1
:10069800023E020022A07F7F220822082204222490
:1006A8002242217F218220802040142008D6D08039
:1006B8000080008020FE7F8220822082208220FE0F
:1006C8003F8220800080008000800080008000D56C
:1006D800000000FE3F8000800080008000880088C5
:1006E8001F880088008800880088008800FF7F0035
:1006F80000D7AA040404040404BF3F02040A02C980
:100708007F3F020801883F38200F110A0A080408B1
:10071800080808B7B40008001FFC0004000400FC27
:100728001F2410240844084404840204018202425D
:100738000431180C60CDA308010802E83F0400C486
:100748001F4610C61F0500F47F1440C41F0402048E
:10075800020402840204016172009CCFB50000000B
:1007680000800FFCFF1FFCFF1FF81E00000F038016
:100778008307C0C103F0FF01F07F00201C03008F36
:1007880007C0030EF8FF1FF8FF3F1038104038016C
:10079800C0B907E0380F70381E3C383C1C3E1800C2
:1007A8001E00000000CDB300800030C00170800141
:1007B80030800338000318FE7F0CFE7F8CE100C6F2
:1007C800E100FE710EFE380C601C1C70FE3F38FC08
:1007D8007F186033FE6103FE61033E60030060031F
:1007E800803303FC3B23FE19631E1E7F000F7EC669
:1007F800F4003800003800F0FF3FF0FF3FF0FF3F03
:10080800700038700038700038F0FF3FF0FF3FF09C
:10081800FF3F700000700000F0FF3FF0FF3FB8FF9F
:100828003FB803389803389C03388CFF3F8EFF3F4E
:1008380086FF3F840338000000B6AF0080030080C5
:1008480003FC8701FC8701FC870100800100F87F19
:1008580000F87FFECF31FECF31E0C03160C031708B
:10086800C03170C33030C73038E63818E738FC6F0D
:1008780038FE7F383E3C38043C3F001F1F000F0EF7
:10088800000600D6D00038000038000038000038D4
:1008980000003800F8FF3FF8FF3FF8FF3F383838CE
:1008A800383838383838383838383838383838F800
:1008B800FF3FF8FF3FF8FF3F38383800380000386E
:1008C800000038000038000038000038006082005E
:1008D8001AB5E7000000000000000000E00000007A
:1008E800E0000000E0000000E0000000E00000F888
:1008F800FFFF03F8FFFF0338E0800338E080033888
:10090800E0800338E0800338E08003F8FFFF03F855
:10091800FFFF0338E0800338E0800338E0800338C5
:10092800E0800338E08003F8FFFF03F8FFFF033897
:10093800E0000038E0000038E0000000E00070004F
:10094800E0003800E0013800C0FF3F0080FF1F00D2
:030958000000009C
:08323000900B93EEF0A3EFF008
:10323800900B18E4F0A374EFF0FB7A00E4FDFCFFB8
:10324800FE123434E4900B95F0A3F0E4900B97F061
:10325800A3F0900B93E0FEA3E0FF123475900B9857
:10326800E004F07006900B97E004F0C3900B98E030
:1032780094F0900B97E0940040D8900B96E004F0FF
:103288007006900B95E004F0C3900B96E094F090D4
:073298000B95E0940040B427
:01329F00220C
:0431B100AD07AC06B4
:1031B500E4FBFAC3EB94E0EA9401502374332BF556
:1031C5008274093AF583EDF0ECFF74322BF58274C5
:1031D500093AF583EFF074022BFBE43AFA80D490B8
:1031E5000B18E4F0A374EFF0FB7A00E4FDFCFFFE9E
:1031F500123434E4900930F0A3F0D2CBC2C77B017E
:103205007A0979327DE07C011233F1D2C790093118
:10321500E004F07006900930E004F0C3900931E055
:0A32250094F0900930E0940040D0CE
:01322F00227C
:102F4C00900B70EEF0A3EFF0A3ECF0A3EDF0A3EA7E
:042F5C00F0A3EBF003
:102F6000C006C00724FFFBEA34FFFAA3E0FEA3E09B
:102F700024FFFFEE34FF900B18F0A3EFF0D007D042
:102F800006123434900B72E0FFA3E0900B7ACFF07E
:102F9000A3EFF0900B76E0FEA3E0FFC3900B7BE085
:102FA0009F900B7AE09E504F900B70E0FFA3E09053
:102FB0000B7CCFF0A3EFF0900B74E0FEA3E0FFC317
:102FC000900B7DE09F900B7CE09E501B900B78E077
:102FD000FEA3E0FF123475900B7DE004F070D890F2
:102FE0000B7CE004F080D0900B7BE004F070A490A8
:072FF0000B7AE004F0809C65
:012FF70022B7
:1032A000900B85FEE0FCA3E0FDC3900B81E09DFD4B
:0E32B000900B80E09CFC900B83E0FAA3E0FB07
:1032BE009009C9EEF0A3EFF09009CDEAF0A3EBF080
:1032CE009009CBECF0A3EDF09009C9E0FAA3E0FB76
:1032DE00FFAE02C007A3E0FFA3E0900B18CFF0A350
:1032EE00EFF0D0071234349009CDE0FEA3E0FF02D8
:0232FE00347525
:0E226200900B1CEEF0A3EFF0A3ECF0A3EDF058
:10227000E4900B28F0A3F0A3F0A3F0900B1CE0FE79
:10228000A3E0FFC3EB9FFFEA9E900B2CF0A3EFF0BF
:10229000900B1EE0FAA3E0FBC3900B23E09BFE90A3
:1022A0000B22E09A900B2EF0A3CEF0900B1CE0FFD7
:1022B000A3E0900B36CFF0A3EFF0A3EAF0A3EBF08E
:1022C000900B2CE0FEA3E0FFD39400EE648094809A
:1022D000400A900B32E4F0A304F08021EF4E700826
:1022E000900B32F0A3F0801574FF900B32F0A3F046
:1022F000C3E49FFFE49E900B2CF0A3EFF0900B2E15
:10230000E0FEA3E0FFD39400EE64809480400A9046
:102310000B34E4F0A304F08021EF4E7008900B34EE
:10232000F0A3F0801574FF900B34F0A3F0C3E49F8A
:10233000FFE49E900B2EF0A3EFF0900B2EE0FEA397
:10234000E0FF900B2CE0FCA3E0FDD39FEE6480F84F
:10235000EC648098900B304007ECF0A3EDF0800522
:10236000EEF0A3EFF0E4900B26F0A3F0900B31E039
:102370002401FF900B30E03400FEC3900B27E09F58
:10238000900B26E09E400302244F900B36E0FEA304
:10239000E0FFA3E0FCA3E0FD900B241232B9900B08
:1023A0002CE0FEA3E0FF900B29E02FF0900B28E03B
:1023B0003EF0900B2EE0FEA3E0FF900B2BE02FF001
:1023C000900B2AE03EF0900B30E0FEA3E0FF900B74
:1023D00028E0FCA3E0FDD39FEE6480F8EC648098D5
:1023E0004020ED9FFFEC9E900B28F0A3EFF0900BA8
:1023F00032E0FEA3E0FF900B37E02FF0900B36E0C9
:102400003EF0900B30E0FEA3E0FF900B2AE0FCA32F
:10241000E0FDD39FEE6480F8EC6480984020ED9F4F
:10242000FFEC9E900B2AF0A3EFF0900B34E0FEA39C
:10243000E0FF900B39E02FF0900B38E03EF0900B6E
:0F24400027E004F07006900B26E004F002236CF6
:01244F00226A
:102D9800900B8DEAF0A3EBF0900B89EEF0A3EFF027
:102DA800A3ECF0A3EDF0C007A3E0FAA3E0FB900BBF
:102DB8008BE0FFA3E0900B22CFF0A3EFF0900B91F4
:102DC800E0FFA3E0900B24CFF0A3EFF0D00712228E
:102DD80062900B89E0FAA3E0FBFFAE02C007A3E014
:102DE800FCA3E0FD900B8FE0FFA3E0900B22CFF057
:102DF800A3EFF0900B91E0FFA3E0900B24CFF0A39A
:102E0800EFF0D007122262900B8FE0FCA3E0FD9058
:102E18000B8DE0FAA3E0FBA3E0FFA3E0900B22CF29
:102E2800F0A3EFF0900B91E0FFA3E0900B24CFF01C
:102E3800A3EFF0900B89E0FEA3E0FF122262900B53
:102E48008DE0FAA3E0FBFFAE02C007900B8BE0FC1D
:102E5800A3E0FD900B8FE0FFA3E0900B22CFF0A33F
:102E6800EFF0900B91E0FFA3E0900B24CFF0A3EFDD
:062E7800F0D00702226207
:10245000900B7EEEF0A3EFF0A3ECF0A3EDF0A3EB76
:01246000F08B
:10246100E4900B85F0A3F0EBFFA3E4F0A3EFF09071
:102471000B87E0FEA3E0FFD3900B86E09FEE648024
:10248100F8900B85E064809840030225EFC3900B20
:102491007FE09FFF900B7EE09E1232A0900B87E0C1
:1024A100FEA3E0FF900B7FE02FFF900B7EE03E123A
:1024B10032A0900B85E0FEA3E0FFC3900B7FE09F6D
:1024C100FF900B7EE09EFE900B87E0FCA3E0FD9069
:1024D1000B81E02DFD900B80E03C1232B5900B8515
:1024E100E0FEA3E0FFC3900B7FE09FFF900B7EE037
:1024F1009E900B871232A3900B87E0FEA3E0FF9022
:102501000B7FE02FFF900B7EE03EFE900B85E0FC01
:10251100A3E0FD900B81E02DFD900B80E03C123299
:10252100B5900B85E0FEA3E0FF900B7FE02FFF90BD
:102531000B7EE03EFE900B871232A4900B85E0FEED
:10254100A3E0FF900B7FE02FFF900B7EE03EFE901B
:102551000B87E0FCA3E0FD900B81E02DFD900B804B
:10256100E03C1232B5900B87E0FEA3E0FFC3900B75
:102571007FE09FFF900B7EE09EFE900B85E0FCA329
:10258100E0FD900B81E02DFD900B80E03C1232B517
:10259100900B86E004F07006900B85E004F0900B40
:1025A10087E0FCA3E0FDFFAE04120E85AA06AB078F
:1025B100900B85E0FCA3E0FDFFAE04120E85EF2B2E
:1025C100FDEE3AFC900B82E0F5F0A4FFD3ED9FE520
:1025D100F06480F8EC6480985003022470900B88BA
:0E25E100E024FFF0900B87E034FFF00224703E
:0125EF0022C9
:1025F000900994EEF0A3EFF0A3ECF0A3EDF0A3EBC1
:10260000F0A3EAF0A3E9F0900998E0FBA3E0FAA3B5
:10261000E0F9120E2D700302277A90099FE0640CF6
:102620007044900996E0FCA3E0FD90099BE0FFA3B5
:10263000E09009A8CFF0A3EFF090099DE0FFA3E0A0
:102640009009AACFF0A3EFF090099FE09009ACF0B9
:102650009009A0E09009ADF0900994E0FEA3E0FF9E
:10266000121A7802275B90099FE06410704B900962
:1026700096E0FCA3E0FDA3E0FBA3E0FAA3E0F9A34E
:10268000E0FFA3E09009A8CFF0A3EFF090099DE050
:10269000FFA3E09009AACFF0A3EFF090099FE0908C
:1026A00009ACF09009A0E09009ADF0900994E0FE2B
:1026B000A3E0FF12150002275B90099FE0641870E9
:1026C0004A900996E0FCA3E0FDA3E0FBA3E0FAA397
:1026D000E0F9A3E0FFA3E09009A8CFF0A3EFF0900A
:1026E000099DE0FFA3E09009AACFF0A3EFF09009C5
:1026F0009FE09009ACF09009A0E09009ADF090093E
:1027000094E0FEA3E0FF1217BC805090099FE064A4
:10271000207067900996E0FCA3E0FDA3E0FBA3E036
:10272000FAA3E0F9A3E0FFA3E09009A8CFF0A3EF9C
:10273000F090099DE0FFA3E09009AACFF0A3EFF08D
:1027400090099FE09009ACF09009A0E09009ADF0ED
:10275000900994E0FEA3E0FF121D31900999E47501
:10276000F002120E9790099FE0FF900995E02FF07C
:0B277000900994E03400F002260722DC
:101A78009009A3ECF0A3EDF0A3EBF0A3EAF0A3E93F
:091A8800F09009A1EEF0A3EFF0CB
:101A9100E49009B0F09009B7EEF0A3EFF09009AC33
:101AA100E0FF131313541FFD7C00EF54077E006009
:101AB100047F0180027F00EF2DFFEE3CFE9009AC18
:101AC100E0FD7C00120E859009B5EEF0A3EFF090D9
:101AD10009B3E4F0A304F0E49009B1F0A3F0900994
:101AE100B3E0FEA3E0FF9009B1E0FCA3E0FDC39FDA
:101AF100EC9E4003021D309009A5E0FBA3E0FAA390
:101B0100E0F9120E2DFF90000075F01AED12102B66
:101B1100EC75F01AA42583F583E06F6003021D1FA5
:101B2100900001120E46FF9009B1A3E090000175EB
:101B3100F01A12102BEC75F01AA42583F583E06FCF
:101B41006003021D1F9009A3E0FCA3E0FD9009AC16
:101B5100E0F9FF7E009009A1E0FAA3E02FFFEE3A41
:101B6100CF24FFFBEF34FFFAE9FFA3E0F8A3E02F56
:101B7100FFEE38CF24FFCF34FF900B18F0A3EFF026
:101B81009009A1E0FEA3E0FF123434E49009AEF025
:101B91009009AEE0FFD39009B6E09F9009B5E094BB
:101BA100005003021D1FE49009AFF09009ADE06001
:101BB10003021C4A9009B1A3E075F01AA42402F5AE
:101BC10082E43400F583C083C0829009AEE0D08204
:101BD100D0832582F582E43583F583E0FD7C009096
:101BE10009AFE0FF7E007401A807088005C333CE6A
:101BF10033CED8F9FFEE5CFEEF5D4E60059009A88B
:101C010080039009AAE0FCA3E0FDECFF9009AFE09E
:101C1100FE25E024B9F582E43409F583EFF0EE25E1
:101C2100E024BAF582E43409F583EDF09009B0E0DF
:101C310004F09009ACE0FF9009B0E08FF084E5F08A
:101C41006003021CEFF0021CFE9009B1A3E075F0E5
:101C51001AA42402F582E43400F583C083C0829083
:101C610009AEE0D082D0832582F582E43583F58305
:101C7100E0FD7C009009AFE0FF7E007401A8070839
:101C81008005C333CE33CED8F9FFEE5CFEEF5D4E57
:101C910060149009A1E0FEA3E0FFA3E0FCA3E0FD36
:101CA1009009A81232B99009A2E004F070069009D7
:101CB100A1E004F09009B7E0FEA3E0FFC39009A200
:101CC100E09FFD9009A1E09EFC9009ACE07A00B58F
:101CD100051CEAB504189009A1EEF0A3EFF09009F4
:101CE100A4E004F070179009A3E004F0800F9009BC
:101CF100AFE004F0E0C394085003021BAC9009ADBF
:101D0100E07012D2CBC2C77B017A0979B97D10FC90
:101D11001233F1D2C79009AEE004F0021B91900991
:0F1D2100B2E004F070069009B1E004F0021ADF9E
:011D30002290
:101500009009A3ECF0A3EDF0A3EBF0A3EAF0A3E9BC
:09151000F09009A1EEF0A3EFF048
:10151900E49009B0F09009B7EEF0A3EFF09009ACB0
:10152900E0FF131313541FFD7C00EF54077E006086
:10153900047F0180027F00EF2DFFEE3CFE9009AC95
:10154900E0FD7C00120E859009B5EEF0A3EFF09056
:1015590009B3E4F0A37409F0E49009B1F0A3F090A1
:1015690009B3E0FEA3E0FF9009B1E0FCA3E0FDC3ED
:101579009FEC9E40030217BB9009A5E0FBA3E0FA8C
:10158900A3E0F9120E2DFF90020E75F022ED121054
:101599002BEC75F022A42583F583E06F6003021715
:1015A900AA900001120E46FF9009B1A3E090020F24
:1015B90075F02212102BEC75F022A42583F583E037
:1015C9006F60030217AA9009A3E0FCA3E0FD90094C
:1015D900ACE0F9FF7E009009A1E0FAA3E02FFFEE4D
:1015E9003ACF24FFFBEF34FFFAE9FFA3E0F8A3E0C9
:1015F9002FFFEE38CF24FFCF34FF900B18F0A3EF65
:10160900F09009A1E0FEA3E0FF123434E49009AEA2
:10161900F09009AEE0FFD39009B6E09F9009B5E0DC
:10162900940050030217AAE49009AFF09009AFE0C3
:10163900FFC3940840030217899009ADE0600302D3
:1016490016DAA3E0FE9009B1E0FCA3E09002107560
:10165900F02212102BEC75F022A42583F583E58284
:101669002EF582E43583F583E0FD7C007E0074016C
:10167900A807088005C333CE33CED8F9FFEE5CFE48
:10168900EF5D4E60059009A880039009AAE0FCA3CC
:10169900E0FDECFF9009AFE0FE25E024B9F582E416
:1016A9003409F583EFF0EE25E024BAF582E4340934
:1016B900F583EDF09009B0E004F09009ACE0FF90FB
:1016C90009B0E08FF084E5F06003021780F002179B
:1016D900899009AEE0FF9009B1E0FCA3E090021007
:1016E90075F02212102BEC75F022A42583F583E501
:1016F900822FF582E43583F583E0FD7C009009AF04
:10170900E0FF7E007401A807088005C333CE33CEFD
:10171900D8F9FFEE5CFEEF5D4E60149009A1E0FE82
:10172900A3E0FFA3E0FCA3E0FD9009A81232B99061
:1017390009A2E004F070069009A1E004F09009B74D
:10174900E0FEA3E0FFC39009A2E09FFD9009A1E09C
:101759009EFC9009ACE07A00B5051CEAB504189026
:1017690009A1EEF0A3EFF09009A4E004F070119044
:1017790009A3E004F080099009AFE004F0021635EE
:101789009009ADE07012D2CBC2C77B017A0979B951
:101799007D10FC1233F1D2C79009AEE004F00216B5
:1017A9001A9009B2E004F070069009B1E004F00261
:0217B9001568B1
:0117BB00220B
:1017BC009009A3ECF0A3EDF0A3EBF0A3EAF0A3E9FE
:0917CC00F09009A1EEF0A3EFF08A
:1017D500E49009B0F09009B7EEF0A3EFF09009ACF2
:1017E500E0FF131313541FFD7C00EF54077E0060C8
:1017F500047F0180027F00EF2DFFEE3CFE9009ACD7
:10180500E0FD7C00120E859009B5EEF0A3EFF09097
:1018150009B3E4F0A37405F0E49009B1F0A3F090E6
:1018250009B3E0FEA3E0FF9009B1E0FCA3E0FDC32E
:101835009FEC9E4003021A779009A5E0FBA3E0FA0E
:10184500A3E0F9120E2DFF90009C75F04AED1210E1
:101855002BEC75F04AA42583F583E06F6003021A2B
:1018650066900001120E46FF9009B1A3E090009D1D
:1018750075F04A12102BEC75F04AA42583F583E028
:101885006F6003021A669009A3E0FCA3E0FD9009CE
:10189500ACE0F9FF7E009009A1E0FAA3E02FFFEE8E
:1018A5003ACF24FFFBEF34FFFAE9FFA3E0F8A3E00A
:1018B5002FFFEE38CF24FFCF34FF900B18F0A3EFA6
:1018C500F09009A1E0FEA3E0FF123434E49009AEE4
:1018D500F09009AEE0FFD39009B6E09F9009B5E01E
:1018E50094005003021A66E49009AFF09009AFE046
:1018F500FFC394084003021A459009ADE060030256
:101905001996A3E0FE9009B1E0FCA3E090009E7556
:10191500F04A12102BEC75F04AA42583F583E58275
:101925002EF582E43583F583E0FD7C007E007401AD
:10193500A807088005C333CE33CED8F9FFEE5CFE89
:10194500EF5D4E60059009A880039009AAE0FCA30D
:10195500E0FDECFF9009AFE0FE25E024B9F582E457
:101965003409F583EFF0EE25E024BAF582E4340975
:10197500F583EDF09009B0E004F09009ACE0FF903C
:1019850009B0E08FF084E5F06003021A3CF0021A1A
:10199500459009AEE0FF9009B1E0FCA3E090009E00
:1019A50075F04A12102BEC75F04AA42583F583E5F2
:1019B500822FF582E43583F583E0FD7C009009AF45
:1019C500E0FF7E007401A807088005C333CE33CE3F
:1019D500D8F9FFEE5CFEEF5D4E60149009A1E0FEC4
:1019E500A3E0FFA3E0FCA3E0FD9009A81232B990A3
:1019F50009A2E004F070069009A1E004F09009B78F
:101A0500E0FEA3E0FFC39009A2E09FFD9009A1E0DD
:101A15009EFC9009ACE07A00B5051CEAB504189067
:101A250009A1EEF0A3EFF09009A4E004F070119085
:101A350009A3E004F080099009AFE004F00218F171
:101A45009009ADE07012D2CBC2C77B017A0979B992
:101A55007D10FC1233F1D2C79009AEE004F00218F4
:101A6500D69009B2E004F070069009B1E004F002E6
:021A7500182433
:011A7700224C
:101D31009009A3ECF0A3EDF0A3EBF0A3EAF0A3E983
:091D4100F09009A1EEF0A3EFF00F
:101D4A00E49009B0F09009B7EEF0A3EFF09009AC77
:101D5A00E0FF131313541FFD7C00EF54077E00604D
:101D6A00047F0180027F00EF2DFFEE3CFE9009AC5C
:101D7A00E0FD7C00120E859009B5EEF0A3EFF0901D
:101D8A0009B3E4F0A304F0E49009B1F0A3F09009D8
:101D9A00B3E0FEA3E0FF9009B1E0FCA3E0FDC39F1E
:101DAA00EC9E4003021FE99009A5E0FBA3E0FAA319
:101DBA00E0F9120E2DFF90001A75F082ED12102B29
:101DCA00EC75F082A42583F583E06F6003021FD8C7
:101DDA00900001120E46FF9009B1A3E090001B7516
:101DEA00F08212102BEC75F082A42583F583E06F44
:101DFA006003021FD89009A3E0FCA3E0FD9009ACA0
:101E0A00E0F9FF7E009009A1E0FAA3E02FFFEE3A85
:101E1A00CF24FFFBEF34FFFAE9FFA3E0F8A3E02F9A
:101E2A00FFEE38CF24FFCF34FF900B18F0A3EFF06A
:101E3A009009A1E0FEA3E0FF123434E49009AEF069
:101E4A009009AEE0FFD39009B6E09F9009B5E094FF
:101E5A00005003021FD8E49009AFF09009ADE0608A
:101E6A0003021F039009B1A3E075F082A4241CF5B4
:101E7A0082E43400F583C083C0829009AEE0D08248
:101E8A00D0832582F582E43583F583E0FD7C0090DA
:101E9A0009AFE0FF7E007401A807088005C333CEAE
:101EAA0033CED8F9FFEE5CFEEF5D4E60059009A8CF
:101EBA0080039009AAE0FCA3E0FDECFF9009AFE0E3
:101ECA00FE25E024B9F582E43409F583EFF0EE2526
:101EDA00E024BAF582E43409F583EDF09009B0E024
:101EEA0004F09009ACE0FF9009B0E08FF084E5F0CF
:101EFA006003021FA8F0021FB79009B1A3E075F0B2
:101F0A0082A4241CF582E43400F583C083C0829045
:101F1A0009AEE0D082D0832582F582E43583F58349
:101F2A00E0FD7C009009AFE0FF7E007401A807087D
:101F3A008005C333CE33CED8F9FFEE5CFEEF5D4E9B
:101F4A0060149009A1E0FEA3E0FFA3E0FCA3E0FD7A
:101F5A009009A81232B99009A2E004F0700690091B
:101F6A00A1E004F09009B7E0FEA3E0FFC39009A244
:101F7A00E09FFD9009A1E09EFC9009ACE07A00B5D3
:101F8A00051CEAB504189009A1EEF0A3EFF0900938
:101F9A00A4E004F070179009A3E004F0800F900900
:101FAA00AFE004F0E0C394085003021E659009AD47
:101FBA00E07012D2CBC2C77B017A0979B97D10FCD5
:101FCA001233F1D2C79009AEE004F0021E4A90091A
:0F1FDA00B2E004F070069009B1E004F0021D9827
:011FE90022D5
:101FEA009009A3ECF0A3EDF0A3EBF09009A1EEF0B9
:031FFA00A3EFF062
:101FFD00E49009AFF09009B4EEF0A3EFF09009AAC8
:10200D00E0F9C3139009ADF0E0FF131313541FFD56
:10201D007C00EF54077E0060047F0180027F00EF9B
:10202D002DFFEE3CFEE9FD7C00120E859009B2EE0F
:10203D00F0A3EFF09009A5E024E0F09009A3E0FCF7
:10204D00A3E0FD9009ADE0FF7E009009A1E0FAA3A9
:10205D00E02FFFEE3ACF24FFFBEF34FFFAE9FFA3A9
:10206D00E0F8A3E02FFFEE38CF24FFCF34FF900B25
:10207D0018F0A3EFF09009A1E0FEA3E0FF123434B5
:10208D00E49009B0F0A3F09009B2E0FEA3E0FF9058
:10209D0009B0E0FCA3E0FDC39FEC9E40030222616A
:1020AD009009AAE0641060030222619009A5E07511
:1020BD00F010A42440F582E5F03403F583E5822D7C
:1020CD00F582E5833CF583E09009ACF0E49009AE30
:1020DD00F09009AEE0FFC39408400302223090094E
:1020ED00ABE060030221AC9009ADE054077064FED3
:1020FD0004A807088005C333CE33CED8F9FF900965
:10210D00ACE0FDEF5D60059009A680039009A8E0A5
:10211D00FCA3E0FDECFF9009AEE0FE25E024B6F552
:10212D0082E43409F583EFF0EE25E024B7F582E47F
:10213D003409F583EDF09009AFE004F09009ADE0BE
:10214D00FF9009AFE08FF084E5F06003022227F0E5
:10215D000222309009AEE0FF7E007401A8070880CE
:10216D0005C333CE33CED8F9FF9009ACE0FDEF5D5A
:10217D0060059009A680039009A8E0FEA3E0FF1278
:10218D0034759009AFE004F09009ADE0FF9009AF10
:10219D00E08FF084E5F06003022227F002223090F8
:1021AD0009AEE0FF7E007401A807088005C333CE99
:1021BD0033CED8F9FF9009ACE0FDEF5D60149009C6
:1021CD00A1E0FEA3E0FFA3E0FCA3E0FD9009A612B1
:1021DD0032B99009A2E004F070069009A1E004F074
:1021ED009009B4E0FEA3E0FFC39009A2E09FFD902B
:1021FD0009A1E09EFC9009ADE07A00B5051CEAB599
:10220D0004189009A1EEF0A3EFF09009A4E004F0FA
:10221D0070119009A3E004F080099009AEE004F07C
:10222D000220DE9009ADE0540770189009ABE07004
:10223D0012D2CBC2C77B017A0979B67D10FC12335D
:10224D00F1D2C79009B1E004F070069009B0E00436
:04225D00F0022094D7
:01226100225A
:10312700900994EEF0A3EFF0A3ECF0A3EDF0A3EB7E
:10313700F0A3EAF0A3E9F0900998E0FBA3E0FAA373
:10314700E0F9120E2DFB6061900996E0FCA3E0FD0B
:1031570090099BE0FFA3E09009A6CFF0A3EFF090C2
:10316700099DE0FFA3E09009A8CFF0A3EFF0900935
:103177009FE09009AAF09009A0E09009ABF09009B0
:1031870094E0FEA3E0FF121FEA90099FE0C313FF3C
:10319700900995E02FF0900994E03400F090099998
:0A31A700E475F001120E97808E22ED
:07335700C3EF9E14FD7F0A85
:08335E00900B99EFF0A3EDF0D4
:10336600A3120FFA00000001900B9AE0FF14F0EF91
:103376006020A3E0F8A3E0F9A3E0FAA3E0FB900B3A
:1033860099E0FFE4FCFDFE120EC3900B9B120FEEBC
:1033960080D6900B9BE0FCA3E0FDA3E0FEA3E0FF3C
:0133A6002204
:102B5A00900B60EEF0A3EFF0A3ECF0A3EDF0A3EA84
:042B6A00F0A3EBF0F9
:102B6E00E4900B6EF0900B6BE0C313900B6FF0E4E0
:102B7E00900B6CF0900B66E0FF900B6CE0FEC39F29
:102B8E004003022C85123357A804A905AA06AB07E9
:102B9E00900B64E0FEA3E0FFE4FCFD120F4EE47B1D
:102BAE000AFAF9F8120F4E900B6DEBF0A3E0706578
:102BBE00900B66E014FF900B6CE0FEC39F5056A383
:102BCE00E0704C900B6FE0FFEE8FF0A4FF900B6166
:102BDE00E02FFF900B60E035F0FE900B62E0FCA35F
:102BEE00E0FD900B67E0FBA3E09009A6CBF0A3EB12
:102BFE00F0900B69E0FBA3E09009A8CBF0A3EBF0FB
:102C0E00900B6BE09009AAF0E4A3F07B20805C901F
:102C1E000B6E7401F0900B6FE0FF900B6CE08FF079
:102C2E00A4FF900B61E02FFF900B60E035F0FEC02B
:102C3E0007900B62E0FCA3E0FD900B6DE02430FBEF
:102C4E00900B67E0FFA3E09009A6CFF0A3EFF09002
:102C5E000B69E0FFA3E09009A8CFF0A3EFF0900B73
:102C6E006BE09009AAF0E4A3F0D007121FEA900BD4
:072C7E006CE004F0022B8260
:012C8500222C
:0E28C900900B3AEEF0A3EFF0A3ECF0A3EDF0CD
:1028D700900B47E0C313900B4AF0E4FFFE7DC87CE2
:1028E70042900B3EE0F8A3E0F9A3E0FAA3E0FB1265
:1028F700095C120A62900B4BEEF0A3EFF0E4900B29
:1029070048F0900B42E0FF900B48E0FEC39F400366
:10291700022A12123357A804A905AA06AB07900B7F
:102927004BE0FEA3E0FFE4FCFD120F4EE47B0AFA46
:10293700F9F8120F4E900B49EBF0900B42E0FF2491
:10294700FEFE900B48E06E7060EF24FEFFE434FF5C
:10295700FE900B4AE0FD7C00120E85900B3BE02FAA
:10296700FF900B3AE03EFE900B3CE0FCA3E0FD90AD
:102977000B43E0FBA3E09009A6CBF0A3EBF0900B91
:1029870045E0FBA3E09009A8CBF0A3EBF0900B4741
:10299700E09009AAF0E4A3F07B2E121FEA900B48FF
:1029A700E004F0900B42E004F0900B4AE0FF900B3C
:1029B70048E08FF0A4FF900B3BE02FFF900B3AE02D
:1029C70035F0FEC007900B3CE0FCA3E0FD900B49FF
:1029D700E02430FB900B43E0FFA3E09009A6CFF083
:1029E700A3EFF0900B45E0FFA3E09009A8CFF0A379
:1029F700EFF0900B47E09009AAF0E4A3F0D007129C
:0B2A07001FEA900B48E004F0022909D0
:012A120022A1
:10277B00900B4DEEF0A3EFF0A3ECF0A3EDF0A3EA7A
:04278B00F0A3EBF0DC
:10278F00900B5C120FFA00000000900B4FE0FCA3BF
:10279F00E0FDA3E0FEA3E0FF900B4DE0FAA3E02FD6
:1027AF00FFEA3ECF24FFFBEF34FFFA900B53E0FE1E
:1027BF00A3E0FF900B4FE0F8A3E02FFFE83ECF24FC
:1027CF00FFCF34FF900B18F0A3EFF0900B4DE0FE0E
:1027DF00A3E0FF123434E4900B58F0A3F0900B51A8
:1027EF00E0FEA3E0FFC3900B59E09F900B58E09ED3
:1027FF0040030228C8E4900B5AF0A3F0900B53E06B
:10280F00FEA3E0FFC3900B5BE09F900B5AE09E404E
:10281F00030228B4E47F02FEFDFC900B5CE0F8A3FA
:10282F00E0F9A3E0FAA3E0FB120EC3900B55E0FB17
:10283F00A3E0FAA3E0F98F828E83120E46FF1235C2
:10284F00A4E47F02FEFDFC900B5CE0F8A3E0F9A38B
:10285F00E0FAA3E0FB120EC3EF2401FFE43EFE906B
:10286F000B55E0FBA3E0FAA3E0F98F828E83120EE3
:10287F0046FF1235A4900B5CE0FCA3E0FDA3E0FE45
:10288F00A3E02401FFE43EFEE43DFDE43CFC900B9D
:10289F005C120FEE900B5BE004F07006900B5AE0A9
:1028AF0004F002280B900B59E004F060030227ECB0
:0928BF00900B58E004F00227EC34
:0128C80022ED
:102C8600900986EEF0A3EFF0A3ECF0A3EDF0A3EB32
:072C9600F0A3EAF0A3E9F04E
:102C9D00E4900993F090098AE0FBA3E0FAA3E0F930
:102CAD00900993E0F582758300120E467003022D94
:102CBD0097C39480900988E0FCA3E0FD505C9009D7
:102CCD0093E0FF7E00E92FF9EE3AFA90098DE0FFCF
:102CDD00A3E090099BCFF0A3EFF090098FE0FFA345
:102CED00E090099DCFF0A3EFF0900991E090099F3E
:102CFD00F0900992E09009A0F0900986E0FEA3E023
:102D0D00FF123127900991E0C313FF900987E02F3F
:102D1D00F0900986E03400F08067A3E0FBA3E0FAB1
:102D2D00A3E0F9900993E0FF7E00E92FF9EE3AFA5E
:102D3D0090098DE0FFA3E090099BCFF0A3EFF090F9
:102D4D00098FE0FFA3E090099DCFF0A3EFF090096C
:102D5D0091E090099FF0900992E09009A0F0900900
:102D6D0086E0FEA3E0FF1225F0900991E0FF9009A7
:102D7D0087E02FF0900986E03400F0900993E0048D
:0A2D8D00F0900993E004F0022CA27C
:012D97002219
:102FF800900930EEF0A3EFF0A3ECF0A3EDF0A3EA14
:04300800F0A3EBF056
:10300C009009837401F0A37409F0A3743DF0900946
:10301C003AE0F9A3E0FAA3E0900986C9F0A3EAF03C
:10302C00A3E9F0900983E0F9A3E0FAA3E090098901
:10303C00C9F0A3EAF0A3E9F07B017A0979651233B0
:10304C00A7900983E4F0A3F0A3F0900932E0FCA36D
:10305C00E0FD7B017A097965A3E0FFA3E090098D7F
:10306C00CFF0A3EFF0900936E0FFA3E090098FCFEB
:10307C00F0A3EFF0900938E0900991F0900939E055
:0F308C00900992F0900930E0FEA3E0FF022C863D
:0434BF007F017E000B
:1034C300EF1F70011E144E601100000075080B758C
:0A34D30009BED509FDD508FA80E610
:0134DD0022CC
:0835AE00C2C712352DD2C7225D
:0A35A400D2CBC2C712352DD2C722C8
:05347000E0FEA3E0FFF7
:04347500AD07AC06ED
:10347900EC900B1AF0A3EFF0D2CBC2C7900B1AE075
:0E348900FF12352D900B1BE0FF12352DD2C720
:013497002212
:0835B600C2CB1235AED2CB22CC
:10343400900B12EEF0A3EFF0A3ECF0A3EDF0A3EAEF
:10344400F0A3EBF07F2A1235B6900B121234709071
:103454000B161234707F2B1235B6900B1412347085
:0C346400900B181234707F2C1235B62229
:102A1300C2C01234BFD2C01234BFD2C81234BF7F77
:102A2300111235B67F0C7E001234C37F361235B6D1
:102A3300E4FF1235A47F3A1235B67F051235A47F21
:102A4300B21235B67F0C1235A47F0C1235A4E4FF05
:102A53001235A47F331235A47F331235A47FB71206
:102A630035B67F351235A47FBB1235B67F191235C3
:102A7300A47FC01235B67F2C1235A47FC21235B69F
:102A83007F011235A47FC31235B67F121235A47F9E
:102A9300C41235B67F201235A47FC61235B67F0F18
:102AA3001235A47FD01235B67FA41235A47FA112AC
:102AB30035A47FE01235B67FD01235A47F041235DA
:102AC300A47F0D1235A47F111235A47F131235A4F0
:102AD3007F2B1235A47F3F1235A47F541235A47F78
:102AE3004C1235A47F181235A47F0D1235A47F0B29
:102AF3001235A47F1F1235A47F231235A47FE11260
:102B030035B67FD01235A47F041235A47F0C12355D
:102B1300A47F111235A47F131235A47F2C1235A480
:102B23007F3F1235A47F441235A47F511235A47F11
:102B33002F1235A47F1F1235A47F1F1235A47F20C7
:102B43001235A47F231235A47F211235B67F1112CB
:072B530035B67F290235B6FB
:10095C00EC4D6011E8497017ED33EC3304600DE495
:10096C00FCFFFEFD22E933E8330470F8020ACE12D4
:10097C000A9958046009E4CC2481500628500902D5
:10098C000AD8284003020AD5C0E0EB4A7044B9806B
:10099C0006D0E0FB020AC4EF4E701CBD8008EBFFD2
:1009AC00EAFEE9FD80EBE98DF0A4FEE5F0020A45D4
:1009BC00E9CDF9EAFEEBFFEF89F0A4FCE5F0CE8976
:1009CC00F0A42EFFE435F0CD89F0A42DFEE435F033
:1009DC008067EF4E7005BD80D780C3EF8BF0A4AC61
:1009EC00F0EE8BF0A42CFCE435F0F8EF8AF0A42C9C
:1009FC00E5F038FCE433CB8DF0A42CFCE5F03BF8AF
:100A0C00EE8AF0A42CFCE5F038F8E433CF89F0A49E
:100A1C002CFCE5F038CF3400CE89F0A42FFFE5F0A4
:100A2C003EFEE433C98DF0A42EFEE5F039CD8AF0FC
:100A3C00A42FFFE5F03EFEE43DFD33D0E0FB500774
:100A4C000BBB000F020AD8EC2CFCEF33FFEE33FE8D
:060A5C00ED33FD020AB0BB
:100A6200EDD2E7CD33EC3392D524814006E4FFFE8C
:100A7200FDFC22FCE4CFCECDCC24E0501174FF80EB
:100A8200EDC3CC13CCCD13CDCE13CECF13CF047088
:070A9200F030D5DE020FE099
:1033A700900986E0FFA3E0FEA3E0CF90098FF0A38A
:1033B700EEF0A3EFF0900989E0CBF0A3E0CAF0A309
:1033C700E0C9F07F22900992AD82AC83120E2D8D59
:1033D700828C83F0A309E970010ADFEC900989E088
:0A33E700FBA3E0FAA3E0F90210E2F4
:100A9900E9D2E7C933E833F892D5EDD2E7CD33ECA3
:070AA90033FC5002B2D5221C
:100AB000EC30E7100FBF000C0EBE00080DBD0004A7
:100AC0000BEB6014A2D5EB13FCED92E7FD2274FF53
:100AD000FCFDFEFF22E480F8A2D574FF13FC7D80AC
:030AE000E480EFC0
:10107D00E508248FF582E43409F583E00508229014
:10108D00098C30070390098FE475F00112103702B7
:10109D000E2D2000E97F2ED2008018EF540F2490E2
:1010AD00D43440D4FF30040BEF24BFB41A005003E6
:1010BD002461FFE50960021509050CE50C700205B8
:1010CD000B30070E90098CE475F001121037EF020A
:1010DD000E730234987403D2078003E4C207F50837
:1010ED0090098C12104EE4F509F50BF50CE509602D
:1010FD00077F201210C080F5750AFFC201C200C221
:10110D0002C203C205C206C20812108CFF700D3058
:10111D0007057F001210D1AF0CAE0B22B4255FC2B4
:10112D00D5C20412108CFF24D0B40A00501A75F0E9
:10113D000A780930D50508B6FF0106C6A426F620A3
:10114D00D5047002D20380D924CFB41A00EF500415
:10115D00C2E5D2040213C3D20180C6D20080C0D230
:10116D000280BCD2D580BAD20580B47F201210C0C7
:10117D002002077401B5090040F112107DFF121015
:10118D00C00210FAD208D206809512107DFB121003
:10119D007DFA12107DF94A4B700679C17A147BFFE6
:1011AD0020022EE509602A7E008E82758300120EC4
:1011BD004660060EEE650A70F0C2D5EBC0E0EAC0DF
:1011CD00E0E9C0E0EE121424D0E0F9D0E0FAD0E06E
:1011DD00FB120E2DFF60AAEBC0E0EAC0E0E9C0E013
:1011ED001210C0D0E02401F9D0E03400FAD0E0FBB9
:1011FD00E50A0460DCD50AD98087D20280A21214D8
:10120D000660F7E50A700104120AE3A90A600DE50C
:10121D000A600914F50A1214AEEF60F3EA30E70222
:10122D00F404C3995079EAF4250A0430E701E40483
:10123D00F50A800D12140660C1EA050A250A120A84
:10124D00E3EA9009BBF030E701E4250A04D50A046E
:10125D0020050114121424E4C0E01214AE9009BB51
:10126D00E0601320E70714F01210A8802204F0D0DC
:10127D00E014C0E07F001210A8E50A600712109F6D
:10128D00150A800B30050312109FD0E00210FAD022
:10129D00E00480C4121406609EE50A04120AE3906D
:1012AD0009BBEAF0E50A20050260010424041214CA
:0112BD00240C
:1012BE0074FF04C0E01214AE1210A8E50A20050255
:1012CE00600312109FD0E0B50AE87F451210B2906D
:1012DE0009BBE07F2B30E7047F2DF404C0E0121031
:1012EE00C0D0E075F00A84C0F01210A9D0E0121040
:1012FE00A90210FA791080027908C206C208800885
:10130E00D2D5790A8004790AC2D5E50A047002F5AD
:10131E000AE4FAFDFEFF12107DFC7B082001131279
:10132E00107DFD7B1030000A12107DFE12107DFF25
:10133E007B20EC3382D592D55013C3E43000069F48
:10134E00FFE49EFEE42001039DFDE49CFCE4CBF84B
:10135E00C201EC700CCFCECDCCE824F8F870F3803F
:10136E0017C3EF33FFEE33FEED33FDEC33FCEB33FF
:10137E00FB994002FB0FD8E9EB300105F8D0E0C431
:10138E0048B201C0E00AEC4D4E4F78207B0070C28F
:10139E00EAB50A0040BCC0E0121426D0F0D0E0201E
:1013AE000104C4C0E0C4B201C0F01210A9D0F0D53F
:1013BE00F0EB0210FA1210571197531302581168DE
:1013CE004C11644213064F130E44130E49117D4304
:1013DE0013145512414612A145120B4714E1501138
:1013EE006C2D11702E11932B11742311912014CA90
:1013FE002A112C480000118BE50AB4FF03750A066A
:10140E0012107DFC12107DFD12107DFE12107DFF5C
:10141E009009B4020B20790AA2D5200314300509D5
:10142E00B910020404B9080104A2D5200602500125
:10143E00042002689202B509005034C0E07F2030CB
:10144E0003197F30A20272067205500F12147DC26C
:10145E0002C206C205C2087F30800F300503E9C004
:10146E00E01210C0300503D0E0F9D0E0B509CC3061
:10147E0005177F30B9100C1210C07F583004077F4B
:10148E00788003B908031210C03002057F2D0210B8
:10149E00C07F202008F87F2B2006F322920280CFF7
:1014AE007F00B40700500B24B4F582E43409F583B1
:1014BE00E0FF22286E756C6C2900D20112107D306F
:1014CE0001F8C201780930D50108F602112C2D5011
:1014DE0043495812107D2403B405004001E49014D2
:1014EE00DC931210B1743A1210B1D20375090402D2
:0214FE001302D7
:100AE300F920E73624F950037907E4F42402FBE5FF
:100AF30082158270021583DBF6E024FB501BE9604C
:100B030014E4F0E582158270021583E004F0B40A60
:0D0B130008E4F0D9EE7401F00A22C2D522E8
:100B2000ED33EC3392D5FA602AB4FF33EDC2E77BA4
:100B3000FF60067A0B7945E4227A0B794E20D504C2
:100B40007A0B7949224E614E002B494E46002D49C1
:100B50004E4600E47A08F0A3DAFC7B00740722C05A
:100B600083C082ECC0E0EDC0E0EEC0E0EFC0E0EAA0
:100B700075F010A4CAABF075F04DA42BFBE435F072
:100B8000FCEA2410FAEB34C5FBEC34D9FCEDC2E7E7
:100B9000FF75F056A4F42411C5F0F434C58FF0A409
:100BA0002AE5F03BE43CF020E714120DEDD0E0FF25
:100BB000D0E0FED0E0FDD0E0FC120D208014F40463
:100BC000120DEDD0E0FFD0E0FED0E0FDD0E0FC1251
:100BD000095CD082D083E0FAEDD2E7CD33EC332448
:100BE00082FBE4C3CF33CFCE33CECD33CD33DBF373
:100BF0007B0775F00A846004F0A31B0AE5F0F0A3FC
:100C00008FF0740AA4FFACF08EF0740AA42CFEAC32
:100C1000F050010C8DF0740AA42CFDE435F0F0A323
:050C2000DBDE74072279
:100C2500020ACEE86480F8E933E83360110460F025
:100C3500ED33EC337009E8FCE9FDEAFEEBFF220435
:100C450060DED3EB9FEA9EE99DE8C2E78CF0C2F730
:100C550095F0400CE8CCF8E9CDF9EACEFAEBCFFBFC
:100C6500120A9985D0F05804700320D5B3E80470B2
:100C7500075002B2D5020AD892D5EC0460F7E4CC4D
:100C8500C0E0C398F8603B94186008400DD0E0FBC5
:100C9500020AB0E4FBFAC9FC8028E830E406E4C99E
:100CA500FBE4CAFCE830E305E4C9CACBFCE8540719
:100CB5006010F8C3E913F9EA13FAEB13FBEC13FC24
:100CC500D8F130F52FC3E49CFCEF9BFFEE9AFEEDC7
:100CD50099FDD0E0FBEF4E4D4C701222DB03020A6A
:100CE500D5EC2CFCEF33FFEE33FEED33FDED30E7B5
:100CF500EB020AB0EF2BFFEE3AFEED39FDD0E0FB3B
:100D050050130BBB0003020AD8ED13FDEE13FEEFE3
:080D150013FFEC13FC020AB00D
:100D1D00020AD8EC5D046005E859047003020ACE9E
:100D2D00120A99580460F6EC4860F2EC7004FDFE6E
:100D3D00FF22C860DB2481C85009C39860025006A9
:100D4D00020AD59850CAF582E9294B4A7005AB8243
:100D5D00020AC475F0007C1A7880C3EF9BEE9AED01
:100D6D0099400DC3EF9BFFEE9AFEED99FDE842F021
:100D7D00DC23ACF0D0E0FFD0E0FED0E0FDAB822074
:100D8D00E7101BEB60BAEC2CFCEF33FFEE33FEEDFE
:100D9D0033FD020AB0E803F830E705C0F075F00046
:100DAD00EF2FFFEE33FEED33FD40B830E7C280AAE2
:100DBD003F8000004120000042C80000447A00003E
:100DCD00461C400047C35000497424004B189680C0
:100DDD004CBEBC205A0E1BCA6753C21C749DC5AEB7
:100DED00FB60065407601C2323120E1BEB54386066
:100DFD0009120E07120E1612095CECF8EDF9EEFA57
:100E0D00EFCB22EB120E1680F1543803241C900DFB
:100E1D00BDFE93FC0EEE93FD0EEE930ECE93FF22D0
:0300000002309B30
:0C309B00787FE4F6D8FD7581210230E258
:100E2D00BB010689828A83E0225002E722BBFE02C3
:090E3D00E32289828A83E49322F6
:100E4600BB010CE58229F582E5833AF583E0225061
:100E560006E92582F8E622BBFE06E92582F8E222AB
:0D0E6600E58229F582E5833AF583E49322C5
:100E7300BB010689828A83F0225002F722BBFE015E
:020E8300F32258
:100E8500EF8DF0A4A8F0CF8CF0A428CE8DF0A42E81
:020E9500FE223B
:100E9700C5F0F8A3E028F0C5F0F8E58215827002E6
:060EA7001583E038F02283
:100EAD00A3F8E0C5F025F0F0E582158270021583F8
:060EBD00E0C838F0E82255
:100EC300E88FF0A4CC8BF0A42CFCE98EF0A42CFCCE
:100ED3008AF0EDA42CFCEA8EF0A4CDA8F08BF0A44C
:100EE3002DCC3825F0FDE98FF0A42CCD35F0FCEBAB
:100EF3008EF0A4FEA9F0EB8FF0A4CFC5F02ECD3970
:0F0F0300FEE43CFCEAA42DCE35F0FDE43CFC22DC
:100F120075F008758200EF2FFFEE33FECD33CDCC96
:100F220033CCC58233C5829BED9AEC99E582984019
:100F32000CF582EE9BFEED9AFDEC99FC0FD5F0D6F6
:100F4200E4CEFBE4CDFAE4CCF9A88222B800C1B920
:100F52000059BA002DEC8BF084CFCECDFCE5F0CB5E
:100F6200F97818EF2FFFEE33FEED33FDEC33FCEB97
:100F720033FB10D703994004EB99FB0FD8E5E4F952
:100F8200FA227818EF2FFFEE33FEED33FDEC33FC3F
:100F9200C933C910D7059BE99A4007EC9BFCE99A33
:100FA200F90FD8E0E4C9FAE4CCFB2275F010EF2F78
:100FB200FFEE33FEED33FDCC33CCC833C810D70778
:100FC2009BEC9AE899400AED9BFDEC9AFCE899F8B3
:0E0FD2000FD5F0DAE4CDFBE4CCFAE4C8F92246
:0E0FE000C3E49FFFE49EFEE49DFDE49CFC2222
:0C0FEE00ECF0A3EDF0A3EEF0A3EFF02276
:100FFA00A8828583F0D083D08212101112101112A8
:10100A001011121011E473E493A3C583C5F0C583CC
:10101A00C8C582C8F0A3C583C5F0C583C8C582C840
:01102A0022A3
:0C102B00A42582F582E5F03583F58322D0
:10103700F8E0FBA3A3E0F925F0F0E5821582700242
:071047001583E0FA38F022E6
:09104E00EBF0A3EAF0A3E9F022A3
:10105700D083D082F8E4937012740193700DA3A328
:1010670093F8740193F5828883E47374029368603C
:06107700EFA3A3A380DF3C
:10349800EFB40A07740D1234A3740A309811A8996E
:1034A800B8130CC2983098FDA899C298B811F63094
:0734B80099FDC299F599226C
:1030A700022E7EE493A3F8E493A34003F68001F293
:1030B70008DFF48029E493A3F85407240CC8C3332A
:1030C700C4540F4420C8834004F456800146F6DFF9
:1030D700E4800B010204081020408090000EE47E7B
:1030E700019360BCA3FF543F30E509541FFEE493EE
:1030F700A360010ECF54C025E060A840B8E493A3B5
:10310700FAE493A3F8E493A3C8C582C8CAC583CADF
:10311700F0A3C8C582C8CAC583CADFE9DEE780BE97
:01095B00009B
:00000001FF
