:10335D00CFB5CDB3C6F4B6AFD6D00020204C6F613B
:10336D006420616E6420496E697469616C697A616B
:10337D0074696F6E2E2E2E0073746174653A256418
:01338D00003F
:05000300420AF60000B6
:1033FC00E4F593F594F591F592F595F596F5B1F50F
:0A340C00B2F5B3F5B4F5C9F5CA2214
:102DCE001233FC123446122963E4FFFE1230F5E48E
:102DDE009008AEF0A3F0A37418F0E4A3F0A374FF70
:102DEE00F0A37433F0A3745DF074FFFBFA7D647C82
:102DFE00007F3C7E00122F3C7BFF7A33796874FF94
:102E0E00900913F0A3F0E4A3F0A3F0A37410F0E480
:102E1E00A3F07DDCFCFFFE12306BE4FFFE1230F5FA
:102E2E0020950A900AF6E4F0A304F0800A30950784
:102E3E00E4900AF6F0A3F090090774FFF0A3743340
:102E4E00F0A37485F0900AF6E0FFA3E090090ACF94
:102E5E00F0A3EFF07B017A0A79F81210347B017A35
:102E6E000A79F874FF900913F0A3F0E4A3F0A3F02D
:102E7E00A37410F0E4A3F07D78FC7F50FE12306B4B
:022E8E00809E24
:1000080065F002B8000000000000000000000000D9
:1000180000000000000000080808080808080000A0
:100028001818000000486C241200000000000000AE
:10003800000000000000002424247F1212127F1206
:10004800121200000000081C2A2A0A0C1828282A64
:100058002A1C080800000022251515152A58545492
:10006800542200000000000C1212120A76252911F1
:10007800916E000000060604030000000000000066
:1000880000000000004020101008080808080810A8
:10009800102040000002040808101010101010086A
:1000A800080402000000000008086B1C1C6B08080C
:1000B8000000000000000000080808087F08080881
:1000C8000800000000000000000000000000000020
:1000D800060604030000000000000000FE00000007
:1000E8000000000000000000000000000000000008
:1000F8000606000000008040402020101008080478
:1001080004020200000000182442424242424242D5
:1001180024180000000000080E080808080808084D
:10012800083E00000000003C424242202010080423
:10013800427E00000000003C42422018204040421D
:10014800221C0000000000203028242422227E20C7
:10015800207800000000007E0202021A2640404279
:10016800221C0000000000382402021A26424242E3
:10017800241800000000007E222210100808080839
:10018800080800000000003C424242241824424271
:10019800423C00000000001824424242645840409B
:1001A800241C0000000000000000181800000000D7
:1001B80018180000000000000000000800000000FF
:1001C8000008080400000040201008040204081079
:1001D800204000000000000000007F0000007F00B9
:1001E8000000000000000002040810204020100851
:1001F800040200000000003C42424640201010006B
:10020800181800000000001C225A555555552D425B
:10021800221C00000000000808181414243C224284
:1002280042E700000000001F2222221E2242424212
:10023800221F00000000007C42420101010101422E
:10024800221C00000000001F224242424242424259
:10025800221F00000000003F4212121E121202422A
:10026800423F00000000003F4212121E121202021A
:10027800020700000000003C222201010171212236
:10028800221C0000000000E7424242427E424242F5
:1002980042E700000000003E0808080808080808AF
:1002A800083E00000000007C101010101010101004
:1002B8001010110F0000007722120A0E0A121222E3
:1002C8002277000000000007020202020202020276
:1002D800427F000000000077363636362A2A2A2A5E
:1002E8002A6B0000000000E346464A4A5252526216
:1002F800624700000000001C224141414141414148
:10030800221C00000000003F424242423E0202021C
:10031800020700000000001C2241414141414D53A9
:10032800321C60000000003F4242423E121222226C
:1003380042C700000000007C4242020418204042EC
:10034800423E00000000007F490808080808080825
:10035800081C0000000000E742424242424242427A
:10036800423C0000000000E74242222424141418F2
:10037800080800000000006B4949494955553622D4
:1003880022220000000000E7422424181818242420
:1003980042E7000000000077222214140808080829
:1003A800081C00000000007E2120101008040442F0
:1003B800423F0000007808080808080808080808EC
:1003C8000808780000000202040408080810102039
:1003D80020204040001E1010101010101010101097
:1003E80010101E000038440000000000000000004B
:1003F80000000000000000000000000000000000F5
:10040800000000FF000608000000000000000000D7
:1004180000000000000000000000003C4278444258
:1004280042FC0000000000030202021A2642424277
:10043800261A0000000000000000003844020202F2
:100448004438000000000060404040784442424286
:1004580064D80000000000000000003C427E020258
:10046800423C0000000000F08808087E08080808E0
:10047800083E0000000000000000007C22221C0250
:100488003C42423C000000030202023A4642424219
:1004980042E700000000000C0C00000E08080808E5
:1004A800083E0000000000303000003820202020E6
:1004B8002020221E0000000302020272120A1612F5
:1004C800227700000000000E08080808080808083D
:1004D800083E0000000000000000007F9292929207
:1004E80092B70000000000000000003B4642424274
:1004F80042E70000000000000000003C4242424287
:10050800423C0000000000000000001B264242425E
:10051800221E020700000000000000784442424208
:10052800447840E000000000000000774C04040418
:10053800041F0000000000000000007C42023C4054
:10054800423E0000000000000008083E08080808B5
:1005580008300000000000000000006342424242F0
:1005680062DC000000000000000000E742242414C0
:100578000808000000000000000000EB494955553C
:10058800222200000000000000000076241818183D
:10059800246E000000000000000000E7422424143C
:1005A80018080807000000000000007E2210080854
:1005B800447E000000C02020202020102020202081
:1005C8002020C00010101010101010101010101063
:1005D8001010101000060808080808100808080875
:1005E800080806000C32C2000000000000000000ED
:1005F800000000005A0000D6D0200020002000FE95
:1006080003220222022202FE0322022000200020EE
:100618000060AA020ECFB5001CFE032000200810BF
:1006280004FC03800040042008FC1F801090049004
:10063800088810A4104000CDB3080108020412E491
:100648003F12019F084810E43F82249F04820480DF
:10065800045844474422781000C6F480000021F86A
:100668007F082008200820F83F08000820F87F1895
:1006780020142014201220F13F1020B6AF000210E1
:10068800023E020022A07F7F2208220822042224A0
:100698002242217F218220802040142008D6D08049
:1006A8000080008020FE7F8220822082208220FE1F
:1006B8003F822080008000800080008000800061F0
:1006C80072009CCFB500000000800FFCFF1FFCFFEC
:1006D8001FF81E00000F03808307C0C103F0FF014D
:1006E800F07F00201C03008F07C0030EF8FF1FF8DF
:1006F800FF3F103810403801C0B907E0380F703894
:100708001E3C383C1C3E18001E00000000CDB30003
:10071800800030C00170800130800338000318FE6B
:100728007F0CFE7F8CE100C6E100FE710EFE380CE6
:10073800601C1C70FE3F38FC7F186033FE6103FEAE
:1007480061033E6003006003803303FC3B23FE1912
:10075800631E1E7F000F7EC6F4003800003800F0CC
:10076800FF3FF0FF3FF0FF3F700038700038700027
:1007780038F0FF3FF0FF3FF0FF3F700000700000CF
:10078800F0FF3FF0FF3FB8FF3FB803389803389CAD
:1007980003388CFF3F8EFF3F86FF3F8403380000FD
:1007A80000B6AF008003008003FC8701FC8701FCD2
:1007B800870100800100F87F00F87FFECF31FECF6F
:1007C80031E0C03160C03170C03170C33030C730E3
:1007D80038E63818E738FC6F38FE7F383E3C380476
:1007E8003C3F001F1F000F0E000600D6D000380047
:1007F800003800003800003800003800F8FF3FF8E3
:10080800FF3FF8FF3F383838383838383838383804
:1008180038383838383838F8FF3FF8FF3FF8FF3FA6
:100828003838380038000038000038000038000038
:1008380038000038006082001AB5E70000000000A8
:1008480000000000E0000000E0000000E000000000
:10085800E0000000E00000F8FFFF03F8FFFF0338A6
:10086800E0800338E0800338E0800338E080033814
:10087800E08003F8FFFF03F8FFFF0338E080033848
:10088800E0800338E0800338E0800338E08003F834
:10089800FFFF03F8FFFF0338E0000038E0000038EE
:1008A800E0000000E0007000E0003800E0013800DF
:0B08B800C0FF3F0080FF1F0000000099
:08317400900B17EEF0A3EFF041
:10317C00900A90E4F0A374EFF0FB7A00E4FDFCFFFE
:10318C00FE123321E4900B19F0A3F0E4900B1BF02A
:10319C00A3F0900B17E0FEA3E0FF123393900B1CEF
:1031AC00E004F07006900B1BE004F0C3900B1CE0E5
:1031BC0094F0900B1BE0940040D8900B1AE004F0B4
:1031CC007006900B19E004F0C3900B1AE094F09089
:0731DC000B19E0940040B460
:0131E30022C9
:0430F500AD07AC0671
:1030F900E4FBFAC3EB94E0EA9401502374AB2BF59B
:103109008274083AF583EDF0ECFF74AA2BF582740A
:10311900083AF583EFF074022BFBE43AFA80D49075
:103129000A90E4F0A374EFF0FB7A00E4FDFCFFFEE3
:10313900123321E49008A8F0A3F0D2CBC2C77B01D7
:103149007A0879AA7DE07C011232DED2C79008A9FB
:10315900E004F070069008A8E004F0C39008A9E024
:0A31690094F09008A8E0940040D014
:013173002239
:102E9000900AE8EEF0A3EFF0A3ECF0A3EDF0A3EAC4
:042EA000F0A3EBF0C0
:102EA400C006C00724FFFBEA34FFFAA3E0FEA3E058
:102EB40024FFFFEE34FF900A90F0A3EFF0D007D088
:102EC40006123321900AEAE0FFA3E0900AF2CFF061
:102ED400A3EFF0900AEEE0FEA3E0FFC3900AF3E054
:102EE4009F900AF2E09E504F900AE8E0FFA3E09022
:102EF4000AF4CFF0A3EFF0900AECE0FEA3E0FFC3E6
:102F0400900AF5E09F900AF4E09E501B900AF0E0CE
:102F1400FEA3E0FF123393900AF5E004F070D8901A
:102F24000AF4E004F080D0900AF3E004F070A49076
:072F34000AF2E004F0809CAA
:012F3B002273
:1031E400900B09FEE0FCA3E0FDC3900B05E09DFD00
:0E31F400900B04E09CFC900B07E0FAA3E0FBBC
:10320200900941EEF0A3EFF0900945EAF0A3EBF04C
:10321200900943ECF0A3EDF0900941E0FAA3E0FB42
:10322200FFAE02C007A3E0FFA3E0900A90CFF0A395
:10323200EFF0D007123321900945E0FEA3E0FF0230
:023242003393C4
:0E21B200900A94EEF0A3EFF0A3ECF0A3EDF092
:1021C000E4900AA0F0A3F0A3F0A3F0900A94E0FE3C
:1021D000A3E0FFC3EB9FFFEA9E900AA4F0A3EFF0F9
:1021E000900A96E0FAA3E0FBC3900A9BE09BFE9066
:1021F0000A9AE09A900AA6F0A3CEF0900A94E0FF23
:10220000A3E0900AAECFF0A3EFF0A3EAF0A3EBF0C7
:10221000900AA4E0FEA3E0FFD39400EE64809480D3
:10222000400A900AAAE4F0A304F08021EF4E70085F
:10223000900AAAF0A3F0801574FF900AAAF0A3F008
:10224000C3E49FFFE49E900AA4F0A3EFF0900AA6D7
:10225000E0FEA3E0FFD39400EE64809480400A90F7
:102260000AACE4F0A304F08021EF4E7008900AACB1
:10227000F0A3F0801574FF900AACF0A3F0C3E49FC4
:10228000FFE49E900AA6F0A3EFF0900AA6E0FEA35A
:10229000E0FF900AA4E0FCA3E0FDD39FEE6480F889
:1022A000EC648098900AA84007ECF0A3EDF080055C
:1022B000EEF0A3EFF0E4900A9EF0A3F0900AA9E0FC
:1022C0002401FF900AA8E03400FEC3900A9FE09F1B
:1022D000900A9EE09E400302239F900AAEE0FEA378
:1022E000E0FFA3E0FCA3E0FD900A9C1231FD900A00
:1022F000A4E0FEA3E0FF900AA1E02FF0900AA0E086
:102300003EF0900AA6E0FEA3E0FF900AA3E02FF0C3
:10231000900AA2E03EF0900AA8E0FEA3E0FF900A37
:10232000A0E0FCA3E0FDD39FEE6480F8EC6480980D
:102330004020ED9FFFEC9E900AA0F0A3EFF0900AE2
:10234000AAE0FEA3E0FF900AAFE02FF0900AAEE013
:102350003EF0900AA8E0FEA3E0FF900AA2E0FCA3F2
:10236000E0FDD39FEE6480F8EC6480984020ED9F00
:10237000FFEC9E900AA2F0A3EFF0900AACE0FEA35F
:10238000E0FF900AB1E02FF0900AB0E03EF0900A32
:0F2390009FE004F07006900A9EE004F00222BC69
:01239F00221B
:102CE800900B11EAF0A3EBF0900B0DEEF0A3EFF0D0
:102CF800A3ECF0A3EDF0C007A3E0FAA3E0FB900B70
:102D08000FE0FFA3E0900A9ACFF0A3EFF0900B1525
:102D1800E0FFA3E0900A9CCFF0A3EFF0D0071221C8
:102D2800B2900B0DE0FAA3E0FBFFAE02C007A3E0F0
:102D3800FCA3E0FD900B13E0FFA3E0900A9ACFF00C
:102D4800A3EFF0900B15E0FFA3E0900A9CCFF0A34F
:102D5800EFF0D0071221B2900B13E0FCA3E0FD9036
:102D68000B11E0FAA3E0FBA3E0FFA3E0900A9ACFDF
:102D7800F0A3EFF0900B15E0FFA3E0900A9CCFF0D2
:102D8800A3EFF0900B0DE0FEA3E0FF1221B2900B31
:102D980011E0FAA3E0FBFFAE02C007900B0FE0FCC6
:102DA800A3E0FD900B13E0FFA3E0900A9ACFF0A3F5
:102DB800EFF0900B15E0FFA3E0900A9CCFF0A3EF93
:062DC800F0D0070221B269
:1023A000900B02EEF0A3EFF0A3ECF0A3EDF0A3EBA3
:0123B000F03C
:1023B100E4900B09F0A3F0EBFFA3E4F0A3EFF0909E
:1023C1000B0BE0FEA3E0FFD3900B0AE09FEE6480CD
:1023D100F8900B09E0648098400302253FC3900BFD
:1023E10003E09FFF900B02E09E1231E4900B0BE0A3
:1023F100FEA3E0FF900B03E02FFF900B02E03E12E3
:1024010031E4900B09E0FEA3E0FFC3900B03E09FD2
:10241100FF900B02E09EFE900B0BE0FCA3E0FD9011
:102421000B05E02DFD900B04E03C1231F9900B09F6
:10243100E0FEA3E0FFC3900B03E09FFF900B02E0DF
:102441009E900B0B1231E7900B0BE0FEA3E0FF9087
:102451000B03E02FFF900B02E03EFE900B09E0FC26
:10246100A3E0FD900B05E02DFD900B04E03C123143
:10247100F9900B09E0FEA3E0FF900B03E02FFF9022
:102481000B02E03EFE900B0B1231E8900B09E0FECF
:10249100A3E0FF900B03E02FFF900B02E03EFE90C4
:1024A1000B0BE0FCA3E0FD900B05E02DFD900B0470
:1024B100E03C1231F9900B0BE0FEA3E0FFC3900B5F
:1024C10003E09FFF900B02E09EFE900B09E0FCA34E
:1024D100E0FD900B05E02DFD900B04E03C1231F97D
:1024E100900B0AE004F07006900B09E004F0900BE9
:1024F1000BE0FCA3E0FDFFAE04120DEDAA06AB0755
:10250100900B09E0FCA3E0FDFFAE04120DEDEF2BF3
:10251100FDEE3AFC900B06E0F5F0A4FFD3ED9FE54C
:10252100F06480F8EC64809850030223C0900B0C97
:0E253100E024FFF0900B0BE034FFF00223C01B
:01253F002279
:1025400090090CEEF0A3EFF0A3ECF0A3EDF0A3EBF9
:10255000F0A3EAF0A3E9F0900910E0FBA3E0FAA3EE
:10256000E0F9120D9570030226CA900917E0640C79
:10257000704490090EE0FCA3E0FD900913E0FFA376
:10258000E0900920CFF0A3EFF0900915E0FFA3E061
:10259000900922CFF0A3EFF0900917E0900924F002
:1025A000900918E0900925F090090CE0FEA3E0FFE7
:1025B0001219C80226AB900917E06410704B9009FD
:1025C0000EE0FCA3E0FDA3E0FBA3E0FAA3E0F9A387
:1025D000E0FFA3E0900920CFF0A3EFF0900915E011
:1025E000FFA3E0900922CFF0A3EFF0900917E0904D
:1025F0000924F0900918E0900925F090090CE0FEFC
:10260000A3E0FF12170E0226AB900917E0641870C2
:102610004A90090EE0FCA3E0FDA3E0FBA3E0FAA3CF
:10262000E0F9A3E0FFA3E0900920CFF0A3EFF09042
:102630000915E0FFA3E0900922CFF0A3EFF0900985
:1026400017E0900924F0900918E0900925F090090E
:102650000CE0FEA3E0FF1214528050900917E064D2
:1026600020706790090EE0FCA3E0FDA3E0FBA3E06F
:10267000FAA3E0F9A3E0FFA3E0900920CFF0A3EFD5
:10268000F0900915E0FFA3E0900922CFF0A3EFF04E
:10269000900917E0900924F0900918E0900925F0BE
:1026A00090090CE0FEA3E0FF121C81900911E47573
:1026B000F002120DFF900917E0FF90090DE02FF0D6
:0B26C00090090CE03400F002255722C6
:1019C80090091BECF0A3EDF0A3EBF0A3EAF0A3E978
:0919D800F0900919EEF0A3EFF004
:1019E100E4900928F090092FEEF0A3EFF09009247C
:1019F100E0FF131313541FFD7C00EF54077E0060BA
:101A0100047F0180027F00EF2DFFEE3CFE90092450
:101A1100E0FD7C00120DED90092DEEF0A3EFF090AA
:101A2100092BE4F0A304F0E4900929F0A3F0900954
:101A31002BE0FEA3E0FF900929E0FCA3E0FDC39F9A
:101A4100EC9E4003021C8090091DE0FBA3E0FAA379
:101A5100E0F9120D95FF90000075F01AED120F7D5F
:101A6100EC75F01AA42583F583E06F6003021C6F07
:101A7100900001120DAEFF900929A3E090000175BD
:101A8100F01A120F7DEC75F01AA42583F583E06F2F
:101A91006003021C6F90091BE0FCA3E0FD90092488
:101AA100E0F9FF7E00900919E0FAA3E02FFFEE3A7A
:101AB100CF24FFFBEF34FFFAE9FFA3E0F8A3E02F07
:101AC100FFEE38CF24FFCF34FF900A90F0A3EFF060
:101AD100900919E0FEA3E0FF123321E4900926F0FA
:101AE100900926E0FFD390092EE09F90092DE09404
:101AF100005003021C6FE4900927F0900925E06073
:101B010003021B9A900929A3E075F01AA42402F597
:101B110082E43400F583C083C082900926E0D0823C
:101B2100D0832582F582E43583F583E0FD7C009046
:101B31000927E0FF7E007401A807088005C333CEA2
:101B410033CED8F9FFEE5CFEEF5D4E6005900920C3
:101B51008003900922E0FCA3E0FDECFF900927E05F
:101B6100FE25E02431F582E43409F583EFF0EE251A
:101B7100E02432F582E43409F583EDF0900928E0A0
:101B810004F0900924E0FF900928E08FF084E5F04B
:101B91006003021C3FF0021C4E900929A3E075F07E
:101BA1001AA42402F582E43400F583C083C0829034
:101BB1000926E0D082D0832582F582E43583F5833E
:101BC100E0FD7C00900927E0FF7E007401A8070872
:101BD1008005C333CE33CED8F9FFEE5CFEEF5D4E08
:101BE1006014900919E0FEA3E0FFA3E0FCA3E0FD6F
:101BF1009009201231FD90091AE004F07006900955
:101C010019E004F090092FE0FEA3E0FFC390091A48
:101C1100E09FFD900919E09EFC900924E07A00B54F
:101C2100051CEAB50418900919EEF0A3EFF090092C
:101C31001CE004F0701790091BE004F0800F90097C
:101C410027E004F0E0C394085003021AFC90092530
:101C5100E07012D2CBC2C77B017A0979317D10FCC9
:101C61001232DED2C7900926E004F0021AE190098F
:0F1C71002AE004F07006900929E004F0021A2F0F
:011C80002241
:10170E0090091BECF0A3EDF0A3EBF0A3EAF0A3E934
:09171E00F0900919EEF0A3EFF0C0
:10172700E4900928F090092FEEF0A3EFF090092438
:10173700E0FF131313541FFD7C00EF54077E006076
:10174700047F0180027F00EF2DFFEE3CFE9009240D
:10175700E0FD7C00120DED90092DEEF0A3EFF09067
:10176700092BE4F0A37405F0E4900929F0A3F090A5
:10177700092BE0FEA3E0FF900929E0FCA3E0FDC3ED
:101787009FEC9E40030219C790091DE0FBA3E0FAF6
:10179700A3E0F9120D95FF90020E75F022ED120FDE
:1017A7007DEC75F022A42583F583E06F60030219B1
:1017B700B6900001120DAEFF900929A3E090020F29
:1017C70075F022120F7DEC75F022A42583F583E0D6
:1017D7006F60030219B690091BE0FCA3E0FD9009B6
:1017E70024E0F9FF7E00900919E0FAA3E02FFFEE4D
:1017F7003ACF24FFFBEF34FFFAE9FFA3E0F8A3E0B9
:101807002FFFEE38CF24FFCF34FF900A90F0A3EFDD
:10181700F0900919E0FEA3E0FF123321E4900926B6
:10182700F0900926E0FFD390092EE09F90092DE064
:10183700940050030219B6E4900927F0900925E0B7
:1018470060030218E1900929A3E075F022A424108F
:10185700F582E43402F583C083C082900926E0D084
:1018670082D0832582F582E43583F583E0FD7C0011
:10187700900927E0FF7E007401A807088005C3339D
:10188700CE33CED8F9FFEE5CFEEF5D4E60059009D2
:10189700208003900922E0FCA3E0FDECFF900927DC
:1018A700E0FE25E02431F582E43409F583EFF0EE1C
:1018B70025E02432F582E43409F583EDF090092818
:1018C700E004F0900924E0FF900928E08FF084E518
:1018D700F06003021986F0021995900929A3E075B3
:1018E700F022A42410F582E43402F583C083C08279
:1018F700900926E0D082D0832582F582E43583F5EE
:1019070083E0FD7C00900927E0FF7E007401A807B3
:10191700088005C333CE33CED8F9FFEE5CFEEF5D0A
:101927004E6014900919E0FEA3E0FFA3E0FCA3E0DA
:10193700FD9009201231FD90091AE004F07006901D
:101947000919E004F090092FE0FEA3E0FFC3900916
:101957001AE09FFD900919E09EFC900924E07A00A7
:10196700B5051CEAB50418900919EEF0A3EFF0903D
:10197700091CE004F0701790091BE004F0800F9039
:101987000927E004F0E0C3940850030218439009C4
:1019970025E07012D2CBC2C77B017A0979317D105D
:1019A700FC1232DED2C7900926E004F00218289014
:1019B700092AE004F07006900929E004F00217767E
:0119C70022FD
:1014520090091BECF0A3EDF0A3EBF0A3EAF0A3E9F3
:09146200F0900919EEF0A3EFF07F
:10146B00E4900928F090092FEEF0A3EFF0900924F7
:10147B00E0FF131313541FFD7C00EF54077E006035
:10148B00047F0180027F00EF2DFFEE3CFE900924CC
:10149B00E0FD7C00120DED90092DEEF0A3EFF09026
:1014AB00092BE4F0A37405F0E4900929F0A3F09064
:1014BB00092BE0FEA3E0FF900929E0FCA3E0FDC3AC
:1014CB009FEC9E400302170D90091DE0FBA3E0FA71
:1014DB00A3E0F9120D95FF90009C75F04AED120FE9
:1014EB007DEC75F04AA42583F583E06F600302164B
:1014FB00FC900001120DAEFF900929A3E090009D16
:10150B0075F04A120F7DEC75F04AA42583F583E044
:10151B006F60030216FC90091BE0FCA3E0FD900931
:10152B0024E0F9FF7E00900919E0FAA3E02FFFEE0B
:10153B003ACF24FFFBEF34FFFAE9FFA3E0F8A3E077
:10154B002FFFEE38CF24FFCF34FF900A90F0A3EF9C
:10155B00F0900919E0FEA3E0FF123321E490092675
:10156B00F0900926E0FFD390092EE09F90092DE023
:10157B00940050030216FCE4900927F0900927E031
:10158B00FFC3940840030216DB900925E0600302B9
:10159B00162CA3E0FE900929E0FCA3E090009E75B9
:1015AB00F04A120F7DEC75F04AA42583F583E58292
:1015BB002EF582E43583F583E0FD7C007E0074011B
:1015CB00A807088005C333CE33CED8F9FFEE5CFEF7
:1015DB00EF5D4E60059009208003900922E0FCA38B
:1015EB00E0FDECFF900927E0FE25E02431F582E4D5
:1015FB003409F583EFF0EE25E02432F582E434096B
:10160B00F583EDF0900928E004F0900924E0FF90B9
:10161B000928E08FF084E5F060030216D2F0021681
:10162B00DB900926E0FF900929E0FCA3E090009EE7
:10163B0075F04A120F7DEC75F04AA42583F583E50E
:10164B00822FF582E43583F583E0FD7C009009273A
:10165B00E0FF7E007401A807088005C333CE33CEAC
:10166B00D8F9FFEE5CFEEF5D4E6014900919E0FEB9
:10167B00A3E0FFA3E0FCA3E0FD9009201231FD9055
:10168B00091AE004F07006900919E004F090092F94
:10169B00E0FEA3E0FFC390091AE09FFD900919E05B
:1016AB009EFC900924E07A00B5051CEAB50418905D
:1016BB000919EEF0A3EFF090091CE004F070119003
:1016CB00091BE004F08009900927E004F00215875C
:1016DB00900925E07012D2CBC2C77B017A09793110
:1016EB007D10FC1232DED2C7900926E004F0021501
:1016FB006C90092AE004F07006900929E004F002CE
:02170B0014BA0E
:01170D0022B9
:101C810090091BECF0A3EDF0A3EBF0A3EAF0A3E9BC
:091C9100F0900919EEF0A3EFF048
:101C9A00E4900928F090092FEEF0A3EFF0900924C0
:101CAA00E0FF131313541FFD7C00EF54077E0060FE
:101CBA00047F0180027F00EF2DFFEE3CFE90092495
:101CCA00E0FD7C00120DED90092DEEF0A3EFF090EF
:101CDA00092BE4F0A304F0E4900929F0A3F0900999
:101CEA002BE0FEA3E0FF900929E0FCA3E0FDC39FDF
:101CFA00EC9E4003021F3990091DE0FBA3E0FAA302
:101D0A00E0F9120D95FF90001A75F082ED120F7D21
:101D1A00EC75F082A42583F583E06F6003021F2827
:101D2A00900001120DAEFF900929A3E090001B75E7
:101D3A00F082120F7DEC75F082A42583F583E06FA3
:101D4A006003021F2890091BE0FCA3E0FD90092410
:101D5A00E0F9FF7E00900919E0FAA3E02FFFEE3ABE
:101D6A00CF24FFFBEF34FFFAE9FFA3E0F8A3E02F4B
:101D7A00FFEE38CF24FFCF34FF900A90F0A3EFF0A4
:101D8A00900919E0FEA3E0FF123321E4900926F03E
:101D9A00900926E0FFD390092EE09F90092DE09448
:101DAA00005003021F28E4900927F0900925E060FB
:101DBA0003021E53900929A3E075F082A4241CF59E
:101DCA0082E43400F583C083C082900926E0D08281
:101DDA00D0832582F582E43583F583E0FD7C00908B
:101DEA000927E0FF7E007401A807088005C333CEE7
:101DFA0033CED8F9FFEE5CFEEF5D4E600590092008
:101E0A008003900922E0FCA3E0FDECFF900927E0A3
:101E1A00FE25E02431F582E43409F583EFF0EE255E
:101E2A00E02432F582E43409F583EDF0900928E0E4
:101E3A0004F0900924E0FF900928E08FF084E5F08F
:101E4A006003021EF8F0021F07900929A3E075F04B
:101E5A0082A4241CF582E43400F583C083C08290F6
:101E6A000926E0D082D0832582F582E43583F58382
:101E7A00E0FD7C00900927E0FF7E007401A80708B6
:101E8A008005C333CE33CED8F9FFEE5CFEEF5D4E4C
:101E9A006014900919E0FEA3E0FFA3E0FCA3E0FDB3
:101EAA009009201231FD90091AE004F07006900999
:101EBA0019E004F090092FE0FEA3E0FFC390091A8D
:101ECA00E09FFD900919E09EFC900924E07A00B594
:101EDA00051CEAB50418900919EEF0A3EFF0900971
:101EEA001CE004F0701790091BE004F0800F9009C1
:101EFA0027E004F0E0C394085003021DB5900925B9
:101F0A00E07012D2CBC2C77B017A0979317D10FC0D
:101F1A001232DED2C7900926E004F0021D9A900917
:0F1F2A002AE004F07006900929E004F0021CE898
:011F39002285
:101F3A0090091BECF0A3EDF0A3EBF0900919EEF079
:031F4A00A3EFF012
:101F4D00E4900927F090092CEEF0A3EFF090092210
:101F5D00E0F9C313900925F0E0FF131313541FFD8F
:101F6D007C00EF54077E0060047F0180027F00EF4C
:101F7D002DFFEE3CFEE9FD7C00120DED90092AEEE1
:101F8D00F0A3EFF090091DE024E0F090091BE0FCB8
:101F9D00A3E0FD900925E0FF7E00900919E0FAA36A
:101FAD00E02FFFEE3ACF24FFFBEF34FFFAE9FFA35A
:101FBD00E0F8A3E02FFFEE38CF24FFCF34FF900AD7
:101FCD0090F0A3EFF0900919E0FEA3E0FF1233218A
:101FDD00E4900928F0A3F090092AE0FEA3E0FF9019
:101FED000928E0FCA3E0FDC39FEC9E40030221B154
:101FFD00900922E0641060030221B190091DE07583
:10200D00F010A424B8F582E5F03402F583E5822DB5
:10201D00F582E5833CF583E0900924F0E4900926F0
:10202D00F0900926E0FFC394084003022180900937
:10203D0023E060030220FC900925E054077064FE44
:10204D0004A807088005C333CE33CED8F9FF900915
:10205D0024E0FDEF5D600590091E8003900920E0EE
:10206D00FCA3E0FDECFF900926E0FE25E0242EF513
:10207D0082E43409F583EFF0EE25E0242FF582E4B8
:10208D003409F583EDF0900927E004F0900925E07F
:10209D00FF900927E08FF084E5F06003022177F0CF
:1020AD00022180900926E0FF7E007401A8070880B8
:1020BD0005C333CE33CED8F9FF900924E0FDEF5D93
:1020CD00600590091E8003900920E0FEA3E0FF1239
:1020DD003393900927E004F0900925E0FF9009273C
:1020ED00E08FF084E5F06003022177F0022180900B
:1020FD000926E0FF7E007401A807088005C333CED2
:10210D0033CED8F9FF900924E0FDEF5D60149009FE
:10211D0019E0FEA3E0FFA3E0FCA3E0FD90091E1271
:10212D0031FD90091AE004F07006900919E004F0F1
:10213D0090092CE0FEA3E0FFC390091AE09FFD90EB
:10214D000919E09EFC900925E07A00B5051CEAB559
:10215D000418900919EEF0A3EFF090091CE004F0BB
:10216D00701190091BE004F08009900926E004F03D
:10217D0002202E900925E054077018900923E07075
:10218D0012D2CBC2C77B017A09792E7D10FC123297
:10219D00DED2C7900929E004F07006900928E0040A
:0421AD00F0021FE439
:0121B100220B
:10306B0090090CEEF0A3EFF0A3ECF0A3EDF0A3EBC3
:10307B00F0A3EAF0A3E9F0900910E0FBA3E0FAA3B8
:10308B00E0F9120D95FB606190090EE0FCA3E0FDE9
:10309B00900913E0FFA3E090091ECFF0A3EFF0908F
:1030AB000915E0FFA3E0900920CFF0A3EFF0900902
:1030BB0017E0900922F0900918E0900923F090098D
:1030CB000CE0FEA3E0FF121F3A900917E0C313FFB9
:1030DB0090090DE02FF090090CE03400F0900911ED
:0A30EB00E475F001120DFF808E2243
:07324400C3EF9E14FD7F0A99
:08324B00900B1DEFF0A3EDF064
:10325300A3120F4C00000001900B1EE0FF14F0EFCF
:103263006020A3E0F8A3E0F9A3E0FAA3E0FB900B4E
:103273001DE0FFE4FCFDFE120E15900B1F120F4024
:1032830080D6900B1FE0FCA3E0FDA3E0FEA3E0FFCC
:013293002218
:102AAA00900AD8EEF0A3EFF0A3ECF0A3EDF0A3EABE
:042ABA00F0A3EBF0AA
:102ABE00E4900AE6F0900AE3E0C313900AE7F0E42C
:102ACE00900AE4F0900ADEE0FF900AE4E0FEC39F75
:102ADE004003022BD5123244A804A905AA06AB075F
:102AEE00900ADCE0FEA3E0FFE4FCFD120EA0E47B06
:102AFE000AFAF9F8120EA0900AE5EBF0A3E0706561
:102B0E00900ADEE014FF900AE4E0FEC39F5056A345
:102B1E00E0704C900AE7E0FFEE8FF0A4FF900AD928
:102B2E00E02FFF900AD8E035F0FE900ADAE0FCA321
:102B3E00E0FD900ADFE0FBA3E090091ECBF0A3EBD3
:102B4E00F0900AE1E0FBA3E0900920CBF0A3EBF0BC
:102B5E00900AE3E0900922F0E4A3F07B20805C90E1
:102B6E000AE67401F0900AE7E0FF900AE4E08FF0C5
:102B7E00A4FF900AD9E02FFF900AD8E035F0FEC0EE
:102B8E0007900ADAE0FCA3E0FD900AE5E02430FBB2
:102B9E00900ADFE0FFA3E090091ECFF0A3EFF090C4
:102BAE000AE1E0FFA3E0900920CFF0A3EFF0900A36
:102BBE00E3E0900922F0E4A3F0D007121F3A900A46
:072BCE00E4E004F0022AD24A
:012BD50022DD
:0E281900900AB2EEF0A3EFF0A3ECF0A3EDF006
:10282700900ABFE0C313900AC2F0E4FFFE7DC87CA4
:1028370042900AB6E0F8A3E0F9A3E0FAA3E0FB129E
:1028470008C41209CA900AC3EEF0A3EFF0E4900A95
:10285700C0F0900ABAE0FF900AC0E0FEC39F4003B1
:10286700022962123244A804A905AA06AB07900AF6
:10287700C3E0FEA3E0FFE4FCFD120EA0E47B0AFA2E
:10288700F9F8120EA0900AC1EBF0900ABAE0FF2403
:10289700FEFE900AC0E06E7060EF24FEFFE434FF96
:1028A700FE900AC2E0FD7C00120DED900AB3E02F06
:1028B700FF900AB2E03EFE900AB4E0FCA3E0FD9070
:1028C7000ABBE0FBA3E090091ECBF0A3EBF0900A54
:1028D700BDE0FBA3E0900920CBF0A3EBF0900ABF8B
:1028E700E0900922F0E4A3F07B2E121F3A900AC071
:1028F700E004F0900ABAE004F0900AC2E0FF900A00
:10290700C0E08FF0A4FF900AB3E02FFF900AB2E077
:1029170035F0FEC007900AB4E0FCA3E0FD900AC1C1
:10292700E02430FB900ABBE0FFA3E090091ECFF044
:10293700A3EFF0900ABDE0FFA3E0900920CFF0A33A
:10294700EFF0900ABFE0900922F0E4A3F0D007125D
:0B2957001F3A900AC0E004F00228596B
:012962002252
:1026CB00900AC5EEF0A3EFF0A3ECF0A3EDF0A3EAB4
:0426DB00F0A3EBF08D
:1026DF00900AD4120F4C00000000900AC7E0FCA330
:1026EF00E0FDA3E0FEA3E0FF900AC5E0FAA3E02F10
:1026FF00FFEA3ECF24FFFBEF34FFFA900ACBE0FE58
:10270F00A3E0FF900AC7E0F8A3E02FFFE83ECF2435
:10271F00FFCF34FF900A90F0A3EFF0900AC5E0FED0
:10272F00A3E0FF123321E4900AD0F0A3F0900AC97E
:10273F00E0FEA3E0FFC3900AD1E09F900AD0E09E95
:10274F004003022818E4900AD2F0A3F0900ACBE0DD
:10275F00FEA3E0FFC3900AD3E09F900AD2E09E4011
:10276F0003022804E47F02FEFDFC900AD4E0F8A3E4
:10277F00E0F9A3E0FAA3E0FB120E15900ACDE0FBFF
:10278F00A3E0FAA3E0F98F828E83120DAEFF12340D
:10279F002CE47F02FEFDFC900AD4E0F8A3E0F9A33D
:1027AF00E0FAA3E0FB120E15EF2401FFE43EFE90CA
:1027BF000ACDE0FBA3E0FAA3E0F98F828E83120D1E
:1027CF00AEFF12342C900AD4E0FCA3E0FDA3E0FE90
:1027DF00A3E02401FFE43EFEE43DFDE43CFC900A4F
:1027EF00D4120F40900AD3E004F07006900AD2E0A2
:1027FF0004F002275B900AD1E004F0600302273C4B
:09280F00900AD0E004F002273C1D
:01281800229D
:102BD6009008FEEEF0A3EFF0A3ECF0A3EDF0A3EB6C
:072BE600F0A3EAF0A3E9F0FF
:102BED00E490090BF0900902E0FBA3E0FAA3E0F9F1
:102BFD0090090BE0F582758300120DAE7003022C67
:102C0D00E7C39480900900E0FCA3E0FD505C9009BF
:102C1D000BE0FF7E00E92FF9EE3AFA900905E0FF8F
:102C2D00A3E0900913CFF0A3EFF0900907E0FFA305
:102C3D00E0900915CFF0A3EFF0900909E090091786
:102C4D00F090090AE0900918F09008FEE0FEA3E06C
:102C5D00FF12306B900909E0C313FF9008FFE02FBE
:102C6D00F09008FEE03400F08067A3E0FBA3E0FAEB
:102C7D00A3E0F990090BE0FF7E00E92FF9EE3AFA97
:102C8D00900905E0FFA3E0900913CFF0A3EFF090BA
:102C9D000907E0FFA3E0900915CFF0A3EFF090092D
:102CAD0009E0900917F090090AE0900918F09008D2
:102CBD00FEE0FEA3E0FF122540900909E0FF900819
:102CCD00FFE02FF09008FEE03400F090090BE004D7
:0A2CDD00F090090BE004F0022BF266
:012CE70022CA
:102F3C009008A8EEF0A3EFF0A3ECF0A3EDF0A3EA59
:042F4C00F0A3EBF013
:102F50009008FB7401F0A37408F0A374B5F0900816
:102F6000B2E0F9A3E0FAA3E09008FEC9F0A3EAF00A
:102F7000A3E9F09008FBE0F9A3E0FAA3E0900901CF
:102F8000C9F0A3EAF0A3E9F07B017A0879DD1232F7
:102F9000949008FBE4F0A3F0A3F09008AAE0FCA34F
:102FA000E0FD7B017A0879DDA3E0FFA3E09009054D
:102FB000CFF0A3EFF09008AEE0FFA3E0900907CFB9
:102FC000F0A3EFF09008B0E0900909F09008B1E0AC
:0F2FD00090090AF09008A8E0FEA3E0FF022BD6BC
:0433DD007F647E008B
:1033E100EF1F70011E144E601100000075080B756F
:0A33F10009BED509FDD508FA80E6F3
:0133FB0022AF
:08343600C2C7123416D2C722EE
:0A342C00D2CBC2C7123416D2C72259
:05338E00E0FEA3E0FFDA
:04339300AD07AC06D0
:10339700EC900A92F0A3EFF0D2CBC2C7900A92E06A
:0E33A700FF123416900A93E0FF123416D2C7BC
:0133B50022F5
:08343E00C2CB123436D2CB22BE
:10332100900A8AEEF0A3EFF0A3ECF0A3EDF0A3EA8C
:10333100F0A3EBF07F2A12343E900A8A12338E906A
:103341000A8E12338E7F2B12343E900A8C12338EEA
:0C335100900A9012338E7F2C12343E2222
:10296300C2C01233DDD2C01233DDD2C81233DD7FD1
:102973001112343E7F787E001233E17F3612343EEB
:10298300E4FF12342C7F3A12343E7F0512342C7F3D
:10299300B212343E7F0C12342C7F0C12342CE4FF21
:1029A30012342C7F3312342C7F3312342C7FB71222
:1029B300343E7F3512342C7FBB12343E7F191234E0
:1029C3002C7FC012343E7F2C12342C7FC212343E33
:1029D3007F0112342C7FC312343E7F1212342C7FBA
:1029E300C412343E7F2012342C7FC612343E7F0F34
:1029F30012342C7FD012343E7FA412342C7FA112C8
:102A0300342C7FE012343E7FD012342C7F041234F6
:102A13002C7F0D12342C7F1112342C7F1312342C83
:102A23007F2B12342C7F3F12342C7F5412342C7F93
:102A33004C12342C7F1812342C7F0D12342C7F0B44
:102A430012342C7F1F12342C7F2312342C7FE1127B
:102A5300343E7FD012342C7F0412342C7F0C12347A
:102A63002C7F1112342C7F1312342C7F2C12342C14
:102A73007F3F12342C7F4412342C7F5112342C7F2D
:102A83002F12342C7F1F12342C7F1F12342C7F20E3
:102A930012342C7F2312342C7F2112343E7F1112E7
:072AA300343E7F2902343E9E
:07344600D292D2CDD2C722C1
:10341600E4FEEF3392CDEF25E0FFC292D2920EEE9C
:05342600B408EFD2CD57
:01342B00227E
:1032DE00900A8AEBF0A3EAF0A3E9F0A3ECF0A3EDD9
:0132EE00F0EF
:1032EF00C2C7E4FDFCD3900A8EE09D900A8DE09C4E
:1032FF00401D900A8AE0FBA3E0FAA3E0F98D828CCF
:10330F0083120DAEFF1234160DBD00010C80D6D204
:01331F00C7E6
:01332000228A
:1008C400EC4D6011E8497017ED33EC3304600DE42E
:1008D400FCFFFEFD22E933E8330470F8020A361205
:1008E4000A0158046009E4CC248150062850090206
:1008F4000A40284003020A3DC0E0EB4A7044B98034
:1009040006D0E0FB020A2CEF4E701CBD8008EBFF02
:10091400EAFEE9FD80EBE98DF0A4FEE5F00209AD05
:10092400E9CDF9EAFEEBFFEF89F0A4FCE5F0CE890E
:10093400F0A42EFFE435F0CD89F0A42DFEE435F0CB
:100944008067EF4E7005BD80D780C3EF8BF0A4ACF9
:10095400F0EE8BF0A42CFCE435F0F8EF8AF0A42C34
:10096400E5F038FCE433CB8DF0A42CFCE5F03BF847
:10097400EE8AF0A42CFCE5F038F8E433CF89F0A437
:100984002CFCE5F038CF3400CE89F0A42FFFE5F03D
:100994003EFEE433C98DF0A42EFEE5F039CD8AF095
:1009A400A42FFFE5F03EFEE43DFD33D0E0FB50070D
:1009B4000BBB000F020A40EC2CFCEF33FFEE33FEBE
:0609C400ED33FD020A18EC
:1009CA00EDD2E7CD33EC3392D524814006E4FFFE25
:1009DA00FDFC22FCE4CFCECDCC24E0501174FF8084
:1009EA00EDC3CC13CCCD13CDCE13CECF13CF047021
:0709FA00F030D5DE020F32E0
:100FCF00E5082407F582E43409F583E0050822904B
:100FDF000904300703900907E475F001120F890225
:100FEF000D952000E97F2ED2008018EF540F24902A
:100FFF00D43440D4FF30040BEF24BFB41A00500395
:10100F002461FFE50960021509050CE50C70020566
:10101F000B30070E900904E475F001120F89EF02EF
:10102F000DDB0233B67403D2078003E4C207F50861
:10103F00900904120FA0E4F509F50BF50CE5096012
:10104F00077F2012101280F5750AFFC201C200C27D
:10105F0002C203C205C206C208120FDEFF700D30B6
:10106F0007057F00121023AF0CAE0B22B4255FC211
:10107F00D5C204120FDEFF24D0B40A00501A75F047
:10108F000A780930D50508B6FF0106C6A426F62052
:10109F00D5047002D20380D924CFB41A00EF5004C4
:1010AF00C2E5D204021315D20180C6D20080C0D28D
:1010BF000280BCD2D580BAD20580B47F2012101224
:1010CF002002077401B5090040F1120FCFFF121073
:1010DF001202104CD208D2068095120FCFFB120FBE
:1010EF00CFFA120FCFF94A4B700679137A147BFFA0
:1010FF0020022EE509602A7E008E82758300120D74
:10110F00AE60060EEE650A70F0C2D5EBC0E0EAC025
:10111F00E0E9C0E0EE121376D0E0F9D0E0FAD0E0CB
:10112F00FB120D95FF60AAEBC0E0EAC0E0E9C0E05A
:10113F00121012D0E02401F9D0E03400FAD0E0FB15
:10114F00E50A0460DCD50AD98087D20280A2121387
:10115F005860F7E50A700104120A4BA90A600DE501
:10116F000A600914F50A121400EF60F3EA30E7027F
:10117F00F404C3995079EAF4250A0430E701E40432
:10118F00F50A800D12135860C1EA050A250A120AE2
:10119F004BEA900933F030E701E4250A04D50A043D
:1011AF0020050114121376E4C0E0121400900933E5
:1011BF00E0601320E70714F0120FFA802204F0D03A
:1011CF00E014C0E07F00120FFAE50A6007120FF17A
:1011DF00150A800B300503120FF1D0E002104CD02E
:1011EF00E00480C4121358609EE50A04120A4B9063
:1011FF000933EAF0E50A2005026001042404121302
:01120F007668
:1012100074FF04C0E0121400120FFAE50A20050260
:101220006003120FF1D0E0B50AE87F451210049078
:101230000933E07F2B30E7047F2DF404C0E0121067
:1012400012D0E075F00A84C0F0120FFBD0E0120F4C
:10125000FB02104C791080027908C206C20880088F
:10126000D2D5790A8004790AC2D5E50A047002F55C
:101270000AE4FAFDFEFF120FCFFC7B0820011312D7
:101280000FCFFD7B1030000A120FCFFE120FCFFFE1
:101290007B20EC3382D592D55013C3E43000069FF7
:1012A000FFE49EFEE42001039DFDE49CFCE4CBF8FA
:1012B000C201EC700CCFCECDCCE824F8F870F380EE
:1012C00017C3EF33FFEE33FEED33FDEC33FCEB33AE
:1012D000FB994002FB0FD8E9EB300105F8D0E0C4E0
:1012E00048B201C0E00AEC4D4E4F78207B0070C23E
:1012F000EAB50A0040BCC0E0121378D0F0D0E0207C
:101300000104C4C0E0C4B201C0F0120FFBD0F0D59C
:10131000F0EB02104C120FA910E95312545810BAF6
:101320004C10B64212584F12604412604910CF431D
:1013300012665511934611F345115D471433501051
:10134000BE2D10C22E10E52B10C62310E320141C56
:101350002A107E48000010DDE50AB4FF03750A0676
:10136000120FCFFC120FCFFD120FCFFE120FCFFFC7
:1013700090092C020A88790AA2D5200314300509A5
:10138000B910020404B9080104A2D52006025001D4
:10139000042002689202B509005034C0E07F20307A
:1013A00003197F30A20272067205500F1213CFC2CA
:1013B00002C206C205C2087F30800F300503E9C0B3
:1013C000E0121012300503D0E0F9D0E0B509CC30BE
:1013D00005177F30B9100C1210127F583004077FA8
:1013E000788003B908031210123002057F2D021015
:1013F000127F202008F87F2B2006F322920280CF54
:101400007F00B40700500B242CF582E43409F583E7
:10141000E0FF22286E756C6C2900D201120FCF30CC
:1014200001F8C201780930D50108F602107E2D506E
:10143000434958120FCF2403B405004001E490142F
:101440002E93121003743A121003D203750904028A
:02145000125434
:103294009008FEE0FFA3E0FEA3E0CF900907F0A3AF
:1032A400EEF0A3EFF0900901E0CBF0A3E0CAF0A3A5
:1032B400E0C9F07F2290090AAD82AC83120D958D8E
:1032C400828C83F0A309E970010ADFEC900901E024
:0A32D400FBA3E0FAA3E0F9021034B6
:100A0100E9D2E7C933E833F892D5EDD2E7CD33EC3B
:070A110033FC5002B2D522B4
:100A1800EC30E7100FBF000C0EBE00080DBD00043F
:100A28000BEB6014A2D5EB13FCED92E7FD2274FFEB
:100A3800FCFDFEFF22E480F8A2D574FF13FC7D8044
:030A4800E480EF58
:100A4B00F920E73624F950037907E4F42402FBE597
:100A5B0082158270021583DBF6E024FB501BE960E4
:100A6B0014E4F0E582158270021583E004F0B40AF9
:0D0A7B0008E4F0D9EE7401F00A22C2D52281
:100A8800ED33EC3392D5FA602AB4FF33EDC2E77B3D
:100A9800FF60067A0A79ADE4227A0A79B620D5048D
:100AA8007A0A79B1224E614E002B494E46002D49F3
:100AB8004E4600E47A08F0A3DAFC7B00740722C0F3
:100AC80083C082ECC0E0EDC0E0EEC0E0EFC0E0EA39
:100AD80075F010A4CAABF075F04DA42BFBE435F00B
:100AE800FCEA2410FAEB34C5FBEC34D9FCEDC2E780
:100AF800FF75F056A4F42411C5F0F434C58FF0A4A2
:100B08002AE5F03BE43CF020E714120D55D0E0FF55
:100B1800D0E0FED0E0FDD0E0FC120C888014F40494
:100B2800120D55D0E0FFD0E0FED0E0FDD0E0FC1281
:100B380008C4D082D083E0FAEDD2E7CD33EC332479
:100B480082FBE4C3CF33CFCE33CECD33CD33DBF30B
:100B58007B0775F00A846004F0A31B0AE5F0F0A394
:100B68008FF0740AA4FFACF08EF0740AA42CFEACCB
:100B7800F050010C8DF0740AA42CFDE435F0F0A3BC
:050B8800DBDE74072212
:100B8D00020A36E86480F8E933E83360110460F056
:100B9D00ED33EC337009E8FCE9FDEAFEEBFF2204CE
:100BAD0060DED3EB9FEA9EE99DE8C2E78CF0C2F7C9
:100BBD0095F0400CE8CCF8E9CDF9EACEFAEBCFFB95
:100BCD00120A0185D0F05804700320D5B3E80470E3
:100BDD00075002B2D5020A4092D5EC0460F7E4CC7E
:100BED00C0E0C398F8603B94186008400DD0E0FB5E
:100BFD00020A18E4FBFAC9FC8028E830E406E4C9CF
:100C0D00FBE4CAFCE830E305E4C9CACBFCE85407B1
:100C1D006010F8C3E913F9EA13FAEB13FBEC13FCBC
:100C2D00D8F130F52FC3E49CFCEF9BFFEE9AFEED5F
:100C3D0099FDD0E0FBEF4E4D4C701222DB03020A02
:100C4D003DEC2CFCEF33FFEE33FEED33FDED30E7E5
:100C5D00EB020A18EF2BFFEE3AFEED39FDD0E0FB6B
:100C6D0050130BBB0003020A40ED13FDEE13FEEF14
:080C7D0013FFEC13FC020A183E
:100C8500020A40EC5D046005E859047003020A3667
:100C9500120A01580460F6EC4860F2EC7004FDFE9F
:100CA500FF22C860DB2481C85009C3986002500642
:100CB500020A3D9850CAF582E9294B4A7005AB8274
:100CC500020A2C75F0007C1A7880C3EF9BEE9AED32
:100CD50099400DC3EF9BFFEE9AFEED99FDE842F0BA
:100CE500DC23ACF0D0E0FFD0E0FED0E0FDAB82200D
:100CF500E7101BEB60BAEC2CFCEF33FFEE33FEED97
:100D050033FD020A18E803F830E705C0F075F00076
:100D1500EF2FFFEE33FEED33FD40B830E7C280AA7A
:100D25003F8000004120000042C80000447A0000D6
:100D3500461C400047C35000497424004B18968058
:100D45004CBEBC205A0E1BCA6753C21C749DC5AE4F
:100D5500FB60065407601C2323120D83EB54386097
:100D650009120D6F120D7E1208C4ECF8EDF9EEFABA
:100D7500EFCB22EB120D7E80F1543803241C900D2D
:100D850025FE93FC0EEE93FD0EEE930ECE93FF2201
:03000000022FDFED
:0C2FDF00787FE4F6D8FD758121023026D1
:100D9500BB010689828A83E0225002E722BBFE025C
:090DA500E32289828A83E493228F
:100DAE00BB010CE58229F582E5833AF583E02250FA
:100DBE0006E92582F8E622BBFE06E92582F8E22244
:0D0DCE00E58229F582E5833AF583E493225E
:100DDB00BB010689828A83F0225002F722BBFE01F7
:020DEB00F322F1
:100DED00EF8DF0A4A8F0CF8CF0A428CE8DF0A42E1A
:020DFD00FE22D4
:100DFF00C5F0F8A3E028F0C5F0F8E582158270027F
:060E0F001583E038F0221B
:100E1500E88FF0A4CC8BF0A42CFCE98EF0A42CFC7C
:100E25008AF0EDA42CFCEA8EF0A4CDA8F08BF0A4FA
:100E35002DCC3825F0FDE98FF0A42CCD35F0FCEB59
:100E45008EF0A4FEA9F0EB8FF0A4CFC5F02ECD391E
:0F0E5500FEE43CFCEAA42DCE35F0FDE43CFC228B
:100E640075F008758200EF2FFFEE33FECD33CDCC45
:100E740033CCC58233C5829BED9AEC99E5829840C8
:100E84000CF582EE9BFEED9AFDEC99FC0FD5F0D6A5
:100E9400E4CEFBE4CDFAE4CCF9A88222B800C1B9CF
:100EA4000059BA002DEC8BF084CFCECDFCE5F0CB0D
:100EB400F97818EF2FFFEE33FEED33FDEC33FCEB46
:100EC40033FB10D703994004EB99FB0FD8E5E4F901
:100ED400FA227818EF2FFFEE33FEED33FDEC33FCEE
:100EE400C933C910D7059BE99A4007EC9BFCE99AE2
:100EF400F90FD8E0E4C9FAE4CCFB2275F010EF2F27
:100F0400FFEE33FEED33FDCC33CCC833C810D70726
:100F14009BEC9AE899400AED9BFDEC9AFCE899F861
:0E0F24000FD5F0DAE4CDFBE4CCFAE4C8F922F4
:0E0F3200C3E49FFFE49EFEE49DFDE49CFC22D0
:0C0F4000ECF0A3EDF0A3EEF0A3EFF02224
:100F4C00A8828583F0D083D082120F63120F6312B4
:100F5C000F63120F63E473E493A3C583C5F0C583D9
:100F6C00C8C582C8F0A3C583C5F0C583C8C582C8EF
:010F7C002252
:0C0F7D00A42582F582E5F03583F583227F
:100F8900F8E0FBA3A3E0F925F0F0E58215827002F1
:070F99001583E0FA38F02295
:090FA000EBF0A3EAF0A3E9F02252
:100FA900D083D082F8E4937012740193700DA3A3D7
:100FB90093F8740193F5828883E4737402936860EB
:060FC900EFA3A3A380DFEB
:1033B600EFB40A07740D1233C1740A309811A89934
:1033C600B8130CC2983098FDA899C298B811F63077
:0733D60099FDC299F599224F
:102FEB00022DCEE493A3F8E493A34003F68001F201
:102FFB0008DFF48029E493A3F85407240CC8C333E7
:10300B00C4540F4420C8834004F456800146F6DFB5
:10301B00E4800B0102040810204080900003E47E42
:10302B00019360BCA3FF543F30E509541FFEE493AA
:10303B00A360010ECF54C025E060A840B8E493A371
:10304B00FAE493A3F8E493A3C8C582C8CAC583CA9C
:10305B00F0A3C8C582C8CAC583CADFE9DEE780BE54
:0108C3000034
:00000001FF
