:10000300E4F593F594F591F592F595F596F5B175BB
:0B001300B2FCF5B3F5B4F5C9F5CA2244
:1000CA00759850538EBF538EFE53890F758BFE75EC
:0700DA008DFFC2ABD28E22A4
:0E00E1001200031200CAD2ACD2AFD2B280FE1F
:03002300020026B2
:10002600C0E0C0F0C083C082C0D075D000C000C0A0
:1000360001C002C003C004C005C006C0073098074F
:10004600C298AF991200FBD007D006D005D004D0D5
:1000560003D002D001D000D0D0D082D083D0F0D04F
:02006600E03286
:0800FB008F993099FDC2992292
:10006800900000EBF0A3EAF0A3E9F0900000E0FBB9
:10007800A3E0FAA3E0F912009B6017900000A3E444
:1000880075F0011200B4A9F0FA12009BFF1200FBF0
:0300980080D922EA
:030000000200EF0C
:0C00EF00787FE4F6D8FD7581200200E166
:10009B00BB010689828A83E0225002E722BBFE0263
:0900AB00E32289828A83E4932296
:1000B400A3F8E0C5F025F0F0E582158270021583FF
:0600C400E0C838F0E8225C
:00000001FF
