:0400FB0002080000F7
:1000BB00E4F593F594F591F592F595F596F5B1F583
:0A00CB00B2F5B3F5B4F5C9F5CA2289
:0800D5007F087EDEDEFEDFFC89
:0100DD002200
:0800DE00D2950000C29500223A
:0800E600C2950000D295002232
:0500F600C2950200D5D7
:10008F00E4F508F509C3E5099410E5089400500557
:10009F001200DE80031200E60509E509700205086B
:0C00AF00C39418E508940040DC0200F641
:0800EE001200BB12008F80FB21
:03000000020003F8
:0C000300787FE4F6D8FD75810902004A00
:10000F000200EEE493A3F8E493A34003F68001F219
:10001F0008DFF48029E493A3F85407240CC8C333F2
:10002F00C4540F4420C8834004F456800146F6DFC1
:10003F00E4800B01020408102040809000FBE47E56
:10004F00019360BCA3FF543F30E509541FFEE493B6
:10005F00A360010ECF54C025E060A840B8E493A37D
:10006F00FAE493A3F8E493A3C8C582C8CAC583CAA8
:10007F00F0A3C8C582C8CAC583CADFE9DEE780BE60
:0100FF000000
:00000001FF
