:1000030065F002B8000000000000000000000000DE
:1000130000000000000000080808080808080000A5
:100023001818000000486C241200000000000000B3
:10003300000000000000002424247F1212127F120B
:10004300121200000000081C2A2A0A0C1828282A69
:100053002A1C080800000022251515152A58545497
:10006300542200000000000C1212120A76252911F6
:10007300916E00000006060403000000000000006B
:1000830000000000004020101008080808080810AD
:10009300102040000002040808101010101010086F
:1000A300080402000000000008086B1C1C6B080811
:1000B3000000000000000000080808087F08080886
:1000C3000800000000000000000000000000000025
:1000D300060604030000000000000000FE0000000C
:1000E300000000000000000000000000000000000D
:1000F300060600000000804040202010100808047D
:1001030004020200000000182442424242424242DA
:1001130024180000000000080E0808080808080852
:10012300083E00000000003C424242202010080428
:10013300427E00000000003C424220182040404222
:10014300221C0000000000203028242422227E20CC
:10015300207800000000007E0202021A264040427E
:10016300221C0000000000382402021A26424242E8
:10017300241800000000007E22221010080808083E
:10018300080800000000003C424242241824424276
:10019300423C0000000000182442424264584040A0
:1001A300241C0000000000000000181800000000DC
:1001B3001818000000000000000000080000000004
:1001C300000808040000004020100804020408107E
:1001D300204000000000000000007F0000007F00BE
:1001E3000000000000000002040810204020100856
:1001F300040200000000003C424246402010100070
:10020300181800000000001C225A555555552D4260
:10021300221C00000000000808181414243C224289
:1002230042E700000000001F2222221E2242424217
:10023300221F00000000007C424201010101014233
:10024300221C00000000001F22424242424242425E
:10025300221F00000000003F4212121E121202422F
:10026300423F00000000003F4212121E121202021F
:10027300020700000000003C22220101017121223B
:10028300221C0000000000E7424242427E424242FA
:1002930042E700000000003E0808080808080808B4
:1002A300083E00000000007C101010101010101009
:1002B3001010110F0000007722120A0E0A121222E8
:1002C300227700000000000702020202020202027B
:1002D300427F000000000077363636362A2A2A2A63
:1002E3002A6B0000000000E346464A4A525252621B
:1002F300624700000000001C22414141414141414D
:10030300221C00000000003F424242423E02020221
:10031300020700000000001C2241414141414D53AE
:10032300321C60000000003F4242423E1212222271
:1003330042C700000000007C4242020418204042F1
:10034300423E00000000007F49080808080808082A
:10035300081C0000000000E742424242424242427F
:10036300423C0000000000E74242222424141418F7
:10037300080800000000006B4949494955553622D9
:1003830022220000000000E7422424181818242425
:1003930042E700000000007722221414080808082E
:1003A300081C00000000007E2120101008040442F5
:1003B300423F0000007808080808080808080808F1
:1003C300080878000000020204040808081010203E
:1003D30020204040001E101010101010101010109C
:1003E30010101E0000384400000000000000000050
:1003F30000000000000000000000000000000000FA
:10040300000000FF000608000000000000000000DC
:1004130000000000000000000000003C427844425D
:1004230042FC0000000000030202021A264242427C
:10043300261A0000000000000000003844020202F7
:10044300443800000000006040404078444242428B
:1004530064D80000000000000000003C427E02025D
:10046300423C0000000000F08808087E08080808E5
:10047300083E0000000000000000007C22221C0255
:100483003C42423C000000030202023A464242421E
:1004930042E700000000000C0C00000E08080808EA
:1004A300083E0000000000303000003820202020EB
:1004B3002020221E0000000302020272120A1612FA
:1004C300227700000000000E080808080808080842
:1004D300083E0000000000000000007F929292920C
:1004E30092B70000000000000000003B4642424279
:1004F30042E70000000000000000003C424242428C
:10050300423C0000000000000000001B2642424263
:10051300221E02070000000000000078444242420D
:10052300447840E000000000000000774C0404041D
:10053300041F0000000000000000007C42023C4059
:10054300423E0000000000000008083E08080808BA
:1005530008300000000000000000006342424242F5
:1005630062DC000000000000000000E742242414C5
:100573000808000000000000000000EB4949555541
:100583002222000000000000000000762418181842
:10059300246E000000000000000000E74224241441
:1005A30018080807000000000000007E2210080859
:1005B300447E000000C02020202020102020202086
:1005C3002020C00010101010101010101010101068
:1005D300101010100006080808080810080808087A
:1005E300080806000C32C2000000000000000000F2
:1005F300000000005A0000D6D0200020002000FE9A
:1006030003220222022202FE0322022000200020F3
:100613000060AA020ECFB5001CFE032000200810C4
:1006230004FC03800040042008FC1F801090049009
:10063300088810A4104000CDB3080108020412E496
:100643003F12019F084810E43F82249F04820480E4
:10065300045844474422781000C6F480000021F86F
:100663007F082008200820F83F08000820F87F189A
:1006730020142014201220F13F1020B6AF000210E6
:10068300023E020022A07F7F2208220822042224A5
:100693002242217F218220802040142008D6D0804E
:1006A3000080008020FE7F8220822082208220FE24
:1006B3003F822080008000800080008000800061F5
:1006C30072009CCFB500000000800FFCFF1FFCFFF1
:1006D3001FF81E00000F03808307C0C103F0FF0152
:1006E300F07F00201C03008F07C0030EF8FF1FF8E4
:1006F300FF3F103810403801C0B907E0380F703899
:100703001E3C383C1C3E18001E00000000CDB30008
:10071300800030C00170800130800338000318FE70
:100723007F0CFE7F8CE100C6E100FE710EFE380CEB
:10073300601C1C70FE3F38FC7F186033FE6103FEB3
:1007430061033E6003006003803303FC3B23FE1917
:10075300631E1E7F000F7EC6F4003800003800F0D1
:10076300FF3FF0FF3FF0FF3F70003870003870002C
:1007730038F0FF3FF0FF3FF0FF3F700000700000D4
:10078300F0FF3FF0FF3FB8FF3FB803389803389CB2
:1007930003388CFF3F8EFF3F86FF3F840338000002
:1007A30000B6AF008003008003FC8701FC8701FCD7
:1007B300870100800100F87F00F87FFECF31FECF74
:1007C30031E0C03160C03170C03170C33030C730E8
:1007D30038E63818E738FC6F38FE7F383E3C38047B
:1007E3003C3F001F1F000F0E000600D6D00038004C
:1007F300003800003800003800003800F8FF3FF8E8
:10080300FF3FF8FF3F383838383838383838383809
:1008130038383838383838F8FF3FF8FF3FF8FF3FAB
:10082300383838003800003800003800003800003D
:1008330038000038006082001AB5E70000000000AD
:1008430000000000E0000000E0000000E000000005
:10085300E0000000E00000F8FFFF03F8FFFF0338AB
:10086300E0800338E0800338E0800338E080033819
:10087300E08003F8FFFF03F8FFFF0338E08003384D
:10088300E0800338E0800338E0800338E08003F839
:10089300FFFF03F8FFFF0338E0000038E0000038F3
:1008A300E0000000E0007000E0003800E0013800E4
:0B08B300C0FF3F0080FF1F000000009E
:0831EF00900B25EEF0A3EFF0B8
:1031F700900A90E4F0A374EFF0FB7A00E4FDFCFF83
:10320700FE12339CE4900B27F0A3F0E4900B29F017
:10321700A3F0900B25E0FEA3E0FF123418900B2AD1
:10322700E004F07006900B29E004F0C3900B2AE04D
:1032370094F0900B29E0940040D8900B28E004F01C
:103247007006900B27E004F0C3900B28E094F090F1
:073257000B27E0940040B4D6
:01325E00224D
:04317000AD07AC06F5
:10317400E4FBFAC3EB94E0EA9401502374AB2BF51F
:103184008274083AF583EDF0ECFF74AA2BF582748F
:10319400083AF583EFF074022BFBE43AFA80D490FA
:1031A4000A90E4F0A374EFF0FB7A00E4FDFCFFFE68
:1031B40012339CE49008A8F0A3F0D2CBC2C77B01E1
:1031C4007A0879AA7DE07C01123359D2C79008A904
:1031D400E004F070069008A8E004F0C39008A9E0A9
:0A31E40094F09008A8E0940040D099
:0131EE0022BE
:102F0B00900B02EEF0A3EFF0A3ECF0A3EDF0A3EA2D
:042F1B00F0A3EBF044
:102F1F00C006C00724FFFBEA34FFFAA3E0FEA3E0DC
:102F2F0024FFFFEE34FF900A90F0A3EFF0D007D00C
:102F3F000612339C900B04E0FFA3E0900B0CCFF034
:102F4F00A3EFF0900B08E0FEA3E0FFC3900B0DE0A2
:102F5F009F900B0CE09E504F900B02E0FFA3E09070
:102F6F000B0ECFF0A3EFF0900B06E0FEA3E0FFC334
:102F7F00900B0FE09F900B0EE09E501B900B0AE002
:102F8F00FEA3E0FF123418900B0FE004F070D890FE
:102F9F000B0EE004F080D0900B0DE004F070A490C5
:072FAF000B0CE004F0809C14
:012FB60022F8
:10325F00900B17FEE0FCA3E0FDC3900B13E09DFD68
:0E326F00900B12E09CFC900B15E0FAA3E0FB24
:10327D00900941EEF0A3EFF0900945EAF0A3EBF0D1
:10328D00900943ECF0A3EDF0900941E0FAA3E0FBC7
:10329D00FFAE02C007A3E0FFA3E0900A90CFF0A31A
:1032AD00EFF0D00712339C900945E0FEA3E0FF023A
:0232BD003418C3
:0E21F000900A94EEF0A3EFF0A3ECF0A3EDF054
:1021FE00E4900AA0F0A3F0A3F0A3F0900A94E0FEFE
:10220E00A3E0FFC3EB9FFFEA9E900AA4F0A3EFF0BA
:10221E00900A96E0FAA3E0FBC3900A9BE09BFE9027
:10222E000A9AE09A900AA6F0A3CEF0900A94E0FFE4
:10223E00A3E0900AAECFF0A3EFF0A3EAF0A3EBF089
:10224E00900AA4E0FEA3E0FFD39400EE6480948095
:10225E00400A900AAAE4F0A304F08021EF4E700821
:10226E00900AAAF0A3F0801574FF900AAAF0A3F0CA
:10227E00C3E49FFFE49E900AA4F0A3EFF0900AA699
:10228E00E0FEA3E0FFD39400EE64809480400A90B9
:10229E000AACE4F0A304F08021EF4E7008900AAC73
:1022AE00F0A3F0801574FF900AACF0A3F0C3E49F86
:1022BE00FFE49E900AA6F0A3EFF0900AA6E0FEA31C
:1022CE00E0FF900AA4E0FCA3E0FDD39FEE6480F84B
:1022DE00EC648098900AA84007ECF0A3EDF080051E
:1022EE00EEF0A3EFF0E4900A9EF0A3F0900AA9E0BE
:1022FE002401FF900AA8E03400FEC3900A9FE09FDD
:10230E00900A9EE09E40030223DD900AAEE0FEA3FB
:10231E00E0FFA3E0FCA3E0FD900A9C123278900A45
:10232E00A4E0FEA3E0FF900AA1E02FF0900AA0E047
:10233E003EF0900AA6E0FEA3E0FF900AA3E02FF085
:10234E00900AA2E03EF0900AA8E0FEA3E0FF900AF9
:10235E00A0E0FCA3E0FDD39FEE6480F8EC648098CF
:10236E004020ED9FFFEC9E900AA0F0A3EFF0900AA4
:10237E00AAE0FEA3E0FF900AAFE02FF0900AAEE0D5
:10238E003EF0900AA8E0FEA3E0FF900AA2E0FCA3B4
:10239E00E0FDD39FEE6480F8EC6480984020ED9FC2
:1023AE00FFEC9E900AA2F0A3EFF0900AACE0FEA321
:1023BE00E0FF900AB1E02FF0900AB0E03EF0900AF4
:0F23CE009FE004F07006900A9EE004F00222FAED
:0123DD0022DD
:102E2500900B1FEAF0A3EBF0900B1BEEF0A3EFF075
:102E3500A3ECF0A3EDF0C007A3E0FAA3E0FB900B31
:102E45001DE0FFA3E0900A9ACFF0A3EFF0900B23CB
:102E5500E0FFA3E0900A9CCFF0A3EFF0D00712218A
:102E6500F0900B1BE0FAA3E0FBFFAE02C007A3E066
:102E7500FCA3E0FD900B21E0FFA3E0900A9ACFF0C0
:102E8500A3EFF0900B23E0FFA3E0900A9CCFF0A303
:102E9500EFF0D0071221F0900B21E0FCA3E0FD90AC
:102EA5000B1FE0FAA3E0FBA3E0FFA3E0900A9ACF93
:102EB500F0A3EFF0900B23E0FFA3E0900A9CCFF086
:102EC500A3EFF0900B1BE0FEA3E0FF1221F0900BA7
:102ED5001FE0FAA3E0FBFFAE02C007900B1DE0FC6C
:102EE500A3E0FD900B21E0FFA3E0900A9ACFF0A3A9
:102EF500EFF0900B23E0FFA3E0900A9CCFF0A3EF47
:062F0500F0D0070221F0EC
:1023DE00900B10EEF0A3EFF0A3ECF0A3EDF0A3EB57
:0123EE00F0FE
:1023EF00E4900B17F0A3F0EBFFA3E4F0A3EFF09052
:1023FF000B19E0FEA3E0FFD3900B18E09FEE648073
:10240F00F8900B17E0648098400302257DC3900B72
:10241F0011E09FFF900B10E09E12325F900B19E0BE
:10242F00FEA3E0FF900B11E02FFF900B10E03E1288
:10243F00325F900B17E0FEA3E0FFC3900B11E09FFC
:10244F00FF900B10E09EFE900B19E0FCA3E0FD90B7
:10245F000B13E02DFD900B12E03C123274900B1712
:10246F00E0FEA3E0FFC3900B11E09FFF900B10E085
:10247F009E900B19123262900B19E0FEA3E0FF90B1
:10248F000B11E02FFF900B10E03EFE900B17E0FCBE
:10249F00A3E0FD900B13E02DFD900B12E03C1232E8
:1024AF0074900B17E0FEA3E0FF900B11E02FFF904D
:1024BF000B10E03EFE900B19123263900B17E0FEEB
:1024CF00A3E0FF900B11E02FFF900B10E03EFE906A
:1024DF000B19E0FCA3E0FD900B13E02DFD900B1208
:1024EF00E03C123274900B19E0FEA3E0FFC3900B97
:1024FF0011E09FFF900B10E09EFE900B17E0FCA3E6
:10250F00E0FD900B13E02DFD900B12E03C123274A6
:10251F00900B18E004F07006900B17E004F0900B8E
:10252F0019E0FCA3E0FDFFAE04120E2BAA06AB07C9
:10253F00900B17E0FCA3E0FDFFAE04120E2BEF2B68
:10254F00FDEE3AFC900B14E0F5F0A4FFD3ED9FE500
:10255F00F06480F8EC64809850030223FE900B1A0D
:0E256F00E024FFF0900B19E034FFF00223FE91
:01257D00223B
:10257E0090090CEEF0A3EFF0A3ECF0A3EDF0A3EBBB
:10258E00F0A3EAF0A3E9F0900910E0FBA3E0FAA3B0
:10259E00E0F9120DD37003022708900917E0640CBE
:1025AE00704490090EE0FCA3E0FD900913E0FFA338
:1025BE00E0900920CFF0A3EFF0900915E0FFA3E023
:1025CE00900922CFF0A3EFF0900917E0900924F0C4
:1025DE00900918E0900925F090090CE0FEA3E0FFA9
:1025EE00121A060226E9900917E06410704B900942
:1025FE000EE0FCA3E0FDA3E0FBA3E0FAA3E0F9A349
:10260E00E0FFA3E0900920CFF0A3EFF0900915E0D2
:10261E00FFA3E0900922CFF0A3EFF0900917E0900E
:10262E000924F0900918E0900925F090090CE0FEBD
:10263E00A3E0FF12174C0226E9900917E064187008
:10264E004A90090EE0FCA3E0FDA3E0FBA3E0FAA391
:10265E00E0F9A3E0FFA3E0900920CFF0A3EFF09004
:10266E000915E0FFA3E0900922CFF0A3EFF0900947
:10267E0017E0900924F0900918E0900925F09009D0
:10268E000CE0FEA3E0FF1214908050900917E06456
:10269E0020706790090EE0FCA3E0FDA3E0FBA3E031
:1026AE00FAA3E0F9A3E0FFA3E0900920CFF0A3EF97
:1026BE00F0900915E0FFA3E0900922CFF0A3EFF010
:1026CE00900917E0900924F0900918E0900925F080
:1026DE0090090CE0FEA3E0FF121CBF900911E475F7
:1026EE00F002120E3D900917E0FF90090DE02FF059
:0B26FE0090090CE03400F0022595224A
:101A060090091BECF0A3EDF0A3EBF0A3EAF0A3E939
:091A1600F0900919EEF0A3EFF0C5
:101A1F00E4900928F090092FEEF0A3EFF09009243D
:101A2F00E0FF131313541FFD7C00EF54077E00607B
:101A3F00047F0180027F00EF2DFFEE3CFE90092412
:101A4F00E0FD7C00120E2B90092DEEF0A3EFF0902D
:101A5F00092BE4F0A304F0E4900929F0A3F0900916
:101A6F002BE0FEA3E0FF900929E0FCA3E0FDC39F5C
:101A7F00EC9E4003021CBE90091DE0FBA3E0FAA3FD
:101A8F00E0F9120DD3FF90000075F01AED120FBBA5
:101A9F00EC75F01AA42583F583E06F6003021CAD8B
:101AAF00900001120DECFF900929A3E09000017541
:101ABF00F01A120FBBEC75F01AA42583F583E06FB3
:101ACF006003021CAD90091BE0FCA3E0FD9009240C
:101ADF00E0F9FF7E00900919E0FAA3E02FFFEE3A3C
:101AEF00CF24FFFBEF34FFFAE9FFA3E0F8A3E02FC9
:101AFF00FFEE38CF24FFCF34FF900A90F0A3EFF022
:101B0F00900919E0FEA3E0FF12339CE4900926F040
:101B1F00900926E0FFD390092EE09F90092DE094C5
:101B2F00005003021CADE4900927F0900925E060F6
:101B3F0003021BD8900929A3E075F01AA42402F51B
:101B4F0082E43400F583C083C082900926E0D082FE
:101B5F00D0832582F582E43583F583E0FD7C009008
:101B6F000927E0FF7E007401A807088005C333CE64
:101B7F0033CED8F9FFEE5CFEEF5D4E600590092085
:101B8F008003900922E0FCA3E0FDECFF900927E021
:101B9F00FE25E02431F582E43409F583EFF0EE25DC
:101BAF00E02432F582E43409F583EDF0900928E062
:101BBF0004F0900924E0FF900928E08FF084E5F00D
:101BCF006003021C7DF0021C8C900929A3E075F0C4
:101BDF001AA42402F582E43400F583C083C08290F6
:101BEF000926E0D082D0832582F582E43583F58300
:101BFF00E0FD7C00900927E0FF7E007401A8070834
:101C0F008005C333CE33CED8F9FFEE5CFEEF5D4EC9
:101C1F006014900919E0FEA3E0FFA3E0FCA3E0FD30
:101C2F0090092012327890091AE004F0700690099A
:101C3F0019E004F090092FE0FEA3E0FFC390091A0A
:101C4F00E09FFD900919E09EFC900924E07A00B511
:101C5F00051CEAB50418900919EEF0A3EFF09009EE
:101C6F001CE004F0701790091BE004F0800F90093E
:101C7F0027E004F0E0C394085003021B3A900925B3
:101C8F00E07012D2CBC2C77B017A0979317D10FC8B
:101C9F00123359D2C7900926E004F0021B1F900996
:0F1CAF002AE004F07006900929E004F0021A6D93
:011CBE002203
:10174C0090091BECF0A3EDF0A3EBF0A3EAF0A3E9F6
:09175C00F0900919EEF0A3EFF082
:10176500E4900928F090092FEEF0A3EFF0900924FA
:10177500E0FF131313541FFD7C00EF54077E006038
:10178500047F0180027F00EF2DFFEE3CFE900924CF
:10179500E0FD7C00120E2B90092DEEF0A3EFF090EA
:1017A500092BE4F0A37405F0E4900929F0A3F09067
:1017B500092BE0FEA3E0FF900929E0FCA3E0FDC3AF
:1017C5009FEC9E4003021A0590091DE0FBA3E0FA79
:1017D500A3E0F9120DD3FF90020E75F022ED120F62
:1017E500BBEC75F022A42583F583E06F6003021935
:1017F500F4900001120DECFF900929A3E090020F6F
:1018050075F022120FBBEC75F022A42583F583E059
:101815006F60030219F490091BE0FCA3E0FD900939
:1018250024E0F9FF7E00900919E0FAA3E02FFFEE0E
:101835003ACF24FFFBEF34FFFAE9FFA3E0F8A3E07A
:101845002FFFEE38CF24FFCF34FF900A90F0A3EF9F
:10185500F0900919E0FEA3E0FF12339CE4900926FD
:10186500F0900926E0FFD390092EE09F90092DE026
:10187500940050030219F4E4900927F0900925E03B
:10188500600302191F900929A3E075F022A4241012
:10189500F582E43402F583C083C082900926E0D046
:1018A50082D0832582F582E43583F583E0FD7C00D3
:1018B500900927E0FF7E007401A807088005C3335F
:1018C500CE33CED8F9FFEE5CFEEF5D4E6005900994
:1018D500208003900922E0FCA3E0FDECFF9009279E
:1018E500E0FE25E02431F582E43409F583EFF0EEDE
:1018F50025E02432F582E43409F583EDF0900928DA
:10190500E004F0900924E0FF900928E08FF084E5D9
:10191500F060030219C4F00219D3900929A3E075F8
:10192500F022A42410F582E43402F583C083C0823A
:10193500900926E0D082D0832582F582E43583F5AF
:1019450083E0FD7C00900927E0FF7E007401A80775
:10195500088005C333CE33CED8F9FFEE5CFEEF5DCC
:101965004E6014900919E0FEA3E0FFA3E0FCA3E09C
:10197500FD90092012327890091AE004F070069063
:101985000919E004F090092FE0FEA3E0FFC39009D8
:101995001AE09FFD900919E09EFC900924E07A0069
:1019A500B5051CEAB50418900919EEF0A3EFF090FF
:1019B500091CE004F0701790091BE004F0800F90FB
:1019C5000927E004F0E0C394085003021881900948
:1019D50025E07012D2CBC2C77B017A0979317D101F
:1019E500FC123359D2C7900926E004F0021866901C
:1019F500092AE004F07006900929E004F00217B402
:011A050022BE
:1014900090091BECF0A3EDF0A3EBF0A3EAF0A3E9B5
:0914A000F0900919EEF0A3EFF041
:1014A900E4900928F090092FEEF0A3EFF0900924B9
:1014B900E0FF131313541FFD7C00EF54077E0060F7
:1014C900047F0180027F00EF2DFFEE3CFE9009248E
:1014D900E0FD7C00120E2B90092DEEF0A3EFF090A9
:1014E900092BE4F0A37405F0E4900929F0A3F09026
:1014F900092BE0FEA3E0FF900929E0FCA3E0FDC36E
:101509009FEC9E400302174B90091DE0FBA3E0FAF4
:10151900A3E0F9120DD3FF90009C75F04AED120F6C
:10152900BBEC75F04AA42583F583E06F60030217CD
:101539003A900001120DECFF900929A3E090009D5B
:1015490075F04A120FBBEC75F04AA42583F583E0C8
:101559006F600302173A90091BE0FCA3E0FD9009B4
:1015690024E0F9FF7E00900919E0FAA3E02FFFEECD
:101579003ACF24FFFBEF34FFFAE9FFA3E0F8A3E039
:101589002FFFEE38CF24FFCF34FF900A90F0A3EF5E
:10159900F0900919E0FEA3E0FF12339CE4900926BC
:1015A900F0900926E0FFD390092EE09F90092DE0E5
:1015B9009400500302173AE4900927F0900927E0B4
:1015C900FFC394084003021719900925E06003023C
:1015D900166AA3E0FE900929E0FCA3E090009E753D
:1015E900F04A120FBBEC75F04AA42583F583E58216
:1015F9002EF582E43583F583E0FD7C007E007401DD
:10160900A807088005C333CE33CED8F9FFEE5CFEB8
:10161900EF5D4E60059009208003900922E0FCA34C
:10162900E0FDECFF900927E0FE25E02431F582E496
:101639003409F583EFF0EE25E02432F582E434092C
:10164900F583EDF0900928E004F0900924E0FF907B
:101659000928E08FF084E5F06003021710F0021703
:1016690019900926E0FF900929E0FCA3E090009E6B
:1016790075F04A120FBBEC75F04AA42583F583E592
:10168900822FF582E43583F583E0FD7C00900927FC
:10169900E0FF7E007401A807088005C333CE33CE6E
:1016A900D8F9FFEE5CFEEF5D4E6014900919E0FE7B
:1016B900A3E0FFA3E0FCA3E0FD900920123278909B
:1016C900091AE004F07006900919E004F090092F56
:1016D900E0FEA3E0FFC390091AE09FFD900919E01D
:1016E9009EFC900924E07A00B5051CEAB50418901F
:1016F9000919EEF0A3EFF090091CE004F0701190C5
:10170900091BE004F08009900927E004F00215C5DF
:10171900900925E07012D2CBC2C77B017A097931D1
:101729007D10FC123359D2C7900926E004F0021546
:10173900AA90092AE004F07006900929E004F00251
:0217490014F892
:01174B00227B
:101CBF0090091BECF0A3EDF0A3EBF0A3EAF0A3E97E
:091CCF00F0900919EEF0A3EFF00A
:101CD800E4900928F090092FEEF0A3EFF090092482
:101CE800E0FF131313541FFD7C00EF54077E0060C0
:101CF800047F0180027F00EF2DFFEE3CFE90092457
:101D0800E0FD7C00120E2B90092DEEF0A3EFF09071
:101D1800092BE4F0A304F0E4900929F0A3F090095A
:101D28002BE0FEA3E0FF900929E0FCA3E0FDC39FA0
:101D3800EC9E4003021F7790091DE0FBA3E0FAA385
:101D4800E0F9120DD3FF90001A75F082ED120FBB67
:101D5800EC75F082A42583F583E06F6003021F66AB
:101D6800900001120DECFF900929A3E090001B756B
:101D7800F082120FBBEC75F082A42583F583E06F27
:101D88006003021F6690091BE0FCA3E0FD90092494
:101D9800E0F9FF7E00900919E0FAA3E02FFFEE3A80
:101DA800CF24FFFBEF34FFFAE9FFA3E0F8A3E02F0D
:101DB800FFEE38CF24FFCF34FF900A90F0A3EFF066
:101DC800900919E0FEA3E0FF12339CE4900926F085
:101DD800900926E0FFD390092EE09F90092DE0940A
:101DE800005003021F66E4900927F0900925E0607F
:101DF80003021E91900929A3E075F082A4241CF522
:101E080082E43400F583C083C082900926E0D08242
:101E1800D0832582F582E43583F583E0FD7C00904C
:101E28000927E0FF7E007401A807088005C333CEA8
:101E380033CED8F9FFEE5CFEEF5D4E6005900920C9
:101E48008003900922E0FCA3E0FDECFF900927E065
:101E5800FE25E02431F582E43409F583EFF0EE2520
:101E6800E02432F582E43409F583EDF0900928E0A6
:101E780004F0900924E0FF900928E08FF084E5F051
:101E88006003021F36F0021F45900929A3E075F090
:101E980082A4241CF582E43400F583C083C08290B8
:101EA8000926E0D082D0832582F582E43583F58344
:101EB800E0FD7C00900927E0FF7E007401A8070878
:101EC8008005C333CE33CED8F9FFEE5CFEEF5D4E0E
:101ED8006014900919E0FEA3E0FFA3E0FCA3E0FD75
:101EE80090092012327890091AE004F070069009DF
:101EF80019E004F090092FE0FEA3E0FFC390091A4F
:101F0800E09FFD900919E09EFC900924E07A00B555
:101F1800051CEAB50418900919EEF0A3EFF0900932
:101F28001CE004F0701790091BE004F0800F900982
:101F380027E004F0E0C394085003021DF39009253C
:101F4800E07012D2CBC2C77B017A0979317D10FCCF
:101F5800123359D2C7900926E004F0021DD890091F
:0F1F68002AE004F07006900929E004F0021D261B
:011F77002247
:101F780090091BECF0A3EDF0A3EBF0900919EEF03B
:031F8800A3EFF0D4
:101F8B00E4900927F090092CEEF0A3EFF0900922D2
:101F9B00E0F9C313900925F0E0FF131313541FFD51
:101FAB007C00EF54077E0060047F0180027F00EF0E
:101FBB002DFFEE3CFEE9FD7C00120E2B90092AEE64
:101FCB00F0A3EFF090091DE024E0F090091BE0FC7A
:101FDB00A3E0FD900925E0FF7E00900919E0FAA32C
:101FEB00E02FFFEE3ACF24FFFBEF34FFFAE9FFA31C
:101FFB00E0F8A3E02FFFEE38CF24FFCF34FF900A99
:10200B0090F0A3EFF0900919E0FEA3E0FF12339CD0
:10201B00E4900928F0A3F090092AE0FEA3E0FF90DA
:10202B000928E0FCA3E0FDC39FEC9E40030221EFD7
:10203B00900922E0641060030221EF90091DE07506
:10204B00F010A424B8F582E5F03402F583E5822D77
:10205B00F582E5833CF583E0900924F0E4900926B2
:10206B00F0900926E0FFC3940840030221BE9009BB
:10207B0023E0600302213A900925E054077064FEC7
:10208B0004A807088005C333CE33CED8F9FF9009D7
:10209B0024E0FDEF5D600590091E8003900920E0B0
:1020AB00FCA3E0FDECFF900926E0FE25E0242EF5D5
:1020BB0082E43409F583EFF0EE25E0242FF582E47A
:1020CB003409F583EDF0900927E004F0900925E041
:1020DB00FF900927E08FF084E5F060030221B5F053
:1020EB000221BE900926E0FF7E007401A80708803C
:1020FB0005C333CE33CED8F9FF900924E0FDEF5D55
:10210B00600590091E8003900920E0FEA3E0FF12FA
:10211B003418900927E004F0900925E0FF90092777
:10212B00E08FF084E5F060030221B5F00221BE9050
:10213B000926E0FF7E007401A807088005C333CE93
:10214B0033CED8F9FF900924E0FDEF5D60149009C0
:10215B0019E0FEA3E0FFA3E0FCA3E0FD90091E1233
:10216B00327890091AE004F07006900919E004F037
:10217B0090092CE0FEA3E0FFC390091AE09FFD90AD
:10218B000919E09EFC900925E07A00B5051CEAB51B
:10219B000418900919EEF0A3EFF090091CE004F07D
:1021AB00701190091BE004F08009900926E004F0FF
:1021BB0002206C900925E054077018900923E070F9
:1021CB0012D2CBC2C77B017A09792E7D10FC123358
:1021DB0059D2C7900929E004F07006900928E00451
:0421EB00F0022022BC
:0121EF0022CD
:1030E60090090CEEF0A3EFF0A3ECF0A3EDF0A3EB48
:1030F600F0A3EAF0A3E9F0900910E0FBA3E0FAA33D
:10310600E0F9120DD3FB606190090EE0FCA3E0FD2F
:10311600900913E0FFA3E090091ECFF0A3EFF09013
:103126000915E0FFA3E0900920CFF0A3EFF0900986
:1031360017E0900922F0900918E0900923F0900911
:103146000CE0FEA3E0FF121F78900917E0C313FFFF
:1031560090090DE02FF090090CE03400F090091171
:0A316600E475F001120E3D808E2288
:0732BF00C3EF9E14FD7F0A1E
:0832C600900B2BEFF0A3EDF0DB
:1032CE00A3120F8A00000001900B2CE0FF14F0EF08
:1032DE006020A3E0F8A3E0F9A3E0FAA3E0FB900BD3
:1032EE002BE0FFE4FCFDFE120E53900B2D120F7E11
:1032FE0080D6900B2DE0FCA3E0FDA3E0FEA3E0FF43
:01330E00229C
:102AE800900AF2EEF0A3EFF0A3ECF0A3EDF0A3EA66
:042AF800F0A3EBF06C
:102AFC00E4900B00F0900AFDE0C313900B01F0E49E
:102B0C00900AFEF0900AF8E0FF900AFEE0FEC39FE8
:102B1C004003022C131232BFA804A905AA06AB0766
:102B2C00900AF6E0FEA3E0FFE4FCFD120EDEE47B6F
:102B3C000AFAF9F8120EDE900AFFEBF0A3E07065CA
:102B4C00900AF8E014FF900AFEE0FEC39F5056A3D3
:102B5C00E0704C900B01E0FFEE8FF0A4FF900AF3B5
:102B6C00E02FFF900AF2E035F0FE900AF4E0FCA3AF
:102B7C00E0FD900AF9E0FBA3E090091ECBF0A3EB7B
:102B8C00F0900AFBE0FBA3E0900920CBF0A3EBF064
:102B9C00900AFDE0900922F0E4A3F07B20805C9089
:102BAC000B007401F0900B01E0FF900AFEE08FF037
:102BBC00A4FF900AF3E02FFF900AF2E035F0FEC07C
:102BCC0007900AF4E0FCA3E0FD900AFFE02430FB40
:102BDC00900AF9E0FFA3E090091ECFF0A3EFF0906C
:102BEC000AFBE0FFA3E0900920CFF0A3EFF0900ADE
:102BFC00FDE0900922F0E4A3F0D007121F78900AB0
:072C0C00FEE004F0022B10B2
:012C1300229E
:0E285700900ACCEEF0A3EFF0A3ECF0A3EDF0AE
:10286500900AD9E0C313900ADCF0E4FFFE7DC87C32
:1028750042900AD0E0F8A3E0F9A3E0FAA3E0FB1246
:1028850008C4120AA8900ADDEEF0A3EFF0E4900A5E
:10289500DAF0900AD4E0FF900ADAE0FEC39F400325
:1028A5000229A01232BFA804A905AA06AB07900AFF
:1028B500DDE0FEA3E0FFE4FCFD120EDEE47B0AFA98
:1028C500F9F8120EDE900ADBEBF0900AD4E0FF2453
:1028D500FEFE900ADAE06E7060EF24FEFFE434FF3E
:1028E500FE900ADCE0FD7C00120E2B900ACDE02F55
:1028F500FF900ACCE03EFE900ACEE0FCA3E0FD90FE
:102905000AD5E0FBA3E090091ECBF0A3EBF0900AFB
:10291500D7E0FBA3E0900920CBF0A3EBF0900AD918
:10292500E0900922F0E4A3F07B2E121F78900ADADA
:10293500E004F0900AD4E004F0900ADCE0FF900A8D
:10294500DAE08FF0A4FF900ACDE02FFF900ACCE0EB
:1029550035F0FEC007900ACEE0FCA3E0FD900ADB4F
:10296500E02430FB900AD5E0FFA3E090091ECFF0EC
:10297500A3EFF0900AD7E0FFA3E0900920CFF0A3E2
:10298500EFF0900AD9E0900922F0E4A3F0D0071205
:0B2995001F78900ADAE004F002289797
:0129A0002214
:10270900900ADFEEF0A3EFF0A3ECF0A3EDF0A3EA5B
:04271900F0A3EBF04E
:10271D00900AEE120F8A00000000900AE1E0FCA37F
:10272D00E0FDA3E0FEA3E0FF900ADFE0FAA3E02FB7
:10273D00FFEA3ECF24FFFBEF34FFFA900AE5E0FEFF
:10274D00A3E0FF900AE1E0F8A3E02FFFE83ECF24DD
:10275D00FFCF34FF900A90F0A3EFF0900ADFE0FE78
:10276D00A3E0FF12339CE4900AEAF0A3F0900AE391
:10277D00E0FEA3E0FFC3900AEBE09F900AEAE09E23
:10278D004003022856E4900AECF0A3F0900AE5E02D
:10279D00FEA3E0FFC3900AEDE09F900AECE09E409F
:1027AD0003022842E47F02FEFDFC900AEEE0F8A34E
:1027BD00E0F9A3E0FAA3E0FB120E53900AE7E0FB69
:1027CD00A3E0FAA3E0F98F828E83120DECFF123491
:1027DD00C5E47F02FEFDFC900AEEE0F8A3E0F9A34C
:1027ED00E0FAA3E0FB120E53EF2401FFE43EFE904E
:1027FD000AE7E0FBA3E0FAA3E0F98F828E83120DC6
:10280D00ECFF1234C5900AEEE0FCA3E0FDA3E0FE60
:10281D00A3E02401FFE43EFEE43DFDE43CFC900A10
:10282D00EE120F7E900AEDE004F07006900AECE0D7
:10283D0004F0022799900AEBE004F0600302277A76
:09284D00900AEAE004F002277A87
:01285600225F
:102C14009008FEEEF0A3EFF0A3ECF0A3EDF0A3EB2D
:072C2400F0A3EAF0A3E9F0C0
:102C2B00E490090BF0900902E0FBA3E0FAA3E0F9B2
:102C3B0090090BE0F582758300120DEC7003022DE9
:102C4B0025C39480900900E0FCA3E0FD505C900943
:102C5B000BE0FF7E00E92FF9EE3AFA900905E0FF51
:102C6B00A3E0900913CFF0A3EFF0900907E0FFA3C7
:102C7B00E0900915CFF0A3EFF0900909E090091748
:102C8B00F090090AE0900918F09008FEE0FEA3E02E
:102C9B00FF1230E6900909E0C313FF9008FFE02F05
:102CAB00F09008FEE03400F08067A3E0FBA3E0FAAD
:102CBB00A3E0F990090BE0FF7E00E92FF9EE3AFA59
:102CCB00900905E0FFA3E0900913CFF0A3EFF0907C
:102CDB000907E0FFA3E0900915CFF0A3EFF09009EF
:102CEB0009E0900917F090090AE0900918F0900894
:102CFB00FEE0FEA3E0FF12257E900909E0FF90089D
:102D0B00FFE02FF09008FEE03400F090090BE00498
:0A2D1B00F090090BE004F0022C30E8
:012D2500228B
:102FB7009008A8EEF0A3EFF0A3ECF0A3EDF0A3EADE
:042FC700F0A3EBF098
:102FCB009008FB7401F0A37408F0A374B5F090089B
:102FDB00B2E0F9A3E0FAA3E09008FEC9F0A3EAF08F
:102FEB00A3E9F09008FBE0F9A3E0FAA3E090090154
:102FFB00C9F0A3EAF0A3E9F07B017A0879DD12337B
:10300B000F9008FBE4F0A3F0A3F09008AAE0FCA358
:10301B00E0FD7B017A0879DDA3E0FFA3E0900905D1
:10302B00CFF0A3EFF09008AEE0FFA3E0900907CF3D
:10303B00F0A3EFF09008B0E0900909F09008B1E030
:0F304B0090090AF09008A8E0FEA3E0FF022C1401
:043462007F647E0005
:10346600EF1F70011E144E601100000075080B75E9
:0A34760009BED509FDD508FA80E66D
:013480002229
:0834D900C2C712349BD2C722C6
:0A34C500D2CBC2C712349BD2C7223B
:05341300E0FEA3E0FF54
:04341800AD07AC064A
:10341C00EC900A92F0A3EFF0D2CBC2C7900A92E0E4
:0E342C00FF12349B900A93E0FF12349BD2C72C
:01343A00226F
:0834E100C2CB1234D9D2CB2278
:10339C00900A8AEEF0A3EFF0A3ECF0A3EDF0A3EA11
:1033AC00F0A3EBF07F2A1234E1900A8A12341390C6
:1033BC000A8E1234137F2B1234E1900A8C123413C0
:0C33CC00900A901234137F2C1234E1227E
:1029A100C2C0123462D2C0123462D2C81234627F01
:1029B100111234E17F787E001234667F361234E1E1
:1029C100E4FF1234C57F3A1234E17F051234C57F2A
:1029D100B21234E17F0C1234C57F0C1234C5E4FF0E
:1029E1001234C57F331234C57F331234C57FB71219
:1029F10034E17F351234C57FBB1234E17F191234C3
:102A0100C57FC01234E17F2C1234C57FC21234E17C
:102A11007F011234C57FC31234E17F121234C57FA6
:102A2100C41234E17F201234C57FC61234E17F0F16
:102A31001234C57FD01234E17FA41234C57FA112B4
:102A410034C57FE01234E17FD01234C57F041234E3
:102A5100C57F0D1234C57F111234C57F131234C5E1
:102A61007F2B1234C57F3F1234C57F541234C57F8A
:102A71004C1234C57F181234C57F0D1234C57F0B3B
:102A81001234C57F1F1234C57F231234C57FE11272
:102A910034E17FD01234C57F041234C57F0C123467
:102AA100C57F111234C57F131234C57F2C1234C572
:102AB1007F3F1234C57F441234C57F511234C57F24
:102AC1002F1234C57F1F1234C57F1F1234C57F20DA
:102AD1001234C57F231234C57F211234E17F1112D4
:072AE10034E17F290234E11A
:1033D800CFB5CDB3C6F4B6AFD6D00020204C6F61C0
:1033E8006420616E6420496E697469616C697A61F0
:1033F80074696F6E2E2E2E0073746174653A25649D
:0B340800206164633A252E32665600F6
:0508BE00420AB2000037
:10348100E4F593F594F591F592F595F596F5B1F589
:0A349100B2F5B3F5B4F5C9F5CA228F
:0A34CF00759D10E4F5BD75BC802268
:1034B100EF4488F5BC00000000E5BC30E4FB53BCE0
:0434C100EFAFBD228A
:102D26001234811234CF1234E91229A1E4FFFE12C3
:102D36003170E49008AEF0A3F0A37418F0E4A3F0A9
:102D4600A374FFF0A37433F0A374D8F074FFFBFAF6
:102D56007D647C007F3C7E00122FB77BFF7A33793F
:102D6600E374FF900913F0A3F0E4A3F0A3F0A374B7
:102D760010F0E4A3F07DDCFCFFFE1230E6E4FFFE7B
:102D86001231707F041234B1AC07E4120A74E4FB0A
:102D9600FA79A078401208C4E4FBFA7980784312E5
:102DA60009CD900AB4120F7E209309E4900AB2F07E
:102DB600A3F0800B309308900AB2E4F0A304F090DD
:102DC600090774FFF0A37434F0A37400F0900AB2FC
:102DD600E0FFA3E090090ACFF0A3EFF0900AB4E079
:102DE600FCA3E0FDA3E0FEA3E0FF90090C120F7E1A
:102DF6007B017A0A79B81210727B017A0A79B87463
:102E0600FF900913F0A3F0E4A3F0A3F0A37410F06D
:0F2E1600E4A3F07D64FC7F3CFE1230E6022D89C0
:0734E900D292D2CDD2C7221E
:10349B00E4FEEF3392CDEF25E0FFC292D2920EEE17
:0534AB00B408EFD2CDD2
:0134B00022F9
:10335900900A8AEBF0A3EAF0A3E9F0A3ECF0A3ED5D
:01336900F073
:10336A00C2C7E4FDFCD3900A8EE09D900A8DE09CD2
:10337A00401D900A8AE0FBA3E0FAA3E0F98D828C53
:10338A0083120DECFF12349B0DBD00010C80D6D2C6
:01339A00C76B
:01339B00220F
:1008C400EC4D6011E8497017ED33EC3304600DE42E
:1008D400FCFFFEFD22E933E8330470F8020B141226
:1008E4000ADF58046009E4CC248150062850090228
:1008F4000B1E284003020B1BC0E0EB4A7044B98076
:1009040006D0E0FB020B0AEF4E701CBD8008EBFF23
:10091400EAFEE9FD80EBE98DF0A4FEE5F00209AD05
:10092400E9CDF9EAFEEBFFEF89F0A4FCE5F0CE890E
:10093400F0A42EFFE435F0CD89F0A42DFEE435F0CB
:100944008067EF4E7005BD80D780C3EF8BF0A4ACF9
:10095400F0EE8BF0A42CFCE435F0F8EF8AF0A42C34
:10096400E5F038FCE433CB8DF0A42CFCE5F03BF847
:10097400EE8AF0A42CFCE5F038F8E433CF89F0A437
:100984002CFCE5F038CF3400CE89F0A42FFFE5F03D
:100994003EFEE433C98DF0A42EFEE5F039CD8AF095
:1009A400A42FFFE5F03EFEE43DFD33D0E0FB50070D
:1009B4000BBB000F020B1EEC2CFCEF33FFEE33FEDF
:0609C400ED33FD020AF60E
:1009CA00020B1EEC5D046005E859047003020B1467
:1009DA00120ADF580460F6EC4860F2EC7004FDFE7F
:1009EA00FF22C860DB2481C85009C3986002500600
:1009FA00020B1B9850CAF582E9294B4A7005AB8253
:100A0A00020B0A75F0007C1A7880C3EF9BEE9AED10
:100A1A0099400DC3EF9BFFEE9AFEED99FDE842F077
:100A2A00DC23ACF0D0E0FFD0E0FED0E0FDAB8220CA
:100A3A00E7101BEB60BAEC2CFCEF33FFEE33FEED54
:100A4A0033FD020AF6E803F830E705C0F075F00056
:100A5A00EF2FFFEE33FEED33FD40B830E7C280AA38
:100A6A0075F020800E75F010800575F0087D007E07
:100A7A00007F003392D530D503120F70EC3340104B
:100A8A00EF33FFEE33FEED33FDEC33FCD5F0ED2210
:0E0A9A00E5F0247EA2D513CC92E7CDCEFF224C
:100AA800EDD2E7CD33EC3392D524814006E4FFFE46
:100AB800FDFC22FCE4CFCECDCC24E0501174FF80A5
:100AC800EDC3CC13CCCD13CDCE13CECF13CF047042
:070AD800F030D5DE020F70C3
:10100D00E5082407F582E43409F583E0050822900C
:10101D000904300703900907E475F001120FC702A8
:10102D000DD32000E97F2ED2008018EF540F2490AD
:10103D00D43440D4FF30040BEF24BFB41A00500356
:10104D002461FFE50960021509050CE50C70020528
:10105D000B30070E900904E475F001120FC7EF0273
:10106D000E1902343B7403D2078003E4C207F5085E
:10107D00900904120FDEE4F509F50BF50CE5096096
:10108D00077F2012105080F5750AFFC201C200C201
:10109D0002C203C205C206C20812101CFF700D3039
:1010AD0007057F00121061AF0CAE0B22B4255FC295
:1010BD00D5C20412101CFF24D0B40A00501A75F0CA
:1010CD000A780930D50508B6FF0106C6A426F62014
:1010DD00D5047002D20380D924CFB41A00EF500486
:1010ED00C2E5D204021353D20180C6D20080C0D211
:1010FD000280BCD2D580BAD20580B47F20121050A8
:10110D002002077401B5090040F112100DFF1210F5
:10111D005002108AD208D206809512100DFB1210C3
:10112D000DFA12100DF94A4B700679517A147BFFA6
:10113D0020022EE509602A7E008E82758300120D35
:10114D00EC60060EEE650A70F0C2D5EBC0E0EAC0A9
:10115D00E0E9C0E0EE1213B4D0E0F9D0E0FAD0E04F
:10116D00FB120DD3FF60AAEBC0E0EAC0E0E9C0E0DE
:10117D00121050D0E02401F9D0E03400FAD0E0FB99
:10118D00E50A0460DCD50AD98087D20280A2121349
:10119D009660F7E50A700104120B29A90A600DE5A6
:1011AD000A600914F50A12143EEF60F3EA30E70203
:1011BD00F404C3995079EAF4250A0430E701E404F4
:1011CD00F50A800D12139660C1EA050A250A120B65
:1011DD0029EA900933F030E701E4250A04D50A0421
:1011ED00200501141213B4E4C0E012143E9009332B
:1011FD00E0601320E70714F0121038802204F0D0BD
:10120D00E014C0E07F00121038E50A600712102FBD
:10121D00150A800B30050312102FD0E002108AD072
:10122D00E00480C4121396609EE50A04120B299007
:10123D000933EAF0E50A20050260010424041213C3
:01124D00B4EC
:10124E0074FF04C0E012143E121038E50A200502A5
:10125E00600312102FD0E0B50AE87F4512104290BD
:10126E000933E07F2B30E7047F2DF404C0E0121029
:10127E0050D0E075F00A84C0F0121039D0E0121090
:10128E003902108A791080027908C206C2088008D5
:10129E00D2D5790A8004790AC2D5E50A047002F51E
:1012AE000AE4FAFDFEFF12100DFC7B08200113125A
:1012BE00100DFD7B1030000A12100DFE12100DFFE6
:1012CE007B20EC3382D592D55013C3E43000069FB9
:1012DE00FFE49EFEE42001039DFDE49CFCE4CBF8BC
:1012EE00C201EC700CCFCECDCCE824F8F870F380B0
:1012FE0017C3EF33FFEE33FEED33FDEC33FCEB3370
:10130E00FB994002FB0FD8E9EB300105F8D0E0C4A1
:10131E0048B201C0E00AEC4D4E4F78207B0070C2FF
:10132E00EAB50A0040BCC0E01213B6D0F0D0E020FF
:10133E000104C4C0E0C4B201C0F0121039D0F0D51F
:10134E00F0EB02108A120FE711275312925810F881
:10135E004C10F44212964F129E44129E49110D43A8
:10136E0012A45511D146123145119B4714715010DC
:10137E00FC2D11002E11232B110423112120145AA0
:10138E002A10BC480000111BE50AB4FF03750A06BB
:10139E0012100DFC12100DFD12100DFE12100DFF8D
:1013AE0090092C020B66790AA2D520031430050988
:1013BE00B910020404B9080104A2D5200602500196
:1013CE00042002689202B509005034C0E07F20303C
:1013DE0003197F30A20272067205500F12140DC24D
:1013EE0002C206C205C2087F30800F300503E9C075
:1013FE00E0121050300503D0E0F9D0E0B509CC3042
:10140E0005177F30B9100C1210507F583004077F2B
:10141E00788003B908031210503002057F2D021098
:10142E00507F202008F87F2B2006F322920280CFD7
:10143E007F00B40700500B242CF582E43409F583A9
:10144E00E0FF22286E756C6C2900D20112100D304F
:10145E0001F8C201780930D50108F60210BC2D50F2
:10146E0043495812100D2403B405004001E49014B2
:10147E006C93121041743A121041D2037509040292
:02148E001292B8
:10330F009008FEE0FFA3E0FEA3E0CF900907F0A333
:10331F00EEF0A3EFF0900901E0CBF0A3E0CAF0A329
:10332F00E0C9F07F2290090AAD82AC83120DD38DD4
:10333F00828C83F0A309E970010ADFEC900901E0A8
:0A334F00FBA3E0FAA3E0F9021072FC
:100ADF00E9D2E7C933E833F892D5EDD2E7CD33EC5D
:070AEF0033FC5002B2D522D6
:100AF600EC30E7100FBF000C0EBE00080DBD000461
:100B06000BEB6014A2D5EB13FCED92E7FD2274FF0C
:100B1600FCFDFEFF22E480F8A2D574FF13FC7D8065
:030B2600E480EF79
:100B2900F920E73624F950037907E4F42402FBE5B8
:100B390082158270021583DBF6E024FB501BE96005
:100B490014E4F0E582158270021583E004F0B40A1A
:0D0B590008E4F0D9EE7401F00A22C2D522A2
:100B6600ED33EC3392D5FA602AB4FF33EDC2E77B5E
:100B7600FF60067A0B798BE4227A0B799420D504F0
:100B86007A0B798F224E614E002B494E46002D4935
:100B96004E4600E47A08F0A3DAFC7B00740722C014
:100BA60083C082ECC0E0EDC0E0EEC0E0EFC0E0EA5A
:100BB60075F010A4CAABF075F04DA42BFBE435F02C
:100BC600FCEA2410FAEB34C5FBEC34D9FCEDC2E7A1
:100BD600FF75F056A4F42411C5F0F434C58FF0A4C3
:100BE6002AE5F03BE43CF020E714120D93D0E0FF39
:100BF600D0E0FED0E0FDD0E0FC1209CD8014F40474
:100C0600120D93D0E0FFD0E0FED0E0FDD0E0FC1264
:100C160008C4D082D083E0FAEDD2E7CD33EC33249A
:100C260082FBE4C3CF33CFCE33CECD33CD33DBF32C
:100C36007B0775F00A846004F0A31B0AE5F0F0A3B5
:100C46008FF0740AA4FFACF08EF0740AA42CFEACEC
:100C5600F050010C8DF0740AA42CFDE435F0F0A3DD
:050C6600DBDE74072233
:100C6B00020B14E86480F8E933E83360110460F098
:100C7B00ED33EC337009E8FCE9FDEAFEEBFF2204EF
:100C8B0060DED3EB9FEA9EE99DE8C2E78CF0C2F7EA
:100C9B0095F0400CE8CCF8E9CDF9EACEFAEBCFFBB6
:100CAB00120ADF85D0F05804700320D5B3E8047026
:100CBB00075002B2D5020B1E92D5EC0460F7E4CCC0
:100CCB00C0E0C398F8603B94186008400DD0E0FB7F
:100CDB00020AF6E4FBFAC9FC8028E830E406E4C912
:100CEB00FBE4CAFCE830E305E4C9CACBFCE85407D3
:100CFB006010F8C3E913F9EA13FAEB13FBEC13FCDE
:100D0B00D8F130F52FC3E49CFCEF9BFFEE9AFEED80
:100D1B0099FDD0E0FBEF4E4D4C701222DB03020B22
:100D2B001BEC2CFCEF33FFEE33FEED33FDED30E728
:100D3B00EB020AF6EF2BFFEE3AFEED39FDD0E0FBAE
:100D4B0050130BBB0003020B1EED13FDEE13FEEF56
:080D5B0013FFEC13FC020AF681
:100D63003F8000004120000042C80000447A000098
:100D7300461C400047C35000497424004B1896801A
:100D83004CBEBC205A0E1BCA6753C21C749DC5AE11
:100D9300FB60065407601C2323120DC1EB5438601B
:100DA30009120DAD120DBC1208C4ECF8EDF9EEFA00
:100DB300EFCB22EB120DBC80F1543803241C900DB1
:100DC30063FE93FC0EEE93FD0EEE930ECE93FF2285
:0300000002305A71
:0C305A00787FE4F6D8FD7581210230A1DA
:100DD300BB010689828A83E0225002E722BBFE021E
:090DE300E32289828A83E4932251
:100DEC00BB010CE58229F582E5833AF583E02250BC
:100DFC0006E92582F8E622BBFE06E92582F8E22206
:0D0E0C00E58229F582E5833AF583E493221F
:100E1900BB010689828A83F0225002F722BBFE01B8
:020E2900F322B2
:100E2B00EF8DF0A4A8F0CF8CF0A428CE8DF0A42EDB
:020E3B00FE2295
:100E3D00C5F0F8A3E028F0C5F0F8E5821582700240
:060E4D001583E038F022DD
:100E5300E88FF0A4CC8BF0A42CFCE98EF0A42CFC3E
:100E63008AF0EDA42CFCEA8EF0A4CDA8F08BF0A4BC
:100E73002DCC3825F0FDE98FF0A42CCD35F0FCEB1B
:100E83008EF0A4FEA9F0EB8FF0A4CFC5F02ECD39E0
:0F0E9300FEE43CFCEAA42DCE35F0FDE43CFC224D
:100EA20075F008758200EF2FFFEE33FECD33CDCC07
:100EB20033CCC58233C5829BED9AEC99E58298408A
:100EC2000CF582EE9BFEED9AFDEC99FC0FD5F0D667
:100ED200E4CEFBE4CDFAE4CCF9A88222B800C1B991
:100EE2000059BA002DEC8BF084CFCECDFCE5F0CBCF
:100EF200F97818EF2FFFEE33FEED33FDEC33FCEB08
:100F020033FB10D703994004EB99FB0FD8E5E4F9C2
:100F1200FA227818EF2FFFEE33FEED33FDEC33FCAF
:100F2200C933C910D7059BE99A4007EC9BFCE99AA3
:100F3200F90FD8E0E4C9FAE4CCFB2275F010EF2FE8
:100F4200FFEE33FEED33FDCC33CCC833C810D707E8
:100F52009BEC9AE899400AED9BFDEC9AFCE899F823
:0E0F62000FD5F0DAE4CDFBE4CCFAE4C8F922B6
:0E0F7000C3E49FFFE49EFEE49DFDE49CFC2292
:0C0F7E00ECF0A3EDF0A3EEF0A3EFF022E6
:100F8A00A8828583F0D083D082120FA1120FA112FA
:100F9A000FA1120FA1E473E493A3C583C5F0C5831F
:100FAA00C8C582C8F0A3C583C5F0C583C8C582C8B1
:010FBA002214
:0C0FBB00A42582F582E5F03583F5832241
:100FC700F8E0FBA3A3E0F925F0F0E58215827002B3
:070FD7001583E0FA38F02257
:090FDE00EBF0A3EAF0A3E9F02214
:100FE700D083D082F8E4937012740193700DA3A399
:100FF70093F8740193F5828883E4737402936860AD
:06100700EFA3A3A380DFAC
:10343B00EFB40A07740D123446740A309811A89928
:10344B00B8130CC2983098FDA899C298B811F630F1
:07345B0099FDC299F59922C9
:10306600022D26E493A3F8E493A34003F68001F22D
:1030760008DFF48029E493A3F85407240CC8C3336B
:10308600C4540F4420C8834004F456800146F6DF3A
:10309600E4800B0102040810204080900003E47EC7
:1030A600019360BCA3FF543F30E509541FFEE4932F
:1030B600A360010ECF54C025E060A840B8E493A3F6
:1030C600FAE493A3F8E493A3C8C582C8CAC583CA21
:1030D600F0A3C8C582C8CAC583CADFE9DEE780BED9
:0108C3000034
:00000001FF
