:10373500504D322E353A25356400504D3130203A02
:0437450025356400C2
:10004600420BA50000420BA30000410BA000410B90
:06005600A100410BA20114
:0C375900900B1CE0B40104E4F0B28022EC
:10249D00900B54E064016003022653B281F0900B5F
:1024AD002BE0FEA3E07C002400FFEC3E900BA5F09A
:1024BD00A3EFF0E4900936F0A3F0A37410F0E4A3B9
:1024CD00F0A374FFF0A37437F0A37435F0900BA54F
:1024DD00E0FFA3E090093DCFF0A3EFF07BE07A079A
:1024ED007D917F147E0012312E900B2DE0FEA3E026
:1024FD007C002400FFEC3E900BA3F0A3EFF0E490E2
:10250D000936F0A3F0A37410F0E4A3F0A374FFF068
:10251D00A37437F0A3743FF0900BA3E0FFA3E090FA
:10252D00093DCFF0A3EFF07B1F7A007DA57F147ED0
:10253D000012312E900BA2E0FB7A002413FFEA3338
:10254D00FEC006C007900BA0E0FFC3748C9FFDE496
:10255D009400FCEB2414FBEA33FA900BA5E0FEA3E8
:10256D00E0FFC3748C9F900937F0E49E900936F01C
:10257D009009387407F0A374E0F0D007D00612224A
:10258D00AF900BA5A3E0900BA0F0900BA2E0FB7A0F
:10259D00002413FFEA33FEC006C007900BA1E0FF35
:1025AD00C3748C9FFDE49400FCEB2414FBEA33FA16
:1025BD00900BA3E0FEA3E0FFC3748C9F900937F04E
:1025CD00E49E900936F0900938E4F0A3741FF0D022
:1025DD0007D0061222AF900BA3A3E0900BA1F0A39E
:1025ED00E004F0E0C394B4405D7401F0900936E46A
:1025FD00F0A3748CF0E4A3F0A3F07BC8FA7D28FC63
:10260D007F14FE123082900936E4F0A3748CF0A38F
:10261D0074BCF0A37440F07B147A007D287C007F9D
:10262D00147E001222AF900936E4F0A3748CF0A34F
:10263D0074BCF0A37440F07BC87A007D8C7C007F65
:06264D00147E001222AF12
:012653002264
:10336600E4F594F593F592F591F596F595F5B2F5A4
:10337600B1F5B4F5B3F5CAF5C9F5CCF5CBF5E2F57B
:10338600E1123720123749123780122C17E4FFFE5C
:103396001232E7900936E4F0A3748CF0A374BCF003
:1033A600A37440F07B147A007D287C007F147E0095
:1033B6001222AF900936E4F0A3748CF0A374BCF02B
:1033C600A37440F07BC87A007D8C7C007F147E005D
:0B33D6001222AF12375912249D80F81C
:07378000D292D2CDD2C72284
:10370A00E4FEEF3392CDEF25E0FFC292D2920EEEA5
:05371A00B408EFD2CD60
:01371F002287
:1035F000900B12EBF0A3EAF0A3E9F0A3ECF0A3ED3B
:01360000F0D9
:10360100C2C7E4FDFCD3900B16E09D900B15E09C26
:10361100401D900B12E0FBA3E0FAA3E0F98D828C30
:1036210083120E93FF12370A0DBD00010C80D6D212
:01363100C7D1
:013632002275
:10005C0065F00340000000000000000000000000FC
:10006C00000000000000000808080808080800004C
:10007C001818000000486C2412000000000000005A
:10008C00000000000000002424247F1212127F12B2
:10009C00121200000000081C2A2A0A0C1828282A10
:1000AC002A1C080800000022251515152A5854543E
:1000BC00542200000000000C1212120A762529119D
:1000CC00916E000000060604030000000000000012
:1000DC000000000000402010100808080808081054
:1000EC001020400000020408081010101010100816
:1000FC00080402000000000008086B1C1C6B0808B8
:10010C000000000000000000080808087F0808082C
:10011C0008000000000000000000000000000000CB
:10012C00060604030000000000000000FE000000B2
:10013C0000000000000000000000000000000000B3
:10014C000606000000008040402020101008080423
:10015C000402020000000018244242424242424281
:10016C0024180000000000080E08080808080808F9
:10017C00083E00000000003C4242422020100804CF
:10018C00427E00000000003C4242201820404042C9
:10019C00221C0000000000203028242422227E2073
:1001AC00207800000000007E0202021A2640404225
:1001BC00221C0000000000382402021A264242428F
:1001CC00241800000000007E2222101008080808E5
:1001DC00080800000000003C42424224182442421D
:1001EC00423C000000000018244242426458404047
:1001FC00241C000000000000000018180000000083
:10020C0018180000000000000000000800000000AA
:10021C000008080400000040201008040204081024
:10022C00204000000000000000007F0000007F0064
:10023C0000000000000000020408102040201008FC
:10024C00040200000000003C424246402010100016
:10025C00181800000000001C225A555555552D4207
:10026C00221C00000000000808181414243C224230
:10027C0042E700000000001F2222221E22424242BE
:10028C00221F00000000007C4242010101010142DA
:10029C00221C00000000001F224242424242424205
:1002AC00221F00000000003F4212121E12120242D6
:1002BC00423F00000000003F4212121E12120202C6
:1002CC00020700000000003C2222010101712122E2
:1002DC00221C0000000000E7424242427E424242A1
:1002EC0042E700000000003E08080808080808085B
:1002FC00083E00000000007C1010101010101010B0
:10030C001010110F0000007722120A0E0A1212228E
:10031C002277000000000007020202020202020221
:10032C00427F000000000077363636362A2A2A2A09
:10033C002A6B0000000000E346464A4A52525262C1
:10034C00624700000000001C2241414141414141F3
:10035C00221C00000000003F424242423E020202C8
:10036C00020700000000001C2241414141414D5355
:10037C00321C60000000003F4242423E1212222218
:10038C0042C700000000007C424202041820404298
:10039C00423E00000000007F4908080808080808D1
:1003AC00081C0000000000E7424242424242424226
:1003BC00423C0000000000E742422224241414189E
:1003CC00080800000000006B494949495555362280
:1003DC0022220000000000E74224241818182424CC
:1003EC0042E70000000000772222141408080808D5
:1003FC00081C00000000007E21201010080404429C
:10040C00423F000000780808080808080808080897
:10041C0008087800000002020404080808101020E4
:10042C0020204040001E1010101010101010101042
:10043C0010101E00003844000000000000000000F6
:10044C0000000000000000000000000000000000A0
:10045C00000000FF00060800000000000000000083
:10046C0000000000000000000000003C4278444204
:10047C0042FC0000000000030202021A2642424223
:10048C00261A00000000000000000038440202029E
:10049C004438000000000060404040784442424232
:1004AC0064D80000000000000000003C427E020204
:1004BC00423C0000000000F08808087E080808088C
:1004CC00083E0000000000000000007C22221C02FC
:1004DC003C42423C000000030202023A46424242C5
:1004EC0042E700000000000C0C00000E0808080891
:1004FC00083E000000000030300000382020202092
:10050C002020221E0000000302020272120A1612A0
:10051C00227700000000000E0808080808080808E8
:10052C00083E0000000000000000007F92929292B2
:10053C0092B70000000000000000003B464242421F
:10054C0042E70000000000000000003C4242424232
:10055C00423C0000000000000000001B264242420A
:10056C00221E0207000000000000007844424242B4
:10057C00447840E000000000000000774C040404C4
:10058C00041F0000000000000000007C42023C4000
:10059C00423E0000000000000008083E0808080861
:1005AC00083000000000000000000063424242429C
:1005BC0062DC000000000000000000E7422424146C
:1005CC000808000000000000000000EB49495555E8
:1005DC0022220000000000000000007624181818E9
:1005EC00246E000000000000000000E742242414E8
:1005FC0018080807000000000000007E2210080800
:10060C00447E000000C0202020202010202020202C
:10061C002020C0001010101010101010101010100E
:10062C001010101000060808080808100808080820
:10063C00080806000C32C200000000000000000098
:10064C00000000005A0000D6D0200020002000FE40
:10065C0003220222022202FE03220220002000209A
:10066C00006132020ECFB5001CFE032000200810E2
:10067C0004FC03800040042008FC1F8010900490B0
:10068C00088810A4104000CDB3080108020412E43D
:10069C003F12019F084810E43F82249F048204808B
:1006AC00045844474422781000C6F480000021F816
:1006BC007F082008200820F83F08000820F87F1841
:1006CC0020142014201220F13F1020B6AF0002108D
:1006DC00023E020022A07F7F22082208220422244C
:1006EC002242217F218220802040142008D6D080F5
:1006FC000080008020FE7F8220822082208220FECB
:10070C003F8220800080008000800080008000CE2E
:10071C00C20000C41F48104810C11F42104210C82C
:10072C001F0800E43F2725242524252425F47F00D9
:10073C0000B6C880000001FC7F44044404FC3F4424
:10074C00044404C4070400F40F2408420482036127
:10075C000C1C70CAAA0000E41F28102810E11F22EC
:10076C00102210E81F880484049724A414C40C8459
:10077C0004F47F0000A3BA00000000000000000099
:10078C000000000000000000000C000C0000000C39
:10079C00000C00000000006172009CCFB50000004E
:1007AC0000800FFCFF1FFCFF1FF81E00000F0380D2
:1007BC008307C0C103F0FF01F07F00201C03008FF2
:1007CC0007C0030EF8FF1FF8FF3F10381040380128
:1007DC00C0B907E0380F70381E3C383C1C3E18007E
:1007EC001E00000000CDB300800030C001708001FD
:1007FC0030800338000318FE7F0CFE7F8CE100C6AE
:10080C00E100FE710EFE380C601C1C70FE3F38FCC3
:10081C007F186033FE6103FE61033E6003006003DA
:10082C00803303FC3B23FE19631E1E7F000F7EC624
:10083C00F4003800003800F0FF3FF0FF3FF0FF3FBE
:10084C00700038700038700038F0FF3FF0FF3FF058
:10085C00FF3F700000700000F0FF3FF0FF3FB8FF5B
:10086C003FB803389803389C03388CFF3F8EFF3F0A
:10087C0086FF3F840338000000B6AF008003008081
:10088C0003FC8701FC8701FC870100800100F87FD5
:10089C0000F87FFECF31FECF31E0C03160C0317047
:1008AC00C03170C33030C73038E63818E738FC6FC9
:1008BC0038FE7F383E3C38043C3F001F1F000F0EB3
:1008CC00000600D6D0003800003800003800003890
:1008DC0000003800F8FF3FF8FF3FF8FF3F3838388A
:1008EC00383838383838383838383838383838F8BC
:1008FC00FF3FF8FF3FF8FF3F38383800380000382A
:10090C000000380000380000380000380060820019
:10091C001AB5E7000000000000000000E000000035
:10092C00E0000000E0000000E0000000E00000F843
:10093C00FFFF03F8FFFF0338E0800338E080033843
:10094C00E0800338E0800338E08003F8FFFF03F811
:10095C00FFFF0338E0800338E0800338E080033881
:10096C00E0800338E08003F8FFFF03F8FFFF033853
:10097C00E0000038E0000038E0000000E00070000B
:10098C00E0003800E0013800C0FF3F0080FF1F008E
:03099C0000000058
:0833E100900BA7EEF0A3EFF042
:1033E900900B18E4F0A374EFF0FB7A00E4FDFCFF06
:1033F900FE123633E4900BA9F0A3F0E4900BABF086
:10340900A3F0900BA7E0FEA3E0FF1236A1900BAC4E
:10341900E004F07006900BABE004F0C3900BACE055
:1034290094F0900BABE0940040D8900BAAE004F024
:103439007006900BA9E004F0C3900BAAE094F090F9
:073449000BA9E0940040B460
:013450002259
:0432E700AD07AC067D
:1032EB00E4FBFAC3EB94E0EA9401502374332BF51F
:1032FB008274093AF583EDF0ECFF74322BF582748E
:10330B00093AF583EFF074022BFBE43AFA80D49080
:10331B000B18E4F0A374EFF0FB7A00E4FDFCFFFE66
:10332B00123633E4900930F0A3F0D2CBC2C77B0145
:10333B007A0979327DE07C011235F0D2C7900931E0
:10334B00E004F07006900930E004F0C3900931E01E
:0A335B0094F0900930E0940040D097
:013365002245
:10308200900930EEF0A3EFF0A3ECF0A3EDF0A3EA89
:04309200F0A3EBF0CC
:10309600C006C00724FFFBEA34FFFAA3E0FEA3E064
:1030A60024FFFFEE34FF900B18F0A3EFF0D007D00B
:1030B60006123633900932E0FFA3E090093ACFF0CA
:1030C600A3EFF0900936E0FEA3E0FFC390093BE0D2
:1030D6009F90093AE09E504F900930E0FFA3E090A0
:1030E600093CCFF0A3EFF0900934E0FEA3E0FFC364
:1030F60090093DE09F90093CE09E501B900938E006
:10310600FEA3E0FF1236A190093DE004F070D890CE
:10311600093CE004F080D090093BE004F070A490F4
:07312600093AE004F0809C6F
:01312D00227F
:10345100900B92FEE0FCA3E0FDC3900B8EE09DFD7E
:0E346100900B8DE09CFC900B90E0FAA3E0FB3A
:10346F009009C9EEF0A3EFF09009CDEAF0A3EBF0CD
:10347F009009CBECF0A3EDF09009C9E0FAA3E0FBC3
:10348F00FFAE02C007A3E0FFA3E0900B18CFF0A39D
:10349F00EFF0D0071236339009CDE0FEA3E0FF0224
:0234AF0036A144
:0E22AF00900930EEF0A3EFF0A3ECF0A3EDF0F9
:1022BD00E490093CF0A3F0A3F0A3F0900930E0FE08
:1022CD00A3E0FFC3EB9FFFEA9E900940F0A3EFF060
:1022DD00900932E0FAA3E0FBC3900937E09BFE9032
:1022ED000936E09A900942F0A3CEF0900930E0FF54
:1022FD00A3E090094ACFF0A3EFF0A3EAF0A3EBF02F
:10230D00900940E0FEA3E0FFD39400EE648094803A
:10231D00400A900946E4F0A304F08021EF4E7008C6
:10232D00900946F0A3F0801574FF900946F0A3F0D4
:10233D00C3E49FFFE49E900940F0A3EFF0900942A3
:10234D00E0FEA3E0FFD39400EE64809480400A90F9
:10235D000948E4F0A304F08021EF4E70089009487D
:10236D00F0A3F0801574FF900948F0A3F0C3E49F2B
:10237D00FFE49E900942F0A3EFF0900942E0FEA326
:10238D00E0FF900940E0FCA3E0FDD39FEE6480F8F0
:10239D00EC6480989009444007ECF0A3EDF08005C3
:1023AD00EEF0A3EFF0E490093AF0A3F0900945E0C8
:1023BD002401FF900944E03400FEC390093BE09FE7
:1023CD0090093AE09E400302249C90094AE0FEA346
:1023DD00E0FFA3E0FCA3E0FD90093812346A9009F8
:1023ED0040E0FEA3E0FF90093DE02FF090093CE0B6
:1023FD003EF0900942E0FEA3E0FF90093FE02FF090
:10240D0090093EE03EF0900944E0FEA3E0FF900904
:10241D003CE0FCA3E0FDD39FEE6480F8EC64809873
:10242D004020ED9FFFEC9E90093CF0A3EFF090094A
:10243D0046E0FEA3E0FF90094BE02FF090094AE043
:10244D003EF0900944E0FEA3E0FF90093EE0FCA3BE
:10245D00E0FDD39FEE6480F8EC6480984020ED9F02
:10246D00FFEC9E90093EF0A3EFF0900948E0FEA32B
:10247D00E0FF90094DE02FF090094CE03EF09009FF
:0F248D003BE004F0700690093AE004F00223B936
:01249C00221D
:102F9C00900B9AEAF0A3EBF0900B96EEF0A3EFF007
:102FAC00A3ECF0A3EDF0C007A3E0FAA3E0FB900BB9
:102FBC0098E0FFA3E0900936CFF0A3EFF0900B9EC2
:102FCC00E0FFA3E0900938CFF0A3EFF0D007122276
:102FDC00AF900B96E0FAA3E0FBFFAE02C007A3E0B4
:102FEC00FCA3E0FD900B9CE0FFA3E0900936CFF032
:102FFC00A3EFF0900B9EE0FFA3E0900938CFF0A375
:10300C00EFF0D0071222AF900B9CE0FCA3E0FD90F8
:10301C000B9AE0FAA3E0FBA3E0FFA3E0900936CF04
:10302C00F0A3EFF0900B9EE0FFA3E0900938CFF0F7
:10303C00A3EFF0900B96E0FEA3E0FF1222AF900BF3
:10304C009AE0FAA3E0FBFFAE02C007900B98E0FCFD
:10305C00A3E0FD900B9CE0FFA3E0900936CFF0A31A
:10306C00EFF0900B9EE0FFA3E0900938CFF0A3EFB8
:06307C00F0D0070222AFB4
:10265400900B8BEEF0A3EFF0A3ECF0A3EDF0A3EB63
:01266400F085
:10266500E4900B92F0A3F0EBFFA3E4F0A3EFF0905E
:102675000B94E0FEA3E0FFD3900B93E09FEE648004
:10268500F8900B92E064809840030227F3C3900B07
:102695008CE09FFF900B8BE09E123451900B94E0E1
:1026A500FEA3E0FF900B8CE02FFF900B8BE03E121A
:1026B5003451900B92E0FEA3E0FFC3900B8CE09F9A
:1026C500FF900B8BE09EFE900B94E0FCA3E0FD9049
:1026D5000B8EE02DFD900B8DE03C123466900B9235
:1026E500E0FEA3E0FFC3900B8CE09FFF900B8BE017
:1026F5009E900B94123454900B94E0FEA3E0FF904F
:102705000B8CE02FFF900B8BE03EFE900B92E0FCD4
:10271500A3E0FD900B8EE02DFD900B8DE03C123477
:1027250066900B92E0FEA3E0FF900B8CE02FFF90EC
:102735000B8BE03EFE900B94123455900B92E0FE0D
:10274500A3E0FF900B8CE02FFF900B8BE03EFE90FB
:102755000B94E0FCA3E0FD900B8EE02DFD900B8D1E
:10276500E03C123466900B94E0FEA3E0FFC3900BAF
:102775008CE09FFF900B8BE09EFE900B92E0FCA3FC
:10278500E0FD900B8EE02DFD900B8DE03C12346644
:10279500900B93E004F07006900B92E004F0900B20
:1027A50094E0FCA3E0FDFFAE04120ED2AA06AB072F
:1027B500900B92E0FCA3E0FDFFAE04120ED2EF2BCE
:1027C500FDEE3AFC900B8FE0F5F0A4FFD3ED9FE50D
:1027D500F06480F8EC6480985003022674900B95A1
:0E27E500E024FFF0900B94E034FFF002267425
:0127F30022C3
:1027F400900994EEF0A3EFF0A3ECF0A3EDF0A3EBBB
:10280400F0A3EAF0A3E9F0900998E0FBA3E0FAA3AF
:10281400E0F9120E7A700302297E90099FE0640C9D
:102824007044900996E0FCA3E0FD90099BE0FFA3AF
:10283400E09009A8CFF0A3EFF090099DE0FFA3E09A
:102844009009AACFF0A3EFF090099FE09009ACF0B3
:102854009009A0E09009ADF0900994E0FEA3E0FF98
:10286400121AC502295F90099FE06410704B900909
:1028740096E0FCA3E0FDA3E0FBA3E0FAA3E0F9A348
:10288400E0FFA3E09009A8CFF0A3EFF090099DE04A
:10289400FFA3E09009AACFF0A3EFF090099FE09086
:1028A40009ACF09009A0E09009ADF0900994E0FE25
:1028B400A3E0FF12154D02295F90099FE064187090
:1028C4004A900996E0FCA3E0FDA3E0FBA3E0FAA391
:1028D400E0F9A3E0FFA3E09009A8CFF0A3EFF09004
:1028E400099DE0FFA3E09009AACFF0A3EFF09009BF
:1028F4009FE09009ACF09009A0E09009ADF0900938
:1029040094E0FEA3E0FF121809805090099FE06450
:10291400207067900996E0FCA3E0FDA3E0FBA3E030
:10292400FAA3E0F9A3E0FFA3E09009A8CFF0A3EF96
:10293400F090099DE0FFA3E09009AACFF0A3EFF087
:1029440090099FE09009ACF09009A0E09009ADF0E7
:10295400900994E0FEA3E0FF121D7E900999E475AE
:10296400F002120EE490099FE0FF900995E02FF029
:0B297400900994E03400F002280B22D0
:101AC5009009A3ECF0A3EDF0A3EBF0A3EAF0A3E9F2
:091AD500F09009A1EEF0A3EFF07E
:101ADE00E49009B0F09009B7EEF0A3EFF09009ACE6
:101AEE00E0FF131313541FFD7C00EF54077E0060BC
:101AFE00047F0180027F00EF2DFFEE3CFE9009ACCB
:101B0E00E0FD7C00120ED29009B5EEF0A3EFF0903E
:101B1E0009B3E4F0A304F0E49009B1F0A3F0900946
:101B2E00B3E0FEA3E0FF9009B1E0FCA3E0FDC39F8C
:101B3E00EC9E4003021D7D9009A5E0FBA3E0FAA3F5
:101B4E00E0F9120E7AFF90000075F01AED1210787F
:101B5E00EC75F01AA42583F583E06F6003021D6C0B
:101B6E00900001120E93FF9009B1A3E09000017551
:101B7E00F01A121078EC75F01AA42583F583E06F35
:101B8E006003021D6C9009A3E0FCA3E0FD9009AC7C
:101B9E00E0F9FF7E009009A1E0FAA3E02FFFEE3AF4
:101BAE00CF24FFFBEF34FFFAE9FFA3E0F8A3E02F09
:101BBE00FFEE38CF24FFCF34FF900B18F0A3EFF0D9
:101BCE009009A1E0FEA3E0FF123633E49009AEF0D7
:101BDE009009AEE0FFD39009B6E09F9009B5E0946E
:101BEE00005003021D6CE49009AFF09009ADE06067
:101BFE0003021C979009B1A3E075F01AA42402F514
:101C0E0082E43400F583C083C0829009AEE0D082B6
:101C1E00D0832582F582E43583F583E0FD7C009048
:101C2E0009AFE0FF7E007401A807088005C333CE1C
:101C3E0033CED8F9FFEE5CFEEF5D4E60059009A83D
:101C4E0080039009AAE0FCA3E0FDECFF9009AFE051
:101C5E00FE25E024B9F582E43409F583EFF0EE2594
:101C6E00E024BAF582E43409F583EDF09009B0E092
:101C7E0004F09009ACE0FF9009B0E08FF084E5F03D
:101C8E006003021D3CF0021D4B9009B1A3E075F0FC
:101C9E001AA42402F582E43400F583C083C0829036
:101CAE0009AEE0D082D0832582F582E43583F583B8
:101CBE00E0FD7C009009AFE0FF7E007401A80708EC
:101CCE008005C333CE33CED8F9FFEE5CFEEF5D4E0A
:101CDE0060149009A1E0FEA3E0FFA3E0FCA3E0FDE9
:101CEE009009A812346A9009A2E004F070069009D7
:101CFE00A1E004F09009B7E0FEA3E0FFC39009A2B3
:101D0E00E09FFD9009A1E09EFC9009ACE07A00B541
:101D1E00051CEAB504189009A1EEF0A3EFF09009A6
:101D2E00A4E004F070179009A3E004F0800F90096E
:101D3E00AFE004F0E0C394085003021BF99009AD24
:101D4E00E07012D2CBC2C77B017A0979B97D10FC43
:101D5E001235F0D2C79009AEE004F0021BDE9009F6
:0F1D6E00B2E004F070069009B1E004F0021B2C03
:011D7D002243
:10154D009009A3ECF0A3EDF0A3EBF0A3EAF0A3E96F
:09155D00F09009A1EEF0A3EFF0FB
:10156600E49009B0F09009B7EEF0A3EFF09009AC63
:10157600E0FF131313541FFD7C00EF54077E006039
:10158600047F0180027F00EF2DFFEE3CFE9009AC48
:10159600E0FD7C00120ED29009B5EEF0A3EFF090BC
:1015A60009B3E4F0A37409F0E49009B1F0A3F09054
:1015B60009B3E0FEA3E0FF9009B1E0FCA3E0FDC3A0
:1015C6009FEC9E40030218089009A5E0FBA3E0FAF1
:1015D600A3E0F9120E7AFF90020E75F022ED1210BA
:1015E60078EC75F022A42583F583E06F600302177B
:1015F600F7900001120E93FF9009B1A3E090020F3D
:1016060075F022121078EC75F022A42583F583E09C
:101616006F60030217F79009A3E0FCA3E0FD9009B1
:10162600ACE0F9FF7E009009A1E0FAA3E02FFFEEFF
:101636003ACF24FFFBEF34FFFAE9FFA3E0F8A3E07B
:101646002FFFEE38CF24FFCF34FF900B18F0A3EF17
:10165600F09009A1E0FEA3E0FF123633E49009AE54
:10166600F09009AEE0FFD39009B6E09F9009B5E08F
:10167600940050030217F7E49009AFF09009AFE029
:10168600FFC3940840030217D69009ADE060030239
:101696001727A3E0FE9009B1E0FCA3E090021075C5
:1016A600F022121078EC75F022A42583F583E582EA
:1016B6002EF582E43583F583E0FD7C007E0074011F
:1016C600A807088005C333CE33CED8F9FFEE5CFEFB
:1016D600EF5D4E60059009A880039009AAE0FCA37F
:1016E600E0FDECFF9009AFE0FE25E024B9F582E4C9
:1016F6003409F583EFF0EE25E024BAF582E43409E7
:10170600F583EDF09009B0E004F09009ACE0FF90AD
:1017160009B0E08FF084E5F060030217CDF0021700
:10172600D69009AEE0FF9009B1E0FCA3E09002106C
:1017360075F022121078EC75F022A42583F583E566
:10174600822FF582E43583F583E0FD7C009009AFB6
:10175600E0FF7E007401A807088005C333CE33CEB0
:10176600D8F9FFEE5CFEEF5D4E60149009A1E0FE35
:10177600A3E0FFA3E0FCA3E0FD9009A812346A9061
:1017860009A2E004F070069009A1E004F09009B700
:10179600E0FEA3E0FFC39009A2E09FFD9009A1E04F
:1017A6009EFC9009ACE07A00B5051CEAB5041890D9
:1017B60009A1EEF0A3EFF09009A4E004F0701190F7
:1017C60009A3E004F080099009AFE004F002168254
:1017D6009009ADE07012D2CBC2C77B017A0979B904
:1017E6007D10FC1235F0D2C79009AEE004F0021667
:1017F600679009B2E004F070069009B1E004F002C7
:0218060015B516
:0118080022BD
:101809009009A3ECF0A3EDF0A3EBF0A3EAF0A3E9B0
:09181900F09009A1EEF0A3EFF03C
:10182200E49009B0F09009B7EEF0A3EFF09009ACA4
:10183200E0FF131313541FFD7C00EF54077E00607A
:10184200047F0180027F00EF2DFFEE3CFE9009AC89
:10185200E0FD7C00120ED29009B5EEF0A3EFF090FD
:1018620009B3E4F0A37405F0E49009B1F0A3F09099
:1018720009B3E0FEA3E0FF9009B1E0FCA3E0FDC3E1
:101882009FEC9E4003021AC49009A5E0FBA3E0FA74
:10189200A3E0F9120E7AFF90009C75F04AED121047
:1018A20078EC75F04AA42583F583E06F6003021A91
:1018B200B3900001120E93FF9009B1A3E090009D36
:1018C20075F04A121078EC75F04AA42583F583E08E
:1018D2006F6003021AB39009A3E0FCA3E0FD900934
:1018E200ACE0F9FF7E009009A1E0FAA3E02FFFEE41
:1018F2003ACF24FFFBEF34FFFAE9FFA3E0F8A3E0BD
:101902002FFFEE38CF24FFCF34FF900B18F0A3EF58
:10191200F09009A1E0FEA3E0FF123633E49009AE95
:10192200F09009AEE0FFD39009B6E09F9009B5E0D0
:1019320094005003021AB3E49009AFF09009AFE0AB
:10194200FFC394084003021A929009ADE0600302BB
:1019520019E3A3E0FE9009B1E0FCA3E090009E75BC
:10196200F04A121078EC75F04AA42583F583E582DB
:101972002EF582E43583F583E0FD7C007E00740160
:10198200A807088005C333CE33CED8F9FFEE5CFE3C
:10199200EF5D4E60059009A880039009AAE0FCA3C0
:1019A200E0FDECFF9009AFE0FE25E024B9F582E40A
:1019B2003409F583EFF0EE25E024BAF582E4340928
:1019C200F583EDF09009B0E004F09009ACE0FF90EF
:1019D20009B0E08FF084E5F06003021A89F0021A80
:1019E200929009AEE0FF9009B1E0FCA3E090009E66
:1019F20075F04A121078EC75F04AA42583F583E558
:101A0200822FF582E43583F583E0FD7C009009AFF7
:101A1200E0FF7E007401A807088005C333CE33CEF1
:101A2200D8F9FFEE5CFEEF5D4E60149009A1E0FE76
:101A3200A3E0FFA3E0FCA3E0FD9009A812346A90A2
:101A420009A2E004F070069009A1E004F09009B741
:101A5200E0FEA3E0FFC39009A2E09FFD9009A1E090
:101A62009EFC9009ACE07A00B5051CEAB50418901A
:101A720009A1EEF0A3EFF09009A4E004F070119038
:101A820009A3E004F080099009AFE004F002193ED6
:101A92009009ADE07012D2CBC2C77B017A0979B945
:101AA2007D10FC1235F0D2C79009AEE004F00219A5
:101AB200239009B2E004F070069009B1E004F0024C
:021AC200187199
:011AC40022FF
:101D7E009009A3ECF0A3EDF0A3EBF0A3EAF0A3E936
:091D8E00F09009A1EEF0A3EFF0C2
:101D9700E49009B0F09009B7EEF0A3EFF09009AC2A
:101DA700E0FF131313541FFD7C00EF54077E006000
:101DB700047F0180027F00EF2DFFEE3CFE9009AC0F
:101DC700E0FD7C00120ED29009B5EEF0A3EFF09083
:101DD70009B3E4F0A304F0E49009B1F0A3F090098B
:101DE700B3E0FEA3E0FF9009B1E0FCA3E0FDC39FD1
:101DF700EC9E40030220369009A5E0FBA3E0FAA37E
:101E0700E0F9120E7AFF90001A75F082ED12107841
:101E1700EC75F082A42583F583E06F60030220252B
:101E2700900001120E93FF9009B1A3E090001B757B
:101E3700F082121078EC75F082A42583F583E06FA9
:101E470060030220259009A3E0FCA3E0FD9009AC04
:101E5700E0F9FF7E009009A1E0FAA3E02FFFEE3A38
:101E6700CF24FFFBEF34FFFAE9FFA3E0F8A3E02F4D
:101E7700FFEE38CF24FFCF34FF900B18F0A3EFF01D
:101E87009009A1E0FEA3E0FF123633E49009AEF01B
:101E97009009AEE0FFD39009B6E09F9009B5E094B2
:101EA700005003022025E49009AFF09009ADE060EF
:101EB70003021F509009B1A3E075F082A4241CF51A
:101EC70082E43400F583C083C0829009AEE0D082FB
:101ED700D0832582F582E43583F583E0FD7C00908D
:101EE70009AFE0FF7E007401A807088005C333CE61
:101EF70033CED8F9FFEE5CFEEF5D4E60059009A882
:101F070080039009AAE0FCA3E0FDECFF9009AFE095
:101F1700FE25E024B9F582E43409F583EFF0EE25D8
:101F2700E024BAF582E43409F583EDF09009B0E0D6
:101F370004F09009ACE0FF9009B0E08FF084E5F081
:101F47006003021FF5F00220049009B1A3E075F0C9
:101F570082A4241CF582E43400F583C083C08290F8
:101F670009AEE0D082D0832582F582E43583F583FC
:101F7700E0FD7C009009AFE0FF7E007401A8070830
:101F87008005C333CE33CED8F9FFEE5CFEEF5D4E4E
:101F970060149009A1E0FEA3E0FFA3E0FCA3E0FD2D
:101FA7009009A812346A9009A2E004F0700690091B
:101FB700A1E004F09009B7E0FEA3E0FFC39009A2F7
:101FC700E09FFD9009A1E09EFC9009ACE07A00B586
:101FD700051CEAB504189009A1EEF0A3EFF09009EB
:101FE700A4E004F070179009A3E004F0800F9009B3
:101FF700AFE004F0E0C394085003021EB29009ADAD
:10200700E07012D2CBC2C77B017A0979B97D10FC87
:102017001235F0D2C79009AEE004F0021E9790097E
:0F202700B2E004F070069009B1E004F0021DE58C
:012036002287
:102037009009A3ECF0A3EDF0A3EBF09009A1EEF06B
:03204700A3EFF014
:10204A00E49009AFF09009B4EEF0A3EFF09009AA7A
:10205A00E0F9C3139009ADF0E0FF131313541FFD09
:10206A007C00EF54077E0060047F0180027F00EF4E
:10207A002DFFEE3CFEE9FD7C00120ED29009B2EE75
:10208A00F0A3EFF09009A5E024E0F09009A3E0FCAA
:10209A00A3E0FD9009ADE0FF7E009009A1E0FAA35C
:1020AA00E02FFFEE3ACF24FFFBEF34FFFAE9FFA35C
:1020BA00E0F8A3E02FFFEE38CF24FFCF34FF900BD8
:1020CA0018F0A3EFF09009A1E0FEA3E0FF12363367
:1020DA00E49009B0F0A3F09009B2E0FEA3E0FF900B
:1020EA0009B0E0FCA3E0FDC39FEC9E40030222AED0
:1020FA009009AAE0641060030222AE9009A5E07577
:10210A00F010A42440F582E5F03403F583E5822D2E
:10211A00F582E5833CF583E09009ACF0E49009AEE2
:10212A00F09009AEE0FFC39408400302227D9009B3
:10213A00ABE060030221F99009ADE054077064FE38
:10214A0004A807088005C333CE33CED8F9FF900917
:10215A00ACE0FDEF5D60059009A680039009A8E058
:10216A00FCA3E0FDECFF9009AEE0FE25E024B6F505
:10217A0082E43409F583EFF0EE25E024B7F582E432
:10218A003409F583EDF09009AFE004F09009ADE071
:10219A00FF9009AFE08FF084E5F06003022274F04B
:1021AA0002227D9009AEE0FF7E007401A807088034
:1021BA0005C333CE33CED8F9FF9009ACE0FDEF5D0D
:1021CA0060059009A680039009A8E0FEA3E0FF122B
:1021DA0036A19009AFE004F09009ADE0FF9009AF95
:1021EA00E08FF084E5F06003022274F002227D9011
:1021FA0009AEE0FF7E007401A807088005C333CE4C
:10220A0033CED8F9FF9009ACE0FDEF5D6014900978
:10221A00A1E0FEA3E0FFA3E0FCA3E0FD9009A61263
:10222A00346A9009A2E004F070069009A1E004F073
:10223A009009B4E0FEA3E0FFC39009A2E09FFD90DD
:10224A0009A1E09EFC9009ADE07A00B5051CEAB54B
:10225A0004189009A1EEF0A3EFF09009A4E004F0AD
:10226A0070119009A3E004F080099009AEE004F02F
:10227A0002212B9009ADE0540770189009ABE07069
:10228A0012D2CBC2C77B017A0979B67D10FC12350E
:10229A00F0D2C79009B1E004F070069009B0E004EA
:0422AA00F00220E13D
:0122AE00220D
:10325D00900994EEF0A3EFF0A3ECF0A3EDF0A3EB47
:10326D00F0A3EAF0A3E9F0900998E0FBA3E0FAA33C
:10327D00E0F9120E7AFB6061900996E0FCA3E0FD87
:10328D0090099BE0FFA3E09009A6CFF0A3EFF0908B
:10329D00099DE0FFA3E09009A8CFF0A3EFF09009FE
:1032AD009FE09009AAF09009A0E09009ABF0900979
:1032BD0094E0FEA3E0FF12203790099FE0C313FFB7
:1032CD00900995E02FF0900994E03400F090099961
:0A32DD00E475F001120EE4808E2269
:07350E00C3EF9E14FD7F0ACC
:08351500900BADEFF0A3EDF007
:10351D00A312104700000001900BAEE0FF14F0EF76
:10352D006020A3E0F8A3E0F9A3E0FAA3E0FB900B81
:10353D00ADE0FFE4FCFDFE120F10900BAF12103B3F
:10354D0080D6900BAFE0FCA3E0FDA3E0FEA3E0FF6F
:01355D00224B
:102D5E00900B7BEEF0A3EFF0A3ECF0A3EDF0A3EA63
:042D6E00F0A3EBF0F3
:102D7200E4900B89F0900B86E0C313900B8AF0E489
:102D8200900B87F0900B81E0FF900B87E0FEC39FD2
:102D92004003022E8912350EA804A905AA06AB0724
:102DA200900B7FE0FEA3E0FFE4FCFD120F9BE47BAF
:102DB2000AFAF9F8120F9B900B88EBF0A3E070650A
:102DC200900B81E014FF900B87E0FEC39F5056A347
:102DD200E0704C900B8AE0FFEE8FF0A4FF900B7C2A
:102DE200E02FFF900B7BE035F0FE900B7DE0FCA323
:102DF200E0FD900B82E0FBA3E09009A6CBF0A3EBF1
:102E0200F0900B84E0FBA3E09009A8CBF0A3EBF0D9
:102E1200900B86E09009AAF0E4A3F07B20805C90FE
:102E22000B897401F0900B8AE0FF900B87E08FF022
:102E3200A4FF900B7CE02FFF900B7BE035F0FEC0EF
:102E420007900B7DE0FCA3E0FD900B88E02430FBB3
:102E5200900B82E0FFA3E09009A6CFF0A3EFF090E1
:102E62000B84E0FFA3E09009A8CFF0A3EFF0900B52
:102E720086E09009AAF0E4A3F0D007122037900B65
:072E820087E004F0022D8639
:012E89002226
:0E2ACD00900B55EEF0A3EFF0A3ECF0A3EDF0AC
:102ADB00900B62E0C313900B65F0E4FFFE7DC87CA6
:102AEB0042900B59E0F8A3E0F9A3E0FAA3E0FB1244
:102AFB0009A9120AAF900B66EEF0A3EFF0E4900B6E
:102B0B0063F0900B5DE0FF900B63E0FEC39F40030F
:102B1B00022C1612350EA804A905AA06AB07900BBA
:102B2B0066E0FEA3E0FFE4FCFD120F9BE47B0AFAD8
:102B3B00F9F8120F9B900B64EBF0900B5DE0FF2408
:102B4B00FEFE900B63E06E7060EF24FEFFE434FF3B
:102B5B00FE900B65E0FD7C00120ED2900B56E02F21
:102B6B00FF900B55E03EFE900B57E0FCA3E0FD9071
:102B7B000B5EE0FBA3E09009A6CBF0A3EBF0900B70
:102B8B0060E0FBA3E09009A8CBF0A3EBF0900B6205
:102B9B00E09009AAF0E4A3F07B2E122037900B6390
:102BAB00E004F0900B5DE004F0900B65E0FF900B00
:102BBB0063E08FF0A4FF900B56E02FFF900B55E0D6
:102BCB0035F0FEC007900B57E0FCA3E0FD900B64C3
:102BDB00E02430FB900B5EE0FFA3E09009A6CFF062
:102BEB00A3EFF0900B60E0FFA3E09009A8CFF0A358
:102BFB00EFF0900B62E09009AAF0E4A3F0D007127B
:0B2C0B002037900B63E004F0022B0D5B
:012C1600229B
:10297F00900B68EEF0A3EFF0A3ECF0A3EDF0A3EA59
:04298F00F0A3EBF0D6
:10299300900B7712104700000000900B6AE0FCA335
:1029A300E0FDA3E0FEA3E0FF900B68E0FAA3E02FB5
:1029B300FFEA3ECF24FFFBEF34FFFA900B6EE0FEFD
:1029C300A3E0FF900B6AE0F8A3E02FFFE83ECF24DB
:1029D300FFCF34FF900B18F0A3EFF0900B68E0FEED
:1029E300A3E0FF123633E4900B73F0A3F0900B6C6B
:1029F300E0FEA3E0FFC3900B74E09F900B73E09E97
:102A03004003022ACCE4900B75F0A3F0900B6EE028
:102A1300FEA3E0FFC3900B76E09F900B75E09E4012
:102A230003022AB8E47F02FEFDFC900B77E0F8A3D3
:102A3300E0F9A3E0FAA3E0FB120F10900B70E0FBA8
:102A4300A3E0FAA3E0F98F828E83120E93FF12376D
:102A530065E47F02FEFDFC900B77E0F8A3E0F9A3A9
:102A6300E0FAA3E0FB120F10EF2401FFE43EFE9017
:102A73000B70E0FBA3E0FAA3E0F98F828E83120EC2
:102A830093FF123765900B77E0FCA3E0FDA3E0FE14
:102A9300A3E02401FFE43EFEE43DFDE43CFC900B97
:102AA3007712103B900B76E004F07006900B75E004
:102AB30004F0022A0F900B74E004F060030229F083
:092AC300900B73E004F00229F00D
:012ACC0022E7
:102E8A00900986EEF0A3EFF0A3ECF0A3EDF0A3EB2C
:072E9A00F0A3EAF0A3E9F048
:102EA100E4900993F090098AE0FBA3E0FAA3E0F92A
:102EB100900993E0F582758300120E937003022F3F
:102EC1009BC39480900988E0FCA3E0FD505C9009CD
:102ED10093E0FF7E00E92FF9EE3AFA90098DE0FFC9
:102EE100A3E090099BCFF0A3EFF090098FE0FFA33F
:102EF100E090099DCFF0A3EFF0900991E090099F38
:102F0100F0900992E09009A0F0900986E0FEA3E01C
:102F1100FF12325D900991E0C313FF900987E02F02
:102F2100F0900986E03400F08067A3E0FBA3E0FAAB
:102F3100A3E0F9900993E0FF7E00E92FF9EE3AFA58
:102F410090098DE0FFA3E090099BCFF0A3EFF090F3
:102F5100098FE0FFA3E090099DCFF0A3EFF0900966
:102F610091E090099FF0900992E09009A0F09009FA
:102F710086E0FEA3E0FF1227F4900991E0FF90099B
:102F810087E02FF0900986E03400F0900993E00487
:0A2F9100F0900993E004F0022EA670
:012F9B002213
:10312E00900930EEF0A3EFF0A3ECF0A3EDF0A3EADC
:04313E00F0A3EBF01F
:103142009009837401F0A37409F0A3743DF090090F
:103152003AE0F9A3E0FAA3E0900986C9F0A3EAF005
:10316200A3E9F0900983E0F9A3E0FAA3E0900989CA
:10317200C9F0A3EAF0A3E9F07B017A097965123577
:103182005E900983E4F0A3F0A3F0900932E0FCA37F
:10319200E0FD7B017A097965A3E0FFA3E090098D48
:1031A200CFF0A3EFF0900936E0FFA3E090098FCFB4
:1031B200F0A3EFF0900938E0900991F0900939E01E
:0F31C200900992F0900930E0FEA3E0FF022E8A00
:0436EB007F017E00DD
:1036EF00EF1F70011E144E601100000075080B755E
:0A36FF0009BED509FDD508FA80E6E2
:01370900229D
:08000300C2C712370AD2C7225E
:0A376500D2CBC2C712370AD2C72226
:05369C00E0FEA3E0FFC9
:0436A100AD07AC06BF
:1036A500EC900B1AF0A3EFF0D2CBC2C7900B1AE047
:0E36B500FF12370A900B1BE0FF12370AD2C734
:0136C30022E4
:08377800C2CB120003D2CB22E8
:10363300900B12EEF0A3EFF0A3ECF0A3EDF0A3EAEE
:10364300F0A3EBF07F2A123778900B1212369C907E
:103653000B1612369C7F2B123778900B1412369C64
:0C366300900B1812369C7F2C1237782236
:102C1700C2C01236EBD2C01236EBD2C81236EB7FE7
:102C2700111237787F0C7E001236EF7F3612377815
:102C3700E4FF1237657F3A1237787F051237657FD1
:102C4700B21237787F0C1237657F0C123765E4FFB5
:102C57001237657F331237657F331237657FB712B7
:102C670037787F351237657FBB1237787F19123770
:102C7700657FC01237787F2C1237657FC21237788D
:102C87007F011237657FC31237787F121237657F4E
:102C9700C41237787F201237657FC61237787F0FC7
:102CA7001237657FD01237787FA41237657FA1125C
:102CB70037657FE01237787FD01237657F04123788
:102CC700657F0D1237657F111237657F13123765E0
:102CD7007F2B1237657F3F1237657F541237657F29
:102CE7004C1237657F181237657F0D1237657F0BDA
:102CF7001237657F1F1237657F231237657FE11211
:102D070037787FD01237657F041237657F0C12370B
:102D1700657F111237657F131237657F2C12376570
:102D27007F3F1237657F441237657F511237657FC2
:102D37002F1237657F1F1237657F1F1237657F2078
:102D47001237657F231237657F211237787F11127B
:072D570037787F290237786D
:09099F00410B1C00420B1D00007D
:030043000235A8DB
:1035A800C0E0C083C082C0D0E59A30E028539AFEBC
:1035B800900B51E0241FF582E4340BF583E59BF072
:1035C800900B51E004F0E0B40106900B537401F045
:1035D800900B52E4F0E59A30E105539AFDC209D008
:0835E800D0D082D083D0E03284
:03000B000234B10B
:1034B100C0E0C083C082C0D0900B1EE004F0700653
:1034C100900B1DE004F0C3900B1EE094D0900B1DF7
:1034D100E094074009E4F0A3F0900B1C04F0900B7A
:1034E10053E0B40106900B52E004F0900B52E0C39C
:1034F100940A4010A3E4F0900B52F0900B51F0901D
:0D3501000B5404F0D0D0D082D083D0E03243
:09376F002009FDEFD209F59B22AF
:10000E00900BB3EBF0A3EAF0A3E9F0900BB3E0FB97
:10001E00A3E0FAA3E0F9120E7A6017900BB3A3E4F3
:10002E0075F001120EFAA9F0FA120E7AFF12376F5E
:03003E0080D92244
:0B366F00900BB6EBF0A3EAF0A3E9F02B
:10367A00E4FEEEC39D501A900BB6E0FBA3E0FAA35A
:10368A00E0F98E82758300120E93FF12376F0E8057
:01369A00E14E
:01369B00220C
:1037200053BAFE759A5075D7E075D6FE438E147560
:05373000AF01D2AF2241
:10374900438E80758ACD758CD4D28CD2A9D2AF2202
:1009A900EC4D6011E8497017ED33EC3304600DE448
:1009B900FCFFFEFD22E933E8330470F8020B1B1239
:1009C9000AE658046009E4CC24815006285009023B
:1009D9000B25284003020B22C0E0EB4A7044B98082
:1009E90006D0E0FB020B11EF4E701CBD8008EBFF37
:1009F900EAFEE9FD80EBE98DF0A4FEE5F0020A923A
:100A0900E9CDF9EAFEEBFFEF89F0A4FCE5F0CE8928
:100A1900F0A42EFFE435F0CD89F0A42DFEE435F0E5
:100A29008067EF4E7005BD80D780C3EF8BF0A4AC13
:100A3900F0EE8BF0A42CFCE435F0F8EF8AF0A42C4E
:100A4900E5F038FCE433CB8DF0A42CFCE5F03BF861
:100A5900EE8AF0A42CFCE5F038F8E433CF89F0A451
:100A69002CFCE5F038CF3400CE89F0A42FFFE5F057
:100A79003EFEE433C98DF0A42EFEE5F039CD8AF0AF
:100A8900A42FFFE5F03EFEE43DFD33D0E0FB500727
:100A99000BBB000F020B25EC2CFCEF33FFEE33FEF2
:060AA900ED33FD020AFD21
:100AAF00EDD2E7CD33EC3392D524814006E4FFFE3F
:100ABF00FDFC22FCE4CFCECDCC24E0501174FF809E
:100ACF00EDC3CC13CCCD13CDCE13CECF13CF04703B
:070ADF00F030D5DE02102DFE
:10355E00900986E0FFA3E0FEA3E0CF90098FF0A3D1
:10356E00EEF0A3EFF0900989E0CBF0A3E0CAF0A350
:10357E00E0C9F07F22900992AD82AC83120E7A8D53
:10358E00828C83F0A309E970010ADFEC900989E0CF
:0A359E00FBA3E0FAA3E0F902112FED
:100AE600E9D2E7C933E833F892D5EDD2E7CD33EC56
:070AF60033FC5002B2D522CF
:100AFD00EC30E7100FBF000C0EBE00080DBD00045A
:100B0D000BEB6014A2D5EB13FCED92E7FD2274FF05
:100B1D00FCFDFEFF22E480F8A2D574FF13FC7D805E
:030B2D00E480EF72
:1010CA00E508248FF582E43409F583E005082290C7
:1010DA00098C30070390098FE475F001121084021D
:1010EA000E7A2000E97F2ED2008018EF540F249048
:1010FA00D43440D4FF30040BEF24BFB41A00500399
:10110A002461FFE50960021509050CE50C7002056A
:10111A000B30070E90098CE475F001121084EF026F
:10112A000EC00236C47403D2078003E4C207F5086E
:10113A0090098C12109BE4F509F50BF50CE5096092
:10114A00077F2012110D80F5750AFFC201C200C285
:10115A0002C203C205C206C2081210D9FF700D30BE
:10116A0007057F0012111EAF0CAE0B22B4255FC219
:10117A00D5C2041210D9FF24D0B40A00501A75F04F
:10118A000A780930D50508B6FF0106C6A426F62056
:10119A00D5047002D20380D924CFB41A00EF5004C8
:1011AA00C2E5D204021410D20180C6D20080C0D295
:1011BA000280BCD2D580BAD20580B47F2012110D2C
:1011CA002002077401B5090040F11210CAFF12117A
:1011DA000D021147D208D20680951210CAFB1210CE
:1011EA00CAFA1210CAF94A4B7006790E7A157BFFB1
:1011FA0020022EE509602A7E008E82758300120E77
:10120A009360060EEE650A70F0C2D5EBC0E0EAC044
:10121A00E0E9C0E0EE121471D0E0F9D0E0FAD0E0D3
:10122A00FB120E7AFF60AAEBC0E0EAC0E0E9C0E078
:10123A0012110DD0E02401F9D0E03400FAD0E0FB1D
:10124A00E50A0460DCD50AD98087D20280A212148A
:10125A005360F7E50A700104120B30A90A600DE524
:10126A000A600914F50A1214FBEF60F3EA30E70288
:10127A00F404C3995079EAF4250A0430E701E40436
:10128A00F50A800D12145360C1EA050A250A120BE9
:10129A0030EA9009BBF030E701E4250A04D50A04D4
:1012AA0020050114121471E4C0E01214FB9009BB6A
:1012BA00E0601320E70714F01210F5802204F0D042
:1012CA00E014C0E07F001210F5E50A60071210EC86
:1012DA00150A800B3005031210ECD0E0021147D03A
:1012EA00E00480C4121453609EE50A04120B309085
:1012FA0009BBEAF0E50A200502600104240412147D
:01130A007171
:10130B0074FF04C0E01214FB1210F5E50A2005026D
:10131B0060031210ECD0E0B50AE87F451210FF9085
:10132B0009BBE07F2B30E7047F2DF404C0E01211E2
:10133B000DD0E075F00A84C0F01210F6D0E0121058
:10134B00F6021147791080027908C206C20880089C
:10135B00D2D5790A8004790AC2D5E50A047002F560
:10136B000AE4FAFDFEFF1210CAFC7B0820011312DF
:10137B0010CAFD7B1030000A1210CAFE1210CAFFF1
:10138B007B20EC3382D592D55013C3E43000069FFB
:10139B00FFE49EFEE42001039DFDE49CFCE4CBF8FE
:1013AB00C201EC700CCFCECDCCE824F8F870F380F2
:1013BB0017C3EF33FFEE33FEED33FDEC33FCEB33B2
:1013CB00FB994002FB0FD8E9EB300105F8D0E0C4E4
:1013DB0048B201C0E00AEC4D4E4F78207B0070C242
:1013EB00EAB50A0040BCC0E0121473D0F0D0E02084
:1013FB000104C4C0E0C4B201C0F01210F6D0F0D5A5
:10140B00F0EB0211471210A411E453134F5811B50E
:10141B004C11B14213534F135B44135B4911CA4335
:10142B00136155128E4612EE45125847152E501168
:10143B00B92D11BD2E11E02B11C12311DE20151773
:10144B002A117948000011D8E50AB4FF03750A0682
:10145B001210CAFC1210CAFD1210CAFE1210CAFFDB
:10146B009009B4020B6D790AA2D52003143005093B
:10147B00B910020404B9080104A2D52006025001D8
:10148B00042002689202B509005034C0E07F20307E
:10149B0003197F30A20272067205500F1214CAC2D2
:1014AB0002C206C205C2087F30800F300503E9C0B7
:1014BB00E012110D300503D0E0F9D0E0B509CC30C6
:1014CB0005177F30B9100C12110D7F583004077FB0
:1014DB00788003B9080312110D3002057F2D02111C
:1014EB000D7F202008F87F2B2006F322920280CF5D
:1014FB007F00B40700500B24B4F582E43409F58364
:10150B00E0FF22286E756C6C2900D2011210CA30D4
:10151B0001F8C201780930D50108F60211792D5076
:10152B004349581210CA2403B405004001E4901536
:10153B0029931210FE743A1210FED203750904029D
:02154B00134F3C
:100B3000F920E73624F950037907E4F42402FBE5B1
:100B400082158270021583DBF6E024FB501BE960FE
:100B500014E4F0E582158270021583E004F0B40A13
:0D0B600008E4F0D9EE7401F00A22C2D5229B
:100B6D00ED33EC3392D5FA602AB4FF33EDC2E77B57
:100B7D00FF60067A0B7992E4227A0B799B20D504DB
:100B8D007A0B7996224E614E002B494E46002D4927
:100B9D004E4600E47A08F0A3DAFC7B00740722C00D
:100BAD0083C082ECC0E0EDC0E0EEC0E0EFC0E0EA53
:100BBD0075F010A4CAABF075F04DA42BFBE435F025
:100BCD00FCEA2410FAEB34C5FBEC34D9FCEDC2E79A
:100BDD00FF75F056A4F42411C5F0F434C58FF0A4BC
:100BED002AE5F03BE43CF020E714120E3AD0E0FF8A
:100BFD00D0E0FED0E0FDD0E0FC120D6D8014F404C9
:100C0D00120E3AD0E0FFD0E0FED0E0FDD0E0FC12B5
:100C1D0009A9D082D083E0FAEDD2E7CD33EC3324AD
:100C2D0082FBE4C3CF33CFCE33CECD33CD33DBF325
:100C3D007B0775F00A846004F0A31B0AE5F0F0A3AE
:100C4D008FF0740AA4FFACF08EF0740AA42CFEACE5
:100C5D00F050010C8DF0740AA42CFDE435F0F0A3D6
:050C6D00DBDE7407222C
:100C7200020B1BE86480F8E933E83360110460F08A
:100C8200ED33EC337009E8FCE9FDEAFEEBFF2204E8
:100C920060DED3EB9FEA9EE99DE8C2E78CF0C2F7E3
:100CA20095F0400CE8CCF8E9CDF9EACEFAEBCFFBAF
:100CB200120AE685D0F05804700320D5B3E8047018
:100CC200075002B2D5020B2592D5EC0460F7E4CCB2
:100CD200C0E0C398F8603B94186008400DD0E0FB78
:100CE200020AFDE4FBFAC9FC8028E830E406E4C904
:100CF200FBE4CAFCE830E305E4C9CACBFCE85407CC
:100D02006010F8C3E913F9EA13FAEB13FBEC13FCD6
:100D1200D8F130F52FC3E49CFCEF9BFFEE9AFEED79
:100D220099FDD0E0FBEF4E4D4C701222DB03020B1B
:100D320022EC2CFCEF33FFEE33FEED33FDED30E71A
:100D4200EB020AFDEF2BFFEE3AFEED39FDD0E0FBA0
:100D520050130BBB0003020B25ED13FDEE13FEEF48
:080D620013FFEC13FC020AFD73
:100D6A00020B25EC5D046005E859047003020B1BB5
:100D7A00120AE6580460F6EC4860F2EC7004FDFED4
:100D8A00FF22C860DB2481C85009C398600250065C
:100D9A00020B229850CAF582E9294B4A7005AB82A8
:100DAA00020B1175F0007C1A7880C3EF9BEE9AED66
:100DBA0099400DC3EF9BFFEE9AFEED99FDE842F0D4
:100DCA00DC23ACF0D0E0FFD0E0FED0E0FDAB822027
:100DDA00E7101BEB60BAEC2CFCEF33FFEE33FEEDB1
:100DEA0033FD020AFDE803F830E705C0F075F000AC
:100DFA00EF2FFFEE33FEED33FD40B830E7C280AA95
:100E0A003F8000004120000042C80000447A0000F0
:100E1A00461C400047C35000497424004B18968072
:100E2A004CBEBC205A0E1BCA6753C21C749DC5AE69
:100E3A00FB60065407601C2323120E68EB543860CB
:100E4A0009120E54120E631209A9ECF8EDF9EEFA22
:100E5A00EFCB22EB120E6380F1543803241C900E60
:100E6A000AFE93FC0EEE93FD0EEE930ECE93FF2236
:030000000231D1F9
:0C31D100787FE4F6D8FD758121023218E9
:100E7A00BB010689828A83E0225002E722BBFE0276
:090E8A00E32289828A83E49322A9
:100E9300BB010CE58229F582E5833AF583E0225014
:100EA30006E92582F8E622BBFE06E92582F8E2225E
:0D0EB300E58229F582E5833AF583E4932278
:100EC000BB010689828A83F0225002F722BBFE0111
:020ED000F3220B
:100ED200EF8DF0A4A8F0CF8CF0A428CE8DF0A42E34
:020EE200FE22EE
:100EE400C5F0F8A3E028F0C5F0F8E5821582700299
:060EF4001583E038F02236
:100EFA00A3F8E0C5F025F0F0E582158270021583AB
:060F0A00E0C838F0E82207
:100F1000E88FF0A4CC8BF0A42CFCE98EF0A42CFC80
:100F20008AF0EDA42CFCEA8EF0A4CDA8F08BF0A4FE
:100F30002DCC3825F0FDE98FF0A42CCD35F0FCEB5D
:100F40008EF0A4FEA9F0EB8FF0A4CFC5F02ECD3922
:0F0F5000FEE43CFCEAA42DCE35F0FDE43CFC228F
:100F5F0075F008758200EF2FFFEE33FECD33CDCC49
:100F6F0033CCC58233C5829BED9AEC99E5829840CC
:100F7F000CF582EE9BFEED9AFDEC99FC0FD5F0D6A9
:100F8F00E4CEFBE4CDFAE4CCF9A88222B800C1B9D3
:100F9F000059BA002DEC8BF084CFCECDFCE5F0CB11
:100FAF00F97818EF2FFFEE33FEED33FDEC33FCEB4A
:100FBF0033FB10D703994004EB99FB0FD8E5E4F905
:100FCF00FA227818EF2FFFEE33FEED33FDEC33FCF2
:100FDF00C933C910D7059BE99A4007EC9BFCE99AE6
:100FEF00F90FD8E0E4C9FAE4CCFB2275F010EF2F2B
:100FFF00FFEE33FEED33FDCC33CCC833C810D7072B
:10100F009BEC9AE899400AED9BFDEC9AFCE899F865
:0E101F000FD5F0DAE4CDFBE4CCFAE4C8F922F8
:0E102D00C3E49FFFE49EFEE49DFDE49CFC22D4
:0C103B00ECF0A3EDF0A3EEF0A3EFF02228
:10104700A8828583F0D083D08212105E12105E12C0
:10105700105E12105EE473E493A3C583C5F0C583E5
:10106700C8C582C8F0A3C583C5F0C583C8C582C8F3
:011077002256
:0C107800A42582F582E5F03583F5832283
:10108400F8E0FBA3A3E0F925F0F0E58215827002F5
:071094001583E0FA38F02299
:09109B00EBF0A3EAF0A3E9F02256
:1010A400D083D082F8E4937012740193700DA3A3DB
:1010B40093F8740193F5828883E4737402936860EF
:0610C400EFA3A3A380DFEF
:1036C400EFB40A07740D1236CF740A309811A89912
:1036D400B8130CC2983098FDA899C298B811F63066
:0736E40099FDC299F599223E
:1031DD00023366E493A3F8E493A34003F68001F26F
:1031ED0008DFF48029E493A3F85407240CC8C333F3
:1031FD00C4540F4420C8834004F456800146F6DFC2
:10320D00E4800B0102040810204080900046E47E0B
:10321D00019360BCA3FF543F30E509541FFEE493B6
:10322D00A360010ECF54C025E060A840B8E493A37D
:10323D00FAE493A3F8E493A3C8C582C8CAC583CAA8
:10324D00F0A3C8C582C8CAC583CADFE9DEE780BE60
:0109A800004E
:00000001FF
