:070404000508FF030001FEE3
:1003B100E4FDFCC3ED9FEC9E5015E4FBFA0BBB0082
:0F03C100010ABA03F8BBE8F50DBD00010C80E49A
:0103D000220A
:0B041300E521B40105E4F521B28022D0
:1003D100E559B40118E4F55978247C00FDFB7A0055
:0E03E1007908FE7F05120212EF7002B282222E
:1002C200E4F50DF594F593F592F591F596F595F51E
:1002D200B2F5B1F5B4F5B3F5CAF5C9F5CCF5CBF580
:1002E200E2F5E11203EF12003312041320B31FE50B
:1002F2000D701B7F0AFE1203B120B318750D01B2F7
:10030200837B007A0079087D0512038E800630B364
:0903120003E4F50D1203D180D0C3
:07040B0001210002220000A4
:030043000203585D
:10035800C0E0C0D075D000C000E59A30E017539ACD
:10036800FE74242556F8A69B0556E556B401037578
:100378005801755700E59A30E105539AFDC200D03F
:0603880000D0D0D0E032ED
:03000B0002031BD2
:10031B00C0E0C0D00523E52370020522C394F4E5A9
:10032B002294014009752200752300752101E558BF
:10033B00B401020557E557C3940A400C7558007574
:0D034B005700755600755901D0D0D0E03232
:09041E002000FDEFD200F59B2245
:10000E008B118A128913AB11AA12A9131200466022
:10001E00130513E5137002051214F9120046FF12B0
:05002E00041E80E22227
:06038E008B0E8A0F89109E
:10039400E4FEEEC39D5015AB0EAA0FA9108E827514
:0C03A400830012005FFF12041E0E80E6B2
:0103B000222A
:1003EF0053BAFE759A5075D7E875D6FF438E1475BC
:0503FF00AF01D2AF22A6
:10003300438E80758ACD758CD4D28CD2A9D2AF224F
:03000000020236C3
:0C023600787FE4F6D8FD75815902027D46
:10004600BB010689828A83E0225002E722BBFE02B8
:09005600E32289828A83E49322EB
:10005F00BB010CE58229F582E5833AF583E0225056
:10006F0006E92582F8E622BBFE06E92582F8E222A0
:0D007F00E58229F582E5833AF583E49322BA
:10008C00E3F5F009E208B5F06BDFF58067E3F5F016
:10009C0009E608B5F05EDFF5805A87F009E608B589
:1000AC00F052DFF6804E87F009E208B5F046DFF635
:1000BC00804288828C8387F009E0A3B5F036DFF6A6
:1000CC00803288828C8387F009E493A3B5F025DF16
:1000DC00F5802188828C83E3F5F009E0A3B5F01458
:1000EC00DFF5801088828C83E3F5F009E493A3B5E7
:1000FC00F002DFF40201BB808780E9809080D4801D
:10010C003E8015806E807E809D80B7808D80A38020
:10011C00518074803C0201C789828A83ECFAE49393
:10012C00F5F0A3C8C582C8CCC583CCE493A3C8C5DD
:10013C0082C8CCC583CCB5F076DFE3DEE180708974
:10014C00828A83E493F5F0A3E208B5F062DFF480D1
:10015C005E89828A83E0F5F0A3E608B5F051DFF5FD
:10016C00804D89828A83E0F5F0A3E208B5F040DF88
:10017C00F5803C89828A83E493F5F0A3E608B5F018
:10018C002EDFF4802A8002805789828A83ECFAE47D
:10019C0093F5F0A3C8C582C8CCC583CCE0A3C8C571
:1001AC0082C8CCC583CCB5F006DFE4DEE280007FEC
:1001BC00FFB5F0020F2240027F012289828A83EC74
:1001CC00FAE0F5F0A3C8C582C8CCC583CCE0A3C8BF
:1001DC00C582C8CCC583CCB5F0D5DFE5DEE380CFD6
:1001EC0089828A83ECFAE0F5F0A3C8C582C8CCC535
:1001FC0083CCE493A3C8C582C8CCC583CCB5F0AF7F
:10020C00DFE4DEE280A988F0EF60010E4E60ABED1A
:10021C002402B404005098F582EB2402B40400507C
:0A022C008E23234582239001037303
:100242000202C2E493A3F8E493A34003F68001F20E
:1002520008DFF48029E493A3F85407240CC8C333BD
:10026200C4540F4420C8834004F456800146F6DF8C
:10027200E4800B0102040810204080900404E47E14
:10028200019360BCA3FF543F30E509541FFEE49381
:10029200A360010ECF54C025E060A840B8E493A348
:1002A200FAE493A3F8E493A3C8C582C8CAC583CA73
:1002B200F0A3C8C582C8CAC583CADFE9DEE780BE2B
:0104120000E9
:00000001FF
