:1033F700CFB5CDB3C6F4B6AFD6D00020204C6F61A1
:103407006420616E6420496E697469616C697A61D0
:0F34170074696F6E2E2E2E007A6B623A25640058
:0F000E00420AE60000420AD80000420ADA000067
:10349400E4F593F594F5917592FFF595F596F5B1EC
:0B34A400F5B2F5B3F5B4F5C9F5CA2286
:1034C500538E7F5389F0758A66758CFCC28DD28CBC
:0334D500D2A92257
:102DFA001234941234C5D2AF1234EA12298FE4FF86
:102E0A00FE12318FE49008AEF0A3F0A37418F0E438
:102E1A00A3F0A374FFF0A37433F0A374F7F074FF64
:102E2A00FBFA7D647C007F3C7E00122F567BFF7A82
:102E3A0034790274FF900913F0A3F0E4A3F0A3F02D
:102E4A00A37410F0E4A3F07DDCFCFFFE12307CE4F6
:102E5A00FFFE12318F90090774FFF0A37434F0A3B8
:102E6A00741FF0900AE6E0FFA3E090090ACFF0A3EE
:102E7A00EFF07B017A0A79DC12105F7B017A0A791A
:102E8A00DC74FF900913F0A3F0E4A3F0A3F0A37499
:102E9A0010F0E4A3F07D78FC7F64FE12307C80B5EC
:03000B00023106B9
:10310600C0E0C0F0C083C082C0D075D000C000C08F
:0131160006B2
:10311700900AD8E475F001120E14FEC3900AE7E096
:1031270095F0900AE6E09E5017D295C3900AD9E031
:10313700940A900AD8E094004008E4F0A3F08002D3
:10314700C295900ADAE475F001120E14FED3E5F089
:1031570094C8EE94004022900ADAE4F0A3F0900AB3
:10316700E675F001120E2AFEC3E5F09409EE94000D
:093177004007900AE6E4F0A3F021
:0F318000D006D000D0D0D082D083D0F0D0E032B3
:10001D0065F002B8000000000000000000000000C4
:10002D00000000000000000808080808080800008B
:10003D001818000000486C24120000000000000099
:10004D00000000000000002424247F1212127F12F1
:10005D00121200000000081C2A2A0A0C1828282A4F
:10006D002A1C080800000022251515152A5854547D
:10007D00542200000000000C1212120A76252911DC
:10008D00916E000000060604030000000000000051
:10009D000000000000402010100808080808081093
:1000AD001020400000020408081010101010100855
:1000BD00080402000000000008086B1C1C6B0808F7
:1000CD000000000000000000080808087F0808086C
:1000DD00080000000000000000000000000000000B
:1000ED00060604030000000000000000FE000000F2
:1000FD0000000000000000000000000000000000F3
:10010D000606000000008040402020101008080462
:10011D0004020200000000182442424242424242C0
:10012D0024180000000000080E0808080808080838
:10013D00083E00000000003C42424220201008040E
:10014D00427E00000000003C424220182040404208
:10015D00221C0000000000203028242422227E20B2
:10016D00207800000000007E0202021A2640404264
:10017D00221C0000000000382402021A26424242CE
:10018D00241800000000007E222210100808080824
:10019D00080800000000003C42424224182442425C
:1001AD00423C000000000018244242426458404086
:1001BD00241C0000000000000000181800000000C2
:1001CD0018180000000000000000000800000000EA
:1001DD000008080400000040201008040204081064
:1001ED00204000000000000000007F0000007F00A4
:1001FD00000000000000000204081020402010083C
:10020D00040200000000003C424246402010100055
:10021D00181800000000001C225A555555552D4246
:10022D00221C00000000000808181414243C22426F
:10023D0042E700000000001F2222221E22424242FD
:10024D00221F00000000007C424201010101014219
:10025D00221C00000000001F224242424242424244
:10026D00221F00000000003F4212121E1212024215
:10027D00423F00000000003F4212121E1212020205
:10028D00020700000000003C222201010171212221
:10029D00221C0000000000E7424242427E424242E0
:1002AD0042E700000000003E08080808080808089A
:1002BD00083E00000000007C1010101010101010EF
:1002CD001010110F0000007722120A0E0A121222CE
:1002DD002277000000000007020202020202020261
:1002ED00427F000000000077363636362A2A2A2A49
:1002FD002A6B0000000000E346464A4A5252526201
:10030D00624700000000001C224141414141414132
:10031D00221C00000000003F424242423E02020207
:10032D00020700000000001C2241414141414D5394
:10033D00321C60000000003F4242423E1212222257
:10034D0042C700000000007C4242020418204042D7
:10035D00423E00000000007F490808080808080810
:10036D00081C0000000000E7424242424242424265
:10037D00423C0000000000E74242222424141418DD
:10038D00080800000000006B4949494955553622BF
:10039D0022220000000000E742242418181824240B
:1003AD0042E7000000000077222214140808080814
:1003BD00081C00000000007E2120101008040442DB
:1003CD00423F0000007808080808080808080808D7
:1003DD000808780000000202040408080810102024
:1003ED0020204040001E1010101010101010101082
:1003FD0010101E0000384400000000000000000036
:10040D0000000000000000000000000000000000DF
:10041D00000000FF000608000000000000000000C2
:10042D0000000000000000000000003C4278444243
:10043D0042FC0000000000030202021A2642424262
:10044D00261A0000000000000000003844020202DD
:10045D004438000000000060404040784442424271
:10046D0064D80000000000000000003C427E020243
:10047D00423C0000000000F08808087E08080808CB
:10048D00083E0000000000000000007C22221C023B
:10049D003C42423C000000030202023A4642424204
:1004AD0042E700000000000C0C00000E08080808D0
:1004BD00083E0000000000303000003820202020D1
:1004CD002020221E0000000302020272120A1612E0
:1004DD00227700000000000E080808080808080828
:1004ED00083E0000000000000000007F92929292F2
:1004FD0092B70000000000000000003B464242425F
:10050D0042E70000000000000000003C4242424271
:10051D00423C0000000000000000001B2642424249
:10052D00221E0207000000000000007844424242F3
:10053D00447840E000000000000000774C04040403
:10054D00041F0000000000000000007C42023C403F
:10055D00423E0000000000000008083E08080808A0
:10056D0008300000000000000000006342424242DB
:10057D0062DC000000000000000000E742242414AB
:10058D000808000000000000000000EB4949555527
:10059D002222000000000000000000762418181828
:1005AD00246E000000000000000000E74224241427
:1005BD0018080807000000000000007E221008083F
:1005CD00447E000000C0202020202010202020206C
:1005DD002020C0001010101010101010101010104E
:1005ED001010101000060808080808100808080860
:1005FD00080806000C32C2000000000000000000D8
:10060D00000000005A0000D6D0200020002000FE7F
:10061D0003220222022202FE0322022000200020D9
:10062D000060AA020ECFB5001CFE032000200810AA
:10063D0004FC03800040042008FC1F8010900490EF
:10064D00088810A4104000CDB3080108020412E47C
:10065D003F12019F084810E43F82249F04820480CA
:10066D00045844474422781000C6F480000021F855
:10067D007F082008200820F83F08000820F87F1880
:10068D0020142014201220F13F1020B6AF000210CC
:10069D00023E020022A07F7F22082208220422248B
:1006AD002242217F218220802040142008D6D08034
:1006BD000080008020FE7F8220822082208220FE0A
:1006CD003F822080008000800080008000800061DB
:1006DD0072009CCFB500000000800FFCFF1FFCFFD7
:1006ED001FF81E00000F03808307C0C103F0FF0138
:1006FD00F07F00201C03008F07C0030EF8FF1FF8CA
:10070D00FF3F103810403801C0B907E0380F70387E
:10071D001E3C383C1C3E18001E00000000CDB300EE
:10072D00800030C00170800130800338000318FE56
:10073D007F0CFE7F8CE100C6E100FE710EFE380CD1
:10074D00601C1C70FE3F38FC7F186033FE6103FE99
:10075D0061033E6003006003803303FC3B23FE19FD
:10076D00631E1E7F000F7EC6F4003800003800F0B7
:10077D00FF3FF0FF3FF0FF3F700038700038700012
:10078D0038F0FF3FF0FF3FF0FF3F700000700000BA
:10079D00F0FF3FF0FF3FB8FF3FB803389803389C98
:1007AD0003388CFF3F8EFF3F86FF3F8403380000E8
:1007BD0000B6AF008003008003FC8701FC8701FCBD
:1007CD00870100800100F87F00F87FFECF31FECF5A
:1007DD0031E0C03160C03170C03170C33030C730CE
:1007ED0038E63818E738FC6F38FE7F383E3C380461
:1007FD003C3F001F1F000F0E000600D6D000380032
:10080D00003800003800003800003800F8FF3FF8CD
:10081D00FF3FF8FF3F3838383838383838383838EF
:10082D0038383838383838F8FF3FF8FF3FF8FF3F91
:10083D003838380038000038000038000038000023
:10084D0038000038006082001AB5E7000000000093
:10085D0000000000E0000000E0000000E0000000EB
:10086D00E0000000E00000F8FFFF03F8FFFF033891
:10087D00E0800338E0800338E0800338E0800338FF
:10088D00E08003F8FFFF03F8FFFF0338E080033833
:10089D00E0800338E0800338E0800338E08003F81F
:1008AD00FFFF03F8FFFF0338E0000038E0000038D9
:1008BD00E0000000E0007000E0003800E0013800CA
:0B08CD00C0FF3F0080FF1F0000000084
:08320E00900B1BEEF0A3EFF0A2
:10321600900A90E4F0A374EFF0FB7A00E4FDFCFF63
:10322600FE1233BBE4900B1DF0A3F0E4900B1FF0ED
:10323600A3F0900B1BE0FEA3E0FF12342B900B20B3
:10324600E004F07006900B1FE004F0C3900B20E042
:1032560094F0900B1FE0940040D8900B1EE004F011
:103266007006900B1DE004F0C3900B1EE094F090E6
:073276000B1DE0940040B4C1
:01327D00222E
:04318F00AD07AC06D6
:10319300E4FBFAC3EB94E0EA9401502374AB2BF500
:1031A3008274083AF583EDF0ECFF74AA2BF5827470
:1031B300083AF583EFF074022BFBE43AFA80D490DB
:1031C3000A90E4F0A374EFF0FB7A00E4FDFCFFFE49
:1031D3001233BBE49008A8F0A3F0D2CBC2C77B01A3
:1031E3007A0879AA7DE07C01123378D2C79008A9C6
:1031F300E004F070069008A8E004F0C39008A9E08A
:0A32030094F09008A8E0940040D079
:01320D00229E
:102EAA00900AF8EEF0A3EFF0A3ECF0A3EDF0A3EA9A
:042EBA00F0A3EBF0A6
:102EBE00C006C00724FFFBEA34FFFAA3E0FEA3E03E
:102ECE0024FFFFEE34FF900A90F0A3EFF0D007D06E
:102EDE00061233BB900AFAE0FFA3E0900B02CFF08C
:102EEE00A3EFF0900AFEE0FEA3E0FFC3900B03E019
:102EFE009F900B02E09E504F900AF8E0FFA3E090E7
:102F0E000B04CFF0A3EFF0900AFCE0FEA3E0FFC3AA
:102F1E00900B05E09F900B04E09E501B900B00E081
:102F2E00FEA3E0FF12342B900B05E004F070D89056
:102F3E000B04E004F080D0900B03E004F070A4903A
:072F4E000B02E004F0809C7F
:012F55002259
:10327E00900B0DFEE0FCA3E0FDC3900B09E09DFD5D
:0E328E00900B08E09CFC900B0BE0FAA3E0FB19
:10329C00900941EEF0A3EFF0900945EAF0A3EBF0B2
:1032AC00900943ECF0A3EDF0900941E0FAA3E0FBA8
:1032BC00FFAE02C007A3E0FFA3E0900A90CFF0A3FB
:1032CC00EFF0D0071233BB900945E0FEA3E0FF02FC
:0232DC00342B91
:0E21DE00900A94EEF0A3EFF0A3ECF0A3EDF066
:1021EC00E4900AA0F0A3F0A3F0A3F0900A94E0FE10
:1021FC00A3E0FFC3EB9FFFEA9E900AA4F0A3EFF0CD
:10220C00900A96E0FAA3E0FBC3900A9BE09BFE9039
:10221C000A9AE09A900AA6F0A3CEF0900A94E0FFF6
:10222C00A3E0900AAECFF0A3EFF0A3EAF0A3EBF09B
:10223C00900AA4E0FEA3E0FFD39400EE64809480A7
:10224C00400A900AAAE4F0A304F08021EF4E700833
:10225C00900AAAF0A3F0801574FF900AAAF0A3F0DC
:10226C00C3E49FFFE49E900AA4F0A3EFF0900AA6AB
:10227C00E0FEA3E0FFD39400EE64809480400A90CB
:10228C000AACE4F0A304F08021EF4E7008900AAC85
:10229C00F0A3F0801574FF900AACF0A3F0C3E49F98
:1022AC00FFE49E900AA6F0A3EFF0900AA6E0FEA32E
:1022BC00E0FF900AA4E0FCA3E0FDD39FEE6480F85D
:1022CC00EC648098900AA84007ECF0A3EDF0800530
:1022DC00EEF0A3EFF0E4900A9EF0A3F0900AA9E0D0
:1022EC002401FF900AA8E03400FEC3900A9FE09FEF
:1022FC00900A9EE09E40030223CB900AAEE0FEA320
:10230C00E0FFA3E0FCA3E0FD900A9C123297900A38
:10231C00A4E0FEA3E0FF900AA1E02FF0900AA0E059
:10232C003EF0900AA6E0FEA3E0FF900AA3E02FF097
:10233C00900AA2E03EF0900AA8E0FEA3E0FF900A0B
:10234C00A0E0FCA3E0FDD39FEE6480F8EC648098E1
:10235C004020ED9FFFEC9E900AA0F0A3EFF0900AB6
:10236C00AAE0FEA3E0FF900AAFE02FF0900AAEE0E7
:10237C003EF0900AA8E0FEA3E0FF900AA2E0FCA3C6
:10238C00E0FDD39FEE6480F8EC6480984020ED9FD4
:10239C00FFEC9E900AA2F0A3EFF0900AACE0FEA333
:1023AC00E0FF900AB1E02FF0900AB0E03EF0900A06
:0F23BC009FE004F07006900A9EE004F00222E811
:0123CB0022EF
:102D1400900B15EAF0A3EBF0900B11EEF0A3EFF09B
:102D2400A3ECF0A3EDF0C007A3E0FAA3E0FB900B43
:102D340013E0FFA3E0900A9ACFF0A3EFF0900B19F1
:102D4400E0FFA3E0900A9CCFF0A3EFF0D00712219C
:102D5400DE900B11E0FAA3E0FBFFAE02C007A3E094
:102D6400FCA3E0FD900B17E0FFA3E0900A9ACFF0DC
:102D7400A3EFF0900B19E0FFA3E0900A9CCFF0A31F
:102D8400EFF0D0071221DE900B17E0FCA3E0FD90DA
:102D94000B15E0FAA3E0FBA3E0FFA3E0900A9ACFAF
:102DA400F0A3EFF0900B19E0FFA3E0900A9CCFF0A2
:102DB400A3EFF0900B11E0FEA3E0FF1221DE900BD5
:102DC40015E0FAA3E0FBFFAE02C007900B13E0FC92
:102DD400A3E0FD900B17E0FFA3E0900A9ACFF0A3C5
:102DE400EFF0900B19E0FFA3E0900A9CCFF0A3EF63
:062DF400F0D0070221DE11
:1023CC00900B06EEF0A3EFF0A3ECF0A3EDF0A3EB73
:0123DC00F010
:1023DD00E4900B0DF0A3F0EBFFA3E4F0A3EFF0906E
:1023ED000B0FE0FEA3E0FFD3900B0EE09FEE648099
:1023FD00F8900B0DE0648098400302256BC3900BA1
:10240D0007E09FFF900B06E09E12327E900B0FE0CF
:10241D00FEA3E0FF900B07E02FFF900B06E03E12AE
:10242D00327E900B0DE0FEA3E0FFC3900B07E09F03
:10243D00FF900B06E09EFE900B0FE0FCA3E0FD90DD
:10244D000B09E02DFD900B08E03C123293900B0D23
:10245D00E0FEA3E0FFC3900B07E09FFF900B06E0AB
:10246D009E900B0F123281900B0FE0FEA3E0FF90B8
:10247D000B07E02FFF900B06E03EFE900B0DE0FCEE
:10248D00A3E0FD900B09E02DFD900B08E03C12320E
:10249D0093900B0DE0FEA3E0FF900B07E02FFF9054
:1024AD000B06E03EFE900B0F123282900B0DE0FEFC
:1024BD00A3E0FF900B07E02FFF900B06E03EFE9090
:1024CD000B0FE0FCA3E0FD900B09E02DFD900B0838
:1024DD00E03C123293900B0FE0FEA3E0FFC3900B94
:1024ED0007E09FFF900B06E09EFE900B0DE0FCA316
:1024FD00E0FD900B09E02DFD900B08E03C123293AE
:10250D00900B0EE004F07006900B0DE004F0900BB4
:10251D000FE0FCA3E0FDFFAE04120E02AA06AB070E
:10252D00900B0DE0FCA3E0FDFFAE04120E02EF2BAD
:10253D00FDEE3AFC900B0AE0F5F0A4FFD3ED9FE51C
:10254D00F06480F8EC64809850030223EC900B103B
:0E255D00E024FFF0900B0FE034FFF00223ECBF
:01256B00224D
:10256C0090090CEEF0A3EFF0A3ECF0A3EDF0A3EBCD
:10257C00F0A3EAF0A3E9F0900910E0FBA3E0FAA3C2
:10258C00E0F9120DAA70030226F6900917E0640C0C
:10259C00704490090EE0FCA3E0FD900913E0FFA34A
:1025AC00E0900920CFF0A3EFF0900915E0FFA3E035
:1025BC00900922CFF0A3EFF0900917E0900924F0D6
:1025CC00900918E0900925F090090CE0FEA3E0FFBB
:1025DC001219F30226D7900917E06410704B90097A
:1025EC000EE0FCA3E0FDA3E0FBA3E0FAA3E0F9A35B
:1025FC00E0FFA3E0900920CFF0A3EFF0900915E0E5
:10260C00FFA3E0900922CFF0A3EFF0900917E09020
:10261C000924F0900918E0900925F090090CE0FECF
:10262C00A3E0FF1217390226D7900917E06418703F
:10263C004A90090EE0FCA3E0FDA3E0FBA3E0FAA3A3
:10264C00E0F9A3E0FFA3E0900920CFF0A3EFF09016
:10265C000915E0FFA3E0900922CFF0A3EFF0900959
:10266C0017E0900924F0900918E0900925F09009E2
:10267C000CE0FEA3E0FF12147D8050900917E0647B
:10268C0020706790090EE0FCA3E0FDA3E0FBA3E043
:10269C00FAA3E0F9A3E0FFA3E0900920CFF0A3EFA9
:1026AC00F0900915E0FFA3E0900922CFF0A3EFF022
:1026BC00900917E0900924F0900918E0900925F092
:1026CC0090090CE0FEA3E0FF121CAC900911E4751C
:1026DC00F002120E14900917E0FF90090DE02FF094
:0B26EC0090090CE03400F0022583226E
:1019F30090091BECF0A3EDF0A3EBF0A3EAF0A3E94D
:091A0300F0900919EEF0A3EFF0D8
:101A0C00E4900928F090092FEEF0A3EFF090092450
:101A1C00E0FF131313541FFD7C00EF54077E00608E
:101A2C00047F0180027F00EF2DFFEE3CFE90092425
:101A3C00E0FD7C00120E0290092DEEF0A3EFF09069
:101A4C00092BE4F0A304F0E4900929F0A3F0900929
:101A5C002BE0FEA3E0FF900929E0FCA3E0FDC39F6F
:101A6C00EC9E4003021CAB90091DE0FBA3E0FAA323
:101A7C00E0F9120DAAFF90000075F01AED120FA8F4
:101A8C00EC75F01AA42583F583E06F6003021C9AB1
:101A9C00900001120DC3FF900929A3E0900001757D
:101AAC00F01A120FA8EC75F01AA42583F583E06FD9
:101ABC006003021C9A90091BE0FCA3E0FD90092432
:101ACC00E0F9FF7E00900919E0FAA3E02FFFEE3A4F
:101ADC00CF24FFFBEF34FFFAE9FFA3E0F8A3E02FDC
:101AEC00FFEE38CF24FFCF34FF900A90F0A3EFF035
:101AFC00900919E0FEA3E0FF1233BBE4900926F035
:101B0C00900926E0FFD390092EE09F90092DE094D8
:101B1C00005003021C9AE4900927F0900925E0601C
:101B2C0003021BC5900929A3E075F01AA42402F541
:101B3C0082E43400F583C083C082900926E0D08211
:101B4C00D0832582F582E43583F583E0FD7C00901B
:101B5C000927E0FF74017E00A807088005C333CE77
:101B6C0033CED8F9FFEE5CFEEF5D4E600590092098
:101B7C008003900922E0FCA3E0FDECFF900927E034
:101B8C00FE25E02431F582E43409F583EFF0EE25EF
:101B9C00E02432F582E43409F583EDF0900928E075
:101BAC0004F0900924E0FF900928E08FF084E5F020
:101BBC006003021C6AF0021C79900929A3E075F0FD
:101BCC001AA42402F582E43400F583C083C0829009
:101BDC000926E0D082D0832582F582E43583F58313
:101BEC00E0FD7C00900927E0FF74017E00A8070847
:101BFC008005C333CE33CED8F9FFEE5CFEEF5D4EDD
:101C0C006014900919E0FEA3E0FFA3E0FCA3E0FD43
:101C1C0090092012329790091AE004F0700690098E
:101C2C0019E004F090092FE0FEA3E0FFC390091A1D
:101C3C00E09FFD900919E09EFC900924E07A00B524
:101C4C00051CEAB50418900919EEF0A3EFF0900901
:101C5C001CE004F0701790091BE004F0800F900951
:101C6C0027E004F0E0C394085003021B27900925D9
:101C7C00E07012D2CBC2C77B017A0979317D10FC9E
:101C8C00123378D2C7900926E004F0021B0C90099D
:0F1C9C002AE004F07006900929E004F0021A5AB9
:011CAB002216
:1017390090091BECF0A3EDF0A3EBF0A3EAF0A3E909
:09174900F0900919EEF0A3EFF095
:10175200E4900928F090092FEEF0A3EFF09009240D
:10176200E0FF131313541FFD7C00EF54077E00604B
:10177200047F0180027F00EF2DFFEE3CFE900924E2
:10178200E0FD7C00120E0290092DEEF0A3EFF09026
:10179200092BE4F0A37405F0E4900929F0A3F0907A
:1017A200092BE0FEA3E0FF900929E0FCA3E0FDC3C2
:1017B2009FEC9E40030219F290091DE0FBA3E0FAA0
:1017C200A3E0F9120DAAFF90020E75F022ED120F9E
:1017D200A8EC75F022A42583F583E06F600302195B
:1017E200E1900001120DC3FF900929A3E090020FBE
:1017F20075F022120FA8EC75F022A42583F583E080
:101802006F60030219E190091BE0FCA3E0FD90095F
:1018120024E0F9FF7E00900919E0FAA3E02FFFEE21
:101822003ACF24FFFBEF34FFFAE9FFA3E0F8A3E08D
:101832002FFFEE38CF24FFCF34FF900A90F0A3EFB2
:10184200F0900919E0FEA3E0FF1233BBE4900926F1
:10185200F0900926E0FFD390092EE09F90092DE039
:10186200940050030219E1E4900927F0900925E061
:10187200600302190C900929A3E075F022A4241038
:10188200F582E43402F583C083C082900926E0D059
:1018920082D0832582F582E43583F583E0FD7C00E6
:1018A200900927E0FF74017E00A807088005C33372
:1018B200CE33CED8F9FFEE5CFEEF5D4E60059009A7
:1018C200208003900922E0FCA3E0FDECFF900927B1
:1018D200E0FE25E02431F582E43409F583EFF0EEF1
:1018E20025E02432F582E43409F583EDF0900928ED
:1018F200E004F0900924E0FF900928E08FF084E5ED
:10190200F060030219B1F00219C0900929A3E07531
:10191200F022A42410F582E43402F583C083C0824D
:10192200900926E0D082D0832582F582E43583F5C2
:1019320083E0FD7C00900927E0FF74017E00A80788
:10194200088005C333CE33CED8F9FFEE5CFEEF5DDF
:101952004E6014900919E0FEA3E0FFA3E0FCA3E0AF
:10196200FD90092012329790091AE004F070069057
:101972000919E004F090092FE0FEA3E0FFC39009EB
:101982001AE09FFD900919E09EFC900924E07A007C
:10199200B5051CEAB50418900919EEF0A3EFF09012
:1019A200091CE004F0701790091BE004F0800F900E
:1019B2000927E004F0E0C39408500302186E90096E
:1019C20025E07012D2CBC2C77B017A0979317D1032
:1019D200FC123378D2C7900926E004F00218539023
:1019E200092AE004F07006900929E004F00217A128
:0119F20022D2
:10147D0090091BECF0A3EDF0A3EBF0A3EAF0A3E9C8
:09148D00F0900919EEF0A3EFF054
:10149600E4900928F090092FEEF0A3EFF0900924CC
:1014A600E0FF131313541FFD7C00EF54077E00600A
:1014B600047F0180027F00EF2DFFEE3CFE900924A1
:1014C600E0FD7C00120E0290092DEEF0A3EFF090E5
:1014D600092BE4F0A37405F0E4900929F0A3F09039
:1014E600092BE0FEA3E0FF900929E0FCA3E0FDC381
:1014F6009FEC9E400302173890091DE0FBA3E0FA1B
:10150600A3E0F9120DAAFF90009C75F04AED120FA8
:10151600A8EC75F04AA42583F583E06F60030217F3
:1015260027900001120DC3FF900929A3E090009DAA
:1015360075F04A120FA8EC75F04AA42583F583E0EE
:101546006F600302172790091BE0FCA3E0FD9009DA
:1015560024E0F9FF7E00900919E0FAA3E02FFFEEE0
:101566003ACF24FFFBEF34FFFAE9FFA3E0F8A3E04C
:101576002FFFEE38CF24FFCF34FF900A90F0A3EF71
:10158600F0900919E0FEA3E0FF1233BBE4900926B0
:10159600F0900926E0FFD390092EE09F90092DE0F8
:1015A60094005003021727E4900927F0900927E0DA
:1015B600FFC394084003021706900925E060030262
:1015C6001657A3E0FE900929E0FCA3E090009E7563
:1015D600F04A120FA8EC75F04AA42583F583E5823C
:1015E6002EF582E43583F583E0FD7C0074017E00F0
:1015F600A807088005C333CE33CED8F9FFEE5CFECC
:10160600EF5D4E60059009208003900922E0FCA35F
:10161600E0FDECFF900927E0FE25E02431F582E4A9
:101626003409F583EFF0EE25E02432F582E434093F
:10163600F583EDF0900928E004F0900924E0FF908E
:101646000928E08FF084E5F060030216FDF002172A
:1016560006900926E0FF900929E0FCA3E090009E91
:1016660075F04A120FA8EC75F04AA42583F583E5B8
:10167600822FF582E43583F583E0FD7C009009270F
:10168600E0FF74017E00A807088005C333CE33CE81
:10169600D8F9FFEE5CFEEF5D4E6014900919E0FE8E
:1016A600A3E0FFA3E0FCA3E0FD900920123297908F
:1016B600091AE004F07006900919E004F090092F69
:1016C600E0FEA3E0FFC390091AE09FFD900919E030
:1016D6009EFC900924E07A00B5051CEAB504189032
:1016E6000919EEF0A3EFF090091CE004F0701190D8
:1016F600091BE004F08009900927E004F00215B206
:10170600900925E07012D2CBC2C77B017A097931E4
:101716007D10FC123378D2C7900926E004F002153A
:101726009790092AE004F07006900929E004F00277
:0217360014E5B8
:01173800228E
:101CAC0090091BECF0A3EDF0A3EBF0A3EAF0A3E991
:091CBC00F0900919EEF0A3EFF01D
:101CC500E4900928F090092FEEF0A3EFF090092495
:101CD500E0FF131313541FFD7C00EF54077E0060D3
:101CE500047F0180027F00EF2DFFEE3CFE9009246A
:101CF500E0FD7C00120E0290092DEEF0A3EFF090AE
:101D0500092BE4F0A304F0E4900929F0A3F090096D
:101D15002BE0FEA3E0FF900929E0FCA3E0FDC39FB3
:101D2500EC9E4003021F6490091DE0FBA3E0FAA3AB
:101D3500E0F9120DAAFF90001A75F082ED120FA8B6
:101D4500EC75F082A42583F583E06F6003021F53D1
:101D5500900001120DC3FF900929A3E090001B75A7
:101D6500F082120FA8EC75F082A42583F583E06F4D
:101D75006003021F5390091BE0FCA3E0FD900924BA
:101D8500E0F9FF7E00900919E0FAA3E02FFFEE3A93
:101D9500CF24FFFBEF34FFFAE9FFA3E0F8A3E02F20
:101DA500FFEE38CF24FFCF34FF900A90F0A3EFF079
:101DB500900919E0FEA3E0FF1233BBE4900926F079
:101DC500900926E0FFD390092EE09F90092DE0941D
:101DD500005003021F53E4900927F0900925E060A5
:101DE50003021E7E900929A3E075F082A4241CF548
:101DF50082E43400F583C083C082900926E0D08256
:101E0500D0832582F582E43583F583E0FD7C00905F
:101E15000927E0FF74017E00A807088005C333CEBB
:101E250033CED8F9FFEE5CFEEF5D4E6005900920DC
:101E35008003900922E0FCA3E0FDECFF900927E078
:101E4500FE25E02431F582E43409F583EFF0EE2533
:101E5500E02432F582E43409F583EDF0900928E0B9
:101E650004F0900924E0FF900928E08FF084E5F064
:101E75006003021F23F0021F32900929A3E075F0C9
:101E850082A4241CF582E43400F583C083C08290CB
:101E95000926E0D082D0832582F582E43583F58357
:101EA500E0FD7C00900927E0FF74017E00A807088B
:101EB5008005C333CE33CED8F9FFEE5CFEEF5D4E21
:101EC5006014900919E0FEA3E0FFA3E0FCA3E0FD88
:101ED50090092012329790091AE004F070069009D3
:101EE50019E004F090092FE0FEA3E0FFC390091A62
:101EF500E09FFD900919E09EFC900924E07A00B569
:101F0500051CEAB50418900919EEF0A3EFF0900945
:101F15001CE004F0701790091BE004F0800F900995
:101F250027E004F0E0C394085003021DE090092562
:101F3500E07012D2CBC2C77B017A0979317D10FCE2
:101F4500123378D2C7900926E004F0021DC5900926
:0F1F55002AE004F07006900929E004F0021D1341
:011F6400225A
:101F650090091BECF0A3EDF0A3EBF0900919EEF04E
:031F7500A3EFF0E7
:101F7800E4900927F090092CEEF0A3EFF0900922E5
:101F8800E0F9C313900925F0E0FF131313541FFD64
:101F98007C00EF54077E0060047F0180027F00EF21
:101FA8002DFFEE3CFEE9FD7C00120E0290092AEEA0
:101FB800F0A3EFF090091DE024E0F090091BE0FC8D
:101FC800A3E0FD900925E0FF7E00900919E0FAA33F
:101FD800E02FFFEE3ACF24FFFBEF34FFFAE9FFA32F
:101FE800E0F8A3E02FFFEE38CF24FFCF34FF900AAC
:101FF80090F0A3EFF0900919E0FEA3E0FF1233BBC5
:10200800E4900928F0A3F090092AE0FEA3E0FF90ED
:102018000928E0FCA3E0FDC39FEC9E40030221DDFC
:10202800900922E0641060030221DD90091DE0752B
:10203800F010A424B8F582E5F03402F583E5822D8A
:10204800F582E5833CF583E0900924F0E4900926C5
:10205800F0900926E0FFC3940840030221AC9009E0
:1020680023E06003022128900925E05407706504E5
:102078007E00A807088005C333CE33CED8F9FF9079
:102088000924E0FDEF5D600590091E80039009209A
:10209800E0FCA3E0FDECFF900926E0FE25E0242EFD
:1020A800F582E43409F583EFF0EE25E0242FF5827C
:1020B800E43409F583EDF0900927E004F090092550
:1020C800E0FF900927E08FF084E5F060030221A388
:1020D800F00221AC900926E0FF74017E00A80708F1
:1020E8008005C333CE33CED8F9FF900924E0FDEF45
:1020F8005D600590091E8003900920E0FEA3E0FFC3
:1021080012342B900927E004F0900925E0FF90098C
:1021180027E08FF084E5F060030221A3F00221ACF0
:10212800900926E0FF74017E00A807088005C333E4
:10213800CE33CED8F9FF900924E0FDEF5D6014900E
:102148000919E0FEA3E0FFA3E0FCA3E0FD90091E4F
:1021580012329790091AE004F07006900919E00409
:10216800F090092CE0FEA3E0FFC390091AE09FFD60
:10217800900919E09EFC900925E07A00B5051CEA53
:10218800B50418900919EEF0A3EFF090091CE004CB
:10219800F0701190091BE004F08009900926E00412
:1021A800F0022059900925E054077018900923E09F
:1021B8007012D2CBC2C77B017A09792E7D10FC122E
:1021C8003378D2C7900929E004F07006900928E016
:0521D80004F002200FDD
:0121DD0022DF
:10307C0090090CEEF0A3EFF0A3ECF0A3EDF0A3EBB2
:10308C00F0A3EAF0A3E9F0900910E0FBA3E0FAA3A7
:10309C00E0F9120DAAFB606190090EE0FCA3E0FDC3
:1030AC00900913E0FFA3E090091ECFF0A3EFF0907E
:1030BC000915E0FFA3E0900920CFF0A3EFF09009F1
:1030CC0017E0900922F0900918E0900923F090097C
:1030DC000CE0FEA3E0FF121F65900917E0C313FF7D
:1030EC0090090DE02FF090090CE03400F0900911DC
:0A30FC00E475F001120E14808E221C
:0732DE00C3EF9E14FD7F0AFF
:0832E500900B21EFF0A3EDF0C6
:1032ED00A3120F7700000001900B22E0FF14F0EF06
:1032FD006020A3E0F8A3E0F9A3E0FAA3E0FB900BB4
:10330D0021E0FFE4FCFDFE120E40900B23120F6B2B
:10331D0080D6900B23E0FCA3E0FDA3E0FEA3E0FF2D
:01332D00227D
:102AD600900AE8EEF0A3EFF0A3ECF0A3EDF0A3EA82
:042AE600F0A3EBF07E
:102AEA00E4900AF6F0900AF3E0C313900AF7F0E4D0
:102AFA00900AF4F0900AEEE0FF900AF4E0FEC39F19
:102B0A004003022C011232DEA804A905AA06AB076B
:102B1A00900AECE0FEA3E0FFE4FCFD120ECBE47B9E
:102B2A000AFAF9F8120ECB900AF5EBF0A3E07065F9
:102B3A00900AEEE014FF900AF4E0FEC39F5056A3F9
:102B4A00E0704C900AF7E0FFEE8FF0A4FF900AE9DC
:102B5A00E02FFF900AE8E035F0FE900AEAE0FCA3D5
:102B6A00E0FD900AEFE0FBA3E090091ECBF0A3EB97
:102B7A00F0900AF1E0FBA3E0900920CBF0A3EBF080
:102B8A00900AF3E0900922F0E4A3F07B20805C90A5
:102B9A000AF67401F0900AF7E0FF900AF4E08FF069
:102BAA00A4FF900AE9E02FFF900AE8E035F0FEC0A2
:102BBA0007900AEAE0FCA3E0FD900AF5E02430FB66
:102BCA00900AEFE0FFA3E090091ECFF0A3EFF09088
:102BDA000AF1E0FFA3E0900920CFF0A3EFF0900AFA
:102BEA00F3E0900922F0E4A3F0D007121F65900ADF
:072BFA00F4E004F0022AFEE2
:012C010022B0
:0E284500900AB2EEF0A3EFF0A3ECF0A3EDF0DA
:10285300900ABFE0C313900AC2F0E4FFFE7DC87C78
:1028630042900AB6E0F8A3E0F9A3E0FAA3E0FB1272
:1028730008D91209DF900AC3EEF0A3EFF0E4900A3F
:10288300C0F0900ABAE0FF900AC0E0FEC39F400385
:1028930002298E1232DEA804A905AA06AB07900A04
:1028A300C3E0FEA3E0FFE4FCFD120ECBE47B0AFAD7
:1028B300F9F8120ECB900AC1EBF0900ABAE0FF24AC
:1028C300FEFE900AC0E06E7060EF24FEFFE434FF6A
:1028D300FE900AC2E0FD7C00120E02900AB3E02FC4
:1028E300FF900AB2E03EFE900AB4E0FCA3E0FD9044
:1028F3000ABBE0FBA3E090091ECBF0A3EBF0900A28
:10290300BDE0FBA3E0900920CBF0A3EBF0900ABF5E
:10291300E0900922F0E4A3F07B2E121F65900AC019
:10292300E004F0900ABAE004F0900AC2E0FF900AD3
:10293300C0E08FF0A4FF900AB3E02FFF900AB2E04B
:1029430035F0FEC007900AB4E0FCA3E0FD900AC195
:10295300E02430FB900ABBE0FFA3E090091ECFF018
:10296300A3EFF0900ABDE0FFA3E0900920CFF0A30E
:10297300EFF0900ABFE0900922F0E4A3F0D0071231
:0B2983001F65900AC0E004F0022885E8
:01298E002226
:1026F700900AC5EEF0A3EFF0A3ECF0A3EDF0A3EA88
:04270700F0A3EBF060
:10270B00900AD4120F7700000000900AC7E0FCA3D8
:10271B00E0FDA3E0FEA3E0FF900AC5E0FAA3E02FE3
:10272B00FFEA3ECF24FFFBEF34FFFA900ACBE0FE2B
:10273B00A3E0FF900AC7E0F8A3E02FFFE83ECF2409
:10274B00FFCF34FF900A90F0A3EFF0900AC5E0FEA4
:10275B00A3E0FF1233BBE4900AD0F0A3F0900AC9B8
:10276B00E0FEA3E0FFC3900AD1E09F900AD0E09E69
:10277B004003022844E4900AD2F0A3F0900ACBE085
:10278B00FEA3E0FFC3900AD3E09F900AD2E09E40E5
:10279B0003022830E47F02FEFDFC900AD4E0F8A38C
:1027AB00E0F9A3E0FAA3E0FB120E40900ACDE0FBA8
:1027BB00A3E0FAA3E0F98F828E83120DC3FF1234CC
:1027CB00D8E47F02FEFDFC900AD4E0F8A3E0F9A365
:1027DB00E0FAA3E0FB120E40EF2401FFE43EFE9073
:1027EB000ACDE0FBA3E0FAA3E0F98F828E83120DF2
:1027FB00C3FF1234D8900AD4E0FCA3E0FDA3E0FEA3
:10280B00A3E02401FFE43EFEE43DFDE43CFC900A22
:10281B00D4120F6B900AD3E004F07006900AD2E04A
:10282B0004F0022787900AD1E004F06003022768C6
:09283B00900AD0E004F0022768C5
:012844002271
:102C02009008FEEEF0A3EFF0A3ECF0A3EDF0A3EB3F
:072C1200F0A3EAF0A3E9F0D2
:102C1900E490090BF0900902E0FBA3E0FAA3E0F9C4
:102C290090090BE0F582758300120DC37003022D24
:102C390013C39480900900E0FCA3E0FD505C900967
:102C49000BE0FF7E00E92FF9EE3AFA900905E0FF63
:102C5900A3E0900913CFF0A3EFF0900907E0FFA3D9
:102C6900E0900915CFF0A3EFF0900909E09009175A
:102C7900F090090AE0900918F09008FEE0FEA3E040
:102C8900FF12307C900909E0C313FF9008FFE02F81
:102C9900F09008FEE03400F08067A3E0FBA3E0FABF
:102CA900A3E0F990090BE0FF7E00E92FF9EE3AFA6B
:102CB900900905E0FFA3E0900913CFF0A3EFF0908E
:102CC9000907E0FFA3E0900915CFF0A3EFF0900901
:102CD90009E0900917F090090AE0900918F09008A6
:102CE900FEE0FEA3E0FF12256C900909E0FF9008C1
:102CF900FFE02FF09008FEE03400F090090BE004AB
:0A2D0900F090090BE004F0022C1E0C
:012D1300229D
:102F56009008A8EEF0A3EFF0A3ECF0A3EDF0A3EA3F
:042F6600F0A3EBF0F9
:102F6A009008FB7401F0A37408F0A374B5F09008FC
:102F7A00B2E0F9A3E0FAA3E09008FEC9F0A3EAF0F0
:102F8A00A3E9F09008FBE0F9A3E0FAA3E0900901B5
:102F9A00C9F0A3EAF0A3E9F07B017A0879DD1233DC
:102FAA002E9008AAE0FCA3E0FD7B017A0879DDA354
:102FBA00E0FFA3E0900905CFF0A3EFF09008AEE0A0
:102FCA00FFA3E0900907CFF0A3EFF09008B0E090DC
:102FDA000909F09008B1E090090AF09008A8E0FE0B
:062FEA00A3E0FF022C022F
:043475007F647E00F2
:10347900EF1F70011E144E601100000075080B75D6
:0A34890009BED509FDD508FA80E65A
:013493002216
:08000300C2C71234AFD2C722BC
:0A34D800D2CBC2C71234AFD2C72214
:05342600E0FEA3E0FF41
:04342B00AD07AC0637
:10342F00EC900A92F0A3EFF0D2CBC2C7900A92E0D1
:0E343F00FF1234AF900A93E0FF1234AFD2C7F1
:01344D00225C
:0834E200C2CB120003D2CB2281
:1033BB00900A8AEEF0A3EFF0A3ECF0A3EDF0A3EAF2
:1033CB00F0A3EBF07F2A1234E2900A8A1234269093
:1033DB000A8E1234267F2B1234E2900A8C1234267A
:0C33EB00900A901234267F2C1234E2224B
:10298F00C2C0123475D2C0123475D2C81234757FDA
:10299F00111234E27F787E001234797F361234E2DE
:1029AF00E4FF1234D87F3A1234E27F051234D87F15
:1029BF00B21234E27F0C1234D87F0C1234D8E4FFF9
:1029CF001234D87F331234D87F331234D87FB712F2
:1029DF0034E27F351234D87FBB1234E27F191234C0
:1029EF00D87FC01234E27F2C1234D87FC21234E267
:1029FF007F011234D87FC31234E27F121234D87F92
:102A0F00C41234E27F201234D87FC61234E27F0F13
:102A1F001234D87FD01234E27FA41234D87FA1129F
:102A2F0034D87FE01234E27FD01234D87F041234CE
:102A3F00D87F0D1234D87F111234D87F131234D8A7
:102A4F007F2B1234D87F3F1234D87F541234D87F63
:102A5F004C1234D87F181234D87F0D1234D87F0B14
:102A6F001234D87F1F1234D87F231234D87FE1124B
:102A7F0034E27FD01234D87F041234D87F0C123452
:102A8F00D87F111234D87F131234D87F2C1234D838
:102A9F007F3F1234D87F441234D87F511234D87FFD
:102AAF002F1234D87F1F1234D87F1F1234D87F20B3
:102ABF001234D87F231234D87F211234E27F1112BF
:072ACF0034E27F290234E22A
:0734EA00D292D2CDD2C7221D
:1034AF00E4FEEF3392CDEF25E0FFC292D2920EEE03
:0534BF00B408EFD2CDBE
:0134C40022E5
:10337800900A8AEBF0A3EAF0A3E9F0A3ECF0A3ED3E
:01338800F054
:10338900C2C7E4FDFCD3900A8EE09D900A8DE09CB3
:10339900401D900A8AE0FBA3E0FAA3E0F98D828C34
:1033A90083120DC3FF1234AF0DBD00010C80D6D2BC
:0133B900C74C
:0133BA0022F0
:1008D900EC4D6011E8497017ED33EC3304600DE419
:1008E900FCFFFEFD22E933E8330470F8020A4B12DB
:1008F9000A1658046009E4CC2481500628500902DC
:100909000A55284003020A52C0E0EB4A7044B980F4
:1009190006D0E0FB020A41EF4E701CBD8008EBFFD8
:10092900EAFEE9FD80EBE98DF0A4FEE5F00209C2DB
:10093900E9CDF9EAFEEBFFEF89F0A4FCE5F0CE89F9
:10094900F0A42EFFE435F0CD89F0A42DFEE435F0B6
:100959008067EF4E7005BD80D780C3EF8BF0A4ACE4
:10096900F0EE8BF0A42CFCE435F0F8EF8AF0A42C1F
:10097900E5F038FCE433CB8DF0A42CFCE5F03BF832
:10098900EE8AF0A42CFCE5F038F8E433CF89F0A422
:100999002CFCE5F038CF3400CE89F0A42FFFE5F028
:1009A9003EFEE433C98DF0A42EFEE5F039CD8AF080
:1009B900A42FFFE5F03EFEE43DFD33D0E0FB5007F8
:1009C9000BBB000F020A55EC2CFCEF33FFEE33FE94
:0609D900ED33FD020A2DC2
:1009DF00EDD2E7CD33EC3392D524814006E4FFFE10
:1009EF00FDFC22FCE4CFCECDCC24E0501174FF806F
:1009FF00EDC3CC13CCCD13CDCE13CECF13CF04700C
:070A0F00F030D5DE020F5D9F
:100FFA00E5082407F582E43409F583E00508229020
:10100A000904300703900907E475F001120FB402CE
:10101A000DAA2000E97F2ED2008018EF540F2490E9
:10102A00D43440D4FF30040BEF24BFB41A00500369
:10103A002461FFE50960021509050CE50C7002053B
:10104A000B30070E900904E475F001120FB4EF0299
:10105A000DF002344E7403D2078003E4C207F50888
:10106A00900904120FCBE4F509F50BF50CE50960BC
:10107A00077F2012103D80F5750AFFC201C200C227
:10108A0002C203C205C206C208121009FF700D305F
:10109A0007057F0012104EAF0CAE0B22B4255FC2BB
:1010AA00D5C204121009FF24D0B40A00501A75F0F0
:1010BA000A780930D50508B6FF0106C6A426F62027
:1010CA00D5047002D20380D924CFB41A00EF500499
:1010DA00C2E5D204021340D20180C6D20080C0D237
:1010EA000280BCD2D580BAD20580B47F2012103DCE
:1010FA002002077401B5090040F1120FFAFF12101D
:10110A003D021077D208D2068095120FFAFB120F11
:10111A00FAFA120FFAF94A4B7006793E7A147BFFF3
:10112A0020022EE509602A7E008E82758300120D48
:10113A00C360060EEE650A70F0C2D5EBC0E0EAC0E5
:10114A00E0E9C0E0EE1213A1D0E0F9D0E0FAD0E075
:10115A00FB120DAAFF60AAEBC0E0EAC0E0E9C0E01A
:10116A0012103DD0E02401F9D0E03400FAD0E0FBBF
:10117A00E50A0460DCD50AD98087D20280A212135C
:10118A008360F7E50A700104120A60A90A600DE596
:10119A000A600914F50A12142BEF60F3EA30E70229
:1011AA00F404C3995079EAF4250A0430E701E40407
:1011BA00F50A800D12138360C1EA050A250A120A8C
:1011CA0060EA900933F030E701E4250A04D50A04FD
:1011DA00200501141213A1E4C0E012142B90093364
:1011EA00E0601320E70714F0121025802204F0D0E3
:1011FA00E014C0E07F00121025E50A600712101CF7
:10120A00150A800B30050312101CD0E0021077D0AB
:10121A00E00480C4121383609EE50A04120A6090F7
:10122A000933EAF0E50A20050260010424041213D6
:01123A00A112
:10123B0074FF04C0E012142B121025E50A200502DE
:10124B00600312101CD0E0B50AE87F4512102F90F6
:10125B000933E07F2B30E7047F2DF404C0E012103C
:10126B003DD0E075F00A84C0F0121026D0E01210C9
:10127B0026021077791080027908C206C20880080E
:10128B00D2D5790A8004790AC2D5E50A047002F531
:10129B000AE4FAFDFEFF120FFAFC7B082001131281
:1012AB000FFAFD7B1030000A120FFAFE120FFAFF35
:1012BB007B20EC3382D592D55013C3E43000069FCC
:1012CB00FFE49EFEE42001039DFDE49CFCE4CBF8CF
:1012DB00C201EC700CCFCECDCCE824F8F870F380C3
:1012EB0017C3EF33FFEE33FEED33FDEC33FCEB3383
:1012FB00FB994002FB0FD8E9EB300105F8D0E0C4B5
:10130B0048B201C0E00AEC4D4E4F78207B0070C212
:10131B00EAB50A0040BCC0E01213A3D0F0D0E02025
:10132B000104C4C0E0C4B201C0F0121026D0F0D545
:10133B00F0EB021077120FD4111453127F5810E5F3
:10134B004C10E14212834F128B44128B4910FA431B
:10135B0012915511BE46121E45118847145E50104E
:10136B00E92D10ED2E11102B10F123110E20144727
:10137B002A10A94800001108E50AB4FF03750A06F4
:10138B00120FFAFC120FFAFD120FFAFE120FFAFFF0
:10139B0090092C020A9D790AA2D520031430050965
:1013AB00B910020404B9080104A2D52006025001A9
:1013BB00042002689202B509005034C0E07F20304F
:1013CB0003197F30A20272067205500F1213FAC274
:1013DB0002C206C205C2087F30800F300503E9C088
:1013EB00E012103D300503D0E0F9D0E0B509CC3068
:1013FB0005177F30B9100C12103D7F583004077F52
:10140B00788003B9080312103D3002057F2D0210BE
:10141B003D7F202008F87F2B2006F322920280CFFD
:10142B007F00B40700500B242CF582E43409F583BC
:10143B00E0FF22286E756C6C2900D201120FFA3076
:10144B0001F8C201780930D50108F60210A92D5018
:10145B00434958120FFA2403B405004001E49014D9
:10146B00599312102E743A12102ED20375090402DE
:02147B00127FDE
:10332E009008FEE0FFA3E0FEA3E0CF900907F0A314
:10333E00EEF0A3EFF0900901E0CBF0A3E0CAF0A30A
:10334E00E0C9F07F2290090AAD82AC83120DAA8DDE
:10335E00828C83F0A309E970010ADFEC900901E089
:0A336E00FBA3E0FAA3E0F902105FF0
:100A1600E9D2E7C933E833F892D5EDD2E7CD33EC26
:070A260033FC5002B2D5229F
:100A2D00EC30E7100FBF000C0EBE00080DBD00042A
:100A3D000BEB6014A2D5EB13FCED92E7FD2274FFD6
:100A4D00FCFDFEFF22E480F8A2D574FF13FC7D802F
:030A5D00E480EF43
:100A6000F920E73624F950037907E4F42402FBE582
:100A700082158270021583DBF6E024FB501BE960CF
:100A800014E4F0E582158270021583E004F0B40AE4
:0D0A900008E4F0D9EE7401F00A22C2D5226C
:100A9D00ED33EC3392D5FA602AB4FF33EDC2E77B28
:100AAD00FF60067A0A79C2E4227A0A79CB20D5044E
:100ABD007A0A79C6224E614E002B494E46002D49C9
:100ACD004E4600E47A08F0A3DAFC7B00740722C0DE
:100ADD0083C082ECC0E0EDC0E0EEC0E0EFC0E0EA24
:100AED0075F010A4CAABF075F04DA42BFBE435F0F6
:100AFD00FCEA2410FAEB34C5FBEC34D9FCEDC2E76B
:100B0D00FF75F056A4F42411C5F0F434C58FF0A48C
:100B1D002AE5F03BE43CF020E714120D6AD0E0FF2B
:100B2D00D0E0FED0E0FDD0E0FC120C9D8014F4046A
:100B3D00120D6AD0E0FFD0E0FED0E0FDD0E0FC1257
:100B4D0008D9D082D083E0FAEDD2E7CD33EC33244F
:100B5D0082FBE4C3CF33CFCE33CECD33CD33DBF3F6
:100B6D007B0775F00A846004F0A31B0AE5F0F0A37F
:100B7D008FF0740AA4FFACF08EF0740AA42CFEACB6
:100B8D00F050010C8DF0740AA42CFDE435F0F0A3A7
:050B9D00DBDE740722FD
:100BA200020A4BE86480F8E933E83360110460F02C
:100BB200ED33EC337009E8FCE9FDEAFEEBFF2204B9
:100BC20060DED3EB9FEA9EE99DE8C2E78CF0C2F7B4
:100BD20095F0400CE8CCF8E9CDF9EACEFAEBCFFB80
:100BE200120A1685D0F05804700320D5B3E80470B9
:100BF200075002B2D5020A5592D5EC0460F7E4CC54
:100C0200C0E0C398F8603B94186008400DD0E0FB48
:100C1200020A2DE4FBFAC9FC8028E830E406E4C9A4
:100C2200FBE4CAFCE830E305E4C9CACBFCE854079C
:100C32006010F8C3E913F9EA13FAEB13FBEC13FCA7
:100C4200D8F130F52FC3E49CFCEF9BFFEE9AFEED4A
:100C520099FDD0E0FBEF4E4D4C701222DB03020AED
:100C620052EC2CFCEF33FFEE33FEED33FDED30E7BB
:100C7200EB020A2DEF2BFFEE3AFEED39FDD0E0FB41
:100C820050130BBB0003020A55ED13FDEE13FEEFEA
:080C920013FFEC13FC020A2D14
:100C9A00020A55EC5D046005E859047003020A4B28
:100CAA00120A16580460F6EC4860F2EC7004FDFE75
:100CBA00FF22C860DB2481C85009C398600250062D
:100CCA00020A529850CAF582E9294B4A7005AB824A
:100CDA00020A4175F0007C1A7880C3EF9BEE9AED08
:100CEA0099400DC3EF9BFFEE9AFEED99FDE842F0A5
:100CFA00DC23ACF0D0E0FFD0E0FED0E0FDAB8220F8
:100D0A00E7101BEB60BAEC2CFCEF33FFEE33FEED81
:100D1A0033FD020A2DE803F830E705C0F075F0004C
:100D2A00EF2FFFEE33FEED33FD40B830E7C280AA65
:100D3A003F8000004120000042C80000447A0000C1
:100D4A00461C400047C35000497424004B18968043
:100D5A004CBEBC205A0E1BCA6753C21C749DC5AE3A
:100D6A00FB60065407601C2323120D98EB5438606D
:100D7A0009120D84120D931208D9ECF8EDF9EEFA66
:100D8A00EFCB22EB120D9380F1543803241C900D03
:100D9A003AFE93FC0EEE93FD0EEE930ECE93FF22D7
:03000000022FF0DC
:0C2FF000787FE4F6D8FD758121023037AF
:100DAA00BB010689828A83E0225002E722BBFE0247
:090DBA00E32289828A83E493227A
:100DC300BB010CE58229F582E5833AF583E02250E5
:100DD30006E92582F8E622BBFE06E92582F8E2222F
:0D0DE300E58229F582E5833AF583E4932249
:100DF000BB010689828A83F0225002F722BBFE01E2
:020E0000F322DB
:100E0200EF8DF0A4A8F0CF8CF0A428CE8DF0A42E04
:020E1200FE22BE
:100E1400C5F0F8A3E028F0C5F0F8E5821582700269
:060E24001583E038F02206
:100E2A00A3F8E0C5F025F0F0E5821582700215837B
:060E3A00E0C838F0E822D8
:100E4000E88FF0A4CC8BF0A42CFCE98EF0A42CFC51
:100E50008AF0EDA42CFCEA8EF0A4CDA8F08BF0A4CF
:100E60002DCC3825F0FDE98FF0A42CCD35F0FCEB2E
:100E70008EF0A4FEA9F0EB8FF0A4CFC5F02ECD39F3
:0F0E8000FEE43CFCEAA42DCE35F0FDE43CFC2260
:100E8F0075F008758200EF2FFFEE33FECD33CDCC1A
:100E9F0033CCC58233C5829BED9AEC99E58298409D
:100EAF000CF582EE9BFEED9AFDEC99FC0FD5F0D67A
:100EBF00E4CEFBE4CDFAE4CCF9A88222B800C1B9A4
:100ECF000059BA002DEC8BF084CFCECDFCE5F0CBE2
:100EDF00F97818EF2FFFEE33FEED33FDEC33FCEB1B
:100EEF0033FB10D703994004EB99FB0FD8E5E4F9D6
:100EFF00FA227818EF2FFFEE33FEED33FDEC33FCC3
:100F0F00C933C910D7059BE99A4007EC9BFCE99AB6
:100F1F00F90FD8E0E4C9FAE4CCFB2275F010EF2FFB
:100F2F00FFEE33FEED33FDCC33CCC833C810D707FB
:100F3F009BEC9AE899400AED9BFDEC9AFCE899F836
:0E0F4F000FD5F0DAE4CDFBE4CCFAE4C8F922C9
:0E0F5D00C3E49FFFE49EFEE49DFDE49CFC22A5
:0C0F6B00ECF0A3EDF0A3EEF0A3EFF022F9
:100F7700A8828583F0D083D082120F8E120F8E1233
:100F87000F8E120F8EE473E493A3C583C5F0C58358
:100F9700C8C582C8F0A3C583C5F0C583C8C582C8C4
:010FA7002227
:0C0FA800A42582F582E5F03583F5832254
:100FB400F8E0FBA3A3E0F925F0F0E58215827002C6
:070FC4001583E0FA38F0226A
:090FCB00EBF0A3EAF0A3E9F02227
:100FD400D083D082F8E4937012740193700DA3A3AC
:100FE40093F8740193F5828883E4737402936860C0
:060FF400EFA3A3A380DFC0
:10344E00EFB40A07740D123459740A309811A89902
:10345E00B8130CC2983098FDA899C298B811F630DE
:07346E0099FDC299F59922B6
:102FFC00022DFAE493A3F8E493A34003F68001F2C4
:10300C0008DFF48029E493A3F85407240CC8C333D5
:10301C00C4540F4420C8834004F456800146F6DFA4
:10302C00E4800B010204081020408090000EE47E26
:10303C00019360BCA3FF543F30E509541FFEE49399
:10304C00A360010ECF54C025E060A840B8E493A360
:10305C00FAE493A3F8E493A3C8C582C8CAC583CA8B
:10306C00F0A3C8C582C8CAC583CADFE9DEE780BE43
:0108D800001F
:00000001FF
