:05373E002025356400A8
:10004600490B8FFF0186000000000079420B8D00EE
:0900560000410B8B00410B8C01F1
:1036CA00900B1CE0B4010FE4F0B2807B017A0B7915
:0736DA008F7D0912362F223B
:102D2B00900B54E064016003022E49F0900B21E0FC
:102D3B00FEA3E07C002400FFEC3E900B8DF0A3EF94
:102D4B00F0E4900936F0A3F0A37410F0E4A3F0A321
:102D5B0074FFF0A37437F0A3743EF0900B8DE0FF7B
:102D6B00A3E090093DCFF0A3EFF07BE07A077D91D4
:102D7B007F507E001230EE900B8DE0FEA3E0FF7CC7
:102D8B00007D32120EE7C3748C9F900937F0E49EDE
:102D9B00900936F0900B8CE0FB7A002413FFEA339A
:102DAB00FE900B8BE0FDC3748C9DFDE49400FCEB5B
:102DBB002414FBEA33FA9009387407F0A374E0F09B
:102DCB00122307900B8DE0FEA3E0FF7C007D3212F7
:102DDB000EE7900B8BEFF0A3E004F0E0C394B4404C
:102DEB005D7401F0900936E4F0A3748CF0E4A3F069
:102DFB00A3F07BC8FA7D28FC7F14FE1230429009A9
:102E0B0036E4F0A3748CF0A374BCF0A37440F07B95
:102E1B00147A007D287C007F147E00122307900912
:102E2B0036E4F0A3748CF0A374BCF0A37440F07B75
:0E2E3B00C87A007D8C7C007F147E0012230775
:012E49002266
:10332600E4F594F593F592F591F596F595F5B2F5E4
:10333600B1F5B4F5B3F5CAF5C9F5CCF5CBF5E2F5BB
:10334600E11236F712370C123737122AB8E4FFFEAD
:103356001232A7900936E4F0A3748CF0A374BCF083
:10336600A37440F07B147A007D287C007F147E00D5
:10337600122307900936E4F0A3748CF0A374BCF012
:10338600A37440F07BC87A007D8C7C007F147E009D
:0B3396001223071236CA122D2B80F8FC
:07373700D292D2CDD2C722CD
:1036E100E4FEEF3392CDEF25E0FFC292D2920EEECF
:0536F100B408EFD2CD8A
:0136F60022B1
:1035B000900B12EBF0A3EAF0A3E9F0A3ECF0A3ED7B
:0135C000F01A
:1035C100C2C7E4FDFCD3900B16E09D900B15E09C67
:1035D100401D900B12E0FBA3E0FAA3E0F98D828C71
:1035E10083120E96FF1236E10DBD00010C80D6D27A
:0135F100C712
:0135F20022B6
:10005F0065F00340000000000000000000000000F9
:10006F000000000000000008080808080808000049
:10007F001818000000486C24120000000000000057
:10008F00000000000000002424247F1212127F12AF
:10009F00121200000000081C2A2A0A0C1828282A0D
:1000AF002A1C080800000022251515152A5854543B
:1000BF00542200000000000C1212120A762529119A
:1000CF00916E00000006060403000000000000000F
:1000DF000000000000402010100808080808081051
:1000EF001020400000020408081010101010100813
:1000FF00080402000000000008086B1C1C6B0808B5
:10010F000000000000000000080808087F08080829
:10011F0008000000000000000000000000000000C8
:10012F00060604030000000000000000FE000000AF
:10013F0000000000000000000000000000000000B0
:10014F000606000000008040402020101008080420
:10015F00040202000000001824424242424242427E
:10016F0024180000000000080E08080808080808F6
:10017F00083E00000000003C4242422020100804CC
:10018F00427E00000000003C4242201820404042C6
:10019F00221C0000000000203028242422227E2070
:1001AF00207800000000007E0202021A2640404222
:1001BF00221C0000000000382402021A264242428C
:1001CF00241800000000007E2222101008080808E2
:1001DF00080800000000003C42424224182442421A
:1001EF00423C000000000018244242426458404044
:1001FF00241C000000000000000018180000000080
:10020F0018180000000000000000000800000000A7
:10021F000008080400000040201008040204081021
:10022F00204000000000000000007F0000007F0061
:10023F0000000000000000020408102040201008F9
:10024F00040200000000003C424246402010100013
:10025F00181800000000001C225A555555552D4204
:10026F00221C00000000000808181414243C22422D
:10027F0042E700000000001F2222221E22424242BB
:10028F00221F00000000007C4242010101010142D7
:10029F00221C00000000001F224242424242424202
:1002AF00221F00000000003F4212121E12120242D3
:1002BF00423F00000000003F4212121E12120202C3
:1002CF00020700000000003C2222010101712122DF
:1002DF00221C0000000000E7424242427E4242429E
:1002EF0042E700000000003E080808080808080858
:1002FF00083E00000000007C1010101010101010AD
:10030F001010110F0000007722120A0E0A1212228B
:10031F00227700000000000702020202020202021E
:10032F00427F000000000077363636362A2A2A2A06
:10033F002A6B0000000000E346464A4A52525262BE
:10034F00624700000000001C2241414141414141F0
:10035F00221C00000000003F424242423E020202C5
:10036F00020700000000001C2241414141414D5352
:10037F00321C60000000003F4242423E1212222215
:10038F0042C700000000007C424202041820404295
:10039F00423E00000000007F4908080808080808CE
:1003AF00081C0000000000E7424242424242424223
:1003BF00423C0000000000E742422224241414189B
:1003CF00080800000000006B49494949555536227D
:1003DF0022220000000000E74224241818182424C9
:1003EF0042E70000000000772222141408080808D2
:1003FF00081C00000000007E212010100804044299
:10040F00423F000000780808080808080808080894
:10041F0008087800000002020404080808101020E1
:10042F0020204040001E101010101010101010103F
:10043F0010101E00003844000000000000000000F3
:10044F00000000000000000000000000000000009D
:10045F00000000FF00060800000000000000000080
:10046F0000000000000000000000003C4278444201
:10047F0042FC0000000000030202021A2642424220
:10048F00261A00000000000000000038440202029B
:10049F00443800000000006040404078444242422F
:1004AF0064D80000000000000000003C427E020201
:1004BF00423C0000000000F08808087E0808080889
:1004CF00083E0000000000000000007C22221C02F9
:1004DF003C42423C000000030202023A46424242C2
:1004EF0042E700000000000C0C00000E080808088E
:1004FF00083E00000000003030000038202020208F
:10050F002020221E0000000302020272120A16129D
:10051F00227700000000000E0808080808080808E5
:10052F00083E0000000000000000007F92929292AF
:10053F0092B70000000000000000003B464242421C
:10054F0042E70000000000000000003C424242422F
:10055F00423C0000000000000000001B2642424207
:10056F00221E0207000000000000007844424242B1
:10057F00447840E000000000000000774C040404C1
:10058F00041F0000000000000000007C42023C40FD
:10059F00423E0000000000000008083E080808085E
:1005AF000830000000000000000000634242424299
:1005BF0062DC000000000000000000E74224241469
:1005CF000808000000000000000000EB49495555E5
:1005DF0022220000000000000000007624181818E6
:1005EF00246E000000000000000000E742242414E5
:1005FF0018080807000000000000007E22100808FD
:10060F00447E000000C02020202020102020202029
:10061F002020C0001010101010101010101010100B
:10062F00101010100006080808080810080808081D
:10063F00080806000C32C200000000000000000095
:10064F00000000005A0000D6D0200020002000FE3D
:10065F0003220222022202FE032202200020002097
:10066F00006132020ECFB5001CFE032000200810DF
:10067F0004FC03800040042008FC1F8010900490AD
:10068F00088810A4104000CDB3080108020412E43A
:10069F003F12019F084810E43F82249F0482048088
:1006AF00045844474422781000C6F480000021F813
:1006BF007F082008200820F83F08000820F87F183E
:1006CF0020142014201220F13F1020B6AF0002108A
:1006DF00023E020022A07F7F220822082204222449
:1006EF002242217F218220802040142008D6D080F2
:1006FF000080008020FE7F8220822082208220FEC8
:10070F003F8220800080008000800080008000CE2B
:10071F00C20000C41F48104810C11F42104210C829
:10072F001F0800E43F2725242524252425F47F00D6
:10073F0000B6C880000001FC7F44044404FC3F4421
:10074F00044404C4070400F40F2408420482036124
:10075F000C1C70CAAA0000E41F28102810E11F22E9
:10076F00102210E81F880484049724A414C40C8456
:10077F0004F47F0000A3BA00000000000000000096
:10078F000000000000000000000C000C0000000C36
:10079F00000C00000000006172009CCFB50000004B
:1007AF0000800FFCFF1FFCFF1FF81E00000F0380CF
:1007BF008307C0C103F0FF01F07F00201C03008FEF
:1007CF0007C0030EF8FF1FF8FF3F10381040380125
:1007DF00C0B907E0380F70381E3C383C1C3E18007B
:1007EF001E00000000CDB300800030C001708001FA
:1007FF0030800338000318FE7F0CFE7F8CE100C6AB
:10080F00E100FE710EFE380C601C1C70FE3F38FCC0
:10081F007F186033FE6103FE61033E6003006003D7
:10082F00803303FC3B23FE19631E1E7F000F7EC621
:10083F00F4003800003800F0FF3FF0FF3FF0FF3FBB
:10084F00700038700038700038F0FF3FF0FF3FF055
:10085F00FF3F700000700000F0FF3FF0FF3FB8FF58
:10086F003FB803389803389C03388CFF3F8EFF3F07
:10087F0086FF3F840338000000B6AF00800300807E
:10088F0003FC8701FC8701FC870100800100F87FD2
:10089F0000F87FFECF31FECF31E0C03160C0317044
:1008AF00C03170C33030C73038E63818E738FC6FC6
:1008BF0038FE7F383E3C38043C3F001F1F000F0EB0
:1008CF00000600D6D000380000380000380000388D
:1008DF0000003800F8FF3FF8FF3FF8FF3F38383887
:1008EF00383838383838383838383838383838F8B9
:1008FF00FF3FF8FF3FF8FF3F383838003800003827
:10090F000000380000380000380000380060820016
:10091F001AB5E7000000000000000000E000000032
:10092F00E0000000E0000000E0000000E00000F840
:10093F00FFFF03F8FFFF0338E0800338E080033840
:10094F00E0800338E0800338E08003F8FFFF03F80E
:10095F00FFFF0338E0800338E0800338E08003387E
:10096F00E0800338E08003F8FFFF03F8FFFF033850
:10097F00E0000038E0000038E0000000E000700008
:10098F00E0003800E0013800C0FF3F0080FF1F008B
:03099F0000000055
:0833A100900BADEEF0A3EFF07C
:1033A900900B18E4F0A374EFF0FB7A00E4FDFCFF46
:1033B900FE1235F3E4900BAFF0A3F0E4900BB1F0FB
:1033C900A3F0900BADE0FEA3E0FF123661900BB2C3
:1033D900E004F07006900BB1E004F0C3900BB2E08A
:1033E90094F0900BB1E0940040D8900BB0E004F059
:1033F9007006900BAFE004F0C3900BB0E094F0902E
:073409000BAFE0940040B49A
:013410002299
:0432A700AD07AC06BD
:1032AB00E4FBFAC3EB94E0EA9401502374332BF55F
:1032BB008274093AF583EDF0ECFF74322BF58274CE
:1032CB00093AF583EFF074022BFBE43AFA80D490C1
:1032DB000B18E4F0A374EFF0FB7A00E4FDFCFFFEA7
:1032EB001235F3E4900930F0A3F0D2CBC2C77B01C7
:1032FB007A0979327DE07C011235B0D2C790093161
:10330B00E004F07006900930E004F0C3900931E05E
:0A331B0094F0900930E0940040D0D7
:013325002285
:10304200900930EEF0A3EFF0A3ECF0A3EDF0A3EAC9
:04305200F0A3EBF00C
:10305600C006C00724FFFBEA34FFFAA3E0FEA3E0A4
:1030660024FFFFEE34FF900B18F0A3EFF0D007D04B
:10307600061235F3900932E0FFA3E090093ACFF04B
:10308600A3EFF0900936E0FEA3E0FFC390093BE012
:103096009F90093AE09E504F900930E0FFA3E090E0
:1030A600093CCFF0A3EFF0900934E0FEA3E0FFC3A4
:1030B60090093DE09F90093CE09E501B900938E046
:1030C600FEA3E0FF12366190093DE004F070D8904F
:1030D600093CE004F080D090093BE004F070A49035
:0730E600093AE004F0809CB0
:0130ED0022C0
:10341100900B9FFEE0FCA3E0FDC3900B9BE09DFDA4
:0E342100900B9AE09CFC900B9DE0FAA3E0FB60
:10342F009009C9EEF0A3EFF09009CDEAF0A3EBF00D
:10343F009009CBECF0A3EDF09009C9E0FAA3E0FB03
:10344F00FFAE02C007A3E0FFA3E0900B18CFF0A3DD
:10345F00EFF0D0071235F39009CDE0FEA3E0FF02A5
:02346F003661C4
:0E230700900930EEF0A3EFF0A3ECF0A3EDF0A0
:10231500E490093CF0A3F0A3F0A3F0900930E0FEAF
:10232500A3E0FFC3EB9FFFEA9E900940F0A3EFF007
:10233500900932E0FAA3E0FBC3900937E09BFE90D9
:102345000936E09A900942F0A3CEF0900930E0FFFB
:10235500A3E090094ACFF0A3EFF0A3EAF0A3EBF0D6
:10236500900940E0FEA3E0FFD39400EE64809480E2
:10237500400A900946E4F0A304F08021EF4E70086E
:10238500900946F0A3F0801574FF900946F0A3F07C
:10239500C3E49FFFE49E900940F0A3EFF09009424B
:1023A500E0FEA3E0FFD39400EE64809480400A90A1
:1023B5000948E4F0A304F08021EF4E700890094825
:1023C500F0A3F0801574FF900948F0A3F0C3E49FD3
:1023D500FFE49E900942F0A3EFF0900942E0FEA3CE
:1023E500E0FF900940E0FCA3E0FDD39FEE6480F898
:1023F500EC6480989009444007ECF0A3EDF080056B
:10240500EEF0A3EFF0E490093AF0A3F0900945E06F
:102415002401FF900944E03400FEC390093BE09F8E
:1024250090093AE09E40030224F490094AE0FEA395
:10243500E0FFA3E0FCA3E0FD90093812342A9009DF
:1024450040E0FEA3E0FF90093DE02FF090093CE05D
:102455003EF0900942E0FEA3E0FF90093FE02FF037
:1024650090093EE03EF0900944E0FEA3E0FF9009AC
:102475003CE0FCA3E0FDD39FEE6480F8EC6480981B
:102485004020ED9FFFEC9E90093CF0A3EFF09009F2
:1024950046E0FEA3E0FF90094BE02FF090094AE0EB
:1024A5003EF0900944E0FEA3E0FF90093EE0FCA366
:1024B500E0FDD39FEE6480F8EC6480984020ED9FAA
:1024C500FFEC9E90093EF0A3EFF0900948E0FEA3D3
:1024D500E0FF90094DE02FF090094CE03EF09009A7
:0F24E5003BE004F0700690093AE004F002241185
:0124F40022C5
:102F5C00900BA7EAF0A3EBF0900BA3EEF0A3EFF02D
:102F6C00A3ECF0A3EDF0C007A3E0FAA3E0FB900BF9
:102F7C00A5E0FFA3E0900936CFF0A3EFF0900BABE8
:102F8C00E0FFA3E0900938CFF0A3EFF0D0071223B5
:102F9C0007900BA3E0FAA3E0FBFFAE02C007A3E08F
:102FAC00FCA3E0FD900BA9E0FFA3E0900936CFF065
:102FBC00A3EFF0900BABE0FFA3E0900938CFF0A3A8
:102FCC00EFF0D007122307900BA9E0FCA3E0FD90D3
:102FDC000BA7E0FAA3E0FBA3E0FFA3E0900936CF38
:102FEC00F0A3EFF0900BABE0FFA3E0900938CFF02B
:102FFC00A3EFF0900BA3E0FEA3E0FF122307900BCE
:10300C00A7E0FAA3E0FBFFAE02C007900BA5E0FC23
:10301C00A3E0FD900BA9E0FFA3E0900936CFF0A34D
:10302C00EFF0900BABE0FFA3E0900938CFF0A3EFEB
:06303C00F0D0070223079B
:1024F500900B98EEF0A3EFF0A3ECF0A3EDF0A3EBB7
:01250500F0E5
:10250600E4900B9FF0A3F0EBFFA3E4F0A3EFF090B1
:102516000BA1E0FEA3E0FFD3900BA0E09FEE64804A
:10252600F8900B9FE06480984003022694C3900BBA
:1025360099E09FFF900B98E09E123411900BA1E05A
:10254600FEA3E0FF900B99E02FFF900B98E03E1260
:102556003411900B9FE0FEA3E0FFC3900B99E09F20
:10256600FF900B98E09EFE900BA1E0FCA3E0FD908F
:102576000B9BE02DFD900B9AE03C123426900B9FAE
:10258600E0FEA3E0FFC3900B99E09FFF900B98E05D
:102596009E900BA1123414900BA1E0FEA3E0FF90D5
:1025A6000B99E02FFF900B98E03EFE900B9FE0FC0E
:1025B600A3E0FD900B9BE02DFD900B9AE03C1234BE
:1025C60026900B9FE0FEA3E0FF900B99E02FFF9073
:1025D6000B98E03EFE900BA1123415900B9FE0FE87
:1025E600A3E0FF900B99E02FFF900B98E03EFE9042
:1025F6000BA1E0FCA3E0FD900B9BE02DFD900B9A58
:10260600E03C123426900BA1E0FEA3E0FFC3900B42
:1026160099E09FFF900B98E09EFE900B9FE0FCA335
:10262600E0FD900B9BE02DFD900B9AE03C123426CA
:10263600900BA0E004F07006900B9FE004F0900B66
:10264600A1E0FCA3E0FDFFAE04120ED5AA06AB077F
:10265600900B9FE0FCA3E0FDFFAE04120ED5EF2B1E
:10266600FDEE3AFC900B9CE0F5F0A4FFD3ED9FE560
:10267600F06480F8EC6480985003022515900BA254
:0E268600E024FFF0900BA1E034FFF0022515D8
:012694002223
:10269500900994EEF0A3EFF0A3ECF0A3EDF0A3EB1B
:1026A500F0A3EAF0A3E9F0900998E0FBA3E0FAA310
:1026B500E0F9120E7D700302281F90099FE0640C5B
:1026C5007044900996E0FCA3E0FD90099BE0FFA310
:1026D500E09009A8CFF0A3EFF090099DE0FFA3E0FB
:1026E5009009AACFF0A3EFF090099FE09009ACF014
:1026F5009009A0E09009ADF0900994E0FEA3E0FFF9
:10270500121B1D02280090099FE06410704B900970
:1027150096E0FCA3E0FDA3E0FBA3E0FAA3E0F9A3A8
:10272500E0FFA3E09009A8CFF0A3EFF090099DE0AA
:10273500FFA3E09009AACFF0A3EFF090099FE090E6
:1027450009ACF09009A0E09009ADF0900994E0FE85
:10275500A3E0FF1215A502280090099FE0641870F8
:102765004A900996E0FCA3E0FDA3E0FBA3E0FAA3F1
:10277500E0F9A3E0FFA3E09009A8CFF0A3EFF09064
:10278500099DE0FFA3E09009AACFF0A3EFF090091F
:102795009FE09009ACF09009A0E09009ADF0900998
:1027A50094E0FEA3E0FF121861805090099FE06459
:1027B500207067900996E0FCA3E0FDA3E0FBA3E091
:1027C500FAA3E0F9A3E0FFA3E09009A8CFF0A3EFF7
:1027D500F090099DE0FFA3E09009AACFF0A3EFF0E8
:1027E50090099FE09009ACF09009A0E09009ADF048
:1027F500900994E0FEA3E0FF121DD6900999E475B7
:10280500F002120F3C90099FE0FF900995E02FF030
:0B281500900994E03400F00226AC2291
:101B1D009009A3ECF0A3EDF0A3EBF0A3EAF0A3E999
:091B2D00F09009A1EEF0A3EFF025
:101B3600E49009B0F09009B7EEF0A3EFF09009AC8D
:101B4600E0FF131313541FFD7C00EF54077E006063
:101B5600047F0180027F00EF2DFFEE3CFE9009AC72
:101B6600E0FD7C00120ED59009B5EEF0A3EFF090E3
:101B760009B3E4F0A304F0E49009B1F0A3F09009EE
:101B8600B3E0FEA3E0FF9009B1E0FCA3E0FDC39F34
:101B9600EC9E4003021DD59009A5E0FBA3E0FAA345
:101BA600E0F9120E7DFF90000075F01AED1210D0CC
:101BB600EC75F01AA42583F583E06F6003021DC45B
:101BC600900001120E96FF9009B1A3E090000175F6
:101BD600F01A1210D0EC75F01AA42583F583E06F85
:101BE6006003021DC49009A3E0FCA3E0FD9009ACCC
:101BF600E0F9FF7E009009A1E0FAA3E02FFFEE3A9C
:101C0600CF24FFFBEF34FFFAE9FFA3E0F8A3E02FB0
:101C1600FFEE38CF24FFCF34FF900B18F0A3EFF080
:101C26009009A1E0FEA3E0FF1235F3E49009AEF0BF
:101C36009009AEE0FFD39009B6E09F9009B5E09415
:101C4600005003021DC4E49009AFF09009ADE060B6
:101C560003021CEF9009B1A3E075F01AA42402F563
:101C660082E43400F583C083C0829009AEE0D0825E
:101C7600D0832582F582E43583F583E0FD7C0090F0
:101C860009AFE0FF7E007401A807088005C333CEC4
:101C960033CED8F9FFEE5CFEEF5D4E60059009A8E5
:101CA60080039009AAE0FCA3E0FDECFF9009AFE0F9
:101CB600FE25E024B9F582E43409F583EFF0EE253C
:101CC600E024BAF582E43409F583EDF09009B0E03A
:101CD60004F09009ACE0FF9009B0E08FF084E5F0E5
:101CE6006003021D94F0021DA39009B1A3E075F0F4
:101CF6001AA42402F582E43400F583C083C08290DE
:101D060009AEE0D082D0832582F582E43583F5835F
:101D1600E0FD7C009009AFE0FF7E007401A8070893
:101D26008005C333CE33CED8F9FFEE5CFEEF5D4EB1
:101D360060149009A1E0FEA3E0FFA3E0FCA3E0FD90
:101D46009009A812342A9009A2E004F070069009BE
:101D5600A1E004F09009B7E0FEA3E0FFC39009A25A
:101D6600E09FFD9009A1E09EFC9009ACE07A00B5E9
:101D7600051CEAB504189009A1EEF0A3EFF090094E
:101D8600A4E004F070179009A3E004F0800F900916
:101D9600AFE004F0E0C394085003021C519009AD73
:101DA600E07012D2CBC2C77B017A0979B97D10FCEB
:101DB6001235B0D2C79009AEE004F0021C36900985
:0F1DC600B2E004F070069009B1E004F0021B8453
:011DD50022EB
:1015A5009009A3ECF0A3EDF0A3EBF0A3EAF0A3E917
:0915B500F09009A1EEF0A3EFF0A3
:1015BE00E49009B0F09009B7EEF0A3EFF09009AC0B
:1015CE00E0FF131313541FFD7C00EF54077E0060E1
:1015DE00047F0180027F00EF2DFFEE3CFE9009ACF0
:1015EE00E0FD7C00120ED59009B5EEF0A3EFF09061
:1015FE0009B3E4F0A37409F0E49009B1F0A3F090FC
:10160E0009B3E0FEA3E0FF9009B1E0FCA3E0FDC347
:10161E009FEC9E40030218609009A5E0FBA3E0FA40
:10162E00A3E0F9120E7DFF90020E75F022ED12105E
:10163E00D0EC75F022A42583F583E06F60030218C9
:10164E004F900001120E96FF9009B1A3E090020F89
:10165E0075F0221210D0EC75F022A42583F583E0EC
:10166E006F600302184F9009A3E0FCA3E0FD900900
:10167E00ACE0F9FF7E009009A1E0FAA3E02FFFEEA7
:10168E003ACF24FFFBEF34FFFAE9FFA3E0F8A3E023
:10169E002FFFEE38CF24FFCF34FF900B18F0A3EFBF
:1016AE00F09009A1E0FEA3E0FF1235F3E49009AE3D
:1016BE00F09009AEE0FFD39009B6E09F9009B5E037
:1016CE009400500302184FE49009AFF09009AFE078
:1016DE00FFC39408400302182E9009ADE060030288
:1016EE00177FA3E0FE9009B1E0FCA3E09002107515
:1016FE00F0221210D0EC75F022A42583F583E5823A
:10170E002EF582E43583F583E0FD7C007E007401C6
:10171E00A807088005C333CE33CED8F9FFEE5CFEA2
:10172E00EF5D4E60059009A880039009AAE0FCA326
:10173E00E0FDECFF9009AFE0FE25E024B9F582E470
:10174E003409F583EFF0EE25E024BAF582E434098E
:10175E00F583EDF09009B0E004F09009ACE0FF9055
:10176E0009B0E08FF084E5F06003021825F002184E
:10177E002E9009AEE0FF9009B1E0FCA3E0900210BC
:10178E0075F0221210D0EC75F022A42583F583E5B6
:10179E00822FF582E43583F583E0FD7C009009AF5E
:1017AE00E0FF7E007401A807088005C333CE33CE58
:1017BE00D8F9FFEE5CFEEF5D4E60149009A1E0FEDD
:1017CE00A3E0FFA3E0FCA3E0FD9009A812342A9049
:1017DE0009A2E004F070069009A1E004F09009B7A8
:1017EE00E0FEA3E0FFC39009A2E09FFD9009A1E0F7
:1017FE009EFC9009ACE07A00B5051CEAB504189081
:10180E0009A1EEF0A3EFF09009A4E004F07011909E
:10181E0009A3E004F080099009AFE004F00216DAA3
:10182E009009ADE07012D2CBC2C77B017A0979B9AB
:10183E007D10FC1235B0D2C79009AEE004F002164E
:10184E00BF9009B2E004F070069009B1E004F00216
:02185E00160D65
:011860002265
:101861009009A3ECF0A3EDF0A3EBF0A3EAF0A3E958
:09187100F09009A1EEF0A3EFF0E4
:10187A00E49009B0F09009B7EEF0A3EFF09009AC4C
:10188A00E0FF131313541FFD7C00EF54077E006022
:10189A00047F0180027F00EF2DFFEE3CFE9009AC31
:1018AA00E0FD7C00120ED59009B5EEF0A3EFF090A2
:1018BA0009B3E4F0A37405F0E49009B1F0A3F09041
:1018CA0009B3E0FEA3E0FF9009B1E0FCA3E0FDC389
:1018DA009FEC9E4003021B1C9009A5E0FBA3E0FAC3
:1018EA00A3E0F9120E7DFF90009C75F04AED1210EC
:1018FA00D0EC75F04AA42583F583E06F6003021BE0
:10190A000B900001120E96FF9009B1A3E090009D82
:10191A0075F04A1210D0EC75F04AA42583F583E0DD
:10192A006F6003021B0B9009A3E0FCA3E0FD900982
:10193A00ACE0F9FF7E009009A1E0FAA3E02FFFEEE8
:10194A003ACF24FFFBEF34FFFAE9FFA3E0F8A3E064
:10195A002FFFEE38CF24FFCF34FF900B18F0A3EF00
:10196A00F09009A1E0FEA3E0FF1235F3E49009AE7E
:10197A00F09009AEE0FFD39009B6E09F9009B5E078
:10198A0094005003021B0BE49009AFF09009AFE0FA
:10199A00FFC394084003021AEA9009ADE06003020B
:1019AA001A3BA3E0FE9009B1E0FCA3E090009E750B
:1019BA00F04A1210D0EC75F04AA42583F583E5822B
:1019CA002EF582E43583F583E0FD7C007E00740108
:1019DA00A807088005C333CE33CED8F9FFEE5CFEE4
:1019EA00EF5D4E60059009A880039009AAE0FCA368
:1019FA00E0FDECFF9009AFE0FE25E024B9F582E4B2
:101A0A003409F583EFF0EE25E024BAF582E43409CF
:101A1A00F583EDF09009B0E004F09009ACE0FF9096
:101A2A0009B0E08FF084E5F06003021AE1F0021ACF
:101A3A00EA9009AEE0FF9009B1E0FCA3E090009EB5
:101A4A0075F04A1210D0EC75F04AA42583F583E5A7
:101A5A00822FF582E43583F583E0FD7C009009AF9F
:101A6A00E0FF7E007401A807088005C333CE33CE99
:101A7A00D8F9FFEE5CFEEF5D4E60149009A1E0FE1E
:101A8A00A3E0FFA3E0FCA3E0FD9009A812342A908A
:101A9A0009A2E004F070069009A1E004F09009B7E9
:101AAA00E0FEA3E0FFC39009A2E09FFD9009A1E038
:101ABA009EFC9009ACE07A00B5051CEAB5041890C2
:101ACA0009A1EEF0A3EFF09009A4E004F0701190E0
:101ADA0009A3E004F080099009AFE004F002199626
:101AEA009009ADE07012D2CBC2C77B017A0979B9ED
:101AFA007D10FC1235B0D2C79009AEE004F002198D
:101B0A007B9009B2E004F070069009B1E004F0029B
:021B1A0018C9E8
:011B1C0022A6
:101DD6009009A3ECF0A3EDF0A3EBF0A3EAF0A3E9DE
:091DE600F09009A1EEF0A3EFF06A
:101DEF00E49009B0F09009B7EEF0A3EFF09009ACD2
:101DFF00E0FF131313541FFD7C00EF54077E0060A8
:101E0F00047F0180027F00EF2DFFEE3CFE9009ACB6
:101E1F00E0FD7C00120ED59009B5EEF0A3EFF09027
:101E2F0009B3E4F0A304F0E49009B1F0A3F0900932
:101E3F00B3E0FEA3E0FF9009B1E0FCA3E0FDC39F78
:101E4F00EC9E400302208E9009A5E0FBA3E0FAA3CD
:101E5F00E0F9120E7DFF90001A75F082ED1210D08E
:101E6F00EC75F082A42583F583E06F600302207D7B
:101E7F00900001120E96FF9009B1A3E090001B7520
:101E8F00F0821210D0EC75F082A42583F583E06FF9
:101E9F00600302207D9009A3E0FCA3E0FD9009AC54
:101EAF00E0F9FF7E009009A1E0FAA3E02FFFEE3AE0
:101EBF00CF24FFFBEF34FFFAE9FFA3E0F8A3E02FF5
:101ECF00FFEE38CF24FFCF34FF900B18F0A3EFF0C5
:101EDF009009A1E0FEA3E0FF1235F3E49009AEF004
:101EEF009009AEE0FFD39009B6E09F9009B5E0945A
:101EFF0000500302207DE49009AFF09009ADE0603F
:101F0F0003021FA89009B1A3E075F082A4241CF569
:101F1F0082E43400F583C083C0829009AEE0D082A2
:101F2F00D0832582F582E43583F583E0FD7C009034
:101F3F0009AFE0FF7E007401A807088005C333CE08
:101F4F0033CED8F9FFEE5CFEEF5D4E60059009A829
:101F5F0080039009AAE0FCA3E0FDECFF9009AFE03D
:101F6F00FE25E024B9F582E43409F583EFF0EE2580
:101F7F00E024BAF582E43409F583EDF09009B0E07E
:101F8F0004F09009ACE0FF9009B0E08FF084E5F029
:101F9F00600302204DF002205C9009B1A3E075F0C0
:101FAF0082A4241CF582E43400F583C083C08290A0
:101FBF0009AEE0D082D0832582F582E43583F583A4
:101FCF00E0FD7C009009AFE0FF7E007401A80708D8
:101FDF008005C333CE33CED8F9FFEE5CFEEF5D4EF6
:101FEF0060149009A1E0FEA3E0FFA3E0FCA3E0FDD5
:101FFF009009A812342A9009A2E004F07006900903
:10200F00A1E004F09009B7E0FEA3E0FFC39009A29E
:10201F00E09FFD9009A1E09EFC9009ACE07A00B52D
:10202F00051CEAB504189009A1EEF0A3EFF0900992
:10203F00A4E004F070179009A3E004F0800F90095A
:10204F00AFE004F0E0C394085003021F0A9009ADFB
:10205F00E07012D2CBC2C77B017A0979B97D10FC2F
:10206F001235B0D2C79009AEE004F0021EEF90090E
:0F207F00B2E004F070069009B1E004F0021E3DDB
:01208E00222F
:10208F009009A3ECF0A3EDF0A3EBF09009A1EEF013
:03209F00A3EFF0BC
:1020A200E49009AFF09009B4EEF0A3EFF09009AA22
:1020B200E0F9C3139009ADF0E0FF131313541FFDB1
:1020C2007C00EF54077E0060047F0180027F00EFF6
:1020D2002DFFEE3CFEE9FD7C00120ED59009B2EE1A
:1020E200F0A3EFF09009A5E024E0F09009A3E0FC52
:1020F200A3E0FD9009ADE0FF7E009009A1E0FAA304
:10210200E02FFFEE3ACF24FFFBEF34FFFAE9FFA303
:10211200E0F8A3E02FFFEE38CF24FFCF34FF900B7F
:1021220018F0A3EFF09009A1E0FEA3E0FF1235F34F
:10213200E49009B0F0A3F09009B2E0FEA3E0FF90B2
:1021420009B0E0FCA3E0FDC39FEC9E40030223061E
:102152009009AAE0641060030223069009A5E075C5
:10216200F010A42440F582E5F03403F583E5822DD6
:10217200F582E5833CF583E09009ACF0E49009AE8A
:10218200F09009AEE0FFC3940840030222D5900903
:10219200ABE060030222519009ADE054077064FE87
:1021A20004A807088005C333CE33CED8F9FF9009BF
:1021B200ACE0FDEF5D60059009A680039009A8E000
:1021C200FCA3E0FDECFF9009AEE0FE25E024B6F5AD
:1021D20082E43409F583EFF0EE25E024B7F582E4DA
:1021E2003409F583EDF09009AFE004F09009ADE019
:1021F200FF9009AFE08FF084E5F060030222CCF09B
:102202000222D59009AEE0FF7E007401A807088083
:1022120005C333CE33CED8F9FF9009ACE0FDEF5DB4
:1022220060059009A680039009A8E0FEA3E0FF12D2
:1022320036619009AFE004F09009ADE0FF9009AF7C
:10224200E08FF084E5F060030222CCF00222D59008
:1022520009AEE0FF7E007401A807088005C333CEF3
:1022620033CED8F9FF9009ACE0FDEF5D6014900920
:10227200A1E0FEA3E0FFA3E0FCA3E0FD9009A6120B
:10228200342A9009A2E004F070069009A1E004F05B
:102292009009B4E0FEA3E0FFC39009A2E09FFD9085
:1022A20009A1E09EFC9009ADE07A00B5051CEAB5F3
:1022B20004189009A1EEF0A3EFF09009A4E004F055
:1022C20070119009A3E004F080099009AEE004F0D7
:1022D2000221839009ADE0540770189009ABE070B9
:1022E20012D2CBC2C77B017A0979B67D10FC1235B6
:1022F200B0D2C79009B1E004F070069009B0E004D2
:04230200F00221398B
:0123060022B4
:10321D00900994EEF0A3EFF0A3ECF0A3EDF0A3EB87
:10322D00F0A3EAF0A3E9F0900998E0FBA3E0FAA37C
:10323D00E0F9120E7DFB6061900996E0FCA3E0FDC4
:10324D0090099BE0FFA3E09009A6CFF0A3EFF090CB
:10325D00099DE0FFA3E09009A8CFF0A3EFF090093E
:10326D009FE09009AAF09009A0E09009ABF09009B9
:10327D0094E0FEA3E0FF12208F90099FE0C313FF9F
:10328D00900995E02FF0900994E03400F0900999A1
:0A329D00E475F001120F3C808E2250
:0734CE00C3EF9E14FD7F0A0D
:0834D500900BB3EFF0A3EDF042
:1034DD00A312109F00000001900BB4E0FF14F0EF59
:1034ED006020A3E0F8A3E0F9A3E0FAA3E0FB900BC2
:1034FD00B3E0FFE4FCFDFE120F68900BB5121093C4
:10350D0080D6900BB5E0FCA3E0FDA3E0FEA3E0FFA9
:01351D00228B
:102BFF00900B7BEEF0A3EFF0A3ECF0A3EDF0A3EAC4
:042C0F00F0A3EBF053
:102C1300E4900B89F0900B86E0C313900B8AF0E4E9
:102C2300900B87F0900B81E0FF900B87E0FEC39F32
:102C33004003022D2A1234CEA804A905AA06AB0725
:102C4300900B7FE0FEA3E0FFE4FCFD120FF3E47BB7
:102C53000AFAF9F8120FF3900B88EBF0A3E0706512
:102C6300900B81E014FF900B87E0FEC39F5056A3A7
:102C7300E0704C900B8AE0FFEE8FF0A4FF900B7C8A
:102C8300E02FFF900B7BE035F0FE900B7DE0FCA383
:102C9300E0FD900B82E0FBA3E09009A6CBF0A3EB51
:102CA300F0900B84E0FBA3E09009A8CBF0A3EBF03A
:102CB300900B86E09009AAF0E4A3F07B20805C905F
:102CC3000B897401F0900B8AE0FF900B87E08FF083
:102CD300A4FF900B7CE02FFF900B7BE035F0FEC050
:102CE30007900B7DE0FCA3E0FD900B88E02430FB14
:102CF300900B82E0FFA3E09009A6CFF0A3EFF09042
:102D03000B84E0FFA3E09009A8CFF0A3EFF0900BB2
:102D130086E09009AAF0E4A3F0D00712208F900B6D
:072D230087E004F0022C27F9
:012D2A002286
:0E296E00900B55EEF0A3EFF0A3ECF0A3EDF00C
:10297C00900B62E0C313900B65F0E4FFFE7DC87C06
:10298C0042900B59E0F8A3E0F9A3E0FAA3E0FB12A4
:10299C0009AC120AB2900B66EEF0A3EFF0E4900BC8
:1029AC0063F0900B5DE0FF900B63E0FEC39F400370
:1029BC00022AB71234CEA804A905AA06AB07900BBD
:1029CC0066E0FEA3E0FFE4FCFD120FF3E47B0AFAE1
:1029DC00F9F8120FF3900B64EBF0900B5DE0FF2411
:1029EC00FEFE900B63E06E7060EF24FEFFE434FF9C
:1029FC00FE900B65E0FD7C00120ED5900B56E02F7F
:102A0C00FF900B55E03EFE900B57E0FCA3E0FD90D1
:102A1C000B5EE0FBA3E09009A6CBF0A3EBF0900BD0
:102A2C0060E0FBA3E09009A8CBF0A3EBF0900B6265
:102A3C00E09009AAF0E4A3F07B2E12208F900B6398
:102A4C00E004F0900B5DE004F0900B65E0FF900B60
:102A5C0063E08FF0A4FF900B56E02FFF900B55E036
:102A6C0035F0FEC007900B57E0FCA3E0FD900B6423
:102A7C00E02430FB900B5EE0FFA3E09009A6CFF0C2
:102A8C00A3EFF0900B60E0FFA3E09009A8CFF0A3B8
:102A9C00EFF0900B62E09009AAF0E4A3F0D00712DB
:0B2AAC00208F900B63E004F00229AEC5
:012AB70022FC
:10282000900B68EEF0A3EFF0A3ECF0A3EDF0A3EAB9
:04283000F0A3EBF036
:10283400900B7712109F00000000900B6AE0FCA33D
:10284400E0FDA3E0FEA3E0FF900B68E0FAA3E02F15
:10285400FFEA3ECF24FFFBEF34FFFA900B6EE0FE5D
:10286400A3E0FF900B6AE0F8A3E02FFFE83ECF243B
:10287400FFCF34FF900B18F0A3EFF0900B68E0FE4D
:10288400A3E0FF1235F3E4900B73F0A3F0900B6C0C
:10289400E0FEA3E0FFC3900B74E09F900B73E09EF7
:1028A400400302296DE4900B75F0A3F0900B6EE0E9
:1028B400FEA3E0FFC3900B76E09F900B75E09E4073
:1028C40003022959E47F02FEFDFC900B77E0F8A394
:1028D400E0F9A3E0FAA3E0FB120F68900B70E0FBB1
:1028E400A3E0FAA3E0F98F828E83120E96FF1237CB
:1028F4001CE47F02FEFDFC900B77E0F8A3E0F9A353
:10290400E0FAA3E0FB120F68EF2401FFE43EFE901F
:102914000B70E0FBA3E0FAA3E0F98F828E83120E22
:1029240096FF12371C900B77E0FCA3E0FDA3E0FEBA
:10293400A3E02401FFE43EFEE43DFDE43CFC900BF7
:1029440077121093900B76E004F07006900B75E00C
:1029540004F00228B0900B74E004F06003022891A4
:09296400900B73E004F0022891CD
:01296D002247
:102E4A00900986EEF0A3EFF0A3ECF0A3EDF0A3EB6C
:072E5A00F0A3EAF0A3E9F088
:102E6100E4900993F090098AE0FBA3E0FAA3E0F96A
:102E7100900993E0F582758300120E967003022F7C
:102E81005BC39480900988E0FCA3E0FD505C90094D
:102E910093E0FF7E00E92FF9EE3AFA90098DE0FF09
:102EA100A3E090099BCFF0A3EFF090098FE0FFA37F
:102EB100E090099DCFF0A3EFF0900991E090099F78
:102EC100F0900992E09009A0F0900986E0FEA3E05D
:102ED100FF12321D900991E0C313FF900987E02F83
:102EE100F0900986E03400F08067A3E0FBA3E0FAEC
:102EF100A3E0F9900993E0FF7E00E92FF9EE3AFA99
:102F010090098DE0FFA3E090099BCFF0A3EFF09033
:102F1100098FE0FFA3E090099DCFF0A3EFF09009A6
:102F210091E090099FF0900992E09009A0F090093A
:102F310086E0FEA3E0FF122695900991E0FF90093B
:102F410087E02FF0900986E03400F0900993E004C7
:0A2F5100F0900993E004F0022E66F0
:012F5B002253
:1030EE00900930EEF0A3EFF0A3ECF0A3EDF0A3EA1D
:0430FE00F0A3EBF060
:103102009009837401F0A37409F0A3743DF090094F
:103112003AE0F9A3E0FAA3E0900986C9F0A3EAF045
:10312200A3E9F0900983E0F9A3E0FAA3E09009890A
:10313200C9F0A3EAF0A3E9F07B017A0979651235B7
:103142001E900983E4F0A3F0A3F0900932E0FCA3FF
:10315200E0FD7B017A097965A3E0FFA3E090098D88
:10316200CFF0A3EFF0900936E0FFA3E090098FCFF4
:10317200F0A3EFF0900938E0900991F0900939E05E
:0F318200900992F0900930E0FEA3E0FF022E4A80
:0436AB007F017E001D
:1036AF00EF1F70011E144E601100000075080B759E
:0A36BF0009BED509FDD508FA80E622
:0136C90022DE
:08000300C2C71236E1D2C72288
:0A371C00D2CBC2C71236E1D2C72299
:05365C00E0FEA3E0FF09
:04366100AD07AC06FF
:10366500EC900B1AF0A3EFF0D2CBC2C7900B1AE087
:0E367500FF1236E1900B1BE0FF1236E1D2C7C8
:013683002224
:08372F00C2CB120003D2CB2231
:1035F300900B12EEF0A3EFF0A3ECF0A3EDF0A3EA2F
:10360300F0A3EBF07F2A12372F900B1212365C9047
:103613000B1612365C7F2B12372F900B1412365C6D
:0C362300900B1812365C7F2C12372F22FF
:102AB800C2C01236ABD2C01236ABD2C81236AB7F08
:102AC8001112372F7F0C7E001236AF7F3612372F48
:102AD800E4FF12371C7F3A12372F7F0512371C7F0D
:102AE800B212372F7F0C12371C7F0C12371CE4FFF1
:102AF80012371C7F3312371C7F3312371C7FB712F3
:102B0800372F7F3512371C7FBB12372F7F191237AB
:102B18001C7FC012372F7F2C12371C7FC212372F11
:102B28007F0112371C7FC312372F7F1212371C7F89
:102B3800C412372F7F2012371C7FC612372F7F0F02
:102B480012371C7FD012372F7FA412371C7FA11297
:102B5800371C7FE012372F7FD012371C7F041237C3
:102B68001C7F0D12371C7F1112371C7F1312371C64
:102B78007F2B12371C7F3F12371C7F5412371C7F64
:102B88004C12371C7F1812371C7F0D12371C7F0B15
:102B980012371C7F1F12371C7F2312371C7FE1124C
:102BA800372F7FD012371C7F0412371C7F0C123747
:102BB8001C7F1112371C7F1312371C7F2C12371CF5
:102BC8007F3F12371C7F4412371C7F5112371C7FFE
:102BD8002F12371C7F1F12371C7F1F12371C7F20B4
:102BE80012371C7F2312371C7F2112372F7F1112B7
:072BF800372F7F2902372F60
:0909A200410B1C00420B1D00007A
:030043000235681B
:10356800C0E0C083C082C0D0E59A30E028539AFEFC
:10357800900B51E0241FF582E4340BF583E59BF0B2
:10358800900B51E004F0E0B40106900B537401F085
:10359800900B52E4F0E59A30E105539AFDC209D048
:0835A800D0D082D083D0E032C4
:03000B000234714B
:10347100C0E0C083C082C0D0900B1EE004F0700693
:10348100900B1DE004F0C3900B1EE094D0900B1D37
:10349100E094074009E4F0A3F0900B1C04F0900BBA
:1034A10053E0B40106900B52E004F0900B52E0C3DC
:1034B100940A4010A3E4F0900B52F0900B51F0905D
:0D34C1000B5404F0D0D0D082D083D0E03284
:093726002009FDEFD209F59B22F8
:10000E00900BB9EBF0A3EAF0A3E9F0900BB9E0FB8B
:10001E00A3E0FAA3E0F9120E7D6017900BB9A3E4EA
:10002E0075F001120F52A9F0FA120E7DFF1237264B
:03003E0080D92244
:0B362F00900930EBF0A3EAF0A3E9F0F3
:10363A00E4FEEEC39D501A900930E0FBA3E0FAA322
:10364A00E0F98E82758300120E96FF1237260E80DD
:01365A00E18E
:01365B00224C
:1036F70053BAFE759A5075D7E075D6FE438E14758A
:05370700AF01D2AF226A
:10370C00438E80758ACD758CD4D28CD2A9D2AF223F
:1009AC00EC4D6011E8497017ED33EC3304600DE445
:1009BC00FCFFFEFD22E933E8330470F8020B1E1233
:1009CC000AE958046009E4CC248150062850090235
:1009DC000B28284003020B25C0E0EB4A7044B98079
:1009EC0006D0E0FB020B14EF4E701CBD8008EBFF31
:1009FC00EAFEE9FD80EBE98DF0A4FEE5F0020A9534
:100A0C00E9CDF9EAFEEBFFEF89F0A4FCE5F0CE8925
:100A1C00F0A42EFFE435F0CD89F0A42DFEE435F0E2
:100A2C008067EF4E7005BD80D780C3EF8BF0A4AC10
:100A3C00F0EE8BF0A42CFCE435F0F8EF8AF0A42C4B
:100A4C00E5F038FCE433CB8DF0A42CFCE5F03BF85E
:100A5C00EE8AF0A42CFCE5F038F8E433CF89F0A44E
:100A6C002CFCE5F038CF3400CE89F0A42FFFE5F054
:100A7C003EFEE433C98DF0A42EFEE5F039CD8AF0AC
:100A8C00A42FFFE5F03EFEE43DFD33D0E0FB500724
:100A9C000BBB000F020B28EC2CFCEF33FFEE33FEEC
:060AAC00ED33FD020B001A
:100AB200EDD2E7CD33EC3392D524814006E4FFFE3C
:100AC200FDFC22FCE4CFCECDCC24E0501174FF809B
:100AD200EDC3CC13CCCD13CDCE13CECF13CF047038
:070AE200F030D5DE021085A3
:10351E00900986E0FFA3E0FEA3E0CF90098FF0A311
:10352E00EEF0A3EFF0900989E0CBF0A3E0CAF0A390
:10353E00E0C9F07F22900992AD82AC83120E7D8D90
:10354E00828C83F0A309E970010ADFEC900989E00F
:0A355E00FBA3E0FAA3E0F9021187D5
:100AE900E9D2E7C933E833F892D5EDD2E7CD33EC53
:070AF90033FC5002B2D522CC
:100B0000EC30E7100FBF000C0EBE00080DBD000456
:100B10000BEB6014A2D5EB13FCED92E7FD2274FF02
:100B2000FCFDFEFF22E480F8A2D574FF13FC7D805B
:030B3000E480EF6F
:10112200E508248FF582E43409F583E0050822906E
:10113200098C30070390098FE475F0011210DC026C
:101142000E7D2000E97F2ED2008018EF540F2490EC
:10115200D43440D4FF30040BEF24BFB41A00500340
:101162002461FFE50960021509050CE50C70020512
:101172000B30070E90098CE475F0011210DCEF02BF
:101182000EC30236847403D2078003E4C207F50853
:1011920090098C1210F3E4F509F50BF50CE50960E2
:1011A200077F2012116580F5750AFFC201C200C2D5
:1011B20002C203C205C206C208121131FF700D300D
:1011C20007057F00121176AF0CAE0B22B4255FC269
:1011D200D5C204121131FF24D0B40A00501A75F09E
:1011E2000A780930D50508B6FF0106C6A426F620FE
:1011F200D5047002D20380D924CFB41A00EF500470
:10120200C2E5D204021468D20180C6D20080C0D2E4
:101212000280BCD2D580BAD20580B47F201211657B
:101222002002077401B5090040F1121122FF1211C8
:101232006502119FD208D2068095121122FB12116B
:1012420022FA121122F94A4B700679667A157BFF4F
:1012520020022EE509602A7E008E82758300120E1E
:101262009660060EEE650A70F0C2D5EBC0E0EAC0E9
:10127200E0E9C0E0EE1214C9D0E0F9D0E0FAD0E023
:10128200FB120E7DFF60AAEBC0E0EAC0E0E9C0E01D
:10129200121165D0E02401F9D0E03400FAD0E0FB6D
:1012A200E50A0460DCD50AD98087D20280A2121432
:1012B200AB60F7E50A700104120B33A90A600DE571
:1012C2000A600914F50A121553EF60F3EA30E702D7
:1012D200F404C3995079EAF4250A0430E701E404DE
:1012E200F50A800D1214AB60C1EA050A250A120B39
:1012F20033EA9009BBF030E701E4250A04D50A0479
:10130200200501141214C9E4C0E01215539009BB60
:10131200E0601320E70714F012114D802204F0D090
:10132200E014C0E07F0012114DE50A60071211447B
:10133200150A800B300503121144D0E002119FD030
:10134200E00480C41214AB609EE50A04120B3390D1
:1013520009BBEAF0E50A2005026001042404121424
:01136200C9C1
:1013630074FF04C0E012155312114DE50A20050263
:101373006003121144D0E0B50AE87F45121157907B
:1013830009BBE07F2B30E7047F2DF404C0E012118A
:1013930065D0E075F00A84C0F012114ED0E012114E
:1013A3004E02119F791080027908C206C208800894
:1013B300D2D5790A8004790AC2D5E50A047002F508
:1013C3000AE4FAFDFEFF121122FC7B08200113122E
:1013D3001122FD7B1030000A121122FE121122FF8E
:1013E3007B20EC3382D592D55013C3E43000069FA3
:1013F300FFE49EFEE42001039DFDE49CFCE4CBF8A6
:10140300C201EC700CCFCECDCCE824F8F870F38099
:1014130017C3EF33FFEE33FEED33FDEC33FCEB3359
:10142300FB994002FB0FD8E9EB300105F8D0E0C48B
:1014330048B201C0E00AEC4D4E4F78207B0070C2E9
:10144300EAB50A0040BCC0E01214CBD0F0D0E020D3
:101453000104C4C0E0C4B201C0F012114ED0F0D5F3
:10146300F0EB02119F1210FC123C5313A758120DFC
:101473004C12094213AB4F13B34413B34912224323
:1014830013B95512E64613464512B0471586501256
:10149300112D12152E12382B121923123620156F07
:1014A3002A11D14800001230E50AB4FF03750A0679
:1014B300121122FC121122FD121122FE121122FF1F
:1014C3009009B4020B70790AA2D5200314300509E0
:1014D300B910020404B9080104A2D5200602500180
:1014E300042002689202B509005034C0E07F203026
:1014F30003197F30A20272067205500F121522C221
:1015030002C206C205C2087F30800F300503E9C05E
:10151300E0121165300503D0E0F9D0E0B509CC3015
:1015230005177F30B9100C1211657F583004077FFF
:10153300788003B908031211653002057F2D02116B
:10154300657F202008F87F2B2006F322920280CFAC
:101553007F00B40700500B24B4F582E43409F5830B
:10156300E0FF22286E756C6C2900D2011211223023
:1015730001F8C201780930D50108F60211D12D50C6
:101583004349581211222403B405004001E4901585
:101593008193121156743A121156D203750904023B
:0215A30013A78C
:100B3300F920E73624F950037907E4F42402FBE5AE
:100B430082158270021583DBF6E024FB501BE960FB
:100B530014E4F0E582158270021583E004F0B40A10
:0D0B630008E4F0D9EE7401F00A22C2D52298
:100B7000ED33EC3392D5FA602AB4FF33EDC2E77B54
:100B8000FF60067A0B7995E4227A0B799E20D504D2
:100B90007A0B7999224E614E002B494E46002D4921
:100BA0004E4600E47A08F0A3DAFC7B00740722C00A
:100BB00083C082ECC0E0EDC0E0EEC0E0EFC0E0EA50
:100BC00075F010A4CAABF075F04DA42BFBE435F022
:100BD000FCEA2410FAEB34C5FBEC34D9FCEDC2E797
:100BE000FF75F056A4F42411C5F0F434C58FF0A4B9
:100BF0002AE5F03BE43CF020E714120E3DD0E0FF84
:100C0000D0E0FED0E0FDD0E0FC120D708014F404C2
:100C1000120E3DD0E0FFD0E0FED0E0FDD0E0FC12AF
:100C200009ACD082D083E0FAEDD2E7CD33EC3324A7
:100C300082FBE4C3CF33CFCE33CECD33CD33DBF322
:100C40007B0775F00A846004F0A31B0AE5F0F0A3AB
:100C50008FF0740AA4FFACF08EF0740AA42CFEACE2
:100C6000F050010C8DF0740AA42CFDE435F0F0A3D3
:050C7000DBDE74072229
:100C7500020B1EE86480F8E933E83360110460F084
:100C8500ED33EC337009E8FCE9FDEAFEEBFF2204E5
:100C950060DED3EB9FEA9EE99DE8C2E78CF0C2F7E0
:100CA50095F0400CE8CCF8E9CDF9EACEFAEBCFFBAC
:100CB500120AE985D0F05804700320D5B3E8047012
:100CC500075002B2D5020B2892D5EC0460F7E4CCAC
:100CD500C0E0C398F8603B94186008400DD0E0FB75
:100CE500020B00E4FBFAC9FC8028E830E406E4C9FD
:100CF500FBE4CAFCE830E305E4C9CACBFCE85407C9
:100D05006010F8C3E913F9EA13FAEB13FBEC13FCD3
:100D1500D8F130F52FC3E49CFCEF9BFFEE9AFEED76
:100D250099FDD0E0FBEF4E4D4C701222DB03020B18
:100D350025EC2CFCEF33FFEE33FEED33FDED30E714
:100D4500EB020B00EF2BFFEE3AFEED39FDD0E0FB99
:100D550050130BBB0003020B28ED13FDEE13FEEF42
:080D650013FFEC13FC020B006C
:100D6D00020B28EC5D046005E859047003020B1EAC
:100D7D00120AE9580460F6EC4860F2EC7004FDFECE
:100D8D00FF22C860DB2481C85009C3986002500659
:100D9D00020B259850CAF582E9294B4A7005AB82A2
:100DAD00020B1475F0007C1A7880C3EF9BEE9AED60
:100DBD0099400DC3EF9BFFEE9AFEED99FDE842F0D1
:100DCD00DC23ACF0D0E0FFD0E0FED0E0FDAB822024
:100DDD00E7101BEB60BAEC2CFCEF33FFEE33FEEDAE
:100DED0033FD020B00E803F830E705C0F075F000A5
:100DFD00EF2FFFEE33FEED33FD40B830E7C280AA92
:100E0D003F8000004120000042C80000447A0000ED
:100E1D00461C400047C35000497424004B1896806F
:100E2D004CBEBC205A0E1BCA6753C21C749DC5AE66
:100E3D00FB60065407601C2323120E6BEB543860C5
:100E4D0009120E57120E661209ACECF8EDF9EEFA16
:100E5D00EFCB22EB120E6680F1543803241C900E5A
:100E6D000DFE93FC0EEE93FD0EEE930ECE93FF2230
:0300000002319139
:0C319100787FE4F6D8FD7581210231D86A
:100E7D00BB010689828A83E0225002E722BBFE0273
:090E8D00E32289828A83E49322A6
:100E9600BB010CE58229F582E5833AF583E0225011
:100EA60006E92582F8E622BBFE06E92582F8E2225B
:0D0EB600E58229F582E5833AF583E4932275
:100EC300BB010689828A83F0225002F722BBFE010E
:020ED300F32208
:100ED500EF8DF0A4A8F0CF8CF0A428CE8DF0A42E31
:020EE500FE22EB
:100EE700BC000BBE0029EF8DF084FFADF022E4CCEF
:100EF700F875F008EF2FFFEE33FEEC33FCEE9DECB8
:100F0700984005FCEE9DFE0FD5F0E9E4CEFD22EDFD
:100F1700F8F5F0EE8420D21CFEADF075F008EF2F47
:100F2700FFED33FD4007985006D5F0F222C398FD38
:050F37000FD5F0EA22D5
:100F3C00C5F0F8A3E028F0C5F0F8E5821582700240
:060F4C001583E038F022DD
:100F5200A3F8E0C5F025F0F0E58215827002158352
:060F6200E0C838F0E822AF
:100F6800E88FF0A4CC8BF0A42CFCE98EF0A42CFC28
:100F78008AF0EDA42CFCEA8EF0A4CDA8F08BF0A4A6
:100F88002DCC3825F0FDE98FF0A42CCD35F0FCEB05
:100F98008EF0A4FEA9F0EB8FF0A4CFC5F02ECD39CA
:0F0FA800FEE43CFCEAA42DCE35F0FDE43CFC2237
:100FB70075F008758200EF2FFFEE33FECD33CDCCF1
:100FC70033CCC58233C5829BED9AEC99E582984074
:100FD7000CF582EE9BFEED9AFDEC99FC0FD5F0D651
:100FE700E4CEFBE4CDFAE4CCF9A88222B800C1B97B
:100FF7000059BA002DEC8BF084CFCECDFCE5F0CBB9
:10100700F97818EF2FFFEE33FEED33FDEC33FCEBF1
:1010170033FB10D703994004EB99FB0FD8E5E4F9AC
:10102700FA227818EF2FFFEE33FEED33FDEC33FC99
:10103700C933C910D7059BE99A4007EC9BFCE99A8D
:10104700F90FD8E0E4C9FAE4CCFB2275F010EF2FD2
:10105700FFEE33FEED33FDCC33CCC833C810D707D2
:101067009BEC9AE899400AED9BFDEC9AFCE899F80D
:0E1077000FD5F0DAE4CDFBE4CCFAE4C8F922A0
:0E108500C3E49FFFE49EFEE49DFDE49CFC227C
:0C109300ECF0A3EDF0A3EEF0A3EFF022D0
:10109F00A8828583F0D083D0821210B61210B612B8
:1010AF0010B61210B6E473E493A3C583C5F0C583DD
:1010BF00C8C582C8F0A3C583C5F0C583C8C582C89B
:0110CF0022FE
:0C10D000A42582F582E5F03583F583222B
:1010DC00F8E0FBA3A3E0F925F0F0E582158270029D
:0710EC001583E0FA38F02241
:0910F300EBF0A3EAF0A3E9F022FE
:1010FC00D083D082F8E4937012740193700DA3A383
:10110C0093F8740193F5828883E473740293686096
:06111C00EFA3A3A380DF96
:10368400EFB40A07740D12368F740A309811A89992
:10369400B8130CC2983098FDA899C298B811F630A6
:0736A40099FDC299F599227E
:10319D00023326E493A3F8E493A34003F68001F2EF
:1031AD0008DFF48029E493A3F85407240CC8C33333
:1031BD00C4540F4420C8834004F456800146F6DF02
:1031CD00E4800B0102040810204080900046E47E4C
:1031DD00019360BCA3FF543F30E509541FFEE493F7
:1031ED00A360010ECF54C025E060A840B8E493A3BE
:1031FD00FAE493A3F8E493A3C8C582C8CAC583CAE9
:10320D00F0A3C8C582C8CAC583CADFE9DEE780BEA0
:0109AB00004B
:00000001FF
